{
  "_format": "hh-sol-artifact-1",
  "contractName": "GreenToken",
  "sourceName": "Contracts/GreenToken.sol",
  "abi": [
    {
      "inputs": [
        {
          "internalType": "string",
          "name": "name",
          "type": "string"
        },
        {
          "internalType": "string",
          "name": "symbol",
          "type": "string"
        },
        {
          "internalType": "address",
          "name": "_committee",
          "type": "address"
        }
      ],
      "stateMutability": "nonpayable",
      "type": "constructor"
    },
    {
      "inputs": [
        {
          "internalType": "address",
          "name": "spender",
          "type": "address"
        },
        {
          "internalType": "uint256",
          "name": "allowance",
          "type": "uint256"
        },
        {
          "internalType": "uint256",
          "name": "needed",
          "type": "uint256"
        }
      ],
      "name": "ERC20InsufficientAllowance",
      "type": "error"
    },
    {
      "inputs": [
        {
          "internalType": "address",
          "name": "sender",
          "type": "address"
        },
        {
          "internalType": "uint256",
          "name": "balance",
          "type": "uint256"
        },
        {
          "internalType": "uint256",
          "name": "needed",
          "type": "uint256"
        }
      ],
      "name": "ERC20InsufficientBalance",
      "type": "error"
    },
    {
      "inputs": [
        {
          "internalType": "address",
          "name": "approver",
          "type": "address"
        }
      ],
      "name": "ERC20InvalidApprover",
      "type": "error"
    },
    {
      "inputs": [
        {
          "internalType": "address",
          "name": "receiver",
          "type": "address"
        }
      ],
      "name": "ERC20InvalidReceiver",
      "type": "error"
    },
    {
      "inputs": [
        {
          "internalType": "address",
          "name": "sender",
          "type": "address"
        }
      ],
      "name": "ERC20InvalidSender",
      "type": "error"
    },
    {
      "inputs": [
        {
          "internalType": "address",
          "name": "spender",
          "type": "address"
        }
      ],
      "name": "ERC20InvalidSpender",
      "type": "error"
    },
    {
      "anonymous": false,
      "inputs": [
        {
          "indexed": true,
          "internalType": "address",
          "name": "owner",
          "type": "address"
        },
        {
          "indexed": true,
          "internalType": "address",
          "name": "spender",
          "type": "address"
        },
        {
          "indexed": false,
          "internalType": "uint256",
          "name": "value",
          "type": "uint256"
        }
      ],
      "name": "Approval",
      "type": "event"
    },
    {
      "anonymous": false,
      "inputs": [
        {
          "indexed": true,
          "internalType": "address",
          "name": "to",
          "type": "address"
        },
        {
          "indexed": false,
          "internalType": "uint256",
          "name": "amount",
          "type": "uint256"
        },
        {
          "indexed": false,
          "internalType": "uint256",
          "name": "newTotal",
          "type": "uint256"
        }
      ],
      "name": "Minted",
      "type": "event"
    },
    {
      "anonymous": false,
      "inputs": [
        {
          "indexed": true,
          "internalType": "address",
          "name": "newMinter",
          "type": "address"
        }
      ],
      "name": "MinterUpdated",
      "type": "event"
    },
    {
      "anonymous": false,
      "inputs": [
        {
          "indexed": true,
          "internalType": "address",
          "name": "user",
          "type": "address"
        },
        {
          "indexed": false,
          "internalType": "uint256",
          "name": "requestedAmount",
          "type": "uint256"
        },
        {
          "indexed": false,
          "internalType": "uint256",
          "name": "actualAmount",
          "type": "uint256"
        }
      ],
      "name": "Slashed",
      "type": "event"
    },
    {
      "anonymous": false,
      "inputs": [
        {
          "indexed": true,
          "internalType": "address",
          "name": "from",
          "type": "address"
        },
        {
          "indexed": true,
          "internalType": "address",
          "name": "to",
          "type": "address"
        },
        {
          "indexed": false,
          "internalType": "uint256",
          "name": "value",
          "type": "uint256"
        }
      ],
      "name": "Transfer",
      "type": "event"
    },
    {
      "inputs": [
        {
          "internalType": "address",
          "name": "owner",
          "type": "address"
        },
        {
          "internalType": "address",
          "name": "spender",
          "type": "address"
        }
      ],
      "name": "allowance",
      "outputs": [
        {
          "internalType": "uint256",
          "name": "",
          "type": "uint256"
        }
      ],
      "stateMutability": "view",
      "type": "function"
    },
    {
      "inputs": [
        {
          "internalType": "address",
          "name": "spender",
          "type": "address"
        },
        {
          "internalType": "uint256",
          "name": "value",
          "type": "uint256"
        }
      ],
      "name": "approve",
      "outputs": [
        {
          "internalType": "bool",
          "name": "",
          "type": "bool"
        }
      ],
      "stateMutability": "nonpayable",
      "type": "function"
    },
    {
      "inputs": [
        {
          "internalType": "address",
          "name": "account",
          "type": "address"
        }
      ],
      "name": "balanceOf",
      "outputs": [
        {
          "internalType": "uint256",
          "name": "",
          "type": "uint256"
        }
      ],
      "stateMutability": "view",
      "type": "function"
    },
    {
      "inputs": [],
      "name": "committee",
      "outputs": [
        {
          "internalType": "contract ICommitteeManager",
          "name": "",
          "type": "address"
        }
      ],
      "stateMutability": "view",
      "type": "function"
    },
    {
      "inputs": [],
      "name": "decimals",
      "outputs": [
        {
          "internalType": "uint8",
          "name": "",
          "type": "uint8"
        }
      ],
      "stateMutability": "pure",
      "type": "function"
    },
    {
      "inputs": [
        {
          "internalType": "address",
          "name": "user",
          "type": "address"
        }
      ],
      "name": "getTier",
      "outputs": [
        {
          "internalType": "uint8",
          "name": "",
          "type": "uint8"
        }
      ],
      "stateMutability": "view",
      "type": "function"
    },
    {
      "inputs": [
        {
          "internalType": "address",
          "name": "to",
          "type": "address"
        },
        {
          "internalType": "uint256",
          "name": "amount",
          "type": "uint256"
        }
      ],
      "name": "mint",
      "outputs": [],
      "stateMutability": "nonpayable",
      "type": "function"
    },
    {
      "inputs": [],
      "name": "minter",
      "outputs": [
        {
          "internalType": "address",
          "name": "",
          "type": "address"
        }
      ],
      "stateMutability": "view",
      "type": "function"
    },
    {
      "inputs": [],
      "name": "name",
      "outputs": [
        {
          "internalType": "string",
          "name": "",
          "type": "string"
        }
      ],
      "stateMutability": "view",
      "type": "function"
    },
    {
      "inputs": [
        {
          "internalType": "address",
          "name": "_minter",
          "type": "address"
        }
      ],
      "name": "setMinter",
      "outputs": [],
      "stateMutability": "nonpayable",
      "type": "function"
    },
    {
      "inputs": [
        {
          "internalType": "address",
          "name": "user",
          "type": "address"
        },
        {
          "internalType": "uint256",
          "name": "amount",
          "type": "uint256"
        }
      ],
      "name": "slash",
      "outputs": [
        {
          "internalType": "uint256",
          "name": "actualAmount",
          "type": "uint256"
        }
      ],
      "stateMutability": "nonpayable",
      "type": "function"
    },
    {
      "inputs": [],
      "name": "symbol",
      "outputs": [
        {
          "internalType": "string",
          "name": "",
          "type": "string"
        }
      ],
      "stateMutability": "view",
      "type": "function"
    },
    {
      "inputs": [
        {
          "internalType": "address",
          "name": "",
          "type": "address"
        }
      ],
      "name": "totalMinted",
      "outputs": [
        {
          "internalType": "uint256",
          "name": "",
          "type": "uint256"
        }
      ],
      "stateMutability": "view",
      "type": "function"
    },
    {
      "inputs": [],
      "name": "totalSupply",
      "outputs": [
        {
          "internalType": "uint256",
          "name": "",
          "type": "uint256"
        }
      ],
      "stateMutability": "view",
      "type": "function"
    },
    {
      "inputs": [
        {
          "internalType": "address",
          "name": "to",
          "type": "address"
        },
        {
          "internalType": "uint256",
          "name": "value",
          "type": "uint256"
        }
      ],
      "name": "transfer",
      "outputs": [
        {
          "internalType": "bool",
          "name": "",
          "type": "bool"
        }
      ],
      "stateMutability": "nonpayable",
      "type": "function"
    },
    {
      "inputs": [
        {
          "internalType": "address",
          "name": "from",
          "type": "address"
        },
        {
          "internalType": "address",
          "name": "to",
          "type": "address"
        },
        {
          "internalType": "uint256",
          "name": "value",
          "type": "uint256"
        }
      ],
      "name": "transferFrom",
      "outputs": [
        {
          "internalType": "bool",
          "name": "",
          "type": "bool"
        }
      ],
      "stateMutability": "nonpayable",
      "type": "function"
    }
  ],
  "bytecode": "0x60a06040523480156200001157600080fd5b50604051620010e7380380620010e783398101604081905262000034916200017f565b828260036200004483826200029b565b5060046200005382826200029b565b5050506001600160a01b038116620000a55760405162461bcd60e51b8152602060048201526011602482015270496e76616c696420636f6d6d697474656560781b604482015260640160405180910390fd5b6001600160a01b031660805250620003679050565b634e487b7160e01b600052604160045260246000fd5b600082601f830112620000e257600080fd5b81516001600160401b0380821115620000ff57620000ff620000ba565b604051601f8301601f19908116603f011681019082821181831017156200012a576200012a620000ba565b816040528381526020925086838588010111156200014757600080fd5b600091505b838210156200016b57858201830151818301840152908201906200014c565b600093810190920192909252949350505050565b6000806000606084860312156200019557600080fd5b83516001600160401b0380821115620001ad57600080fd5b620001bb87838801620000d0565b94506020860151915080821115620001d257600080fd5b50620001e186828701620000d0565b604086015190935090506001600160a01b03811681146200020157600080fd5b809150509250925092565b600181811c908216806200022157607f821691505b6020821081036200024257634e487b7160e01b600052602260045260246000fd5b50919050565b601f8211156200029657600081815260208120601f850160051c81016020861015620002715750805b601f850160051c820191505b8181101562000292578281556001016200027d565b5050505b505050565b81516001600160401b03811115620002b757620002b7620000ba565b620002cf81620002c884546200020c565b8462000248565b602080601f831160018114620003075760008415620002ee5750858301515b600019600386901b1c1916600185901b17855562000292565b600085815260208120601f198616915b82811015620003385788860151825594840194600190910190840162000317565b5085821015620003575787850151600019600388901b60f8161c191681555b5050505050600190811b01905550565b608051610d5d6200038a6000396000818161024e01526106ea0152610d5d6000f3fe608060405234801561001057600080fd5b50600436106100ff5760003560e01c806340c10f1911610097578063b45aae5211610066578063b45aae5214610236578063d864e74014610249578063dd62ed3e14610270578063fca3b5aa146102a957600080fd5b806340c10f19146101dd57806370a08231146101f257806395d89b411461021b578063a9059cbb1461022357600080fd5b8063095ea7b3116100d3578063095ea7b31461018a57806318160ddd146101ad57806323b872dd146101b5578063313ce567146101c857600080fd5b80623d47901461010457806302fb4d851461013757806306fdde031461014a578063075461721461015f575b600080fd5b610124610112366004610ba1565b60056020526000908152604090205481565b6040519081526020015b60405180910390f35b610124610145366004610bc3565b6102bc565b610152610425565b60405161012e9190610bed565b600654610172906001600160a01b031681565b6040516001600160a01b03909116815260200161012e565b61019d610198366004610bc3565b6104b7565b604051901515815260200161012e565b600254610124565b61019d6101c3366004610c3b565b6104d1565b60005b60405160ff909116815260200161012e565b6101f06101eb366004610bc3565b6104f5565b005b610124610200366004610ba1565b6001600160a01b031660009081526020819052604090205490565b610152610662565b61019d610231366004610bc3565b610671565b6101cb610244366004610ba1565b61067f565b6101727f000000000000000000000000000000000000000000000000000000000000000081565b61012461027e366004610c77565b6001600160a01b03918216600090815260016020908152604080832093909416825291909152205490565b6101f06102b7366004610ba1565b6106d5565b6006546000906001600160a01b031633146103165760405162461bcd60e51b81526020600482015260156024820152742737ba1030baba3437b934bd32b21036b4b73a32b960591b60448201526064015b60405180910390fd5b6001600160a01b03831661035b5760405162461bcd60e51b815260206004820152600c60248201526b24b73b30b634b2103ab9b2b960a11b604482015260640161030d565b600082116103a05760405162461bcd60e51b81526020600482015260126024820152710416d6f756e74206d757374206265203e20360741b604482015260640161030d565b6001600160a01b0383166000908152602081905260409020548281106103c657826103c8565b805b915081156103da576103da848361082a565b60408051848152602081018490526001600160a01b038616917f45a371af55b0726877a30f464edc14db5879ab096590bacce682cf6c18223596910160405180910390a25092915050565b60606003805461043490610caa565b80601f016020809104026020016040519081016040528092919081815260200182805461046090610caa565b80156104ad5780601f10610482576101008083540402835291602001916104ad565b820191906000526020600020905b81548152906001019060200180831161049057829003601f168201915b5050505050905090565b6000336104c5818585610864565b60019150505b92915050565b6000336104df858285610876565b6104ea8585856108f5565b506001949350505050565b6006546001600160a01b031633146105475760405162461bcd60e51b81526020600482015260156024820152742737ba1030baba3437b934bd32b21036b4b73a32b960591b604482015260640161030d565b6001600160a01b0382166105915760405162461bcd60e51b8152602060048201526011602482015270125b9d985b1a59081c9958da5c1a595b9d607a1b604482015260640161030d565b600081116105d65760405162461bcd60e51b81526020600482015260126024820152710416d6f756e74206d757374206265203e20360741b604482015260640161030d565b6105e08282610954565b6001600160a01b03821660009081526005602052604081208054839290610608908490610ce4565b90915550506001600160a01b038216600081815260056020908152604091829020548251858152918201527f25b428dfde728ccfaddad7e29e4ac23c24ed7fd1a6e3e3f91894a9a073f5dfff910160405180910390a25050565b60606004805461043490610caa565b6000336104c58185856108f5565b6001600160a01b0381166000908152600560205260408120546101f481106106aa5750600392915050565b60c881106106bb5750600292915050565b603281106106cc5750600192915050565b50600092915050565b60405163e636d84b60e01b81523360048201527f00000000000000000000000000000000000000000000000000000000000000006001600160a01b03169063e636d84b90602401602060405180830381865afa158015610739573d6000803e3d6000fd5b505050506040513d601f19601f8201168201806040525081019061075d9190610d05565b6107995760405162461bcd60e51b815260206004820152600d60248201526c4e6f7420636f6d6d697474656560981b604482015260640161030d565b6001600160a01b0381166107e05760405162461bcd60e51b815260206004820152600e60248201526d24b73b30b634b21036b4b73a32b960911b604482015260640161030d565b600680546001600160a01b0319166001600160a01b0383169081179091556040517fad0f299ec81a386c98df0ac27dae11dd020ed1b56963c53a7292e7a3a314539a90600090a250565b6001600160a01b03821661085457604051634b637e8f60e11b81526000600482015260240161030d565b61086082600083610986565b5050565b6108718383836001610ab0565b505050565b6001600160a01b038381166000908152600160209081526040808320938616835292905220546000198110156108ef57818110156108e057604051637dc7a0d960e11b81526001600160a01b0384166004820152602481018290526044810183905260640161030d565b6108ef84848484036000610ab0565b50505050565b6001600160a01b03831661091f57604051634b637e8f60e11b81526000600482015260240161030d565b6001600160a01b0382166109495760405163ec442f0560e01b81526000600482015260240161030d565b610871838383610986565b6001600160a01b03821661097e5760405163ec442f0560e01b81526000600482015260240161030d565b610860600083835b6001600160a01b0383166109b15780600260008282546109a69190610ce4565b90915550610a239050565b6001600160a01b03831660009081526020819052604090205481811015610a045760405163391434e360e21b81526001600160a01b0385166004820152602481018290526044810183905260640161030d565b6001600160a01b03841660009081526020819052604090209082900390555b6001600160a01b038216610a3f57600280548290039055610a5e565b6001600160a01b03821660009081526020819052604090208054820190555b816001600160a01b0316836001600160a01b03167fddf252ad1be2c89b69c2b068fc378daa952ba7f163c4a11628f55a4df523b3ef83604051610aa391815260200190565b60405180910390a3505050565b6001600160a01b038416610ada5760405163e602df0560e01b81526000600482015260240161030d565b6001600160a01b038316610b0457604051634a1406b160e11b81526000600482015260240161030d565b6001600160a01b03808516600090815260016020908152604080832093871683529290522082905580156108ef57826001600160a01b0316846001600160a01b03167f8c5be1e5ebec7d5bd14f71427d1e84f3dd0314c0f7b2291e5b200ac8c7c3b92584604051610b7791815260200190565b60405180910390a350505050565b80356001600160a01b0381168114610b9c57600080fd5b919050565b600060208284031215610bb357600080fd5b610bbc82610b85565b9392505050565b60008060408385031215610bd657600080fd5b610bdf83610b85565b946020939093013593505050565b600060208083528351808285015260005b81811015610c1a57858101830151858201604001528201610bfe565b506000604082860101526040601f19601f8301168501019250505092915050565b600080600060608486031215610c5057600080fd5b610c5984610b85565b9250610c6760208501610b85565b9150604084013590509250925092565b60008060408385031215610c8a57600080fd5b610c9383610b85565b9150610ca160208401610b85565b90509250929050565b600181811c90821680610cbe57607f821691505b602082108103610cde57634e487b7160e01b600052602260045260246000fd5b50919050565b808201808211156104cb57634e487b7160e01b600052601160045260246000fd5b600060208284031215610d1757600080fd5b81518015158114610bbc57600080fdfea2646970667358221220cfa0a2b8ed59124e8093fb16b4678354487fba245cc3344d3f282a259596100264736f6c63430008140033",
  "linkReferences": {},
  "deployedLinkReferences": {}
}