{"Contracts/Governance.sol":{"Governance":{"abi":[{"inputs":[],"stateMutability":"nonpayable","type":"constructor"},{"anonymous":false,"inputs":[{"indexed":true,"internalType":"address","name":"user","type":"address"}],"name":"CommitteeAdded","type":"event"},{"anonymous":false,"inputs":[{"indexed":true,"internalType":"address","name":"user","type":"address"}],"name":"CommitteeRemoved","type":"event"},{"anonymous":false,"inputs":[{"indexed":true,"internalType":"address","name":"user","type":"address"},{"indexed":false,"internalType":"uint256","name":"amount","type":"uint256"}],"name":"GTAdded","type":"event"},{"anonymous":false,"inputs":[{"indexed":true,"internalType":"address","name":"user","type":"address"},{"indexed":false,"internalType":"uint256","name":"amount","type":"uint256"}],"name":"InitialGTGranted","type":"event"},{"anonymous":false,"inputs":[],"name":"ManualGovernanceDisabled","type":"event"},{"anonymous":false,"inputs":[{"indexed":false,"internalType":"string","name":"reason","type":"string"}],"name":"ManualGovernanceTriggered","type":"event"},{"anonymous":false,"inputs":[{"indexed":false,"internalType":"enum Governance.GovernancePhase","name":"newPhase","type":"uint8"}],"name":"PhaseUpdated","type":"event"},{"anonymous":false,"inputs":[{"indexed":true,"internalType":"uint256","name":"proposalId","type":"uint256"},{"indexed":true,"internalType":"address","name":"proposer","type":"address"},{"indexed":false,"internalType":"string","name":"description","type":"string"}],"name":"ProposalCreated","type":"event"},{"anonymous":false,"inputs":[{"indexed":true,"internalType":"uint256","name":"proposalId","type":"uint256"},{"indexed":false,"internalType":"bool","name":"passed","type":"bool"}],"name":"ProposalExecuted","type":"event"},{"anonymous":false,"inputs":[{"indexed":true,"internalType":"uint256","name":"proposalId","type":"uint256"},{"indexed":true,"internalType":"address","name":"voter","type":"address"},{"indexed":false,"internalType":"bool","name":"support","type":"bool"}],"name":"ProposalVoted","type":"event"},{"anonymous":false,"inputs":[{"indexed":true,"internalType":"address","name":"user","type":"address"}],"name":"VerifierQualified","type":"event"},{"anonymous":false,"inputs":[{"indexed":true,"internalType":"address","name":"user","type":"address"}],"name":"VerifierRemoved","type":"event"},{"inputs":[{"internalType":"address","name":"","type":"address"}],"name":"GTBalance","outputs":[{"internalType":"uint256","name":"","type":"uint256"}],"stateMutability":"view","type":"function"},{"inputs":[],"name":"MAX_INITIAL_GT","outputs":[{"internalType":"uint256","name":"","type":"uint256"}],"stateMutability":"view","type":"function"},{"inputs":[],"name":"MIN_INITIAL_GT","outputs":[{"internalType":"uint256","name":"","type":"uint256"}],"stateMutability":"view","type":"function"},{"inputs":[{"internalType":"address","name":"user","type":"address"}],"name":"addCommittee","outputs":[],"stateMutability":"nonpayable","type":"function"},{"inputs":[{"internalType":"address","name":"user","type":"address"},{"internalType":"uint256","name":"amount","type":"uint256"}],"name":"addGT","outputs":[],"stateMutability":"nonpayable","type":"function"},{"inputs":[{"internalType":"address","name":"user","type":"address"}],"name":"checkQualification","outputs":[],"stateMutability":"nonpayable","type":"function"},{"inputs":[{"internalType":"address","name":"","type":"address"}],"name":"committeeMembers","outputs":[{"internalType":"bool","name":"","type":"bool"}],"stateMutability":"view","type":"function"},{"inputs":[{"internalType":"string","name":"description","type":"string"}],"name":"createProposal","outputs":[{"internalType":"uint256","name":"","type":"uint256"}],"stateMutability":"nonpayable","type":"function"},{"inputs":[],"name":"currentPhase","outputs":[{"internalType":"enum Governance.GovernancePhase","name":"","type":"uint8"}],"stateMutability":"view","type":"function"},{"inputs":[{"internalType":"address","name":"user","type":"address"},{"internalType":"uint256","name":"amount","type":"uint256"}],"name":"deductGT","outputs":[],"stateMutability":"nonpayable","type":"function"},{"inputs":[],"name":"disableManualGovernance","outputs":[],"stateMutability":"nonpayable","type":"function"},{"inputs":[{"internalType":"uint256","name":"proposalId","type":"uint256"}],"name":"executeProposal","outputs":[],"stateMutability":"nonpayable","type":"function"},{"inputs":[{"internalType":"address","name":"user","type":"address"}],"name":"getGT","outputs":[{"internalType":"uint256","name":"","type":"uint256"}],"stateMutability":"view","type":"function"},{"inputs":[{"internalType":"uint256","name":"proposalId","type":"uint256"}],"name":"getProposal","outputs":[{"internalType":"uint256","name":"id","type":"uint256"},{"internalType":"string","name":"description","type":"string"},{"internalType":"address","name":"proposer","type":"address"},{"internalType":"uint256","name":"yesVotes","type":"uint256"},{"internalType":"uint256","name":"noVotes","type":"uint256"},{"internalType":"bool","name":"executed","type":"bool"},{"internalType":"bool","name":"active","type":"bool"}],"stateMutability":"view","type":"function"},{"inputs":[{"internalType":"address","name":"user","type":"address"},{"internalType":"uint256","name":"amount","type":"uint256"}],"name":"grantInitialGT","outputs":[],"stateMutability":"nonpayable","type":"function"},{"inputs":[{"internalType":"uint256","name":"","type":"uint256"},{"internalType":"address","name":"","type":"address"}],"name":"hasVoted","outputs":[{"internalType":"bool","name":"","type":"bool"}],"stateMutability":"view","type":"function"},{"inputs":[{"internalType":"address","name":"user","type":"address"}],"name":"isCommittee","outputs":[{"internalType":"bool","name":"","type":"bool"}],"stateMutability":"view","type":"function"},{"inputs":[{"internalType":"address","name":"user","type":"address"}],"name":"isVerifier","outputs":[{"internalType":"bool","name":"","type":"bool"}],"stateMutability":"view","type":"function"},{"inputs":[],"name":"proposalCount","outputs":[{"internalType":"uint256","name":"","type":"uint256"}],"stateMutability":"view","type":"function"},{"inputs":[{"internalType":"uint256","name":"","type":"uint256"}],"name":"proposals","outputs":[{"internalType":"uint256","name":"id","type":"uint256"},{"internalType":"string","name":"description","type":"string"},{"internalType":"address","name":"proposer","type":"address"},{"internalType":"uint256","name":"yesVotes","type":"uint256"},{"internalType":"uint256","name":"noVotes","type":"uint256"},{"internalType":"bool","name":"executed","type":"bool"},{"internalType":"bool","name":"active","type":"bool"}],"stateMutability":"view","type":"function"},{"inputs":[],"name":"qualifiedCount","outputs":[{"internalType":"uint256","name":"","type":"uint256"}],"stateMutability":"view","type":"function"},{"inputs":[{"internalType":"address","name":"","type":"address"}],"name":"qualifiedVerifier","outputs":[{"internalType":"bool","name":"","type":"bool"}],"stateMutability":"view","type":"function"},{"inputs":[{"internalType":"address","name":"user","type":"address"}],"name":"removeCommittee","outputs":[],"stateMutability":"nonpayable","type":"function"},{"inputs":[{"internalType":"string","name":"reason","type":"string"}],"name":"triggerManualGovernance","outputs":[],"stateMutability":"nonpayable","type":"function"},{"inputs":[],"name":"updatePhase","outputs":[],"stateMutability":"nonpayable","type":"function"},{"inputs":[],"name":"verifierThreshold","outputs":[{"internalType":"uint256","name":"","type":"uint256"}],"stateMutability":"view","type":"function"},{"inputs":[{"internalType":"uint256","name":"proposalId","type":"uint256"},{"internalType":"bool","name":"support","type":"bool"}],"name":"voteProposal","outputs":[],"stateMutability":"nonpayable","type":"function"}],"evm":{"bytecode":{"linkReferences":{},"object":"6080604052606460035534801561001557600080fd5b503360009081526001602081905260408220805460ff1990811690921790558154169055611aac806100486000396000f3fe608060405234801561001057600080fd5b50600436106101a95760003560e01c806349c2a1a6116100f95780639ca7acea11610097578063c7f758a811610071578063c7f758a8146103f6578063d521b8c514610409578063da35c6641461041c578063eed2e79f1461042557600080fd5b80639ca7acea146103d2578063b965f734146103db578063bcfb9b61146103e357600080fd5b80636956a5d2116100d35780636956a5d214610378578063731a477d146103805780638c9540d31461039357806396dffcbf146103bf57600080fd5b806349c2a1a6146103395780634f14b55d1461034c57806353f59d3b1461035557600080fd5b806322193e8911610166578063380462171161014057806338046217146102d057806343859632146102e357806344d3fed11461031157806345234de71461031957600080fd5b806322193e891461023a578063233dc47e1461026d57806333105218146102a457600080fd5b8063013cf08b146101ae578063034b9aae146101dd578063055ad42e146101e757806309e8f2ed146102015780630b3c6f08146102145780630d61b51914610227575b600080fd5b6101c16101bc366004611604565b610438565b6040516101d4979695949392919061161d565b60405180910390f35b6101e561050c565b005b6000546101f49060ff1681565b6040516101d491906116c9565b6101e561020f3660046116f1565b610516565b6101e561022236600461177f565b610599565b6101e5610235366004611604565b6106b4565b61025d6102483660046117a9565b60046020526000908152604090205460ff1681565b60405190151581526020016101d4565b61029661027b3660046117a9565b6001600160a01b031660009081526002602052604090205490565b6040519081526020016101d4565b61025d6102b23660046117a9565b6001600160a01b031660009081526004602052604090205460ff1690565b6101e56102de3660046117a9565b610836565b61025d6102f13660046117cb565b600860209081526000928352604080842090915290825290205460ff1681565b610296603281565b6102966103273660046117a9565b60026020526000908152604090205481565b6102966103473660046116f1565b610937565b61029660055481565b61025d6103633660046117a9565b60016020526000908152604090205460ff1681565b610296601481565b6101e561038e36600461177f565b610b41565b61025d6103a13660046117a9565b6001600160a01b031660009081526001602052604090205460ff1690565b6101e56103cd3660046117a9565b610c4f565b61029660035481565b6101e5610c89565b6101e56103f13660046117f7565b610dc8565b6101c1610404366004611604565b611019565b6101e56104173660046117a9565b61116d565b61029660065481565b6101e561043336600461177f565b611290565b6007602052600090815260409020805460018201805491929161045a9061182c565b80601f01602080910402602001604051908101604052809291908181526020018280546104869061182c565b80156104d35780601f106104a8576101008083540402835291602001916104d3565b820191906000526020600020905b8154815290600101906020018083116104b657829003601f168201915b5050505060028301546003840154600485015460059095015493946001600160a01b039092169390925060ff8082169161010090041687565b6105146113bb565b565b3360009081526001602052604090205460ff1661054e5760405162461bcd60e51b815260040161054590611866565b60405180910390fd5b6000805460ff191660031790556040517fe0a9bb272ad19498a3003e0d453db38e0923cd5e8e5cb1d87ab89853789f30bc9061058d908490849061188d565b60405180910390a15050565b3360009081526001602052604090205460ff166105c85760405162461bcd60e51b815260040161054590611866565b6001600160a01b0382166105ee5760405162461bcd60e51b8152600401610545906118bc565b600081116106335760405162461bcd60e51b81526020600482015260126024820152710416d6f756e74206d757374206265203e20360741b6044820152606401610545565b6001600160a01b0382166000908152600260205260408120805483929061065b9084906118fb565b90915550506040518181526001600160a01b038316907f99fadbaabd7bbb21f8694d7c4bdb2512bf8e1239b30a9a3ddf89619ae22f0951906020015b60405180910390a26106a88261149f565b6106b06113bb565b5050565b3360009081526001602052604090205460ff166106e35760405162461bcd60e51b815260040161054590611866565b6000818152600760205260408120805490910361073c5760405162461bcd60e51b8152602060048201526017602482015276141c9bdc1bdcd85b08191bd95cc81b9bdd08195e1a5cdd604a1b6044820152606401610545565b6005810154610100900460ff1661078e5760405162461bcd60e51b815260206004820152601660248201527550726f706f73616c206973206e6f742061637469766560501b6044820152606401610545565b600581015460ff16156107df5760405162461bcd60e51b8152602060048201526019602482015278141c9bdc1bdcd85b08185b1c9958591e48195e1958dd5d1959603a1b6044820152606401610545565b60058101805461ffff191660011790556004810154600382015460405191108082529083907f948f4a9cd986f1118c3fbd459f7a22b23c0693e1ca3ef06a6a8be5aa7d39cc039060200160405180910390a2505050565b3360009081526001602052604090205460ff166108655760405162461bcd60e51b815260040161054590611866565b6001600160a01b03811661088b5760405162461bcd60e51b8152600401610545906118bc565b6001600160a01b03811660009081526001602052604090205460ff16156108e85760405162461bcd60e51b8152602060048201526011602482015270416c726561647920636f6d6d697474656560781b6044820152606401610545565b6001600160a01b0381166000818152600160208190526040808320805460ff1916909217909155517f3d7ec2a7591efbf272e92f356bd60d86a31605d6f50bf19ba8751ce307965a849190a250565b60008161097a5760405162461bcd60e51b815260206004820152601160248201527022b6b83a3c903232b9b1b934b83a34b7b760791b6044820152606401610545565b3360009081526001602052604090205460ff166109d95760405162461bcd60e51b815260206004820152601a60248201527f4f6e6c7920636f6d6d69747465652063616e2070726f706f73650000000000006044820152606401610545565b600680549060006109e98361190e565b91905055506040518060e00160405280600654815260200184848080601f016020809104026020016040519081016040528093929190818152602001838380828437600092018290525093855250503360208085019190915260408085018490526060850184905260808501849052600160a090950185905260065484526007825290922084518155918401519192830191610a8691508261198c565b506040828101516002830180546001600160a01b0319166001600160a01b03909216919091179055606083015160038301556080830151600483015560a08301516005909201805460c09094015161ffff1990941692151561ff001916929092176101009315159390930292909217905560065490513391907f7585f467599d0f008985f231af99293be388626ac16ca59505c2f8f88969cd6390610b2e908790879061188d565b60405180910390a3506006545b92915050565b3360009081526001602052604090205460ff16610b705760405162461bcd60e51b815260040161054590611866565b6001600160a01b038216610b965760405162461bcd60e51b8152600401610545906118bc565b60148110158015610ba8575060328111155b610be75760405162461bcd60e51b815260206004820152601060248201526f496e76616c69642047542072616e676560801b6044820152606401610545565b6001600160a01b03821660009081526002602052604081208054839290610c0f9084906118fb565b90915550506040518181526001600160a01b038316907fd6b63df4f5bb5a0c77dfea0e46f35985e27d244eec539e5c2a7567cc32bb58b490602001610697565b6001600160a01b038116610c755760405162461bcd60e51b8152600401610545906118bc565b610c7e8161149f565b610c866113bb565b50565b3360009081526001602052604090205460ff16610cb85760405162461bcd60e51b815260040161054590611866565b600360005460ff166003811115610cd157610cd16116b3565b14610d135760405162461bcd60e51b81526020600482015260126024820152714e6f7420696e206d616e75616c206d6f646560701b6044820152606401610545565b600a60055410610d3757600080546002919060ff19166001835b0217905550610d5e565b6005805410610d5357600080546001919060ff19168280610d2d565b6000805460ff191690555b6040517fadb61cfd798ae86d6cab9be5454c9ac4007f7e4f2233ac25c5f5ed1fbb6b67b290600090a16000546040517f05ac19f4e6db6fd8b645dd056e4842cd2f63e0c6f0568176c17ef60e3c16732d91610dbe9160ff909116906116c9565b60405180910390a1565b60008281526007602052604081208054909103610e215760405162461bcd60e51b8152602060048201526017602482015276141c9bdc1bdcd85b08191bd95cc81b9bdd08195e1a5cdd604a1b6044820152606401610545565b6005810154610100900460ff16610e735760405162461bcd60e51b815260206004820152601660248201527550726f706f73616c206973206e6f742061637469766560501b6044820152606401610545565b600581015460ff1615610ec45760405162461bcd60e51b8152602060048201526019602482015278141c9bdc1bdcd85b08185b1c9958591e48195e1958dd5d1959603a1b6044820152606401610545565b600083815260086020908152604080832033845290915290205460ff1615610f1e5760405162461bcd60e51b815260206004820152600d60248201526c105b1c9958591e481d9bdd1959609a1b6044820152606401610545565b3360009081526001602052604090205460ff16610f7d5760405162461bcd60e51b815260206004820152601760248201527f4f6e6c7920636f6d6d69747465652063616e20766f74650000000000000000006044820152606401610545565b60008381526008602090815260408083203384529091529020805460ff191660011790558115610fc357600381018054906000610fb98361190e565b9190505550610fdb565b600481018054906000610fd58361190e565b91905055505b6040518215158152339084907f0def80f9a3b4c7a4251442658ccf516bf33ea4acaf31638fc6da8ebdb0f64c729060200160405180910390a3505050565b60006060600080600080600080600760008a81526020019081526020016000206040518060e00160405290816000820154815260200160018201805461105e9061182c565b80601f016020809104026020016040519081016040528092919081815260200182805461108a9061182c565b80156110d75780601f106110ac576101008083540402835291602001916110d7565b820191906000526020600020905b8154815290600101906020018083116110ba57829003601f168201915b505050918352505060028201546001600160a01b03166020808301919091526003830154604080840191909152600484015460608085019190915260059094015460ff808216151560808087019190915261010090920416151560a0948501528551928601519186015194860151908601519386015160c090960151929f919e50939c50929a5090985091965090945092505050565b3360009081526001602052604090205460ff1661119c5760405162461bcd60e51b815260040161054590611866565b6001600160a01b0381166111c25760405162461bcd60e51b8152600401610545906118bc565b6001600160a01b03811660009081526001602052604090205460ff166111fa5760405162461bcd60e51b815260040161054590611866565b336001600160a01b038216036112475760405162461bcd60e51b815260206004820152601260248201527121b0b73737ba103932b6b7bb329039b2b63360711b6044820152606401610545565b6001600160a01b038116600081815260016020526040808220805460ff19169055517f7a03e78100f5e4b822f4633cd9d55dd2220adc31155c2a03ac291fa0f902b4479190a250565b3360009081526001602052604090205460ff166112bf5760405162461bcd60e51b815260040161054590611866565b6001600160a01b0382166112e55760405162461bcd60e51b8152600401610545906118bc565b6000811161132a5760405162461bcd60e51b81526020600482015260126024820152710416d6f756e74206d757374206265203e20360741b6044820152606401610545565b6001600160a01b0382166000908152600260205260409020548111156113845760405162461bcd60e51b815260206004820152600f60248201526e125b9cdd59999a58da595b9d0811d5608a1b6044820152606401610545565b6001600160a01b038216600090815260026020526040812080548392906113ac908490611a4c565b909155506106a890508261149f565b600360005460ff1660038111156113d4576113d46116b3565b036113db57565b60005460055460ff90911690600a1161140857600080546002919060ff19166001835b021790555061142f565b600580541061142457600080546001919060ff191682806113fe565b6000805460ff191690555b60005460ff166003811115611446576114466116b3565b816003811115611458576114586116b3565b14610c86576000546040517f05ac19f4e6db6fd8b645dd056e4842cd2f63e0c6f0568176c17ef60e3c16732d916114949160ff909116906116c9565b60405180910390a150565b6003546001600160a01b038216600090815260026020526040902054108015906114e257506001600160a01b03811660009081526004602052604090205460ff16155b15611554576001600160a01b0381166000908152600460205260408120805460ff1916600117905560058054916115188361190e565b90915550506040516001600160a01b038216907f383b7d83c58db5e48f03a5392dca15b58dd5e3dfd94802da12e3abe6519c251890600090a250565b6003546001600160a01b03821660009081526002602052604090205410801561159557506001600160a01b03811660009081526004602052604090205460ff165b15610c86576001600160a01b0381166000908152600460205260408120805460ff1916905560058054916115c883611a5f565b90915550506040516001600160a01b038216907f44a3cd4eb5cc5748f6169df057b1cb2ae4c383e87cd94663c430e095d4cba42490600090a250565b60006020828403121561161657600080fd5b5035919050565b8781526000602060e08184015288518060e085015260005b81811015611652578a810183015185820161010001528201611635565b506101009150600082828601015281601f19601f8301168501019250505061168560408301886001600160a01b03169052565b85606083015284608083015261169f60a083018515159052565b82151560c083015298975050505050505050565b634e487b7160e01b600052602160045260246000fd5b60208101600483106116eb57634e487b7160e01b600052602160045260246000fd5b91905290565b6000806020838503121561170457600080fd5b823567ffffffffffffffff8082111561171c57600080fd5b818501915085601f83011261173057600080fd5b81358181111561173f57600080fd5b86602082850101111561175157600080fd5b60209290920196919550909350505050565b80356001600160a01b038116811461177a57600080fd5b919050565b6000806040838503121561179257600080fd5b61179b83611763565b946020939093013593505050565b6000602082840312156117bb57600080fd5b6117c482611763565b9392505050565b600080604083850312156117de57600080fd5b823591506117ee60208401611763565b90509250929050565b6000806040838503121561180a57600080fd5b823591506020830135801515811461182157600080fd5b809150509250929050565b600181811c9082168061184057607f821691505b60208210810361186057634e487b7160e01b600052602260045260246000fd5b50919050565b6020808252600d908201526c4e6f7420636f6d6d697474656560981b604082015260600190565b60208152816020820152818360408301376000818301604090810191909152601f909201601f19160101919050565b6020808252600f908201526e496e76616c6964206164647265737360881b604082015260600190565b634e487b7160e01b600052601160045260246000fd5b80820180821115610b3b57610b3b6118e5565b600060018201611920576119206118e5565b5060010190565b634e487b7160e01b600052604160045260246000fd5b601f82111561198757600081815260208120601f850160051c810160208610156119645750805b601f850160051c820191505b8181101561198357828155600101611970565b5050505b505050565b815167ffffffffffffffff8111156119a6576119a6611927565b6119ba816119b4845461182c565b8461193d565b602080601f8311600181146119ef57600084156119d75750858301515b600019600386901b1c1916600185901b178555611983565b600085815260208120601f198616915b82811015611a1e578886015182559484019460019091019084016119ff565b5085821015611a3c5787850151600019600388901b60f8161c191681555b5050505050600190811b01905550565b81810381811115610b3b57610b3b6118e5565b600081611a6e57611a6e6118e5565b50600019019056fea2646970667358221220ca0c92e764beb46c2c6e3a5ec93aa585e4c0029267f7bec765e61e6202b93d9764736f6c63430008140033","opcodes":"PUSH1 0x80 PUSH1 0x40 MSTORE PUSH1 0x64 PUSH1 0x3 SSTORE CALLVALUE DUP1 ISZERO PUSH2 0x15 JUMPI PUSH1 0x0 DUP1 REVERT JUMPDEST POP CALLER PUSH1 0x0 SWAP1 DUP2 MSTORE PUSH1 0x1 PUSH1 0x20 DUP2 SWAP1 MSTORE PUSH1 0x40 DUP3 KECCAK256 DUP1 SLOAD PUSH1 0xFF NOT SWAP1 DUP2 AND SWAP1 SWAP3 OR SWAP1 SSTORE DUP2 SLOAD AND SWAP1 SSTORE PUSH2 0x1AAC DUP1 PUSH2 0x48 PUSH1 0x0 CODECOPY PUSH1 0x0 RETURN INVALID PUSH1 0x80 PUSH1 0x40 MSTORE CALLVALUE DUP1 ISZERO PUSH2 0x10 JUMPI PUSH1 0x0 DUP1 REVERT JUMPDEST POP PUSH1 0x4 CALLDATASIZE LT PUSH2 0x1A9 JUMPI PUSH1 0x0 CALLDATALOAD PUSH1 0xE0 SHR DUP1 PUSH4 0x49C2A1A6 GT PUSH2 0xF9 JUMPI DUP1 PUSH4 0x9CA7ACEA GT PUSH2 0x97 JUMPI DUP1 PUSH4 0xC7F758A8 GT PUSH2 0x71 JUMPI DUP1 PUSH4 0xC7F758A8 EQ PUSH2 0x3F6 JUMPI DUP1 PUSH4 0xD521B8C5 EQ PUSH2 0x409 JUMPI DUP1 PUSH4 0xDA35C664 EQ PUSH2 0x41C JUMPI DUP1 PUSH4 0xEED2E79F EQ PUSH2 0x425 JUMPI PUSH1 0x0 DUP1 REVERT JUMPDEST DUP1 PUSH4 0x9CA7ACEA EQ PUSH2 0x3D2 JUMPI DUP1 PUSH4 0xB965F734 EQ PUSH2 0x3DB JUMPI DUP1 PUSH4 0xBCFB9B61 EQ PUSH2 0x3E3 JUMPI PUSH1 0x0 DUP1 REVERT JUMPDEST DUP1 PUSH4 0x6956A5D2 GT PUSH2 0xD3 JUMPI DUP1 PUSH4 0x6956A5D2 EQ PUSH2 0x378 JUMPI DUP1 PUSH4 0x731A477D EQ PUSH2 0x380 JUMPI DUP1 PUSH4 0x8C9540D3 EQ PUSH2 0x393 JUMPI DUP1 PUSH4 0x96DFFCBF EQ PUSH2 0x3BF JUMPI PUSH1 0x0 DUP1 REVERT JUMPDEST DUP1 PUSH4 0x49C2A1A6 EQ PUSH2 0x339 JUMPI DUP1 PUSH4 0x4F14B55D EQ PUSH2 0x34C JUMPI DUP1 PUSH4 0x53F59D3B EQ PUSH2 0x355 JUMPI PUSH1 0x0 DUP1 REVERT JUMPDEST DUP1 PUSH4 0x22193E89 GT PUSH2 0x166 JUMPI DUP1 PUSH4 0x38046217 GT PUSH2 0x140 JUMPI DUP1 PUSH4 0x38046217 EQ PUSH2 0x2D0 JUMPI DUP1 PUSH4 0x43859632 EQ PUSH2 0x2E3 JUMPI DUP1 PUSH4 0x44D3FED1 EQ PUSH2 0x311 JUMPI DUP1 PUSH4 0x45234DE7 EQ PUSH2 0x319 JUMPI PUSH1 0x0 DUP1 REVERT JUMPDEST DUP1 PUSH4 0x22193E89 EQ PUSH2 0x23A JUMPI DUP1 PUSH4 0x233DC47E EQ PUSH2 0x26D JUMPI DUP1 PUSH4 0x33105218 EQ PUSH2 0x2A4 JUMPI PUSH1 0x0 DUP1 REVERT JUMPDEST DUP1 PUSH4 0x13CF08B EQ PUSH2 0x1AE JUMPI DUP1 PUSH4 0x34B9AAE EQ PUSH2 0x1DD JUMPI DUP1 PUSH4 0x55AD42E EQ PUSH2 0x1E7 JUMPI DUP1 PUSH4 0x9E8F2ED EQ PUSH2 0x201 JUMPI DUP1 PUSH4 0xB3C6F08 EQ PUSH2 0x214 JUMPI DUP1 PUSH4 0xD61B519 EQ PUSH2 0x227 JUMPI JUMPDEST PUSH1 0x0 DUP1 REVERT JUMPDEST PUSH2 0x1C1 PUSH2 0x1BC CALLDATASIZE PUSH1 0x4 PUSH2 0x1604 JUMP JUMPDEST PUSH2 0x438 JUMP JUMPDEST PUSH1 0x40 MLOAD PUSH2 0x1D4 SWAP8 SWAP7 SWAP6 SWAP5 SWAP4 SWAP3 SWAP2 SWAP1 PUSH2 0x161D JUMP JUMPDEST PUSH1 0x40 MLOAD DUP1 SWAP2 SUB SWAP1 RETURN JUMPDEST PUSH2 0x1E5 PUSH2 0x50C JUMP JUMPDEST STOP JUMPDEST PUSH1 0x0 SLOAD PUSH2 0x1F4 SWAP1 PUSH1 0xFF AND DUP2 JUMP JUMPDEST PUSH1 0x40 MLOAD PUSH2 0x1D4 SWAP2 SWAP1 PUSH2 0x16C9 JUMP JUMPDEST PUSH2 0x1E5 PUSH2 0x20F CALLDATASIZE PUSH1 0x4 PUSH2 0x16F1 JUMP JUMPDEST PUSH2 0x516 JUMP JUMPDEST PUSH2 0x1E5 PUSH2 0x222 CALLDATASIZE PUSH1 0x4 PUSH2 0x177F JUMP JUMPDEST PUSH2 0x599 JUMP JUMPDEST PUSH2 0x1E5 PUSH2 0x235 CALLDATASIZE PUSH1 0x4 PUSH2 0x1604 JUMP JUMPDEST PUSH2 0x6B4 JUMP JUMPDEST PUSH2 0x25D PUSH2 0x248 CALLDATASIZE PUSH1 0x4 PUSH2 0x17A9 JUMP JUMPDEST PUSH1 0x4 PUSH1 0x20 MSTORE PUSH1 0x0 SWAP1 DUP2 MSTORE PUSH1 0x40 SWAP1 KECCAK256 SLOAD PUSH1 0xFF AND DUP2 JUMP JUMPDEST PUSH1 0x40 MLOAD SWAP1 ISZERO ISZERO DUP2 MSTORE PUSH1 0x20 ADD PUSH2 0x1D4 JUMP JUMPDEST PUSH2 0x296 PUSH2 0x27B CALLDATASIZE PUSH1 0x4 PUSH2 0x17A9 JUMP JUMPDEST PUSH1 0x1 PUSH1 0x1 PUSH1 0xA0 SHL SUB AND PUSH1 0x0 SWAP1 DUP2 MSTORE PUSH1 0x2 PUSH1 0x20 MSTORE PUSH1 0x40 SWAP1 KECCAK256 SLOAD SWAP1 JUMP JUMPDEST PUSH1 0x40 MLOAD SWAP1 DUP2 MSTORE PUSH1 0x20 ADD PUSH2 0x1D4 JUMP JUMPDEST PUSH2 0x25D PUSH2 0x2B2 CALLDATASIZE PUSH1 0x4 PUSH2 0x17A9 JUMP JUMPDEST PUSH1 0x1 PUSH1 0x1 PUSH1 0xA0 SHL SUB AND PUSH1 0x0 SWAP1 DUP2 MSTORE PUSH1 0x4 PUSH1 0x20 MSTORE PUSH1 0x40 SWAP1 KECCAK256 SLOAD PUSH1 0xFF AND SWAP1 JUMP JUMPDEST PUSH2 0x1E5 PUSH2 0x2DE CALLDATASIZE PUSH1 0x4 PUSH2 0x17A9 JUMP JUMPDEST PUSH2 0x836 JUMP JUMPDEST PUSH2 0x25D PUSH2 0x2F1 CALLDATASIZE PUSH1 0x4 PUSH2 0x17CB JUMP JUMPDEST PUSH1 0x8 PUSH1 0x20 SWAP1 DUP2 MSTORE PUSH1 0x0 SWAP3 DUP4 MSTORE PUSH1 0x40 DUP1 DUP5 KECCAK256 SWAP1 SWAP2 MSTORE SWAP1 DUP3 MSTORE SWAP1 KECCAK256 SLOAD PUSH1 0xFF AND DUP2 JUMP JUMPDEST PUSH2 0x296 PUSH1 0x32 DUP2 JUMP JUMPDEST PUSH2 0x296 PUSH2 0x327 CALLDATASIZE PUSH1 0x4 PUSH2 0x17A9 JUMP JUMPDEST PUSH1 0x2 PUSH1 0x20 MSTORE PUSH1 0x0 SWAP1 DUP2 MSTORE PUSH1 0x40 SWAP1 KECCAK256 SLOAD DUP2 JUMP JUMPDEST PUSH2 0x296 PUSH2 0x347 CALLDATASIZE PUSH1 0x4 PUSH2 0x16F1 JUMP JUMPDEST PUSH2 0x937 JUMP JUMPDEST PUSH2 0x296 PUSH1 0x5 SLOAD DUP2 JUMP JUMPDEST PUSH2 0x25D PUSH2 0x363 CALLDATASIZE PUSH1 0x4 PUSH2 0x17A9 JUMP JUMPDEST PUSH1 0x1 PUSH1 0x20 MSTORE PUSH1 0x0 SWAP1 DUP2 MSTORE PUSH1 0x40 SWAP1 KECCAK256 SLOAD PUSH1 0xFF AND DUP2 JUMP JUMPDEST PUSH2 0x296 PUSH1 0x14 DUP2 JUMP JUMPDEST PUSH2 0x1E5 PUSH2 0x38E CALLDATASIZE PUSH1 0x4 PUSH2 0x177F JUMP JUMPDEST PUSH2 0xB41 JUMP JUMPDEST PUSH2 0x25D PUSH2 0x3A1 CALLDATASIZE PUSH1 0x4 PUSH2 0x17A9 JUMP JUMPDEST PUSH1 0x1 PUSH1 0x1 PUSH1 0xA0 SHL SUB AND PUSH1 0x0 SWAP1 DUP2 MSTORE PUSH1 0x1 PUSH1 0x20 MSTORE PUSH1 0x40 SWAP1 KECCAK256 SLOAD PUSH1 0xFF AND SWAP1 JUMP JUMPDEST PUSH2 0x1E5 PUSH2 0x3CD CALLDATASIZE PUSH1 0x4 PUSH2 0x17A9 JUMP JUMPDEST PUSH2 0xC4F JUMP JUMPDEST PUSH2 0x296 PUSH1 0x3 SLOAD DUP2 JUMP JUMPDEST PUSH2 0x1E5 PUSH2 0xC89 JUMP JUMPDEST PUSH2 0x1E5 PUSH2 0x3F1 CALLDATASIZE PUSH1 0x4 PUSH2 0x17F7 JUMP JUMPDEST PUSH2 0xDC8 JUMP JUMPDEST PUSH2 0x1C1 PUSH2 0x404 CALLDATASIZE PUSH1 0x4 PUSH2 0x1604 JUMP JUMPDEST PUSH2 0x1019 JUMP JUMPDEST PUSH2 0x1E5 PUSH2 0x417 CALLDATASIZE PUSH1 0x4 PUSH2 0x17A9 JUMP JUMPDEST PUSH2 0x116D JUMP JUMPDEST PUSH2 0x296 PUSH1 0x6 SLOAD DUP2 JUMP JUMPDEST PUSH2 0x1E5 PUSH2 0x433 CALLDATASIZE PUSH1 0x4 PUSH2 0x177F JUMP JUMPDEST PUSH2 0x1290 JUMP JUMPDEST PUSH1 0x7 PUSH1 0x20 MSTORE PUSH1 0x0 SWAP1 DUP2 MSTORE PUSH1 0x40 SWAP1 KECCAK256 DUP1 SLOAD PUSH1 0x1 DUP3 ADD DUP1 SLOAD SWAP2 SWAP3 SWAP2 PUSH2 0x45A SWAP1 PUSH2 0x182C JUMP JUMPDEST DUP1 PUSH1 0x1F ADD PUSH1 0x20 DUP1 SWAP2 DIV MUL PUSH1 0x20 ADD PUSH1 0x40 MLOAD SWAP1 DUP2 ADD PUSH1 0x40 MSTORE DUP1 SWAP3 SWAP2 SWAP1 DUP2 DUP2 MSTORE PUSH1 0x20 ADD DUP3 DUP1 SLOAD PUSH2 0x486 SWAP1 PUSH2 0x182C JUMP JUMPDEST DUP1 ISZERO PUSH2 0x4D3 JUMPI DUP1 PUSH1 0x1F LT PUSH2 0x4A8 JUMPI PUSH2 0x100 DUP1 DUP4 SLOAD DIV MUL DUP4 MSTORE SWAP2 PUSH1 0x20 ADD SWAP2 PUSH2 0x4D3 JUMP JUMPDEST DUP3 ADD SWAP2 SWAP1 PUSH1 0x0 MSTORE PUSH1 0x20 PUSH1 0x0 KECCAK256 SWAP1 JUMPDEST DUP2 SLOAD DUP2 MSTORE SWAP1 PUSH1 0x1 ADD SWAP1 PUSH1 0x20 ADD DUP1 DUP4 GT PUSH2 0x4B6 JUMPI DUP3 SWAP1 SUB PUSH1 0x1F AND DUP3 ADD SWAP2 JUMPDEST POP POP POP POP PUSH1 0x2 DUP4 ADD SLOAD PUSH1 0x3 DUP5 ADD SLOAD PUSH1 0x4 DUP6 ADD SLOAD PUSH1 0x5 SWAP1 SWAP6 ADD SLOAD SWAP4 SWAP5 PUSH1 0x1 PUSH1 0x1 PUSH1 0xA0 SHL SUB SWAP1 SWAP3 AND SWAP4 SWAP1 SWAP3 POP PUSH1 0xFF DUP1 DUP3 AND SWAP2 PUSH2 0x100 SWAP1 DIV AND DUP8 JUMP JUMPDEST PUSH2 0x514 PUSH2 0x13BB JUMP JUMPDEST JUMP JUMPDEST CALLER PUSH1 0x0 SWAP1 DUP2 MSTORE PUSH1 0x1 PUSH1 0x20 MSTORE PUSH1 0x40 SWAP1 KECCAK256 SLOAD PUSH1 0xFF AND PUSH2 0x54E JUMPI PUSH1 0x40 MLOAD PUSH3 0x461BCD PUSH1 0xE5 SHL DUP2 MSTORE PUSH1 0x4 ADD PUSH2 0x545 SWAP1 PUSH2 0x1866 JUMP JUMPDEST PUSH1 0x40 MLOAD DUP1 SWAP2 SUB SWAP1 REVERT JUMPDEST PUSH1 0x0 DUP1 SLOAD PUSH1 0xFF NOT AND PUSH1 0x3 OR SWAP1 SSTORE PUSH1 0x40 MLOAD PUSH32 0xE0A9BB272AD19498A3003E0D453DB38E0923CD5E8E5CB1D87AB89853789F30BC SWAP1 PUSH2 0x58D SWAP1 DUP5 SWAP1 DUP5 SWAP1 PUSH2 0x188D JUMP JUMPDEST PUSH1 0x40 MLOAD DUP1 SWAP2 SUB SWAP1 LOG1 POP POP JUMP JUMPDEST CALLER PUSH1 0x0 SWAP1 DUP2 MSTORE PUSH1 0x1 PUSH1 0x20 MSTORE PUSH1 0x40 SWAP1 KECCAK256 SLOAD PUSH1 0xFF AND PUSH2 0x5C8 JUMPI PUSH1 0x40 MLOAD PUSH3 0x461BCD PUSH1 0xE5 SHL DUP2 MSTORE PUSH1 0x4 ADD PUSH2 0x545 SWAP1 PUSH2 0x1866 JUMP JUMPDEST PUSH1 0x1 PUSH1 0x1 PUSH1 0xA0 SHL SUB DUP3 AND PUSH2 0x5EE JUMPI PUSH1 0x40 MLOAD PUSH3 0x461BCD PUSH1 0xE5 SHL DUP2 MSTORE PUSH1 0x4 ADD PUSH2 0x545 SWAP1 PUSH2 0x18BC JUMP JUMPDEST PUSH1 0x0 DUP2 GT PUSH2 0x633 JUMPI PUSH1 0x40 MLOAD PUSH3 0x461BCD PUSH1 0xE5 SHL DUP2 MSTORE PUSH1 0x20 PUSH1 0x4 DUP3 ADD MSTORE PUSH1 0x12 PUSH1 0x24 DUP3 ADD MSTORE PUSH18 0x416D6F756E74206D757374206265203E203 PUSH1 0x74 SHL PUSH1 0x44 DUP3 ADD MSTORE PUSH1 0x64 ADD PUSH2 0x545 JUMP JUMPDEST PUSH1 0x1 PUSH1 0x1 PUSH1 0xA0 SHL SUB DUP3 AND PUSH1 0x0 SWAP1 DUP2 MSTORE PUSH1 0x2 PUSH1 0x20 MSTORE PUSH1 0x40 DUP2 KECCAK256 DUP1 SLOAD DUP4 SWAP3 SWAP1 PUSH2 0x65B SWAP1 DUP5 SWAP1 PUSH2 0x18FB JUMP JUMPDEST SWAP1 SWAP2 SSTORE POP POP PUSH1 0x40 MLOAD DUP2 DUP2 MSTORE PUSH1 0x1 PUSH1 0x1 PUSH1 0xA0 SHL SUB DUP4 AND SWAP1 PUSH32 0x99FADBAABD7BBB21F8694D7C4BDB2512BF8E1239B30A9A3DDF89619AE22F0951 SWAP1 PUSH1 0x20 ADD JUMPDEST PUSH1 0x40 MLOAD DUP1 SWAP2 SUB SWAP1 LOG2 PUSH2 0x6A8 DUP3 PUSH2 0x149F JUMP JUMPDEST PUSH2 0x6B0 PUSH2 0x13BB JUMP JUMPDEST POP POP JUMP JUMPDEST CALLER PUSH1 0x0 SWAP1 DUP2 MSTORE PUSH1 0x1 PUSH1 0x20 MSTORE PUSH1 0x40 SWAP1 KECCAK256 SLOAD PUSH1 0xFF AND PUSH2 0x6E3 JUMPI PUSH1 0x40 MLOAD PUSH3 0x461BCD PUSH1 0xE5 SHL DUP2 MSTORE PUSH1 0x4 ADD PUSH2 0x545 SWAP1 PUSH2 0x1866 JUMP JUMPDEST PUSH1 0x0 DUP2 DUP2 MSTORE PUSH1 0x7 PUSH1 0x20 MSTORE PUSH1 0x40 DUP2 KECCAK256 DUP1 SLOAD SWAP1 SWAP2 SUB PUSH2 0x73C JUMPI PUSH1 0x40 MLOAD PUSH3 0x461BCD PUSH1 0xE5 SHL DUP2 MSTORE PUSH1 0x20 PUSH1 0x4 DUP3 ADD MSTORE PUSH1 0x17 PUSH1 0x24 DUP3 ADD MSTORE PUSH23 0x141C9BDC1BDCD85B08191BD95CC81B9BDD08195E1A5CDD PUSH1 0x4A SHL PUSH1 0x44 DUP3 ADD MSTORE PUSH1 0x64 ADD PUSH2 0x545 JUMP JUMPDEST PUSH1 0x5 DUP2 ADD SLOAD PUSH2 0x100 SWAP1 DIV PUSH1 0xFF AND PUSH2 0x78E JUMPI PUSH1 0x40 MLOAD PUSH3 0x461BCD PUSH1 0xE5 SHL DUP2 MSTORE PUSH1 0x20 PUSH1 0x4 DUP3 ADD MSTORE PUSH1 0x16 PUSH1 0x24 DUP3 ADD MSTORE PUSH22 0x50726F706F73616C206973206E6F7420616374697665 PUSH1 0x50 SHL PUSH1 0x44 DUP3 ADD MSTORE PUSH1 0x64 ADD PUSH2 0x545 JUMP JUMPDEST PUSH1 0x5 DUP2 ADD SLOAD PUSH1 0xFF AND ISZERO PUSH2 0x7DF JUMPI PUSH1 0x40 MLOAD PUSH3 0x461BCD PUSH1 0xE5 SHL DUP2 MSTORE PUSH1 0x20 PUSH1 0x4 DUP3 ADD MSTORE PUSH1 0x19 PUSH1 0x24 DUP3 ADD MSTORE PUSH25 0x141C9BDC1BDCD85B08185B1C9958591E48195E1958DD5D1959 PUSH1 0x3A SHL PUSH1 0x44 DUP3 ADD MSTORE PUSH1 0x64 ADD PUSH2 0x545 JUMP JUMPDEST PUSH1 0x5 DUP2 ADD DUP1 SLOAD PUSH2 0xFFFF NOT AND PUSH1 0x1 OR SWAP1 SSTORE PUSH1 0x4 DUP2 ADD SLOAD PUSH1 0x3 DUP3 ADD SLOAD PUSH1 0x40 MLOAD SWAP2 LT DUP1 DUP3 MSTORE SWAP1 DUP4 SWAP1 PUSH32 0x948F4A9CD986F1118C3FBD459F7A22B23C0693E1CA3EF06A6A8BE5AA7D39CC03 SWAP1 PUSH1 0x20 ADD PUSH1 0x40 MLOAD DUP1 SWAP2 SUB SWAP1 LOG2 POP POP POP JUMP JUMPDEST CALLER PUSH1 0x0 SWAP1 DUP2 MSTORE PUSH1 0x1 PUSH1 0x20 MSTORE PUSH1 0x40 SWAP1 KECCAK256 SLOAD PUSH1 0xFF AND PUSH2 0x865 JUMPI PUSH1 0x40 MLOAD PUSH3 0x461BCD PUSH1 0xE5 SHL DUP2 MSTORE PUSH1 0x4 ADD PUSH2 0x545 SWAP1 PUSH2 0x1866 JUMP JUMPDEST PUSH1 0x1 PUSH1 0x1 PUSH1 0xA0 SHL SUB DUP2 AND PUSH2 0x88B JUMPI PUSH1 0x40 MLOAD PUSH3 0x461BCD PUSH1 0xE5 SHL DUP2 MSTORE PUSH1 0x4 ADD PUSH2 0x545 SWAP1 PUSH2 0x18BC JUMP JUMPDEST PUSH1 0x1 PUSH1 0x1 PUSH1 0xA0 SHL SUB DUP2 AND PUSH1 0x0 SWAP1 DUP2 MSTORE PUSH1 0x1 PUSH1 0x20 MSTORE PUSH1 0x40 SWAP1 KECCAK256 SLOAD PUSH1 0xFF AND ISZERO PUSH2 0x8E8 JUMPI PUSH1 0x40 MLOAD PUSH3 0x461BCD PUSH1 0xE5 SHL DUP2 MSTORE PUSH1 0x20 PUSH1 0x4 DUP3 ADD MSTORE PUSH1 0x11 PUSH1 0x24 DUP3 ADD MSTORE PUSH17 0x416C726561647920636F6D6D6974746565 PUSH1 0x78 SHL PUSH1 0x44 DUP3 ADD MSTORE PUSH1 0x64 ADD PUSH2 0x545 JUMP JUMPDEST PUSH1 0x1 PUSH1 0x1 PUSH1 0xA0 SHL SUB DUP2 AND PUSH1 0x0 DUP2 DUP2 MSTORE PUSH1 0x1 PUSH1 0x20 DUP2 SWAP1 MSTORE PUSH1 0x40 DUP1 DUP4 KECCAK256 DUP1 SLOAD PUSH1 0xFF NOT AND SWAP1 SWAP3 OR SWAP1 SWAP2 SSTORE MLOAD PUSH32 0x3D7EC2A7591EFBF272E92F356BD60D86A31605D6F50BF19BA8751CE307965A84 SWAP2 SWAP1 LOG2 POP JUMP JUMPDEST PUSH1 0x0 DUP2 PUSH2 0x97A JUMPI PUSH1 0x40 MLOAD PUSH3 0x461BCD PUSH1 0xE5 SHL DUP2 MSTORE PUSH1 0x20 PUSH1 0x4 DUP3 ADD MSTORE PUSH1 0x11 PUSH1 0x24 DUP3 ADD MSTORE PUSH17 0x22B6B83A3C903232B9B1B934B83A34B7B7 PUSH1 0x79 SHL PUSH1 0x44 DUP3 ADD MSTORE PUSH1 0x64 ADD PUSH2 0x545 JUMP JUMPDEST CALLER PUSH1 0x0 SWAP1 DUP2 MSTORE PUSH1 0x1 PUSH1 0x20 MSTORE PUSH1 0x40 SWAP1 KECCAK256 SLOAD PUSH1 0xFF AND PUSH2 0x9D9 JUMPI PUSH1 0x40 MLOAD PUSH3 0x461BCD PUSH1 0xE5 SHL DUP2 MSTORE PUSH1 0x20 PUSH1 0x4 DUP3 ADD MSTORE PUSH1 0x1A PUSH1 0x24 DUP3 ADD MSTORE PUSH32 0x4F6E6C7920636F6D6D69747465652063616E2070726F706F7365000000000000 PUSH1 0x44 DUP3 ADD MSTORE PUSH1 0x64 ADD PUSH2 0x545 JUMP JUMPDEST PUSH1 0x6 DUP1 SLOAD SWAP1 PUSH1 0x0 PUSH2 0x9E9 DUP4 PUSH2 0x190E JUMP JUMPDEST SWAP2 SWAP1 POP SSTORE POP PUSH1 0x40 MLOAD DUP1 PUSH1 0xE0 ADD PUSH1 0x40 MSTORE DUP1 PUSH1 0x6 SLOAD DUP2 MSTORE PUSH1 0x20 ADD DUP5 DUP5 DUP1 DUP1 PUSH1 0x1F ADD PUSH1 0x20 DUP1 SWAP2 DIV MUL PUSH1 0x20 ADD PUSH1 0x40 MLOAD SWAP1 DUP2 ADD PUSH1 0x40 MSTORE DUP1 SWAP4 SWAP3 SWAP2 SWAP1 DUP2 DUP2 MSTORE PUSH1 0x20 ADD DUP4 DUP4 DUP1 DUP3 DUP5 CALLDATACOPY PUSH1 0x0 SWAP3 ADD DUP3 SWAP1 MSTORE POP SWAP4 DUP6 MSTORE POP POP CALLER PUSH1 0x20 DUP1 DUP6 ADD SWAP2 SWAP1 SWAP2 MSTORE PUSH1 0x40 DUP1 DUP6 ADD DUP5 SWAP1 MSTORE PUSH1 0x60 DUP6 ADD DUP5 SWAP1 MSTORE PUSH1 0x80 DUP6 ADD DUP5 SWAP1 MSTORE PUSH1 0x1 PUSH1 0xA0 SWAP1 SWAP6 ADD DUP6 SWAP1 MSTORE PUSH1 0x6 SLOAD DUP5 MSTORE PUSH1 0x7 DUP3 MSTORE SWAP1 SWAP3 KECCAK256 DUP5 MLOAD DUP2 SSTORE SWAP2 DUP5 ADD MLOAD SWAP2 SWAP3 DUP4 ADD SWAP2 PUSH2 0xA86 SWAP2 POP DUP3 PUSH2 0x198C JUMP JUMPDEST POP PUSH1 0x40 DUP3 DUP2 ADD MLOAD PUSH1 0x2 DUP4 ADD DUP1 SLOAD PUSH1 0x1 PUSH1 0x1 PUSH1 0xA0 SHL SUB NOT AND PUSH1 0x1 PUSH1 0x1 PUSH1 0xA0 SHL SUB SWAP1 SWAP3 AND SWAP2 SWAP1 SWAP2 OR SWAP1 SSTORE PUSH1 0x60 DUP4 ADD MLOAD PUSH1 0x3 DUP4 ADD SSTORE PUSH1 0x80 DUP4 ADD MLOAD PUSH1 0x4 DUP4 ADD SSTORE PUSH1 0xA0 DUP4 ADD MLOAD PUSH1 0x5 SWAP1 SWAP3 ADD DUP1 SLOAD PUSH1 0xC0 SWAP1 SWAP5 ADD MLOAD PUSH2 0xFFFF NOT SWAP1 SWAP5 AND SWAP3 ISZERO ISZERO PUSH2 0xFF00 NOT AND SWAP3 SWAP1 SWAP3 OR PUSH2 0x100 SWAP4 ISZERO ISZERO SWAP4 SWAP1 SWAP4 MUL SWAP3 SWAP1 SWAP3 OR SWAP1 SSTORE PUSH1 0x6 SLOAD SWAP1 MLOAD CALLER SWAP2 SWAP1 PUSH32 0x7585F467599D0F008985F231AF99293BE388626AC16CA59505C2F8F88969CD63 SWAP1 PUSH2 0xB2E SWAP1 DUP8 SWAP1 DUP8 SWAP1 PUSH2 0x188D JUMP JUMPDEST PUSH1 0x40 MLOAD DUP1 SWAP2 SUB SWAP1 LOG3 POP PUSH1 0x6 SLOAD JUMPDEST SWAP3 SWAP2 POP POP JUMP JUMPDEST CALLER PUSH1 0x0 SWAP1 DUP2 MSTORE PUSH1 0x1 PUSH1 0x20 MSTORE PUSH1 0x40 SWAP1 KECCAK256 SLOAD PUSH1 0xFF AND PUSH2 0xB70 JUMPI PUSH1 0x40 MLOAD PUSH3 0x461BCD PUSH1 0xE5 SHL DUP2 MSTORE PUSH1 0x4 ADD PUSH2 0x545 SWAP1 PUSH2 0x1866 JUMP JUMPDEST PUSH1 0x1 PUSH1 0x1 PUSH1 0xA0 SHL SUB DUP3 AND PUSH2 0xB96 JUMPI PUSH1 0x40 MLOAD PUSH3 0x461BCD PUSH1 0xE5 SHL DUP2 MSTORE PUSH1 0x4 ADD PUSH2 0x545 SWAP1 PUSH2 0x18BC JUMP JUMPDEST PUSH1 0x14 DUP2 LT ISZERO DUP1 ISZERO PUSH2 0xBA8 JUMPI POP PUSH1 0x32 DUP2 GT ISZERO JUMPDEST PUSH2 0xBE7 JUMPI PUSH1 0x40 MLOAD PUSH3 0x461BCD PUSH1 0xE5 SHL DUP2 MSTORE PUSH1 0x20 PUSH1 0x4 DUP3 ADD MSTORE PUSH1 0x10 PUSH1 0x24 DUP3 ADD MSTORE PUSH16 0x496E76616C69642047542072616E6765 PUSH1 0x80 SHL PUSH1 0x44 DUP3 ADD MSTORE PUSH1 0x64 ADD PUSH2 0x545 JUMP JUMPDEST PUSH1 0x1 PUSH1 0x1 PUSH1 0xA0 SHL SUB DUP3 AND PUSH1 0x0 SWAP1 DUP2 MSTORE PUSH1 0x2 PUSH1 0x20 MSTORE PUSH1 0x40 DUP2 KECCAK256 DUP1 SLOAD DUP4 SWAP3 SWAP1 PUSH2 0xC0F SWAP1 DUP5 SWAP1 PUSH2 0x18FB JUMP JUMPDEST SWAP1 SWAP2 SSTORE POP POP PUSH1 0x40 MLOAD DUP2 DUP2 MSTORE PUSH1 0x1 PUSH1 0x1 PUSH1 0xA0 SHL SUB DUP4 AND SWAP1 PUSH32 0xD6B63DF4F5BB5A0C77DFEA0E46F35985E27D244EEC539E5C2A7567CC32BB58B4 SWAP1 PUSH1 0x20 ADD PUSH2 0x697 JUMP JUMPDEST PUSH1 0x1 PUSH1 0x1 PUSH1 0xA0 SHL SUB DUP2 AND PUSH2 0xC75 JUMPI PUSH1 0x40 MLOAD PUSH3 0x461BCD PUSH1 0xE5 SHL DUP2 MSTORE PUSH1 0x4 ADD PUSH2 0x545 SWAP1 PUSH2 0x18BC JUMP JUMPDEST PUSH2 0xC7E DUP2 PUSH2 0x149F JUMP JUMPDEST PUSH2 0xC86 PUSH2 0x13BB JUMP JUMPDEST POP JUMP JUMPDEST CALLER PUSH1 0x0 SWAP1 DUP2 MSTORE PUSH1 0x1 PUSH1 0x20 MSTORE PUSH1 0x40 SWAP1 KECCAK256 SLOAD PUSH1 0xFF AND PUSH2 0xCB8 JUMPI PUSH1 0x40 MLOAD PUSH3 0x461BCD PUSH1 0xE5 SHL DUP2 MSTORE PUSH1 0x4 ADD PUSH2 0x545 SWAP1 PUSH2 0x1866 JUMP JUMPDEST PUSH1 0x3 PUSH1 0x0 SLOAD PUSH1 0xFF AND PUSH1 0x3 DUP2 GT ISZERO PUSH2 0xCD1 JUMPI PUSH2 0xCD1 PUSH2 0x16B3 JUMP JUMPDEST EQ PUSH2 0xD13 JUMPI PUSH1 0x40 MLOAD PUSH3 0x461BCD PUSH1 0xE5 SHL DUP2 MSTORE PUSH1 0x20 PUSH1 0x4 DUP3 ADD MSTORE PUSH1 0x12 PUSH1 0x24 DUP3 ADD MSTORE PUSH18 0x4E6F7420696E206D616E75616C206D6F6465 PUSH1 0x70 SHL PUSH1 0x44 DUP3 ADD MSTORE PUSH1 0x64 ADD PUSH2 0x545 JUMP JUMPDEST PUSH1 0xA PUSH1 0x5 SLOAD LT PUSH2 0xD37 JUMPI PUSH1 0x0 DUP1 SLOAD PUSH1 0x2 SWAP2 SWAP1 PUSH1 0xFF NOT AND PUSH1 0x1 DUP4 JUMPDEST MUL OR SWAP1 SSTORE POP PUSH2 0xD5E JUMP JUMPDEST PUSH1 0x5 DUP1 SLOAD LT PUSH2 0xD53 JUMPI PUSH1 0x0 DUP1 SLOAD PUSH1 0x1 SWAP2 SWAP1 PUSH1 0xFF NOT AND DUP3 DUP1 PUSH2 0xD2D JUMP JUMPDEST PUSH1 0x0 DUP1 SLOAD PUSH1 0xFF NOT AND SWAP1 SSTORE JUMPDEST PUSH1 0x40 MLOAD PUSH32 0xADB61CFD798AE86D6CAB9BE5454C9AC4007F7E4F2233AC25C5F5ED1FBB6B67B2 SWAP1 PUSH1 0x0 SWAP1 LOG1 PUSH1 0x0 SLOAD PUSH1 0x40 MLOAD PUSH32 0x5AC19F4E6DB6FD8B645DD056E4842CD2F63E0C6F0568176C17EF60E3C16732D SWAP2 PUSH2 0xDBE SWAP2 PUSH1 0xFF SWAP1 SWAP2 AND SWAP1 PUSH2 0x16C9 JUMP JUMPDEST PUSH1 0x40 MLOAD DUP1 SWAP2 SUB SWAP1 LOG1 JUMP JUMPDEST PUSH1 0x0 DUP3 DUP2 MSTORE PUSH1 0x7 PUSH1 0x20 MSTORE PUSH1 0x40 DUP2 KECCAK256 DUP1 SLOAD SWAP1 SWAP2 SUB PUSH2 0xE21 JUMPI PUSH1 0x40 MLOAD PUSH3 0x461BCD PUSH1 0xE5 SHL DUP2 MSTORE PUSH1 0x20 PUSH1 0x4 DUP3 ADD MSTORE PUSH1 0x17 PUSH1 0x24 DUP3 ADD MSTORE PUSH23 0x141C9BDC1BDCD85B08191BD95CC81B9BDD08195E1A5CDD PUSH1 0x4A SHL PUSH1 0x44 DUP3 ADD MSTORE PUSH1 0x64 ADD PUSH2 0x545 JUMP JUMPDEST PUSH1 0x5 DUP2 ADD SLOAD PUSH2 0x100 SWAP1 DIV PUSH1 0xFF AND PUSH2 0xE73 JUMPI PUSH1 0x40 MLOAD PUSH3 0x461BCD PUSH1 0xE5 SHL DUP2 MSTORE PUSH1 0x20 PUSH1 0x4 DUP3 ADD MSTORE PUSH1 0x16 PUSH1 0x24 DUP3 ADD MSTORE PUSH22 0x50726F706F73616C206973206E6F7420616374697665 PUSH1 0x50 SHL PUSH1 0x44 DUP3 ADD MSTORE PUSH1 0x64 ADD PUSH2 0x545 JUMP JUMPDEST PUSH1 0x5 DUP2 ADD SLOAD PUSH1 0xFF AND ISZERO PUSH2 0xEC4 JUMPI PUSH1 0x40 MLOAD PUSH3 0x461BCD PUSH1 0xE5 SHL DUP2 MSTORE PUSH1 0x20 PUSH1 0x4 DUP3 ADD MSTORE PUSH1 0x19 PUSH1 0x24 DUP3 ADD MSTORE PUSH25 0x141C9BDC1BDCD85B08185B1C9958591E48195E1958DD5D1959 PUSH1 0x3A SHL PUSH1 0x44 DUP3 ADD MSTORE PUSH1 0x64 ADD PUSH2 0x545 JUMP JUMPDEST PUSH1 0x0 DUP4 DUP2 MSTORE PUSH1 0x8 PUSH1 0x20 SWAP1 DUP2 MSTORE PUSH1 0x40 DUP1 DUP4 KECCAK256 CALLER DUP5 MSTORE SWAP1 SWAP2 MSTORE SWAP1 KECCAK256 SLOAD PUSH1 0xFF AND ISZERO PUSH2 0xF1E JUMPI PUSH1 0x40 MLOAD PUSH3 0x461BCD PUSH1 0xE5 SHL DUP2 MSTORE PUSH1 0x20 PUSH1 0x4 DUP3 ADD MSTORE PUSH1 0xD PUSH1 0x24 DUP3 ADD MSTORE PUSH13 0x105B1C9958591E481D9BDD1959 PUSH1 0x9A SHL PUSH1 0x44 DUP3 ADD MSTORE PUSH1 0x64 ADD PUSH2 0x545 JUMP JUMPDEST CALLER PUSH1 0x0 SWAP1 DUP2 MSTORE PUSH1 0x1 PUSH1 0x20 MSTORE PUSH1 0x40 SWAP1 KECCAK256 SLOAD PUSH1 0xFF AND PUSH2 0xF7D JUMPI PUSH1 0x40 MLOAD PUSH3 0x461BCD PUSH1 0xE5 SHL DUP2 MSTORE PUSH1 0x20 PUSH1 0x4 DUP3 ADD MSTORE PUSH1 0x17 PUSH1 0x24 DUP3 ADD MSTORE PUSH32 0x4F6E6C7920636F6D6D69747465652063616E20766F7465000000000000000000 PUSH1 0x44 DUP3 ADD MSTORE PUSH1 0x64 ADD PUSH2 0x545 JUMP JUMPDEST PUSH1 0x0 DUP4 DUP2 MSTORE PUSH1 0x8 PUSH1 0x20 SWAP1 DUP2 MSTORE PUSH1 0x40 DUP1 DUP4 KECCAK256 CALLER DUP5 MSTORE SWAP1 SWAP2 MSTORE SWAP1 KECCAK256 DUP1 SLOAD PUSH1 0xFF NOT AND PUSH1 0x1 OR SWAP1 SSTORE DUP2 ISZERO PUSH2 0xFC3 JUMPI PUSH1 0x3 DUP2 ADD DUP1 SLOAD SWAP1 PUSH1 0x0 PUSH2 0xFB9 DUP4 PUSH2 0x190E JUMP JUMPDEST SWAP2 SWAP1 POP SSTORE POP PUSH2 0xFDB JUMP JUMPDEST PUSH1 0x4 DUP2 ADD DUP1 SLOAD SWAP1 PUSH1 0x0 PUSH2 0xFD5 DUP4 PUSH2 0x190E JUMP JUMPDEST SWAP2 SWAP1 POP SSTORE POP JUMPDEST PUSH1 0x40 MLOAD DUP3 ISZERO ISZERO DUP2 MSTORE CALLER SWAP1 DUP5 SWAP1 PUSH32 0xDEF80F9A3B4C7A4251442658CCF516BF33EA4ACAF31638FC6DA8EBDB0F64C72 SWAP1 PUSH1 0x20 ADD PUSH1 0x40 MLOAD DUP1 SWAP2 SUB SWAP1 LOG3 POP POP POP JUMP JUMPDEST PUSH1 0x0 PUSH1 0x60 PUSH1 0x0 DUP1 PUSH1 0x0 DUP1 PUSH1 0x0 DUP1 PUSH1 0x7 PUSH1 0x0 DUP11 DUP2 MSTORE PUSH1 0x20 ADD SWAP1 DUP2 MSTORE PUSH1 0x20 ADD PUSH1 0x0 KECCAK256 PUSH1 0x40 MLOAD DUP1 PUSH1 0xE0 ADD PUSH1 0x40 MSTORE SWAP1 DUP2 PUSH1 0x0 DUP3 ADD SLOAD DUP2 MSTORE PUSH1 0x20 ADD PUSH1 0x1 DUP3 ADD DUP1 SLOAD PUSH2 0x105E SWAP1 PUSH2 0x182C JUMP JUMPDEST DUP1 PUSH1 0x1F ADD PUSH1 0x20 DUP1 SWAP2 DIV MUL PUSH1 0x20 ADD PUSH1 0x40 MLOAD SWAP1 DUP2 ADD PUSH1 0x40 MSTORE DUP1 SWAP3 SWAP2 SWAP1 DUP2 DUP2 MSTORE PUSH1 0x20 ADD DUP3 DUP1 SLOAD PUSH2 0x108A SWAP1 PUSH2 0x182C JUMP JUMPDEST DUP1 ISZERO PUSH2 0x10D7 JUMPI DUP1 PUSH1 0x1F LT PUSH2 0x10AC JUMPI PUSH2 0x100 DUP1 DUP4 SLOAD DIV MUL DUP4 MSTORE SWAP2 PUSH1 0x20 ADD SWAP2 PUSH2 0x10D7 JUMP JUMPDEST DUP3 ADD SWAP2 SWAP1 PUSH1 0x0 MSTORE PUSH1 0x20 PUSH1 0x0 KECCAK256 SWAP1 JUMPDEST DUP2 SLOAD DUP2 MSTORE SWAP1 PUSH1 0x1 ADD SWAP1 PUSH1 0x20 ADD DUP1 DUP4 GT PUSH2 0x10BA JUMPI DUP3 SWAP1 SUB PUSH1 0x1F AND DUP3 ADD SWAP2 JUMPDEST POP POP POP SWAP2 DUP4 MSTORE POP POP PUSH1 0x2 DUP3 ADD SLOAD PUSH1 0x1 PUSH1 0x1 PUSH1 0xA0 SHL SUB AND PUSH1 0x20 DUP1 DUP4 ADD SWAP2 SWAP1 SWAP2 MSTORE PUSH1 0x3 DUP4 ADD SLOAD PUSH1 0x40 DUP1 DUP5 ADD SWAP2 SWAP1 SWAP2 MSTORE PUSH1 0x4 DUP5 ADD SLOAD PUSH1 0x60 DUP1 DUP6 ADD SWAP2 SWAP1 SWAP2 MSTORE PUSH1 0x5 SWAP1 SWAP5 ADD SLOAD PUSH1 0xFF DUP1 DUP3 AND ISZERO ISZERO PUSH1 0x80 DUP1 DUP8 ADD SWAP2 SWAP1 SWAP2 MSTORE PUSH2 0x100 SWAP1 SWAP3 DIV AND ISZERO ISZERO PUSH1 0xA0 SWAP5 DUP6 ADD MSTORE DUP6 MLOAD SWAP3 DUP7 ADD MLOAD SWAP2 DUP7 ADD MLOAD SWAP5 DUP7 ADD MLOAD SWAP1 DUP7 ADD MLOAD SWAP4 DUP7 ADD MLOAD PUSH1 0xC0 SWAP1 SWAP7 ADD MLOAD SWAP3 SWAP16 SWAP2 SWAP15 POP SWAP4 SWAP13 POP SWAP3 SWAP11 POP SWAP1 SWAP9 POP SWAP2 SWAP7 POP SWAP1 SWAP5 POP SWAP3 POP POP POP JUMP JUMPDEST CALLER PUSH1 0x0 SWAP1 DUP2 MSTORE PUSH1 0x1 PUSH1 0x20 MSTORE PUSH1 0x40 SWAP1 KECCAK256 SLOAD PUSH1 0xFF AND PUSH2 0x119C JUMPI PUSH1 0x40 MLOAD PUSH3 0x461BCD PUSH1 0xE5 SHL DUP2 MSTORE PUSH1 0x4 ADD PUSH2 0x545 SWAP1 PUSH2 0x1866 JUMP JUMPDEST PUSH1 0x1 PUSH1 0x1 PUSH1 0xA0 SHL SUB DUP2 AND PUSH2 0x11C2 JUMPI PUSH1 0x40 MLOAD PUSH3 0x461BCD PUSH1 0xE5 SHL DUP2 MSTORE PUSH1 0x4 ADD PUSH2 0x545 SWAP1 PUSH2 0x18BC JUMP JUMPDEST PUSH1 0x1 PUSH1 0x1 PUSH1 0xA0 SHL SUB DUP2 AND PUSH1 0x0 SWAP1 DUP2 MSTORE PUSH1 0x1 PUSH1 0x20 MSTORE PUSH1 0x40 SWAP1 KECCAK256 SLOAD PUSH1 0xFF AND PUSH2 0x11FA JUMPI PUSH1 0x40 MLOAD PUSH3 0x461BCD PUSH1 0xE5 SHL DUP2 MSTORE PUSH1 0x4 ADD PUSH2 0x545 SWAP1 PUSH2 0x1866 JUMP JUMPDEST CALLER PUSH1 0x1 PUSH1 0x1 PUSH1 0xA0 SHL SUB DUP3 AND SUB PUSH2 0x1247 JUMPI PUSH1 0x40 MLOAD PUSH3 0x461BCD PUSH1 0xE5 SHL DUP2 MSTORE PUSH1 0x20 PUSH1 0x4 DUP3 ADD MSTORE PUSH1 0x12 PUSH1 0x24 DUP3 ADD MSTORE PUSH18 0x21B0B73737BA103932B6B7BB329039B2B633 PUSH1 0x71 SHL PUSH1 0x44 DUP3 ADD MSTORE PUSH1 0x64 ADD PUSH2 0x545 JUMP JUMPDEST PUSH1 0x1 PUSH1 0x1 PUSH1 0xA0 SHL SUB DUP2 AND PUSH1 0x0 DUP2 DUP2 MSTORE PUSH1 0x1 PUSH1 0x20 MSTORE PUSH1 0x40 DUP1 DUP3 KECCAK256 DUP1 SLOAD PUSH1 0xFF NOT AND SWAP1 SSTORE MLOAD PUSH32 0x7A03E78100F5E4B822F4633CD9D55DD2220ADC31155C2A03AC291FA0F902B447 SWAP2 SWAP1 LOG2 POP JUMP JUMPDEST CALLER PUSH1 0x0 SWAP1 DUP2 MSTORE PUSH1 0x1 PUSH1 0x20 MSTORE PUSH1 0x40 SWAP1 KECCAK256 SLOAD PUSH1 0xFF AND PUSH2 0x12BF JUMPI PUSH1 0x40 MLOAD PUSH3 0x461BCD PUSH1 0xE5 SHL DUP2 MSTORE PUSH1 0x4 ADD PUSH2 0x545 SWAP1 PUSH2 0x1866 JUMP JUMPDEST PUSH1 0x1 PUSH1 0x1 PUSH1 0xA0 SHL SUB DUP3 AND PUSH2 0x12E5 JUMPI PUSH1 0x40 MLOAD PUSH3 0x461BCD PUSH1 0xE5 SHL DUP2 MSTORE PUSH1 0x4 ADD PUSH2 0x545 SWAP1 PUSH2 0x18BC JUMP JUMPDEST PUSH1 0x0 DUP2 GT PUSH2 0x132A JUMPI PUSH1 0x40 MLOAD PUSH3 0x461BCD PUSH1 0xE5 SHL DUP2 MSTORE PUSH1 0x20 PUSH1 0x4 DUP3 ADD MSTORE PUSH1 0x12 PUSH1 0x24 DUP3 ADD MSTORE PUSH18 0x416D6F756E74206D757374206265203E203 PUSH1 0x74 SHL PUSH1 0x44 DUP3 ADD MSTORE PUSH1 0x64 ADD PUSH2 0x545 JUMP JUMPDEST PUSH1 0x1 PUSH1 0x1 PUSH1 0xA0 SHL SUB DUP3 AND PUSH1 0x0 SWAP1 DUP2 MSTORE PUSH1 0x2 PUSH1 0x20 MSTORE PUSH1 0x40 SWAP1 KECCAK256 SLOAD DUP2 GT ISZERO PUSH2 0x1384 JUMPI PUSH1 0x40 MLOAD PUSH3 0x461BCD PUSH1 0xE5 SHL DUP2 MSTORE PUSH1 0x20 PUSH1 0x4 DUP3 ADD MSTORE PUSH1 0xF PUSH1 0x24 DUP3 ADD MSTORE PUSH15 0x125B9CDD59999A58DA595B9D0811D5 PUSH1 0x8A SHL PUSH1 0x44 DUP3 ADD MSTORE PUSH1 0x64 ADD PUSH2 0x545 JUMP JUMPDEST PUSH1 0x1 PUSH1 0x1 PUSH1 0xA0 SHL SUB DUP3 AND PUSH1 0x0 SWAP1 DUP2 MSTORE PUSH1 0x2 PUSH1 0x20 MSTORE PUSH1 0x40 DUP2 KECCAK256 DUP1 SLOAD DUP4 SWAP3 SWAP1 PUSH2 0x13AC SWAP1 DUP5 SWAP1 PUSH2 0x1A4C JUMP JUMPDEST SWAP1 SWAP2 SSTORE POP PUSH2 0x6A8 SWAP1 POP DUP3 PUSH2 0x149F JUMP JUMPDEST PUSH1 0x3 PUSH1 0x0 SLOAD PUSH1 0xFF AND PUSH1 0x3 DUP2 GT ISZERO PUSH2 0x13D4 JUMPI PUSH2 0x13D4 PUSH2 0x16B3 JUMP JUMPDEST SUB PUSH2 0x13DB JUMPI JUMP JUMPDEST PUSH1 0x0 SLOAD PUSH1 0x5 SLOAD PUSH1 0xFF SWAP1 SWAP2 AND SWAP1 PUSH1 0xA GT PUSH2 0x1408 JUMPI PUSH1 0x0 DUP1 SLOAD PUSH1 0x2 SWAP2 SWAP1 PUSH1 0xFF NOT AND PUSH1 0x1 DUP4 JUMPDEST MUL OR SWAP1 SSTORE POP PUSH2 0x142F JUMP JUMPDEST PUSH1 0x5 DUP1 SLOAD LT PUSH2 0x1424 JUMPI PUSH1 0x0 DUP1 SLOAD PUSH1 0x1 SWAP2 SWAP1 PUSH1 0xFF NOT AND DUP3 DUP1 PUSH2 0x13FE JUMP JUMPDEST PUSH1 0x0 DUP1 SLOAD PUSH1 0xFF NOT AND SWAP1 SSTORE JUMPDEST PUSH1 0x0 SLOAD PUSH1 0xFF AND PUSH1 0x3 DUP2 GT ISZERO PUSH2 0x1446 JUMPI PUSH2 0x1446 PUSH2 0x16B3 JUMP JUMPDEST DUP2 PUSH1 0x3 DUP2 GT ISZERO PUSH2 0x1458 JUMPI PUSH2 0x1458 PUSH2 0x16B3 JUMP JUMPDEST EQ PUSH2 0xC86 JUMPI PUSH1 0x0 SLOAD PUSH1 0x40 MLOAD PUSH32 0x5AC19F4E6DB6FD8B645DD056E4842CD2F63E0C6F0568176C17EF60E3C16732D SWAP2 PUSH2 0x1494 SWAP2 PUSH1 0xFF SWAP1 SWAP2 AND SWAP1 PUSH2 0x16C9 JUMP JUMPDEST PUSH1 0x40 MLOAD DUP1 SWAP2 SUB SWAP1 LOG1 POP JUMP JUMPDEST PUSH1 0x3 SLOAD PUSH1 0x1 PUSH1 0x1 PUSH1 0xA0 SHL SUB DUP3 AND PUSH1 0x0 SWAP1 DUP2 MSTORE PUSH1 0x2 PUSH1 0x20 MSTORE PUSH1 0x40 SWAP1 KECCAK256 SLOAD LT DUP1 ISZERO SWAP1 PUSH2 0x14E2 JUMPI POP PUSH1 0x1 PUSH1 0x1 PUSH1 0xA0 SHL SUB DUP2 AND PUSH1 0x0 SWAP1 DUP2 MSTORE PUSH1 0x4 PUSH1 0x20 MSTORE PUSH1 0x40 SWAP1 KECCAK256 SLOAD PUSH1 0xFF AND ISZERO JUMPDEST ISZERO PUSH2 0x1554 JUMPI PUSH1 0x1 PUSH1 0x1 PUSH1 0xA0 SHL SUB DUP2 AND PUSH1 0x0 SWAP1 DUP2 MSTORE PUSH1 0x4 PUSH1 0x20 MSTORE PUSH1 0x40 DUP2 KECCAK256 DUP1 SLOAD PUSH1 0xFF NOT AND PUSH1 0x1 OR SWAP1 SSTORE PUSH1 0x5 DUP1 SLOAD SWAP2 PUSH2 0x1518 DUP4 PUSH2 0x190E JUMP JUMPDEST SWAP1 SWAP2 SSTORE POP POP PUSH1 0x40 MLOAD PUSH1 0x1 PUSH1 0x1 PUSH1 0xA0 SHL SUB DUP3 AND SWAP1 PUSH32 0x383B7D83C58DB5E48F03A5392DCA15B58DD5E3DFD94802DA12E3ABE6519C2518 SWAP1 PUSH1 0x0 SWAP1 LOG2 POP JUMP JUMPDEST PUSH1 0x3 SLOAD PUSH1 0x1 PUSH1 0x1 PUSH1 0xA0 SHL SUB DUP3 AND PUSH1 0x0 SWAP1 DUP2 MSTORE PUSH1 0x2 PUSH1 0x20 MSTORE PUSH1 0x40 SWAP1 KECCAK256 SLOAD LT DUP1 ISZERO PUSH2 0x1595 JUMPI POP PUSH1 0x1 PUSH1 0x1 PUSH1 0xA0 SHL SUB DUP2 AND PUSH1 0x0 SWAP1 DUP2 MSTORE PUSH1 0x4 PUSH1 0x20 MSTORE PUSH1 0x40 SWAP1 KECCAK256 SLOAD PUSH1 0xFF AND JUMPDEST ISZERO PUSH2 0xC86 JUMPI PUSH1 0x1 PUSH1 0x1 PUSH1 0xA0 SHL SUB DUP2 AND PUSH1 0x0 SWAP1 DUP2 MSTORE PUSH1 0x4 PUSH1 0x20 MSTORE PUSH1 0x40 DUP2 KECCAK256 DUP1 SLOAD PUSH1 0xFF NOT AND SWAP1 SSTORE PUSH1 0x5 DUP1 SLOAD SWAP2 PUSH2 0x15C8 DUP4 PUSH2 0x1A5F JUMP JUMPDEST SWAP1 SWAP2 SSTORE POP POP PUSH1 0x40 MLOAD PUSH1 0x1 PUSH1 0x1 PUSH1 0xA0 SHL SUB DUP3 AND SWAP1 PUSH32 0x44A3CD4EB5CC5748F6169DF057B1CB2AE4C383E87CD94663C430E095D4CBA424 SWAP1 PUSH1 0x0 SWAP1 LOG2 POP JUMP JUMPDEST PUSH1 0x0 PUSH1 0x20 DUP3 DUP5 SUB SLT ISZERO PUSH2 0x1616 JUMPI PUSH1 0x0 DUP1 REVERT JUMPDEST POP CALLDATALOAD SWAP2 SWAP1 POP JUMP JUMPDEST DUP8 DUP2 MSTORE PUSH1 0x0 PUSH1 0x20 PUSH1 0xE0 DUP2 DUP5 ADD MSTORE DUP9 MLOAD DUP1 PUSH1 0xE0 DUP6 ADD MSTORE PUSH1 0x0 JUMPDEST DUP2 DUP2 LT ISZERO PUSH2 0x1652 JUMPI DUP11 DUP2 ADD DUP4 ADD MLOAD DUP6 DUP3 ADD PUSH2 0x100 ADD MSTORE DUP3 ADD PUSH2 0x1635 JUMP JUMPDEST POP PUSH2 0x100 SWAP2 POP PUSH1 0x0 DUP3 DUP3 DUP7 ADD ADD MSTORE DUP2 PUSH1 0x1F NOT PUSH1 0x1F DUP4 ADD AND DUP6 ADD ADD SWAP3 POP POP POP PUSH2 0x1685 PUSH1 0x40 DUP4 ADD DUP9 PUSH1 0x1 PUSH1 0x1 PUSH1 0xA0 SHL SUB AND SWAP1 MSTORE JUMP JUMPDEST DUP6 PUSH1 0x60 DUP4 ADD MSTORE DUP5 PUSH1 0x80 DUP4 ADD MSTORE PUSH2 0x169F PUSH1 0xA0 DUP4 ADD DUP6 ISZERO ISZERO SWAP1 MSTORE JUMP JUMPDEST DUP3 ISZERO ISZERO PUSH1 0xC0 DUP4 ADD MSTORE SWAP9 SWAP8 POP POP POP POP POP POP POP POP JUMP JUMPDEST PUSH4 0x4E487B71 PUSH1 0xE0 SHL PUSH1 0x0 MSTORE PUSH1 0x21 PUSH1 0x4 MSTORE PUSH1 0x24 PUSH1 0x0 REVERT JUMPDEST PUSH1 0x20 DUP2 ADD PUSH1 0x4 DUP4 LT PUSH2 0x16EB JUMPI PUSH4 0x4E487B71 PUSH1 0xE0 SHL PUSH1 0x0 MSTORE PUSH1 0x21 PUSH1 0x4 MSTORE PUSH1 0x24 PUSH1 0x0 REVERT JUMPDEST SWAP2 SWAP1 MSTORE SWAP1 JUMP JUMPDEST PUSH1 0x0 DUP1 PUSH1 0x20 DUP4 DUP6 SUB SLT ISZERO PUSH2 0x1704 JUMPI PUSH1 0x0 DUP1 REVERT JUMPDEST DUP3 CALLDATALOAD PUSH8 0xFFFFFFFFFFFFFFFF DUP1 DUP3 GT ISZERO PUSH2 0x171C JUMPI PUSH1 0x0 DUP1 REVERT JUMPDEST DUP2 DUP6 ADD SWAP2 POP DUP6 PUSH1 0x1F DUP4 ADD SLT PUSH2 0x1730 JUMPI PUSH1 0x0 DUP1 REVERT JUMPDEST DUP2 CALLDATALOAD DUP2 DUP2 GT ISZERO PUSH2 0x173F JUMPI PUSH1 0x0 DUP1 REVERT JUMPDEST DUP7 PUSH1 0x20 DUP3 DUP6 ADD ADD GT ISZERO PUSH2 0x1751 JUMPI PUSH1 0x0 DUP1 REVERT JUMPDEST PUSH1 0x20 SWAP3 SWAP1 SWAP3 ADD SWAP7 SWAP2 SWAP6 POP SWAP1 SWAP4 POP POP POP POP JUMP JUMPDEST DUP1 CALLDATALOAD PUSH1 0x1 PUSH1 0x1 PUSH1 0xA0 SHL SUB DUP2 AND DUP2 EQ PUSH2 0x177A JUMPI PUSH1 0x0 DUP1 REVERT JUMPDEST SWAP2 SWAP1 POP JUMP JUMPDEST PUSH1 0x0 DUP1 PUSH1 0x40 DUP4 DUP6 SUB SLT ISZERO PUSH2 0x1792 JUMPI PUSH1 0x0 DUP1 REVERT JUMPDEST PUSH2 0x179B DUP4 PUSH2 0x1763 JUMP JUMPDEST SWAP5 PUSH1 0x20 SWAP4 SWAP1 SWAP4 ADD CALLDATALOAD SWAP4 POP POP POP JUMP JUMPDEST PUSH1 0x0 PUSH1 0x20 DUP3 DUP5 SUB SLT ISZERO PUSH2 0x17BB JUMPI PUSH1 0x0 DUP1 REVERT JUMPDEST PUSH2 0x17C4 DUP3 PUSH2 0x1763 JUMP JUMPDEST SWAP4 SWAP3 POP POP POP JUMP JUMPDEST PUSH1 0x0 DUP1 PUSH1 0x40 DUP4 DUP6 SUB SLT ISZERO PUSH2 0x17DE JUMPI PUSH1 0x0 DUP1 REVERT JUMPDEST DUP3 CALLDATALOAD SWAP2 POP PUSH2 0x17EE PUSH1 0x20 DUP5 ADD PUSH2 0x1763 JUMP JUMPDEST SWAP1 POP SWAP3 POP SWAP3 SWAP1 POP JUMP JUMPDEST PUSH1 0x0 DUP1 PUSH1 0x40 DUP4 DUP6 SUB SLT ISZERO PUSH2 0x180A JUMPI PUSH1 0x0 DUP1 REVERT JUMPDEST DUP3 CALLDATALOAD SWAP2 POP PUSH1 0x20 DUP4 ADD CALLDATALOAD DUP1 ISZERO ISZERO DUP2 EQ PUSH2 0x1821 JUMPI PUSH1 0x0 DUP1 REVERT JUMPDEST DUP1 SWAP2 POP POP SWAP3 POP SWAP3 SWAP1 POP JUMP JUMPDEST PUSH1 0x1 DUP2 DUP2 SHR SWAP1 DUP3 AND DUP1 PUSH2 0x1840 JUMPI PUSH1 0x7F DUP3 AND SWAP2 POP JUMPDEST PUSH1 0x20 DUP3 LT DUP2 SUB PUSH2 0x1860 JUMPI PUSH4 0x4E487B71 PUSH1 0xE0 SHL PUSH1 0x0 MSTORE PUSH1 0x22 PUSH1 0x4 MSTORE PUSH1 0x24 PUSH1 0x0 REVERT JUMPDEST POP SWAP2 SWAP1 POP JUMP JUMPDEST PUSH1 0x20 DUP1 DUP3 MSTORE PUSH1 0xD SWAP1 DUP3 ADD MSTORE PUSH13 0x4E6F7420636F6D6D6974746565 PUSH1 0x98 SHL PUSH1 0x40 DUP3 ADD MSTORE PUSH1 0x60 ADD SWAP1 JUMP JUMPDEST PUSH1 0x20 DUP2 MSTORE DUP2 PUSH1 0x20 DUP3 ADD MSTORE DUP2 DUP4 PUSH1 0x40 DUP4 ADD CALLDATACOPY PUSH1 0x0 DUP2 DUP4 ADD PUSH1 0x40 SWAP1 DUP2 ADD SWAP2 SWAP1 SWAP2 MSTORE PUSH1 0x1F SWAP1 SWAP3 ADD PUSH1 0x1F NOT AND ADD ADD SWAP2 SWAP1 POP JUMP JUMPDEST PUSH1 0x20 DUP1 DUP3 MSTORE PUSH1 0xF SWAP1 DUP3 ADD MSTORE PUSH15 0x496E76616C69642061646472657373 PUSH1 0x88 SHL PUSH1 0x40 DUP3 ADD MSTORE PUSH1 0x60 ADD SWAP1 JUMP JUMPDEST PUSH4 0x4E487B71 PUSH1 0xE0 SHL PUSH1 0x0 MSTORE PUSH1 0x11 PUSH1 0x4 MSTORE PUSH1 0x24 PUSH1 0x0 REVERT JUMPDEST DUP1 DUP3 ADD DUP1 DUP3 GT ISZERO PUSH2 0xB3B JUMPI PUSH2 0xB3B PUSH2 0x18E5 JUMP JUMPDEST PUSH1 0x0 PUSH1 0x1 DUP3 ADD PUSH2 0x1920 JUMPI PUSH2 0x1920 PUSH2 0x18E5 JUMP JUMPDEST POP PUSH1 0x1 ADD SWAP1 JUMP JUMPDEST PUSH4 0x4E487B71 PUSH1 0xE0 SHL PUSH1 0x0 MSTORE PUSH1 0x41 PUSH1 0x4 MSTORE PUSH1 0x24 PUSH1 0x0 REVERT JUMPDEST PUSH1 0x1F DUP3 GT ISZERO PUSH2 0x1987 JUMPI PUSH1 0x0 DUP2 DUP2 MSTORE PUSH1 0x20 DUP2 KECCAK256 PUSH1 0x1F DUP6 ADD PUSH1 0x5 SHR DUP2 ADD PUSH1 0x20 DUP7 LT ISZERO PUSH2 0x1964 JUMPI POP DUP1 JUMPDEST PUSH1 0x1F DUP6 ADD PUSH1 0x5 SHR DUP3 ADD SWAP2 POP JUMPDEST DUP2 DUP2 LT ISZERO PUSH2 0x1983 JUMPI DUP3 DUP2 SSTORE PUSH1 0x1 ADD PUSH2 0x1970 JUMP JUMPDEST POP POP POP JUMPDEST POP POP POP JUMP JUMPDEST DUP2 MLOAD PUSH8 0xFFFFFFFFFFFFFFFF DUP2 GT ISZERO PUSH2 0x19A6 JUMPI PUSH2 0x19A6 PUSH2 0x1927 JUMP JUMPDEST PUSH2 0x19BA DUP2 PUSH2 0x19B4 DUP5 SLOAD PUSH2 0x182C JUMP JUMPDEST DUP5 PUSH2 0x193D JUMP JUMPDEST PUSH1 0x20 DUP1 PUSH1 0x1F DUP4 GT PUSH1 0x1 DUP2 EQ PUSH2 0x19EF JUMPI PUSH1 0x0 DUP5 ISZERO PUSH2 0x19D7 JUMPI POP DUP6 DUP4 ADD MLOAD JUMPDEST PUSH1 0x0 NOT PUSH1 0x3 DUP7 SWAP1 SHL SHR NOT AND PUSH1 0x1 DUP6 SWAP1 SHL OR DUP6 SSTORE PUSH2 0x1983 JUMP JUMPDEST PUSH1 0x0 DUP6 DUP2 MSTORE PUSH1 0x20 DUP2 KECCAK256 PUSH1 0x1F NOT DUP7 AND SWAP2 JUMPDEST DUP3 DUP2 LT ISZERO PUSH2 0x1A1E JUMPI DUP9 DUP7 ADD MLOAD DUP3 SSTORE SWAP5 DUP5 ADD SWAP5 PUSH1 0x1 SWAP1 SWAP2 ADD SWAP1 DUP5 ADD PUSH2 0x19FF JUMP JUMPDEST POP DUP6 DUP3 LT ISZERO PUSH2 0x1A3C JUMPI DUP8 DUP6 ADD MLOAD PUSH1 0x0 NOT PUSH1 0x3 DUP9 SWAP1 SHL PUSH1 0xF8 AND SHR NOT AND DUP2 SSTORE JUMPDEST POP POP POP POP POP PUSH1 0x1 SWAP1 DUP2 SHL ADD SWAP1 SSTORE POP JUMP JUMPDEST DUP2 DUP2 SUB DUP2 DUP2 GT ISZERO PUSH2 0xB3B JUMPI PUSH2 0xB3B PUSH2 0x18E5 JUMP JUMPDEST PUSH1 0x0 DUP2 PUSH2 0x1A6E JUMPI PUSH2 0x1A6E PUSH2 0x18E5 JUMP JUMPDEST POP PUSH1 0x0 NOT ADD SWAP1 JUMP INVALID LOG2 PUSH5 0x6970667358 0x22 SLT KECCAK256 0xCA 0xC SWAP3 0xE7 PUSH5 0xBEB46C2C6E GASPRICE 0x5E 0xC9 GASPRICE 0xA5 DUP6 0xE4 0xC0 MUL SWAP3 PUSH8 0xF7BEC765E61E6202 0xB9 RETURNDATASIZE SWAP8 PUSH5 0x736F6C6343 STOP ADDMOD EQ STOP CALLER "},"methodIdentifiers":{"GTBalance(address)":"45234de7","MAX_INITIAL_GT()":"44d3fed1","MIN_INITIAL_GT()":"6956a5d2","addCommittee(address)":"38046217","addGT(address,uint256)":"0b3c6f08","checkQualification(address)":"96dffcbf","committeeMembers(address)":"53f59d3b","createProposal(string)":"49c2a1a6","currentPhase()":"055ad42e","deductGT(address,uint256)":"eed2e79f","disableManualGovernance()":"b965f734","executeProposal(uint256)":"0d61b519","getGT(address)":"233dc47e","getProposal(uint256)":"c7f758a8","grantInitialGT(address,uint256)":"731a477d","hasVoted(uint256,address)":"43859632","isCommittee(address)":"8c9540d3","isVerifier(address)":"33105218","proposalCount()":"da35c664","proposals(uint256)":"013cf08b","qualifiedCount()":"4f14b55d","qualifiedVerifier(address)":"22193e89","removeCommittee(address)":"d521b8c5","triggerManualGovernance(string)":"09e8f2ed","updatePhase()":"034b9aae","verifierThreshold()":"9ca7acea","voteProposal(uint256,bool)":"bcfb9b61"}}}}}