{"Contracts/CommitteeManager.sol":{"CommitteeManager":{"abi":[{"inputs":[{"internalType":"address[]","name":"_members","type":"address[]"}],"stateMutability":"nonpayable","type":"constructor"},{"inputs":[],"name":"AlreadyApproved","type":"error"},{"inputs":[],"name":"AlreadyMember","type":"error"},{"inputs":[],"name":"DuplicateMember","type":"error"},{"inputs":[],"name":"EmptyProposalData","type":"error"},{"inputs":[],"name":"InvalidMemberCount","type":"error"},{"inputs":[],"name":"MaxMembersReached","type":"error"},{"inputs":[],"name":"MinMembersReached","type":"error"},{"inputs":[],"name":"NotAMember","type":"error"},{"inputs":[],"name":"NotCommitteeMember","type":"error"},{"inputs":[],"name":"OnlyProposerCanCancel","type":"error"},{"inputs":[],"name":"ProposalAlreadyConsumed","type":"error"},{"inputs":[],"name":"ProposalExpired","type":"error"},{"inputs":[],"name":"ProposalNotExecuted","type":"error"},{"inputs":[],"name":"ProposalNotFound","type":"error"},{"inputs":[],"name":"ProposalNotPending","type":"error"},{"inputs":[],"name":"TargetMismatch","type":"error"},{"inputs":[],"name":"ZeroAddress","type":"error"},{"anonymous":false,"inputs":[{"indexed":true,"internalType":"address","name":"member","type":"address"}],"name":"MemberAdded","type":"event"},{"anonymous":false,"inputs":[{"indexed":true,"internalType":"address","name":"member","type":"address"}],"name":"MemberRemoved","type":"event"},{"anonymous":false,"inputs":[{"indexed":true,"internalType":"uint256","name":"proposalId","type":"uint256"},{"indexed":true,"internalType":"address","name":"approver","type":"address"},{"indexed":false,"internalType":"uint256","name":"currentApprovals","type":"uint256"}],"name":"ProposalApproved","type":"event"},{"anonymous":false,"inputs":[{"indexed":true,"internalType":"uint256","name":"proposalId","type":"uint256"},{"indexed":true,"internalType":"address","name":"canceller","type":"address"}],"name":"ProposalCancelled","type":"event"},{"anonymous":false,"inputs":[{"indexed":true,"internalType":"uint256","name":"proposalId","type":"uint256"},{"indexed":true,"internalType":"address","name":"consumer","type":"address"}],"name":"ProposalConsumed","type":"event"},{"anonymous":false,"inputs":[{"indexed":true,"internalType":"uint256","name":"proposalId","type":"uint256"},{"indexed":false,"internalType":"enum CommitteeManager.ActionType","name":"actionType","type":"uint8"},{"indexed":true,"internalType":"address","name":"proposer","type":"address"},{"indexed":true,"internalType":"address","name":"targetContract","type":"address"}],"name":"ProposalCreated","type":"event"},{"anonymous":false,"inputs":[{"indexed":true,"internalType":"uint256","name":"proposalId","type":"uint256"},{"indexed":false,"internalType":"enum CommitteeManager.ActionType","name":"actionType","type":"uint8"}],"name":"ProposalExecuted","type":"event"},{"inputs":[],"name":"PROPOSAL_TTL","outputs":[{"internalType":"uint256","name":"","type":"uint256"}],"stateMutability":"view","type":"function"},{"inputs":[],"name":"approvalThreshold","outputs":[{"internalType":"uint256","name":"","type":"uint256"}],"stateMutability":"view","type":"function"},{"inputs":[{"internalType":"uint256","name":"_proposalId","type":"uint256"}],"name":"approveProposal","outputs":[],"stateMutability":"nonpayable","type":"function"},{"inputs":[{"internalType":"uint256","name":"_proposalId","type":"uint256"}],"name":"cancelProposal","outputs":[],"stateMutability":"nonpayable","type":"function"},{"inputs":[{"internalType":"uint256","name":"_proposalId","type":"uint256"}],"name":"consumeProposal","outputs":[{"internalType":"enum CommitteeManager.ActionType","name":"actionType","type":"uint8"},{"internalType":"bytes","name":"data","type":"bytes"}],"stateMutability":"nonpayable","type":"function"},{"inputs":[{"internalType":"uint256","name":"_proposalId","type":"uint256"}],"name":"getEffectiveStatus","outputs":[{"internalType":"enum CommitteeManager.ProposalStatus","name":"","type":"uint8"}],"stateMutability":"view","type":"function"},{"inputs":[],"name":"getMemberCount","outputs":[{"internalType":"uint256","name":"","type":"uint256"}],"stateMutability":"view","type":"function"},{"inputs":[],"name":"getMembers","outputs":[{"internalType":"address[]","name":"","type":"address[]"}],"stateMutability":"view","type":"function"},{"inputs":[{"internalType":"uint256","name":"_proposalId","type":"uint256"}],"name":"getProposal","outputs":[{"internalType":"enum CommitteeManager.ActionType","name":"actionType","type":"uint8"},{"internalType":"address","name":"targetContract","type":"address"},{"internalType":"address","name":"proposer","type":"address"},{"internalType":"uint256","name":"approvalCount","type":"uint256"},{"internalType":"enum CommitteeManager.ProposalStatus","name":"status","type":"uint8"},{"internalType":"uint256","name":"createdAt","type":"uint256"},{"internalType":"bool","name":"consumed","type":"bool"}],"stateMutability":"view","type":"function"},{"inputs":[{"internalType":"uint256","name":"_proposalId","type":"uint256"},{"internalType":"address","name":"_member","type":"address"}],"name":"hasApproved","outputs":[{"internalType":"bool","name":"","type":"bool"}],"stateMutability":"view","type":"function"},{"inputs":[{"internalType":"address","name":"","type":"address"}],"name":"isCommitteeMember","outputs":[{"internalType":"bool","name":"","type":"bool"}],"stateMutability":"view","type":"function"},{"inputs":[{"internalType":"uint256","name":"_proposalId","type":"uint256"}],"name":"isProposalExecuted","outputs":[{"internalType":"bool","name":"","type":"bool"}],"stateMutability":"view","type":"function"},{"inputs":[],"name":"memberCount","outputs":[{"internalType":"uint256","name":"","type":"uint256"}],"stateMutability":"view","type":"function"},{"inputs":[{"internalType":"uint256","name":"","type":"uint256"}],"name":"members","outputs":[{"internalType":"address","name":"","type":"address"}],"stateMutability":"view","type":"function"},{"inputs":[],"name":"proposalCount","outputs":[{"internalType":"uint256","name":"","type":"uint256"}],"stateMutability":"view","type":"function"},{"inputs":[{"internalType":"uint256","name":"","type":"uint256"}],"name":"proposals","outputs":[{"internalType":"enum CommitteeManager.ActionType","name":"actionType","type":"uint8"},{"internalType":"address","name":"targetContract","type":"address"},{"internalType":"bytes","name":"data","type":"bytes"},{"internalType":"address","name":"proposer","type":"address"},{"internalType":"uint256","name":"approvalCount","type":"uint256"},{"internalType":"enum CommitteeManager.ProposalStatus","name":"status","type":"uint8"},{"internalType":"uint256","name":"createdAt","type":"uint256"},{"internalType":"bool","name":"consumed","type":"bool"}],"stateMutability":"view","type":"function"},{"inputs":[{"internalType":"enum CommitteeManager.ActionType","name":"_actionType","type":"uint8"},{"internalType":"address","name":"_targetContract","type":"address"},{"internalType":"bytes","name":"_data","type":"bytes"}],"name":"propose","outputs":[{"internalType":"uint256","name":"proposalId","type":"uint256"}],"stateMutability":"nonpayable","type":"function"}],"evm":{"bytecode":{"linkReferences":{},"object":"608060405262093a806006553480156200001857600080fd5b5060405162001a0a38038062001a0a8339810160408190526200003b9162000213565b6003815110806200004d575060058151115b156200006c5760405163027ee80d60e51b815260040160405180910390fd5b60005b8151811015620001a7576000828281518110620000905762000090620002e5565b6020026020010151905060006001600160a01b0316816001600160a01b031603620000ce5760405163d92e233d60e01b815260040160405180910390fd5b6001600160a01b03811660009081526020819052604090205460ff16156200010957604051637670720160e11b815260040160405180910390fd5b6001600160a01b038116600081815260208190526040808220805460ff19166001908117909155805480820182559083527fb10e2d527612073b26eecdfd717e6a320cf44b4afac2b0732d9fcbe2b7fa0cf60180546001600160a01b03191684179055517fb251eb052afc73ffd02ffe85ad79990a8b3fed60d76dbc2fa2fdd7123dffd9149190a250806200019e8162000311565b9150506200006f565b5080516002818155600391620001bd916200032d565b620001ca9060026200034d565b620001d6919062000363565b6005555062000386565b634e487b7160e01b600052604160045260246000fd5b80516001600160a01b03811681146200020e57600080fd5b919050565b600060208083850312156200022757600080fd5b82516001600160401b03808211156200023f57600080fd5b818501915085601f8301126200025457600080fd5b815181811115620002695762000269620001e0565b8060051b604051601f19603f83011681018181108582111715620002915762000291620001e0565b604052918252848201925083810185019188831115620002b057600080fd5b938501935b82851015620002d957620002c985620001f6565b84529385019392850192620002b5565b98975050505050505050565b634e487b7160e01b600052603260045260246000fd5b634e487b7160e01b600052601160045260246000fd5b600060018201620003265762000326620002fb565b5060010190565b8082028115828204841417620003475762000347620002fb565b92915050565b80820180821115620003475762000347620002fb565b6000826200038157634e487b7160e01b600052601260045260246000fd5b500490565b61167480620003966000396000f3fe608060405234801561001057600080fd5b506004361061010a5760003560e01c806398951b56116100a2578063c7f758a811610071578063c7f758a814610238578063d00c1aec1461025e578063da35c66414610271578063e0a8f6f51461027a578063e636d84b1461028d57600080fd5b806398951b56146101e6578063997072f7146101fb5780639eab525314610203578063a47f65dd1461021857600080fd5b80632afaa3cb116100de5780632afaa3cb1461017e578063462069f4146101915780635daf08ca146101b25780637d0eef61146101dd57600080fd5b806224a6f11461010f578063013cf08b1461012b57806311aee380146101525780632358d5a81461015b575b600080fd5b61011860065481565b6040519081526020015b60405180910390f35b61013e610139366004611105565b6102b0565b60405161012298979695949392919061119e565b61011860025481565b61016e610169366004611222565b610398565b6040519015158152602001610122565b61011861018c366004611252565b6103c8565b6101a461019f366004611105565b61058c565b6040516101229291906112e8565b6101c56101c0366004611105565b61072d565b6040516001600160a01b039091168152602001610122565b61011860055481565b6101f96101f4366004611105565b610757565b005b600254610118565b61020b6108e7565b6040516101229190611310565b61022b610226366004611105565b610949565b604051610122919061135d565b61024b610246366004611105565b6109cd565b604051610122979695949392919061136b565b61016e61026c366004611105565b610a62565b61011860035481565b6101f9610288366004611105565b610a92565b61016e61029b3660046113be565b60006020819052908152604090205460ff1681565b6004602052600090815260409020805460018201805460ff8316936101009093046001600160a01b03169291906102e6906113e2565b80601f0160208091040260200160405190810160405280929190818152602001828054610312906113e2565b801561035f5780601f106103345761010080835404028352916020019161035f565b820191906000526020600020905b81548152906001019060200180831161034257829003601f168201915b505050600284015460038501546004860154600587015460069097015495966001600160a01b039093169591945060ff90811693501688565b60008281526004602090815260408083206001600160a01b038516845260070190915290205460ff165b92915050565b3360009081526020819052604081205460ff166103f8576040516347ca878b60e11b815260040160405180910390fd5b600082900361041a57604051630f3aac4560e21b815260040160405180910390fd5b600085600481111561042e5761042e61111e565b148061044b575060018560048111156104495761044961111e565b145b156104595760009350610480565b6001600160a01b0384166104805760405163d92e233d60e01b815260040160405180910390fd5b6003805490600061049083611432565b9091555060008181526004602081905260409091208054929350918791839160ff19169060019084908111156104c8576104c861111e565b02179055508054610100600160a81b0319166101006001600160a01b03871602178155600181016104fa8486836114b0565b506002810180546001600160a01b0319163317905560006003820181905560048201805460ff1916600183021790555042600582015560068101805460ff191690556040516001600160a01b03861690339084907f27ea2cad5e4584ad97131983569ea163d6939d2154ceb6288fc4ee1bb8a2c63b9061057b908b90611571565b60405180910390a450949350505050565b6000606060035483106105b25760405163635e873760e01b815260040160405180910390fd5b60008381526004602052604090206001600482015460ff1660038111156105db576105db61111e565b146105f9576040516374e0240960e11b815260040160405180910390fd5b805461010090046001600160a01b03163314610628576040516373f3f92760e01b815260040160405180910390fd5b600681015460ff161561064e5760405163e1472d3b60e01b815260040160405180910390fd5b60068101805460ff19166001179055604051339085907f384a218e013e0ddc0f968a1596cc8d042283a45f20befed09b3b9406d16e84dc90600090a3805460018201805460ff9092169181906106a3906113e2565b80601f01602080910402602001604051908101604052809291908181526020018280546106cf906113e2565b801561071c5780601f106106f15761010080835404028352916020019161071c565b820191906000526020600020905b8154815290600101906020018083116106ff57829003601f168201915b505050505090509250925050915091565b6001818154811061073d57600080fd5b6000918252602090912001546001600160a01b0316905081565b3360009081526020819052604090205460ff16610787576040516347ca878b60e11b815260040160405180910390fd5b60035481106107a95760405163635e873760e01b815260040160405180910390fd5b600081815260046020526040812090600482015460ff1660038111156107d1576107d161111e565b146107ef576040516324f39bb560e11b815260040160405180910390fd5b6006548160050154610801919061157f565b421115610821576040516328a7237960e01b815260040160405180910390fd5b33600090815260078201602052604090205460ff16156108545760405163080fc0bd60e11b815260040160405180910390fd5b3360009081526007820160205260408120805460ff191660011790556003820180549161088083611432565b9190505550336001600160a01b0316827f2f0f51d2f12c71357e60d575d47e93e081dbaf32072245ab1e01540f0aadbf1a83600301546040516108c591815260200190565b60405180910390a36005548160030154106108e3576108e382610b97565b5050565b6060600180548060200260200160405190810160405280929190818152602001828054801561093f57602002820191906000526020600020905b81546001600160a01b03168152600190910190602001808311610921575b5050505050905090565b6000600354821061096d5760405163635e873760e01b815260040160405180910390fd5b600082815260046020526040812090600482015460ff1660038111156109955761099561111e565b1480156109b2575060065481600501546109af919061157f565b42115b156109c05750600392915050565b6004015460ff1692915050565b600080600080600080600060035488106109fa5760405163635e873760e01b815260040160405180910390fd5b600088815260046020526040812090610a128a610949565b825460028401546003850154600586015460069096015460ff8085169e506001600160a01b0361010090950485169d50929093169a50985091965092945091909116915050919395979092949650565b60008181526004602081905260408220015460019060ff166003811115610a8b57610a8b61111e565b1492915050565b3360009081526020819052604090205460ff16610ac2576040516347ca878b60e11b815260040160405180910390fd5b6003548110610ae45760405163635e873760e01b815260040160405180910390fd5b600081815260046020526040812090600482015460ff166003811115610b0c57610b0c61111e565b14610b2a576040516324f39bb560e11b815260040160405180910390fd5b60028101546001600160a01b03163314610b57576040516321c9572160e21b815260040160405180910390fd5b60048101805460ff19166002179055604051339083907f74c34a008ce735d9fcf0bd03a9b238d212ad4c441c020661f4ffbb6442645b8590600090a35050565b60008181526004602081905260408220808201805460ff19166001179055805490929160ff90911690811115610bcf57610bcf61111e565b03610c96576000816001018054610be5906113e2565b80601f0160208091040260200160405190810160405280929190818152602001828054610c11906113e2565b8015610c5e5780601f10610c3357610100808354040283529160200191610c5e565b820191906000526020600020905b815481529060010190602001808311610c4157829003601f168201915b5050505050806020019051810190610c769190611592565b9050610c8181610db3565b5060068101805460ff19166001179055610d71565b6001815460ff166004811115610cae57610cae61111e565b03610d71576000816001018054610cc4906113e2565b80601f0160208091040260200160405190810160405280929190818152602001828054610cf0906113e2565b8015610d3d5780601f10610d1257610100808354040283529160200191610d3d565b820191906000526020600020905b815481529060010190602001808311610d2057829003601f168201915b5050505050806020019051810190610d559190611592565b9050610d6081610f0e565b5060068101805460ff191660011790555b805460405183917f5b9614f21773d68c0b149bda804ff3d491c8bc8795f7ed236cc97804cd00538991610da79160ff1690611571565b60405180910390a25050565b6001600160a01b038116610dda5760405163d92e233d60e01b815260040160405180910390fd5b6001600160a01b03811660009081526020819052604090205460ff1615610e14576040516340803a5f60e11b815260040160405180910390fd5b600560025410610e3757604051632962ac5560e21b815260040160405180910390fd5b6001600160a01b0381166000818152602081905260408120805460ff19166001908117909155805480820182559082527fb10e2d527612073b26eecdfd717e6a320cf44b4afac2b0732d9fcbe2b7fa0cf60180546001600160a01b0319169092179091556002805491610ea983611432565b919050555060036002546002610ebf91906115af565b610eca90600261157f565b610ed491906115c6565b6005556040516001600160a01b038216907fb251eb052afc73ffd02ffe85ad79990a8b3fed60d76dbc2fa2fdd7123dffd91490600090a250565b6001600160a01b03811660009081526020819052604090205460ff16610f47576040516305031d1160e31b815260040160405180910390fd5b600360025411610f6a576040516329076bbd60e01b815260040160405180910390fd5b6001600160a01b0381166000908152602081905260408120805460ff191690556002805491610f98836115e8565b919050555060036002546002610fae91906115af565b610fb990600261157f565b610fc391906115c6565b60055560005b6001548110156110cd57816001600160a01b031660018281548110610ff057610ff06115ff565b6000918252602090912001546001600160a01b0316036110bb5760018054611019908290611615565b81548110611029576110296115ff565b600091825260209091200154600180546001600160a01b039092169183908110611055576110556115ff565b9060005260206000200160006101000a8154816001600160a01b0302191690836001600160a01b03160217905550600180548061109457611094611628565b600082815260209020810160001990810180546001600160a01b03191690550190556110cd565b806110c581611432565b915050610fc9565b506040516001600160a01b038216907f6e76fb4c77256006d9c38ec7d82b45a8c8f3c27b1d6766fffc42dfb8de68449290600090a250565b60006020828403121561111757600080fd5b5035919050565b634e487b7160e01b600052602160045260246000fd5b600581106111445761114461111e565b9052565b6000815180845260005b8181101561116e57602081850181015186830182015201611152565b506000602082860101526020601f19601f83011685010191505092915050565b600481106111445761114461111e565b60006101006111ad838c611134565b6001600160a01b038a81166020850152604084018290526111d08285018b611148565b9250808916606085015250508560808301526111ef60a083018661118e565b8360c083015282151560e08301529998505050505050505050565b6001600160a01b038116811461121f57600080fd5b50565b6000806040838503121561123557600080fd5b8235915060208301356112478161120a565b809150509250929050565b6000806000806060858703121561126857600080fd5b84356005811061127757600080fd5b935060208501356112878161120a565b9250604085013567ffffffffffffffff808211156112a457600080fd5b818701915087601f8301126112b857600080fd5b8135818111156112c757600080fd5b8860208285010111156112d957600080fd5b95989497505060200194505050565b6112f28184611134565b6040602082015260006113086040830184611148565b949350505050565b6020808252825182820181905260009190848201906040850190845b818110156113515783516001600160a01b03168352928401929184019160010161132c565b50909695505050505050565b602081016103c2828461118e565b60e08101611379828a611134565b6001600160a01b03888116602084015287166040830152606082018690526113a4608083018661118e565b8360a083015282151560c083015298975050505050505050565b6000602082840312156113d057600080fd5b81356113db8161120a565b9392505050565b600181811c908216806113f657607f821691505b60208210810361141657634e487b7160e01b600052602260045260246000fd5b50919050565b634e487b7160e01b600052601160045260246000fd5b6000600182016114445761144461141c565b5060010190565b634e487b7160e01b600052604160045260246000fd5b601f8211156114ab57600081815260208120601f850160051c810160208610156114885750805b601f850160051c820191505b818110156114a757828155600101611494565b5050505b505050565b67ffffffffffffffff8311156114c8576114c861144b565b6114dc836114d683546113e2565b83611461565b6000601f84116001811461151057600085156114f85750838201355b600019600387901b1c1916600186901b17835561156a565b600083815260209020601f19861690835b828110156115415786850135825560209485019460019092019101611521565b508682101561155e5760001960f88860031b161c19848701351681555b505060018560011b0183555b5050505050565b602081016103c28284611134565b808201808211156103c2576103c261141c565b6000602082840312156115a457600080fd5b81516113db8161120a565b80820281158282048414176103c2576103c261141c565b6000826115e357634e487b7160e01b600052601260045260246000fd5b500490565b6000816115f7576115f761141c565b506000190190565b634e487b7160e01b600052603260045260246000fd5b818103818111156103c2576103c261141c565b634e487b7160e01b600052603160045260246000fdfea2646970667358221220489eccc7e7845a5e894d917787ed7cce1bb2da2b0a6cb8999bae3c1500b637db64736f6c63430008140033","opcodes":"PUSH1 0x80 PUSH1 0x40 MSTORE PUSH3 0x93A80 PUSH1 0x6 SSTORE CALLVALUE DUP1 ISZERO PUSH3 0x18 JUMPI PUSH1 0x0 DUP1 REVERT JUMPDEST POP PUSH1 0x40 MLOAD PUSH3 0x1A0A CODESIZE SUB DUP1 PUSH3 0x1A0A DUP4 CODECOPY DUP2 ADD PUSH1 0x40 DUP2 SWAP1 MSTORE PUSH3 0x3B SWAP2 PUSH3 0x213 JUMP JUMPDEST PUSH1 0x3 DUP2 MLOAD LT DUP1 PUSH3 0x4D JUMPI POP PUSH1 0x5 DUP2 MLOAD GT JUMPDEST ISZERO PUSH3 0x6C JUMPI PUSH1 0x40 MLOAD PUSH4 0x27EE80D PUSH1 0xE5 SHL DUP2 MSTORE PUSH1 0x4 ADD PUSH1 0x40 MLOAD DUP1 SWAP2 SUB SWAP1 REVERT JUMPDEST PUSH1 0x0 JUMPDEST DUP2 MLOAD DUP2 LT ISZERO PUSH3 0x1A7 JUMPI PUSH1 0x0 DUP3 DUP3 DUP2 MLOAD DUP2 LT PUSH3 0x90 JUMPI PUSH3 0x90 PUSH3 0x2E5 JUMP JUMPDEST PUSH1 0x20 MUL PUSH1 0x20 ADD ADD MLOAD SWAP1 POP PUSH1 0x0 PUSH1 0x1 PUSH1 0x1 PUSH1 0xA0 SHL SUB AND DUP2 PUSH1 0x1 PUSH1 0x1 PUSH1 0xA0 SHL SUB AND SUB PUSH3 0xCE JUMPI PUSH1 0x40 MLOAD PUSH4 0xD92E233D PUSH1 0xE0 SHL DUP2 MSTORE PUSH1 0x4 ADD PUSH1 0x40 MLOAD DUP1 SWAP2 SUB SWAP1 REVERT JUMPDEST PUSH1 0x1 PUSH1 0x1 PUSH1 0xA0 SHL SUB DUP2 AND PUSH1 0x0 SWAP1 DUP2 MSTORE PUSH1 0x20 DUP2 SWAP1 MSTORE PUSH1 0x40 SWAP1 KECCAK256 SLOAD PUSH1 0xFF AND ISZERO PUSH3 0x109 JUMPI PUSH1 0x40 MLOAD PUSH4 0x76707201 PUSH1 0xE1 SHL DUP2 MSTORE PUSH1 0x4 ADD PUSH1 0x40 MLOAD DUP1 SWAP2 SUB SWAP1 REVERT JUMPDEST PUSH1 0x1 PUSH1 0x1 PUSH1 0xA0 SHL SUB DUP2 AND PUSH1 0x0 DUP2 DUP2 MSTORE PUSH1 0x20 DUP2 SWAP1 MSTORE PUSH1 0x40 DUP1 DUP3 KECCAK256 DUP1 SLOAD PUSH1 0xFF NOT AND PUSH1 0x1 SWAP1 DUP2 OR SWAP1 SWAP2 SSTORE DUP1 SLOAD DUP1 DUP3 ADD DUP3 SSTORE SWAP1 DUP4 MSTORE PUSH32 0xB10E2D527612073B26EECDFD717E6A320CF44B4AFAC2B0732D9FCBE2B7FA0CF6 ADD DUP1 SLOAD PUSH1 0x1 PUSH1 0x1 PUSH1 0xA0 SHL SUB NOT AND DUP5 OR SWAP1 SSTORE MLOAD PUSH32 0xB251EB052AFC73FFD02FFE85AD79990A8B3FED60D76DBC2FA2FDD7123DFFD914 SWAP2 SWAP1 LOG2 POP DUP1 PUSH3 0x19E DUP2 PUSH3 0x311 JUMP JUMPDEST SWAP2 POP POP PUSH3 0x6F JUMP JUMPDEST POP DUP1 MLOAD PUSH1 0x2 DUP2 DUP2 SSTORE PUSH1 0x3 SWAP2 PUSH3 0x1BD SWAP2 PUSH3 0x32D JUMP JUMPDEST PUSH3 0x1CA SWAP1 PUSH1 0x2 PUSH3 0x34D JUMP JUMPDEST PUSH3 0x1D6 SWAP2 SWAP1 PUSH3 0x363 JUMP JUMPDEST PUSH1 0x5 SSTORE POP PUSH3 0x386 JUMP JUMPDEST PUSH4 0x4E487B71 PUSH1 0xE0 SHL PUSH1 0x0 MSTORE PUSH1 0x41 PUSH1 0x4 MSTORE PUSH1 0x24 PUSH1 0x0 REVERT JUMPDEST DUP1 MLOAD PUSH1 0x1 PUSH1 0x1 PUSH1 0xA0 SHL SUB DUP2 AND DUP2 EQ PUSH3 0x20E JUMPI PUSH1 0x0 DUP1 REVERT JUMPDEST SWAP2 SWAP1 POP JUMP JUMPDEST PUSH1 0x0 PUSH1 0x20 DUP1 DUP4 DUP6 SUB SLT ISZERO PUSH3 0x227 JUMPI PUSH1 0x0 DUP1 REVERT JUMPDEST DUP3 MLOAD PUSH1 0x1 PUSH1 0x1 PUSH1 0x40 SHL SUB DUP1 DUP3 GT ISZERO PUSH3 0x23F JUMPI PUSH1 0x0 DUP1 REVERT JUMPDEST DUP2 DUP6 ADD SWAP2 POP DUP6 PUSH1 0x1F DUP4 ADD SLT PUSH3 0x254 JUMPI PUSH1 0x0 DUP1 REVERT JUMPDEST DUP2 MLOAD DUP2 DUP2 GT ISZERO PUSH3 0x269 JUMPI PUSH3 0x269 PUSH3 0x1E0 JUMP JUMPDEST DUP1 PUSH1 0x5 SHL PUSH1 0x40 MLOAD PUSH1 0x1F NOT PUSH1 0x3F DUP4 ADD AND DUP2 ADD DUP2 DUP2 LT DUP6 DUP3 GT OR ISZERO PUSH3 0x291 JUMPI PUSH3 0x291 PUSH3 0x1E0 JUMP JUMPDEST PUSH1 0x40 MSTORE SWAP2 DUP3 MSTORE DUP5 DUP3 ADD SWAP3 POP DUP4 DUP2 ADD DUP6 ADD SWAP2 DUP9 DUP4 GT ISZERO PUSH3 0x2B0 JUMPI PUSH1 0x0 DUP1 REVERT JUMPDEST SWAP4 DUP6 ADD SWAP4 JUMPDEST DUP3 DUP6 LT ISZERO PUSH3 0x2D9 JUMPI PUSH3 0x2C9 DUP6 PUSH3 0x1F6 JUMP JUMPDEST DUP5 MSTORE SWAP4 DUP6 ADD SWAP4 SWAP3 DUP6 ADD SWAP3 PUSH3 0x2B5 JUMP JUMPDEST SWAP9 SWAP8 POP POP POP POP POP POP POP POP JUMP JUMPDEST PUSH4 0x4E487B71 PUSH1 0xE0 SHL PUSH1 0x0 MSTORE PUSH1 0x32 PUSH1 0x4 MSTORE PUSH1 0x24 PUSH1 0x0 REVERT JUMPDEST PUSH4 0x4E487B71 PUSH1 0xE0 SHL PUSH1 0x0 MSTORE PUSH1 0x11 PUSH1 0x4 MSTORE PUSH1 0x24 PUSH1 0x0 REVERT JUMPDEST PUSH1 0x0 PUSH1 0x1 DUP3 ADD PUSH3 0x326 JUMPI PUSH3 0x326 PUSH3 0x2FB JUMP JUMPDEST POP PUSH1 0x1 ADD SWAP1 JUMP JUMPDEST DUP1 DUP3 MUL DUP2 ISZERO DUP3 DUP3 DIV DUP5 EQ OR PUSH3 0x347 JUMPI PUSH3 0x347 PUSH3 0x2FB JUMP JUMPDEST SWAP3 SWAP2 POP POP JUMP JUMPDEST DUP1 DUP3 ADD DUP1 DUP3 GT ISZERO PUSH3 0x347 JUMPI PUSH3 0x347 PUSH3 0x2FB JUMP JUMPDEST PUSH1 0x0 DUP3 PUSH3 0x381 JUMPI PUSH4 0x4E487B71 PUSH1 0xE0 SHL PUSH1 0x0 MSTORE PUSH1 0x12 PUSH1 0x4 MSTORE PUSH1 0x24 PUSH1 0x0 REVERT JUMPDEST POP DIV SWAP1 JUMP JUMPDEST PUSH2 0x1674 DUP1 PUSH3 0x396 PUSH1 0x0 CODECOPY PUSH1 0x0 RETURN INVALID PUSH1 0x80 PUSH1 0x40 MSTORE CALLVALUE DUP1 ISZERO PUSH2 0x10 JUMPI PUSH1 0x0 DUP1 REVERT JUMPDEST POP PUSH1 0x4 CALLDATASIZE LT PUSH2 0x10A JUMPI PUSH1 0x0 CALLDATALOAD PUSH1 0xE0 SHR DUP1 PUSH4 0x98951B56 GT PUSH2 0xA2 JUMPI DUP1 PUSH4 0xC7F758A8 GT PUSH2 0x71 JUMPI DUP1 PUSH4 0xC7F758A8 EQ PUSH2 0x238 JUMPI DUP1 PUSH4 0xD00C1AEC EQ PUSH2 0x25E JUMPI DUP1 PUSH4 0xDA35C664 EQ PUSH2 0x271 JUMPI DUP1 PUSH4 0xE0A8F6F5 EQ PUSH2 0x27A JUMPI DUP1 PUSH4 0xE636D84B EQ PUSH2 0x28D JUMPI PUSH1 0x0 DUP1 REVERT JUMPDEST DUP1 PUSH4 0x98951B56 EQ PUSH2 0x1E6 JUMPI DUP1 PUSH4 0x997072F7 EQ PUSH2 0x1FB JUMPI DUP1 PUSH4 0x9EAB5253 EQ PUSH2 0x203 JUMPI DUP1 PUSH4 0xA47F65DD EQ PUSH2 0x218 JUMPI PUSH1 0x0 DUP1 REVERT JUMPDEST DUP1 PUSH4 0x2AFAA3CB GT PUSH2 0xDE JUMPI DUP1 PUSH4 0x2AFAA3CB EQ PUSH2 0x17E JUMPI DUP1 PUSH4 0x462069F4 EQ PUSH2 0x191 JUMPI DUP1 PUSH4 0x5DAF08CA EQ PUSH2 0x1B2 JUMPI DUP1 PUSH4 0x7D0EEF61 EQ PUSH2 0x1DD JUMPI PUSH1 0x0 DUP1 REVERT JUMPDEST DUP1 PUSH3 0x24A6F1 EQ PUSH2 0x10F JUMPI DUP1 PUSH4 0x13CF08B EQ PUSH2 0x12B JUMPI DUP1 PUSH4 0x11AEE380 EQ PUSH2 0x152 JUMPI DUP1 PUSH4 0x2358D5A8 EQ PUSH2 0x15B JUMPI JUMPDEST PUSH1 0x0 DUP1 REVERT JUMPDEST PUSH2 0x118 PUSH1 0x6 SLOAD DUP2 JUMP JUMPDEST PUSH1 0x40 MLOAD SWAP1 DUP2 MSTORE PUSH1 0x20 ADD JUMPDEST PUSH1 0x40 MLOAD DUP1 SWAP2 SUB SWAP1 RETURN JUMPDEST PUSH2 0x13E PUSH2 0x139 CALLDATASIZE PUSH1 0x4 PUSH2 0x1105 JUMP JUMPDEST PUSH2 0x2B0 JUMP JUMPDEST PUSH1 0x40 MLOAD PUSH2 0x122 SWAP9 SWAP8 SWAP7 SWAP6 SWAP5 SWAP4 SWAP3 SWAP2 SWAP1 PUSH2 0x119E JUMP JUMPDEST PUSH2 0x118 PUSH1 0x2 SLOAD DUP2 JUMP JUMPDEST PUSH2 0x16E PUSH2 0x169 CALLDATASIZE PUSH1 0x4 PUSH2 0x1222 JUMP JUMPDEST PUSH2 0x398 JUMP JUMPDEST PUSH1 0x40 MLOAD SWAP1 ISZERO ISZERO DUP2 MSTORE PUSH1 0x20 ADD PUSH2 0x122 JUMP JUMPDEST PUSH2 0x118 PUSH2 0x18C CALLDATASIZE PUSH1 0x4 PUSH2 0x1252 JUMP JUMPDEST PUSH2 0x3C8 JUMP JUMPDEST PUSH2 0x1A4 PUSH2 0x19F CALLDATASIZE PUSH1 0x4 PUSH2 0x1105 JUMP JUMPDEST PUSH2 0x58C JUMP JUMPDEST PUSH1 0x40 MLOAD PUSH2 0x122 SWAP3 SWAP2 SWAP1 PUSH2 0x12E8 JUMP JUMPDEST PUSH2 0x1C5 PUSH2 0x1C0 CALLDATASIZE PUSH1 0x4 PUSH2 0x1105 JUMP JUMPDEST PUSH2 0x72D JUMP JUMPDEST PUSH1 0x40 MLOAD PUSH1 0x1 PUSH1 0x1 PUSH1 0xA0 SHL SUB SWAP1 SWAP2 AND DUP2 MSTORE PUSH1 0x20 ADD PUSH2 0x122 JUMP JUMPDEST PUSH2 0x118 PUSH1 0x5 SLOAD DUP2 JUMP JUMPDEST PUSH2 0x1F9 PUSH2 0x1F4 CALLDATASIZE PUSH1 0x4 PUSH2 0x1105 JUMP JUMPDEST PUSH2 0x757 JUMP JUMPDEST STOP JUMPDEST PUSH1 0x2 SLOAD PUSH2 0x118 JUMP JUMPDEST PUSH2 0x20B PUSH2 0x8E7 JUMP JUMPDEST PUSH1 0x40 MLOAD PUSH2 0x122 SWAP2 SWAP1 PUSH2 0x1310 JUMP JUMPDEST PUSH2 0x22B PUSH2 0x226 CALLDATASIZE PUSH1 0x4 PUSH2 0x1105 JUMP JUMPDEST PUSH2 0x949 JUMP JUMPDEST PUSH1 0x40 MLOAD PUSH2 0x122 SWAP2 SWAP1 PUSH2 0x135D JUMP JUMPDEST PUSH2 0x24B PUSH2 0x246 CALLDATASIZE PUSH1 0x4 PUSH2 0x1105 JUMP JUMPDEST PUSH2 0x9CD JUMP JUMPDEST PUSH1 0x40 MLOAD PUSH2 0x122 SWAP8 SWAP7 SWAP6 SWAP5 SWAP4 SWAP3 SWAP2 SWAP1 PUSH2 0x136B JUMP JUMPDEST PUSH2 0x16E PUSH2 0x26C CALLDATASIZE PUSH1 0x4 PUSH2 0x1105 JUMP JUMPDEST PUSH2 0xA62 JUMP JUMPDEST PUSH2 0x118 PUSH1 0x3 SLOAD DUP2 JUMP JUMPDEST PUSH2 0x1F9 PUSH2 0x288 CALLDATASIZE PUSH1 0x4 PUSH2 0x1105 JUMP JUMPDEST PUSH2 0xA92 JUMP JUMPDEST PUSH2 0x16E PUSH2 0x29B CALLDATASIZE PUSH1 0x4 PUSH2 0x13BE JUMP JUMPDEST PUSH1 0x0 PUSH1 0x20 DUP2 SWAP1 MSTORE SWAP1 DUP2 MSTORE PUSH1 0x40 SWAP1 KECCAK256 SLOAD PUSH1 0xFF AND DUP2 JUMP JUMPDEST PUSH1 0x4 PUSH1 0x20 MSTORE PUSH1 0x0 SWAP1 DUP2 MSTORE PUSH1 0x40 SWAP1 KECCAK256 DUP1 SLOAD PUSH1 0x1 DUP3 ADD DUP1 SLOAD PUSH1 0xFF DUP4 AND SWAP4 PUSH2 0x100 SWAP1 SWAP4 DIV PUSH1 0x1 PUSH1 0x1 PUSH1 0xA0 SHL SUB AND SWAP3 SWAP2 SWAP1 PUSH2 0x2E6 SWAP1 PUSH2 0x13E2 JUMP JUMPDEST DUP1 PUSH1 0x1F ADD PUSH1 0x20 DUP1 SWAP2 DIV MUL PUSH1 0x20 ADD PUSH1 0x40 MLOAD SWAP1 DUP2 ADD PUSH1 0x40 MSTORE DUP1 SWAP3 SWAP2 SWAP1 DUP2 DUP2 MSTORE PUSH1 0x20 ADD DUP3 DUP1 SLOAD PUSH2 0x312 SWAP1 PUSH2 0x13E2 JUMP JUMPDEST DUP1 ISZERO PUSH2 0x35F JUMPI DUP1 PUSH1 0x1F LT PUSH2 0x334 JUMPI PUSH2 0x100 DUP1 DUP4 SLOAD DIV MUL DUP4 MSTORE SWAP2 PUSH1 0x20 ADD SWAP2 PUSH2 0x35F JUMP JUMPDEST DUP3 ADD SWAP2 SWAP1 PUSH1 0x0 MSTORE PUSH1 0x20 PUSH1 0x0 KECCAK256 SWAP1 JUMPDEST DUP2 SLOAD DUP2 MSTORE SWAP1 PUSH1 0x1 ADD SWAP1 PUSH1 0x20 ADD DUP1 DUP4 GT PUSH2 0x342 JUMPI DUP3 SWAP1 SUB PUSH1 0x1F AND DUP3 ADD SWAP2 JUMPDEST POP POP POP PUSH1 0x2 DUP5 ADD SLOAD PUSH1 0x3 DUP6 ADD SLOAD PUSH1 0x4 DUP7 ADD SLOAD PUSH1 0x5 DUP8 ADD SLOAD PUSH1 0x6 SWAP1 SWAP8 ADD SLOAD SWAP6 SWAP7 PUSH1 0x1 PUSH1 0x1 PUSH1 0xA0 SHL SUB SWAP1 SWAP4 AND SWAP6 SWAP2 SWAP5 POP PUSH1 0xFF SWAP1 DUP2 AND SWAP4 POP AND DUP9 JUMP JUMPDEST PUSH1 0x0 DUP3 DUP2 MSTORE PUSH1 0x4 PUSH1 0x20 SWAP1 DUP2 MSTORE PUSH1 0x40 DUP1 DUP4 KECCAK256 PUSH1 0x1 PUSH1 0x1 PUSH1 0xA0 SHL SUB DUP6 AND DUP5 MSTORE PUSH1 0x7 ADD SWAP1 SWAP2 MSTORE SWAP1 KECCAK256 SLOAD PUSH1 0xFF AND JUMPDEST SWAP3 SWAP2 POP POP JUMP JUMPDEST CALLER PUSH1 0x0 SWAP1 DUP2 MSTORE PUSH1 0x20 DUP2 SWAP1 MSTORE PUSH1 0x40 DUP2 KECCAK256 SLOAD PUSH1 0xFF AND PUSH2 0x3F8 JUMPI PUSH1 0x40 MLOAD PUSH4 0x47CA878B PUSH1 0xE1 SHL DUP2 MSTORE PUSH1 0x4 ADD PUSH1 0x40 MLOAD DUP1 SWAP2 SUB SWAP1 REVERT JUMPDEST PUSH1 0x0 DUP3 SWAP1 SUB PUSH2 0x41A JUMPI PUSH1 0x40 MLOAD PUSH4 0xF3AAC45 PUSH1 0xE2 SHL DUP2 MSTORE PUSH1 0x4 ADD PUSH1 0x40 MLOAD DUP1 SWAP2 SUB SWAP1 REVERT JUMPDEST PUSH1 0x0 DUP6 PUSH1 0x4 DUP2 GT ISZERO PUSH2 0x42E JUMPI PUSH2 0x42E PUSH2 0x111E JUMP JUMPDEST EQ DUP1 PUSH2 0x44B JUMPI POP PUSH1 0x1 DUP6 PUSH1 0x4 DUP2 GT ISZERO PUSH2 0x449 JUMPI PUSH2 0x449 PUSH2 0x111E JUMP JUMPDEST EQ JUMPDEST ISZERO PUSH2 0x459 JUMPI PUSH1 0x0 SWAP4 POP PUSH2 0x480 JUMP JUMPDEST PUSH1 0x1 PUSH1 0x1 PUSH1 0xA0 SHL SUB DUP5 AND PUSH2 0x480 JUMPI PUSH1 0x40 MLOAD PUSH4 0xD92E233D PUSH1 0xE0 SHL DUP2 MSTORE PUSH1 0x4 ADD PUSH1 0x40 MLOAD DUP1 SWAP2 SUB SWAP1 REVERT JUMPDEST PUSH1 0x3 DUP1 SLOAD SWAP1 PUSH1 0x0 PUSH2 0x490 DUP4 PUSH2 0x1432 JUMP JUMPDEST SWAP1 SWAP2 SSTORE POP PUSH1 0x0 DUP2 DUP2 MSTORE PUSH1 0x4 PUSH1 0x20 DUP2 SWAP1 MSTORE PUSH1 0x40 SWAP1 SWAP2 KECCAK256 DUP1 SLOAD SWAP3 SWAP4 POP SWAP2 DUP8 SWAP2 DUP4 SWAP2 PUSH1 0xFF NOT AND SWAP1 PUSH1 0x1 SWAP1 DUP5 SWAP1 DUP2 GT ISZERO PUSH2 0x4C8 JUMPI PUSH2 0x4C8 PUSH2 0x111E JUMP JUMPDEST MUL OR SWAP1 SSTORE POP DUP1 SLOAD PUSH2 0x100 PUSH1 0x1 PUSH1 0xA8 SHL SUB NOT AND PUSH2 0x100 PUSH1 0x1 PUSH1 0x1 PUSH1 0xA0 SHL SUB DUP8 AND MUL OR DUP2 SSTORE PUSH1 0x1 DUP2 ADD PUSH2 0x4FA DUP5 DUP7 DUP4 PUSH2 0x14B0 JUMP JUMPDEST POP PUSH1 0x2 DUP2 ADD DUP1 SLOAD PUSH1 0x1 PUSH1 0x1 PUSH1 0xA0 SHL SUB NOT AND CALLER OR SWAP1 SSTORE PUSH1 0x0 PUSH1 0x3 DUP3 ADD DUP2 SWAP1 SSTORE PUSH1 0x4 DUP3 ADD DUP1 SLOAD PUSH1 0xFF NOT AND PUSH1 0x1 DUP4 MUL OR SWAP1 SSTORE POP TIMESTAMP PUSH1 0x5 DUP3 ADD SSTORE PUSH1 0x6 DUP2 ADD DUP1 SLOAD PUSH1 0xFF NOT AND SWAP1 SSTORE PUSH1 0x40 MLOAD PUSH1 0x1 PUSH1 0x1 PUSH1 0xA0 SHL SUB DUP7 AND SWAP1 CALLER SWAP1 DUP5 SWAP1 PUSH32 0x27EA2CAD5E4584AD97131983569EA163D6939D2154CEB6288FC4EE1BB8A2C63B SWAP1 PUSH2 0x57B SWAP1 DUP12 SWAP1 PUSH2 0x1571 JUMP JUMPDEST PUSH1 0x40 MLOAD DUP1 SWAP2 SUB SWAP1 LOG4 POP SWAP5 SWAP4 POP POP POP POP JUMP JUMPDEST PUSH1 0x0 PUSH1 0x60 PUSH1 0x3 SLOAD DUP4 LT PUSH2 0x5B2 JUMPI PUSH1 0x40 MLOAD PUSH4 0x635E8737 PUSH1 0xE0 SHL DUP2 MSTORE PUSH1 0x4 ADD PUSH1 0x40 MLOAD DUP1 SWAP2 SUB SWAP1 REVERT JUMPDEST PUSH1 0x0 DUP4 DUP2 MSTORE PUSH1 0x4 PUSH1 0x20 MSTORE PUSH1 0x40 SWAP1 KECCAK256 PUSH1 0x1 PUSH1 0x4 DUP3 ADD SLOAD PUSH1 0xFF AND PUSH1 0x3 DUP2 GT ISZERO PUSH2 0x5DB JUMPI PUSH2 0x5DB PUSH2 0x111E JUMP JUMPDEST EQ PUSH2 0x5F9 JUMPI PUSH1 0x40 MLOAD PUSH4 0x74E02409 PUSH1 0xE1 SHL DUP2 MSTORE PUSH1 0x4 ADD PUSH1 0x40 MLOAD DUP1 SWAP2 SUB SWAP1 REVERT JUMPDEST DUP1 SLOAD PUSH2 0x100 SWAP1 DIV PUSH1 0x1 PUSH1 0x1 PUSH1 0xA0 SHL SUB AND CALLER EQ PUSH2 0x628 JUMPI PUSH1 0x40 MLOAD PUSH4 0x73F3F927 PUSH1 0xE0 SHL DUP2 MSTORE PUSH1 0x4 ADD PUSH1 0x40 MLOAD DUP1 SWAP2 SUB SWAP1 REVERT JUMPDEST PUSH1 0x6 DUP2 ADD SLOAD PUSH1 0xFF AND ISZERO PUSH2 0x64E JUMPI PUSH1 0x40 MLOAD PUSH4 0xE1472D3B PUSH1 0xE0 SHL DUP2 MSTORE PUSH1 0x4 ADD PUSH1 0x40 MLOAD DUP1 SWAP2 SUB SWAP1 REVERT JUMPDEST PUSH1 0x6 DUP2 ADD DUP1 SLOAD PUSH1 0xFF NOT AND PUSH1 0x1 OR SWAP1 SSTORE PUSH1 0x40 MLOAD CALLER SWAP1 DUP6 SWAP1 PUSH32 0x384A218E013E0DDC0F968A1596CC8D042283A45F20BEFED09B3B9406D16E84DC SWAP1 PUSH1 0x0 SWAP1 LOG3 DUP1 SLOAD PUSH1 0x1 DUP3 ADD DUP1 SLOAD PUSH1 0xFF SWAP1 SWAP3 AND SWAP2 DUP2 SWAP1 PUSH2 0x6A3 SWAP1 PUSH2 0x13E2 JUMP JUMPDEST DUP1 PUSH1 0x1F ADD PUSH1 0x20 DUP1 SWAP2 DIV MUL PUSH1 0x20 ADD PUSH1 0x40 MLOAD SWAP1 DUP2 ADD PUSH1 0x40 MSTORE DUP1 SWAP3 SWAP2 SWAP1 DUP2 DUP2 MSTORE PUSH1 0x20 ADD DUP3 DUP1 SLOAD PUSH2 0x6CF SWAP1 PUSH2 0x13E2 JUMP JUMPDEST DUP1 ISZERO PUSH2 0x71C JUMPI DUP1 PUSH1 0x1F LT PUSH2 0x6F1 JUMPI PUSH2 0x100 DUP1 DUP4 SLOAD DIV MUL DUP4 MSTORE SWAP2 PUSH1 0x20 ADD SWAP2 PUSH2 0x71C JUMP JUMPDEST DUP3 ADD SWAP2 SWAP1 PUSH1 0x0 MSTORE PUSH1 0x20 PUSH1 0x0 KECCAK256 SWAP1 JUMPDEST DUP2 SLOAD DUP2 MSTORE SWAP1 PUSH1 0x1 ADD SWAP1 PUSH1 0x20 ADD DUP1 DUP4 GT PUSH2 0x6FF JUMPI DUP3 SWAP1 SUB PUSH1 0x1F AND DUP3 ADD SWAP2 JUMPDEST POP POP POP POP POP SWAP1 POP SWAP3 POP SWAP3 POP POP SWAP2 POP SWAP2 JUMP JUMPDEST PUSH1 0x1 DUP2 DUP2 SLOAD DUP2 LT PUSH2 0x73D JUMPI PUSH1 0x0 DUP1 REVERT JUMPDEST PUSH1 0x0 SWAP2 DUP3 MSTORE PUSH1 0x20 SWAP1 SWAP2 KECCAK256 ADD SLOAD PUSH1 0x1 PUSH1 0x1 PUSH1 0xA0 SHL SUB AND SWAP1 POP DUP2 JUMP JUMPDEST CALLER PUSH1 0x0 SWAP1 DUP2 MSTORE PUSH1 0x20 DUP2 SWAP1 MSTORE PUSH1 0x40 SWAP1 KECCAK256 SLOAD PUSH1 0xFF AND PUSH2 0x787 JUMPI PUSH1 0x40 MLOAD PUSH4 0x47CA878B PUSH1 0xE1 SHL DUP2 MSTORE PUSH1 0x4 ADD PUSH1 0x40 MLOAD DUP1 SWAP2 SUB SWAP1 REVERT JUMPDEST PUSH1 0x3 SLOAD DUP2 LT PUSH2 0x7A9 JUMPI PUSH1 0x40 MLOAD PUSH4 0x635E8737 PUSH1 0xE0 SHL DUP2 MSTORE PUSH1 0x4 ADD PUSH1 0x40 MLOAD DUP1 SWAP2 SUB SWAP1 REVERT JUMPDEST PUSH1 0x0 DUP2 DUP2 MSTORE PUSH1 0x4 PUSH1 0x20 MSTORE PUSH1 0x40 DUP2 KECCAK256 SWAP1 PUSH1 0x4 DUP3 ADD SLOAD PUSH1 0xFF AND PUSH1 0x3 DUP2 GT ISZERO PUSH2 0x7D1 JUMPI PUSH2 0x7D1 PUSH2 0x111E JUMP JUMPDEST EQ PUSH2 0x7EF JUMPI PUSH1 0x40 MLOAD PUSH4 0x24F39BB5 PUSH1 0xE1 SHL DUP2 MSTORE PUSH1 0x4 ADD PUSH1 0x40 MLOAD DUP1 SWAP2 SUB SWAP1 REVERT JUMPDEST PUSH1 0x6 SLOAD DUP2 PUSH1 0x5 ADD SLOAD PUSH2 0x801 SWAP2 SWAP1 PUSH2 0x157F JUMP JUMPDEST TIMESTAMP GT ISZERO PUSH2 0x821 JUMPI PUSH1 0x40 MLOAD PUSH4 0x28A72379 PUSH1 0xE0 SHL DUP2 MSTORE PUSH1 0x4 ADD PUSH1 0x40 MLOAD DUP1 SWAP2 SUB SWAP1 REVERT JUMPDEST CALLER PUSH1 0x0 SWAP1 DUP2 MSTORE PUSH1 0x7 DUP3 ADD PUSH1 0x20 MSTORE PUSH1 0x40 SWAP1 KECCAK256 SLOAD PUSH1 0xFF AND ISZERO PUSH2 0x854 JUMPI PUSH1 0x40 MLOAD PUSH4 0x80FC0BD PUSH1 0xE1 SHL DUP2 MSTORE PUSH1 0x4 ADD PUSH1 0x40 MLOAD DUP1 SWAP2 SUB SWAP1 REVERT JUMPDEST CALLER PUSH1 0x0 SWAP1 DUP2 MSTORE PUSH1 0x7 DUP3 ADD PUSH1 0x20 MSTORE PUSH1 0x40 DUP2 KECCAK256 DUP1 SLOAD PUSH1 0xFF NOT AND PUSH1 0x1 OR SWAP1 SSTORE PUSH1 0x3 DUP3 ADD DUP1 SLOAD SWAP2 PUSH2 0x880 DUP4 PUSH2 0x1432 JUMP JUMPDEST SWAP2 SWAP1 POP SSTORE POP CALLER PUSH1 0x1 PUSH1 0x1 PUSH1 0xA0 SHL SUB AND DUP3 PUSH32 0x2F0F51D2F12C71357E60D575D47E93E081DBAF32072245AB1E01540F0AADBF1A DUP4 PUSH1 0x3 ADD SLOAD PUSH1 0x40 MLOAD PUSH2 0x8C5 SWAP2 DUP2 MSTORE PUSH1 0x20 ADD SWAP1 JUMP JUMPDEST PUSH1 0x40 MLOAD DUP1 SWAP2 SUB SWAP1 LOG3 PUSH1 0x5 SLOAD DUP2 PUSH1 0x3 ADD SLOAD LT PUSH2 0x8E3 JUMPI PUSH2 0x8E3 DUP3 PUSH2 0xB97 JUMP JUMPDEST POP POP JUMP JUMPDEST PUSH1 0x60 PUSH1 0x1 DUP1 SLOAD DUP1 PUSH1 0x20 MUL PUSH1 0x20 ADD PUSH1 0x40 MLOAD SWAP1 DUP2 ADD PUSH1 0x40 MSTORE DUP1 SWAP3 SWAP2 SWAP1 DUP2 DUP2 MSTORE PUSH1 0x20 ADD DUP3 DUP1 SLOAD DUP1 ISZERO PUSH2 0x93F JUMPI PUSH1 0x20 MUL DUP3 ADD SWAP2 SWAP1 PUSH1 0x0 MSTORE PUSH1 0x20 PUSH1 0x0 KECCAK256 SWAP1 JUMPDEST DUP2 SLOAD PUSH1 0x1 PUSH1 0x1 PUSH1 0xA0 SHL SUB AND DUP2 MSTORE PUSH1 0x1 SWAP1 SWAP2 ADD SWAP1 PUSH1 0x20 ADD DUP1 DUP4 GT PUSH2 0x921 JUMPI JUMPDEST POP POP POP POP POP SWAP1 POP SWAP1 JUMP JUMPDEST PUSH1 0x0 PUSH1 0x3 SLOAD DUP3 LT PUSH2 0x96D JUMPI PUSH1 0x40 MLOAD PUSH4 0x635E8737 PUSH1 0xE0 SHL DUP2 MSTORE PUSH1 0x4 ADD PUSH1 0x40 MLOAD DUP1 SWAP2 SUB SWAP1 REVERT JUMPDEST PUSH1 0x0 DUP3 DUP2 MSTORE PUSH1 0x4 PUSH1 0x20 MSTORE PUSH1 0x40 DUP2 KECCAK256 SWAP1 PUSH1 0x4 DUP3 ADD SLOAD PUSH1 0xFF AND PUSH1 0x3 DUP2 GT ISZERO PUSH2 0x995 JUMPI PUSH2 0x995 PUSH2 0x111E JUMP JUMPDEST EQ DUP1 ISZERO PUSH2 0x9B2 JUMPI POP PUSH1 0x6 SLOAD DUP2 PUSH1 0x5 ADD SLOAD PUSH2 0x9AF SWAP2 SWAP1 PUSH2 0x157F JUMP JUMPDEST TIMESTAMP GT JUMPDEST ISZERO PUSH2 0x9C0 JUMPI POP PUSH1 0x3 SWAP3 SWAP2 POP POP JUMP JUMPDEST PUSH1 0x4 ADD SLOAD PUSH1 0xFF AND SWAP3 SWAP2 POP POP JUMP JUMPDEST PUSH1 0x0 DUP1 PUSH1 0x0 DUP1 PUSH1 0x0 DUP1 PUSH1 0x0 PUSH1 0x3 SLOAD DUP9 LT PUSH2 0x9FA JUMPI PUSH1 0x40 MLOAD PUSH4 0x635E8737 PUSH1 0xE0 SHL DUP2 MSTORE PUSH1 0x4 ADD PUSH1 0x40 MLOAD DUP1 SWAP2 SUB SWAP1 REVERT JUMPDEST PUSH1 0x0 DUP9 DUP2 MSTORE PUSH1 0x4 PUSH1 0x20 MSTORE PUSH1 0x40 DUP2 KECCAK256 SWAP1 PUSH2 0xA12 DUP11 PUSH2 0x949 JUMP JUMPDEST DUP3 SLOAD PUSH1 0x2 DUP5 ADD SLOAD PUSH1 0x3 DUP6 ADD SLOAD PUSH1 0x5 DUP7 ADD SLOAD PUSH1 0x6 SWAP1 SWAP7 ADD SLOAD PUSH1 0xFF DUP1 DUP6 AND SWAP15 POP PUSH1 0x1 PUSH1 0x1 PUSH1 0xA0 SHL SUB PUSH2 0x100 SWAP1 SWAP6 DIV DUP6 AND SWAP14 POP SWAP3 SWAP1 SWAP4 AND SWAP11 POP SWAP9 POP SWAP2 SWAP7 POP SWAP3 SWAP5 POP SWAP2 SWAP1 SWAP2 AND SWAP2 POP POP SWAP2 SWAP4 SWAP6 SWAP8 SWAP1 SWAP3 SWAP5 SWAP7 POP JUMP JUMPDEST PUSH1 0x0 DUP2 DUP2 MSTORE PUSH1 0x4 PUSH1 0x20 DUP2 SWAP1 MSTORE PUSH1 0x40 DUP3 KECCAK256 ADD SLOAD PUSH1 0x1 SWAP1 PUSH1 0xFF AND PUSH1 0x3 DUP2 GT ISZERO PUSH2 0xA8B JUMPI PUSH2 0xA8B PUSH2 0x111E JUMP JUMPDEST EQ SWAP3 SWAP2 POP POP JUMP JUMPDEST CALLER PUSH1 0x0 SWAP1 DUP2 MSTORE PUSH1 0x20 DUP2 SWAP1 MSTORE PUSH1 0x40 SWAP1 KECCAK256 SLOAD PUSH1 0xFF AND PUSH2 0xAC2 JUMPI PUSH1 0x40 MLOAD PUSH4 0x47CA878B PUSH1 0xE1 SHL DUP2 MSTORE PUSH1 0x4 ADD PUSH1 0x40 MLOAD DUP1 SWAP2 SUB SWAP1 REVERT JUMPDEST PUSH1 0x3 SLOAD DUP2 LT PUSH2 0xAE4 JUMPI PUSH1 0x40 MLOAD PUSH4 0x635E8737 PUSH1 0xE0 SHL DUP2 MSTORE PUSH1 0x4 ADD PUSH1 0x40 MLOAD DUP1 SWAP2 SUB SWAP1 REVERT JUMPDEST PUSH1 0x0 DUP2 DUP2 MSTORE PUSH1 0x4 PUSH1 0x20 MSTORE PUSH1 0x40 DUP2 KECCAK256 SWAP1 PUSH1 0x4 DUP3 ADD SLOAD PUSH1 0xFF AND PUSH1 0x3 DUP2 GT ISZERO PUSH2 0xB0C JUMPI PUSH2 0xB0C PUSH2 0x111E JUMP JUMPDEST EQ PUSH2 0xB2A JUMPI PUSH1 0x40 MLOAD PUSH4 0x24F39BB5 PUSH1 0xE1 SHL DUP2 MSTORE PUSH1 0x4 ADD PUSH1 0x40 MLOAD DUP1 SWAP2 SUB SWAP1 REVERT JUMPDEST PUSH1 0x2 DUP2 ADD SLOAD PUSH1 0x1 PUSH1 0x1 PUSH1 0xA0 SHL SUB AND CALLER EQ PUSH2 0xB57 JUMPI PUSH1 0x40 MLOAD PUSH4 0x21C95721 PUSH1 0xE2 SHL DUP2 MSTORE PUSH1 0x4 ADD PUSH1 0x40 MLOAD DUP1 SWAP2 SUB SWAP1 REVERT JUMPDEST PUSH1 0x4 DUP2 ADD DUP1 SLOAD PUSH1 0xFF NOT AND PUSH1 0x2 OR SWAP1 SSTORE PUSH1 0x40 MLOAD CALLER SWAP1 DUP4 SWAP1 PUSH32 0x74C34A008CE735D9FCF0BD03A9B238D212AD4C441C020661F4FFBB6442645B85 SWAP1 PUSH1 0x0 SWAP1 LOG3 POP POP JUMP JUMPDEST PUSH1 0x0 DUP2 DUP2 MSTORE PUSH1 0x4 PUSH1 0x20 DUP2 SWAP1 MSTORE PUSH1 0x40 DUP3 KECCAK256 DUP1 DUP3 ADD DUP1 SLOAD PUSH1 0xFF NOT AND PUSH1 0x1 OR SWAP1 SSTORE DUP1 SLOAD SWAP1 SWAP3 SWAP2 PUSH1 0xFF SWAP1 SWAP2 AND SWAP1 DUP2 GT ISZERO PUSH2 0xBCF JUMPI PUSH2 0xBCF PUSH2 0x111E JUMP JUMPDEST SUB PUSH2 0xC96 JUMPI PUSH1 0x0 DUP2 PUSH1 0x1 ADD DUP1 SLOAD PUSH2 0xBE5 SWAP1 PUSH2 0x13E2 JUMP JUMPDEST DUP1 PUSH1 0x1F ADD PUSH1 0x20 DUP1 SWAP2 DIV MUL PUSH1 0x20 ADD PUSH1 0x40 MLOAD SWAP1 DUP2 ADD PUSH1 0x40 MSTORE DUP1 SWAP3 SWAP2 SWAP1 DUP2 DUP2 MSTORE PUSH1 0x20 ADD DUP3 DUP1 SLOAD PUSH2 0xC11 SWAP1 PUSH2 0x13E2 JUMP JUMPDEST DUP1 ISZERO PUSH2 0xC5E JUMPI DUP1 PUSH1 0x1F LT PUSH2 0xC33 JUMPI PUSH2 0x100 DUP1 DUP4 SLOAD DIV MUL DUP4 MSTORE SWAP2 PUSH1 0x20 ADD SWAP2 PUSH2 0xC5E JUMP JUMPDEST DUP3 ADD SWAP2 SWAP1 PUSH1 0x0 MSTORE PUSH1 0x20 PUSH1 0x0 KECCAK256 SWAP1 JUMPDEST DUP2 SLOAD DUP2 MSTORE SWAP1 PUSH1 0x1 ADD SWAP1 PUSH1 0x20 ADD DUP1 DUP4 GT PUSH2 0xC41 JUMPI DUP3 SWAP1 SUB PUSH1 0x1F AND DUP3 ADD SWAP2 JUMPDEST POP POP POP POP POP DUP1 PUSH1 0x20 ADD SWAP1 MLOAD DUP2 ADD SWAP1 PUSH2 0xC76 SWAP2 SWAP1 PUSH2 0x1592 JUMP JUMPDEST SWAP1 POP PUSH2 0xC81 DUP2 PUSH2 0xDB3 JUMP JUMPDEST POP PUSH1 0x6 DUP2 ADD DUP1 SLOAD PUSH1 0xFF NOT AND PUSH1 0x1 OR SWAP1 SSTORE PUSH2 0xD71 JUMP JUMPDEST PUSH1 0x1 DUP2 SLOAD PUSH1 0xFF AND PUSH1 0x4 DUP2 GT ISZERO PUSH2 0xCAE JUMPI PUSH2 0xCAE PUSH2 0x111E JUMP JUMPDEST SUB PUSH2 0xD71 JUMPI PUSH1 0x0 DUP2 PUSH1 0x1 ADD DUP1 SLOAD PUSH2 0xCC4 SWAP1 PUSH2 0x13E2 JUMP JUMPDEST DUP1 PUSH1 0x1F ADD PUSH1 0x20 DUP1 SWAP2 DIV MUL PUSH1 0x20 ADD PUSH1 0x40 MLOAD SWAP1 DUP2 ADD PUSH1 0x40 MSTORE DUP1 SWAP3 SWAP2 SWAP1 DUP2 DUP2 MSTORE PUSH1 0x20 ADD DUP3 DUP1 SLOAD PUSH2 0xCF0 SWAP1 PUSH2 0x13E2 JUMP JUMPDEST DUP1 ISZERO PUSH2 0xD3D JUMPI DUP1 PUSH1 0x1F LT PUSH2 0xD12 JUMPI PUSH2 0x100 DUP1 DUP4 SLOAD DIV MUL DUP4 MSTORE SWAP2 PUSH1 0x20 ADD SWAP2 PUSH2 0xD3D JUMP JUMPDEST DUP3 ADD SWAP2 SWAP1 PUSH1 0x0 MSTORE PUSH1 0x20 PUSH1 0x0 KECCAK256 SWAP1 JUMPDEST DUP2 SLOAD DUP2 MSTORE SWAP1 PUSH1 0x1 ADD SWAP1 PUSH1 0x20 ADD DUP1 DUP4 GT PUSH2 0xD20 JUMPI DUP3 SWAP1 SUB PUSH1 0x1F AND DUP3 ADD SWAP2 JUMPDEST POP POP POP POP POP DUP1 PUSH1 0x20 ADD SWAP1 MLOAD DUP2 ADD SWAP1 PUSH2 0xD55 SWAP2 SWAP1 PUSH2 0x1592 JUMP JUMPDEST SWAP1 POP PUSH2 0xD60 DUP2 PUSH2 0xF0E JUMP JUMPDEST POP PUSH1 0x6 DUP2 ADD DUP1 SLOAD PUSH1 0xFF NOT AND PUSH1 0x1 OR SWAP1 SSTORE JUMPDEST DUP1 SLOAD PUSH1 0x40 MLOAD DUP4 SWAP2 PUSH32 0x5B9614F21773D68C0B149BDA804FF3D491C8BC8795F7ED236CC97804CD005389 SWAP2 PUSH2 0xDA7 SWAP2 PUSH1 0xFF AND SWAP1 PUSH2 0x1571 JUMP JUMPDEST PUSH1 0x40 MLOAD DUP1 SWAP2 SUB SWAP1 LOG2 POP POP JUMP JUMPDEST PUSH1 0x1 PUSH1 0x1 PUSH1 0xA0 SHL SUB DUP2 AND PUSH2 0xDDA JUMPI PUSH1 0x40 MLOAD PUSH4 0xD92E233D PUSH1 0xE0 SHL DUP2 MSTORE PUSH1 0x4 ADD PUSH1 0x40 MLOAD DUP1 SWAP2 SUB SWAP1 REVERT JUMPDEST PUSH1 0x1 PUSH1 0x1 PUSH1 0xA0 SHL SUB DUP2 AND PUSH1 0x0 SWAP1 DUP2 MSTORE PUSH1 0x20 DUP2 SWAP1 MSTORE PUSH1 0x40 SWAP1 KECCAK256 SLOAD PUSH1 0xFF AND ISZERO PUSH2 0xE14 JUMPI PUSH1 0x40 MLOAD PUSH4 0x40803A5F PUSH1 0xE1 SHL DUP2 MSTORE PUSH1 0x4 ADD PUSH1 0x40 MLOAD DUP1 SWAP2 SUB SWAP1 REVERT JUMPDEST PUSH1 0x5 PUSH1 0x2 SLOAD LT PUSH2 0xE37 JUMPI PUSH1 0x40 MLOAD PUSH4 0x2962AC55 PUSH1 0xE2 SHL DUP2 MSTORE PUSH1 0x4 ADD PUSH1 0x40 MLOAD DUP1 SWAP2 SUB SWAP1 REVERT JUMPDEST PUSH1 0x1 PUSH1 0x1 PUSH1 0xA0 SHL SUB DUP2 AND PUSH1 0x0 DUP2 DUP2 MSTORE PUSH1 0x20 DUP2 SWAP1 MSTORE PUSH1 0x40 DUP2 KECCAK256 DUP1 SLOAD PUSH1 0xFF NOT AND PUSH1 0x1 SWAP1 DUP2 OR SWAP1 SWAP2 SSTORE DUP1 SLOAD DUP1 DUP3 ADD DUP3 SSTORE SWAP1 DUP3 MSTORE PUSH32 0xB10E2D527612073B26EECDFD717E6A320CF44B4AFAC2B0732D9FCBE2B7FA0CF6 ADD DUP1 SLOAD PUSH1 0x1 PUSH1 0x1 PUSH1 0xA0 SHL SUB NOT AND SWAP1 SWAP3 OR SWAP1 SWAP2 SSTORE PUSH1 0x2 DUP1 SLOAD SWAP2 PUSH2 0xEA9 DUP4 PUSH2 0x1432 JUMP JUMPDEST SWAP2 SWAP1 POP SSTORE POP PUSH1 0x3 PUSH1 0x2 SLOAD PUSH1 0x2 PUSH2 0xEBF SWAP2 SWAP1 PUSH2 0x15AF JUMP JUMPDEST PUSH2 0xECA SWAP1 PUSH1 0x2 PUSH2 0x157F JUMP JUMPDEST PUSH2 0xED4 SWAP2 SWAP1 PUSH2 0x15C6 JUMP JUMPDEST PUSH1 0x5 SSTORE PUSH1 0x40 MLOAD PUSH1 0x1 PUSH1 0x1 PUSH1 0xA0 SHL SUB DUP3 AND SWAP1 PUSH32 0xB251EB052AFC73FFD02FFE85AD79990A8B3FED60D76DBC2FA2FDD7123DFFD914 SWAP1 PUSH1 0x0 SWAP1 LOG2 POP JUMP JUMPDEST PUSH1 0x1 PUSH1 0x1 PUSH1 0xA0 SHL SUB DUP2 AND PUSH1 0x0 SWAP1 DUP2 MSTORE PUSH1 0x20 DUP2 SWAP1 MSTORE PUSH1 0x40 SWAP1 KECCAK256 SLOAD PUSH1 0xFF AND PUSH2 0xF47 JUMPI PUSH1 0x40 MLOAD PUSH4 0x5031D11 PUSH1 0xE3 SHL DUP2 MSTORE PUSH1 0x4 ADD PUSH1 0x40 MLOAD DUP1 SWAP2 SUB SWAP1 REVERT JUMPDEST PUSH1 0x3 PUSH1 0x2 SLOAD GT PUSH2 0xF6A JUMPI PUSH1 0x40 MLOAD PUSH4 0x29076BBD PUSH1 0xE0 SHL DUP2 MSTORE PUSH1 0x4 ADD PUSH1 0x40 MLOAD DUP1 SWAP2 SUB SWAP1 REVERT JUMPDEST PUSH1 0x1 PUSH1 0x1 PUSH1 0xA0 SHL SUB DUP2 AND PUSH1 0x0 SWAP1 DUP2 MSTORE PUSH1 0x20 DUP2 SWAP1 MSTORE PUSH1 0x40 DUP2 KECCAK256 DUP1 SLOAD PUSH1 0xFF NOT AND SWAP1 SSTORE PUSH1 0x2 DUP1 SLOAD SWAP2 PUSH2 0xF98 DUP4 PUSH2 0x15E8 JUMP JUMPDEST SWAP2 SWAP1 POP SSTORE POP PUSH1 0x3 PUSH1 0x2 SLOAD PUSH1 0x2 PUSH2 0xFAE SWAP2 SWAP1 PUSH2 0x15AF JUMP JUMPDEST PUSH2 0xFB9 SWAP1 PUSH1 0x2 PUSH2 0x157F JUMP JUMPDEST PUSH2 0xFC3 SWAP2 SWAP1 PUSH2 0x15C6 JUMP JUMPDEST PUSH1 0x5 SSTORE PUSH1 0x0 JUMPDEST PUSH1 0x1 SLOAD DUP2 LT ISZERO PUSH2 0x10CD JUMPI DUP2 PUSH1 0x1 PUSH1 0x1 PUSH1 0xA0 SHL SUB AND PUSH1 0x1 DUP3 DUP2 SLOAD DUP2 LT PUSH2 0xFF0 JUMPI PUSH2 0xFF0 PUSH2 0x15FF JUMP JUMPDEST PUSH1 0x0 SWAP2 DUP3 MSTORE PUSH1 0x20 SWAP1 SWAP2 KECCAK256 ADD SLOAD PUSH1 0x1 PUSH1 0x1 PUSH1 0xA0 SHL SUB AND SUB PUSH2 0x10BB JUMPI PUSH1 0x1 DUP1 SLOAD PUSH2 0x1019 SWAP1 DUP3 SWAP1 PUSH2 0x1615 JUMP JUMPDEST DUP2 SLOAD DUP2 LT PUSH2 0x1029 JUMPI PUSH2 0x1029 PUSH2 0x15FF JUMP JUMPDEST PUSH1 0x0 SWAP2 DUP3 MSTORE PUSH1 0x20 SWAP1 SWAP2 KECCAK256 ADD SLOAD PUSH1 0x1 DUP1 SLOAD PUSH1 0x1 PUSH1 0x1 PUSH1 0xA0 SHL SUB SWAP1 SWAP3 AND SWAP2 DUP4 SWAP1 DUP2 LT PUSH2 0x1055 JUMPI PUSH2 0x1055 PUSH2 0x15FF JUMP JUMPDEST SWAP1 PUSH1 0x0 MSTORE PUSH1 0x20 PUSH1 0x0 KECCAK256 ADD PUSH1 0x0 PUSH2 0x100 EXP DUP2 SLOAD DUP2 PUSH1 0x1 PUSH1 0x1 PUSH1 0xA0 SHL SUB MUL NOT AND SWAP1 DUP4 PUSH1 0x1 PUSH1 0x1 PUSH1 0xA0 SHL SUB AND MUL OR SWAP1 SSTORE POP PUSH1 0x1 DUP1 SLOAD DUP1 PUSH2 0x1094 JUMPI PUSH2 0x1094 PUSH2 0x1628 JUMP JUMPDEST PUSH1 0x0 DUP3 DUP2 MSTORE PUSH1 0x20 SWAP1 KECCAK256 DUP2 ADD PUSH1 0x0 NOT SWAP1 DUP2 ADD DUP1 SLOAD PUSH1 0x1 PUSH1 0x1 PUSH1 0xA0 SHL SUB NOT AND SWAP1 SSTORE ADD SWAP1 SSTORE PUSH2 0x10CD JUMP JUMPDEST DUP1 PUSH2 0x10C5 DUP2 PUSH2 0x1432 JUMP JUMPDEST SWAP2 POP POP PUSH2 0xFC9 JUMP JUMPDEST POP PUSH1 0x40 MLOAD PUSH1 0x1 PUSH1 0x1 PUSH1 0xA0 SHL SUB DUP3 AND SWAP1 PUSH32 0x6E76FB4C77256006D9C38EC7D82B45A8C8F3C27B1D6766FFFC42DFB8DE684492 SWAP1 PUSH1 0x0 SWAP1 LOG2 POP JUMP JUMPDEST PUSH1 0x0 PUSH1 0x20 DUP3 DUP5 SUB SLT ISZERO PUSH2 0x1117 JUMPI PUSH1 0x0 DUP1 REVERT JUMPDEST POP CALLDATALOAD SWAP2 SWAP1 POP JUMP JUMPDEST PUSH4 0x4E487B71 PUSH1 0xE0 SHL PUSH1 0x0 MSTORE PUSH1 0x21 PUSH1 0x4 MSTORE PUSH1 0x24 PUSH1 0x0 REVERT JUMPDEST PUSH1 0x5 DUP2 LT PUSH2 0x1144 JUMPI PUSH2 0x1144 PUSH2 0x111E JUMP JUMPDEST SWAP1 MSTORE JUMP JUMPDEST PUSH1 0x0 DUP2 MLOAD DUP1 DUP5 MSTORE PUSH1 0x0 JUMPDEST DUP2 DUP2 LT ISZERO PUSH2 0x116E JUMPI PUSH1 0x20 DUP2 DUP6 ADD DUP2 ADD MLOAD DUP7 DUP4 ADD DUP3 ADD MSTORE ADD PUSH2 0x1152 JUMP JUMPDEST POP PUSH1 0x0 PUSH1 0x20 DUP3 DUP7 ADD ADD MSTORE PUSH1 0x20 PUSH1 0x1F NOT PUSH1 0x1F DUP4 ADD AND DUP6 ADD ADD SWAP2 POP POP SWAP3 SWAP2 POP POP JUMP JUMPDEST PUSH1 0x4 DUP2 LT PUSH2 0x1144 JUMPI PUSH2 0x1144 PUSH2 0x111E JUMP JUMPDEST PUSH1 0x0 PUSH2 0x100 PUSH2 0x11AD DUP4 DUP13 PUSH2 0x1134 JUMP JUMPDEST PUSH1 0x1 PUSH1 0x1 PUSH1 0xA0 SHL SUB DUP11 DUP2 AND PUSH1 0x20 DUP6 ADD MSTORE PUSH1 0x40 DUP5 ADD DUP3 SWAP1 MSTORE PUSH2 0x11D0 DUP3 DUP6 ADD DUP12 PUSH2 0x1148 JUMP JUMPDEST SWAP3 POP DUP1 DUP10 AND PUSH1 0x60 DUP6 ADD MSTORE POP POP DUP6 PUSH1 0x80 DUP4 ADD MSTORE PUSH2 0x11EF PUSH1 0xA0 DUP4 ADD DUP7 PUSH2 0x118E JUMP JUMPDEST DUP4 PUSH1 0xC0 DUP4 ADD MSTORE DUP3 ISZERO ISZERO PUSH1 0xE0 DUP4 ADD MSTORE SWAP10 SWAP9 POP POP POP POP POP POP POP POP POP JUMP JUMPDEST PUSH1 0x1 PUSH1 0x1 PUSH1 0xA0 SHL SUB DUP2 AND DUP2 EQ PUSH2 0x121F JUMPI PUSH1 0x0 DUP1 REVERT JUMPDEST POP JUMP JUMPDEST PUSH1 0x0 DUP1 PUSH1 0x40 DUP4 DUP6 SUB SLT ISZERO PUSH2 0x1235 JUMPI PUSH1 0x0 DUP1 REVERT JUMPDEST DUP3 CALLDATALOAD SWAP2 POP PUSH1 0x20 DUP4 ADD CALLDATALOAD PUSH2 0x1247 DUP2 PUSH2 0x120A JUMP JUMPDEST DUP1 SWAP2 POP POP SWAP3 POP SWAP3 SWAP1 POP JUMP JUMPDEST PUSH1 0x0 DUP1 PUSH1 0x0 DUP1 PUSH1 0x60 DUP6 DUP8 SUB SLT ISZERO PUSH2 0x1268 JUMPI PUSH1 0x0 DUP1 REVERT JUMPDEST DUP5 CALLDATALOAD PUSH1 0x5 DUP2 LT PUSH2 0x1277 JUMPI PUSH1 0x0 DUP1 REVERT JUMPDEST SWAP4 POP PUSH1 0x20 DUP6 ADD CALLDATALOAD PUSH2 0x1287 DUP2 PUSH2 0x120A JUMP JUMPDEST SWAP3 POP PUSH1 0x40 DUP6 ADD CALLDATALOAD PUSH8 0xFFFFFFFFFFFFFFFF DUP1 DUP3 GT ISZERO PUSH2 0x12A4 JUMPI PUSH1 0x0 DUP1 REVERT JUMPDEST DUP2 DUP8 ADD SWAP2 POP DUP8 PUSH1 0x1F DUP4 ADD SLT PUSH2 0x12B8 JUMPI PUSH1 0x0 DUP1 REVERT JUMPDEST DUP2 CALLDATALOAD DUP2 DUP2 GT ISZERO PUSH2 0x12C7 JUMPI PUSH1 0x0 DUP1 REVERT JUMPDEST DUP9 PUSH1 0x20 DUP3 DUP6 ADD ADD GT ISZERO PUSH2 0x12D9 JUMPI PUSH1 0x0 DUP1 REVERT JUMPDEST SWAP6 SWAP9 SWAP5 SWAP8 POP POP PUSH1 0x20 ADD SWAP5 POP POP POP JUMP JUMPDEST PUSH2 0x12F2 DUP2 DUP5 PUSH2 0x1134 JUMP JUMPDEST PUSH1 0x40 PUSH1 0x20 DUP3 ADD MSTORE PUSH1 0x0 PUSH2 0x1308 PUSH1 0x40 DUP4 ADD DUP5 PUSH2 0x1148 JUMP JUMPDEST SWAP5 SWAP4 POP POP POP POP JUMP JUMPDEST PUSH1 0x20 DUP1 DUP3 MSTORE DUP3 MLOAD DUP3 DUP3 ADD DUP2 SWAP1 MSTORE PUSH1 0x0 SWAP2 SWAP1 DUP5 DUP3 ADD SWAP1 PUSH1 0x40 DUP6 ADD SWAP1 DUP5 JUMPDEST DUP2 DUP2 LT ISZERO PUSH2 0x1351 JUMPI DUP4 MLOAD PUSH1 0x1 PUSH1 0x1 PUSH1 0xA0 SHL SUB AND DUP4 MSTORE SWAP3 DUP5 ADD SWAP3 SWAP2 DUP5 ADD SWAP2 PUSH1 0x1 ADD PUSH2 0x132C JUMP JUMPDEST POP SWAP1 SWAP7 SWAP6 POP POP POP POP POP POP JUMP JUMPDEST PUSH1 0x20 DUP2 ADD PUSH2 0x3C2 DUP3 DUP5 PUSH2 0x118E JUMP JUMPDEST PUSH1 0xE0 DUP2 ADD PUSH2 0x1379 DUP3 DUP11 PUSH2 0x1134 JUMP JUMPDEST PUSH1 0x1 PUSH1 0x1 PUSH1 0xA0 SHL SUB DUP9 DUP2 AND PUSH1 0x20 DUP5 ADD MSTORE DUP8 AND PUSH1 0x40 DUP4 ADD MSTORE PUSH1 0x60 DUP3 ADD DUP7 SWAP1 MSTORE PUSH2 0x13A4 PUSH1 0x80 DUP4 ADD DUP7 PUSH2 0x118E JUMP JUMPDEST DUP4 PUSH1 0xA0 DUP4 ADD MSTORE DUP3 ISZERO ISZERO PUSH1 0xC0 DUP4 ADD MSTORE SWAP9 SWAP8 POP POP POP POP POP POP POP POP JUMP JUMPDEST PUSH1 0x0 PUSH1 0x20 DUP3 DUP5 SUB SLT ISZERO PUSH2 0x13D0 JUMPI PUSH1 0x0 DUP1 REVERT JUMPDEST DUP2 CALLDATALOAD PUSH2 0x13DB DUP2 PUSH2 0x120A JUMP JUMPDEST SWAP4 SWAP3 POP POP POP JUMP JUMPDEST PUSH1 0x1 DUP2 DUP2 SHR SWAP1 DUP3 AND DUP1 PUSH2 0x13F6 JUMPI PUSH1 0x7F DUP3 AND SWAP2 POP JUMPDEST PUSH1 0x20 DUP3 LT DUP2 SUB PUSH2 0x1416 JUMPI PUSH4 0x4E487B71 PUSH1 0xE0 SHL PUSH1 0x0 MSTORE PUSH1 0x22 PUSH1 0x4 MSTORE PUSH1 0x24 PUSH1 0x0 REVERT JUMPDEST POP SWAP2 SWAP1 POP JUMP JUMPDEST PUSH4 0x4E487B71 PUSH1 0xE0 SHL PUSH1 0x0 MSTORE PUSH1 0x11 PUSH1 0x4 MSTORE PUSH1 0x24 PUSH1 0x0 REVERT JUMPDEST PUSH1 0x0 PUSH1 0x1 DUP3 ADD PUSH2 0x1444 JUMPI PUSH2 0x1444 PUSH2 0x141C JUMP JUMPDEST POP PUSH1 0x1 ADD SWAP1 JUMP JUMPDEST PUSH4 0x4E487B71 PUSH1 0xE0 SHL PUSH1 0x0 MSTORE PUSH1 0x41 PUSH1 0x4 MSTORE PUSH1 0x24 PUSH1 0x0 REVERT JUMPDEST PUSH1 0x1F DUP3 GT ISZERO PUSH2 0x14AB JUMPI PUSH1 0x0 DUP2 DUP2 MSTORE PUSH1 0x20 DUP2 KECCAK256 PUSH1 0x1F DUP6 ADD PUSH1 0x5 SHR DUP2 ADD PUSH1 0x20 DUP7 LT ISZERO PUSH2 0x1488 JUMPI POP DUP1 JUMPDEST PUSH1 0x1F DUP6 ADD PUSH1 0x5 SHR DUP3 ADD SWAP2 POP JUMPDEST DUP2 DUP2 LT ISZERO PUSH2 0x14A7 JUMPI DUP3 DUP2 SSTORE PUSH1 0x1 ADD PUSH2 0x1494 JUMP JUMPDEST POP POP POP JUMPDEST POP POP POP JUMP JUMPDEST PUSH8 0xFFFFFFFFFFFFFFFF DUP4 GT ISZERO PUSH2 0x14C8 JUMPI PUSH2 0x14C8 PUSH2 0x144B JUMP JUMPDEST PUSH2 0x14DC DUP4 PUSH2 0x14D6 DUP4 SLOAD PUSH2 0x13E2 JUMP JUMPDEST DUP4 PUSH2 0x1461 JUMP JUMPDEST PUSH1 0x0 PUSH1 0x1F DUP5 GT PUSH1 0x1 DUP2 EQ PUSH2 0x1510 JUMPI PUSH1 0x0 DUP6 ISZERO PUSH2 0x14F8 JUMPI POP DUP4 DUP3 ADD CALLDATALOAD JUMPDEST PUSH1 0x0 NOT PUSH1 0x3 DUP8 SWAP1 SHL SHR NOT AND PUSH1 0x1 DUP7 SWAP1 SHL OR DUP4 SSTORE PUSH2 0x156A JUMP JUMPDEST PUSH1 0x0 DUP4 DUP2 MSTORE PUSH1 0x20 SWAP1 KECCAK256 PUSH1 0x1F NOT DUP7 AND SWAP1 DUP4 JUMPDEST DUP3 DUP2 LT ISZERO PUSH2 0x1541 JUMPI DUP7 DUP6 ADD CALLDATALOAD DUP3 SSTORE PUSH1 0x20 SWAP5 DUP6 ADD SWAP5 PUSH1 0x1 SWAP1 SWAP3 ADD SWAP2 ADD PUSH2 0x1521 JUMP JUMPDEST POP DUP7 DUP3 LT ISZERO PUSH2 0x155E JUMPI PUSH1 0x0 NOT PUSH1 0xF8 DUP9 PUSH1 0x3 SHL AND SHR NOT DUP5 DUP8 ADD CALLDATALOAD AND DUP2 SSTORE JUMPDEST POP POP PUSH1 0x1 DUP6 PUSH1 0x1 SHL ADD DUP4 SSTORE JUMPDEST POP POP POP POP POP JUMP JUMPDEST PUSH1 0x20 DUP2 ADD PUSH2 0x3C2 DUP3 DUP5 PUSH2 0x1134 JUMP JUMPDEST DUP1 DUP3 ADD DUP1 DUP3 GT ISZERO PUSH2 0x3C2 JUMPI PUSH2 0x3C2 PUSH2 0x141C JUMP JUMPDEST PUSH1 0x0 PUSH1 0x20 DUP3 DUP5 SUB SLT ISZERO PUSH2 0x15A4 JUMPI PUSH1 0x0 DUP1 REVERT JUMPDEST DUP2 MLOAD PUSH2 0x13DB DUP2 PUSH2 0x120A JUMP JUMPDEST DUP1 DUP3 MUL DUP2 ISZERO DUP3 DUP3 DIV DUP5 EQ OR PUSH2 0x3C2 JUMPI PUSH2 0x3C2 PUSH2 0x141C JUMP JUMPDEST PUSH1 0x0 DUP3 PUSH2 0x15E3 JUMPI PUSH4 0x4E487B71 PUSH1 0xE0 SHL PUSH1 0x0 MSTORE PUSH1 0x12 PUSH1 0x4 MSTORE PUSH1 0x24 PUSH1 0x0 REVERT JUMPDEST POP DIV SWAP1 JUMP JUMPDEST PUSH1 0x0 DUP2 PUSH2 0x15F7 JUMPI PUSH2 0x15F7 PUSH2 0x141C JUMP JUMPDEST POP PUSH1 0x0 NOT ADD SWAP1 JUMP JUMPDEST PUSH4 0x4E487B71 PUSH1 0xE0 SHL PUSH1 0x0 MSTORE PUSH1 0x32 PUSH1 0x4 MSTORE PUSH1 0x24 PUSH1 0x0 REVERT JUMPDEST DUP2 DUP2 SUB DUP2 DUP2 GT ISZERO PUSH2 0x3C2 JUMPI PUSH2 0x3C2 PUSH2 0x141C JUMP JUMPDEST PUSH4 0x4E487B71 PUSH1 0xE0 SHL PUSH1 0x0 MSTORE PUSH1 0x31 PUSH1 0x4 MSTORE PUSH1 0x24 PUSH1 0x0 REVERT INVALID LOG2 PUSH5 0x6970667358 0x22 SLT KECCAK256 BASEFEE SWAP15 0xCC 0xC7 0xE7 DUP5 GAS 0x5E DUP10 0x4D SWAP2 PUSH24 0x87ED7CCE1BB2DA2B0A6CB8999BAE3C1500B637DB64736F6C PUSH4 0x43000814 STOP CALLER "},"methodIdentifiers":{"PROPOSAL_TTL()":"0024a6f1","approvalThreshold()":"7d0eef61","approveProposal(uint256)":"98951b56","cancelProposal(uint256)":"e0a8f6f5","consumeProposal(uint256)":"462069f4","getEffectiveStatus(uint256)":"a47f65dd","getMemberCount()":"997072f7","getMembers()":"9eab5253","getProposal(uint256)":"c7f758a8","hasApproved(uint256,address)":"2358d5a8","isCommitteeMember(address)":"e636d84b","isProposalExecuted(uint256)":"d00c1aec","memberCount()":"11aee380","members(uint256)":"5daf08ca","proposalCount()":"da35c664","proposals(uint256)":"013cf08b","propose(uint8,address,bytes)":"2afaa3cb"}}}}}