{"Contracts/GreenToken.sol":{"GreenToken":{"abi":[{"inputs":[{"internalType":"string","name":"name","type":"string"},{"internalType":"string","name":"symbol","type":"string"},{"internalType":"address","name":"_committee","type":"address"}],"stateMutability":"nonpayable","type":"constructor"},{"inputs":[{"internalType":"address","name":"spender","type":"address"},{"internalType":"uint256","name":"allowance","type":"uint256"},{"internalType":"uint256","name":"needed","type":"uint256"}],"name":"ERC20InsufficientAllowance","type":"error"},{"inputs":[{"internalType":"address","name":"sender","type":"address"},{"internalType":"uint256","name":"balance","type":"uint256"},{"internalType":"uint256","name":"needed","type":"uint256"}],"name":"ERC20InsufficientBalance","type":"error"},{"inputs":[{"internalType":"address","name":"approver","type":"address"}],"name":"ERC20InvalidApprover","type":"error"},{"inputs":[{"internalType":"address","name":"receiver","type":"address"}],"name":"ERC20InvalidReceiver","type":"error"},{"inputs":[{"internalType":"address","name":"sender","type":"address"}],"name":"ERC20InvalidSender","type":"error"},{"inputs":[{"internalType":"address","name":"spender","type":"address"}],"name":"ERC20InvalidSpender","type":"error"},{"anonymous":false,"inputs":[{"indexed":true,"internalType":"address","name":"owner","type":"address"},{"indexed":true,"internalType":"address","name":"spender","type":"address"},{"indexed":false,"internalType":"uint256","name":"value","type":"uint256"}],"name":"Approval","type":"event"},{"anonymous":false,"inputs":[{"indexed":true,"internalType":"address","name":"to","type":"address"},{"indexed":false,"internalType":"uint256","name":"amount","type":"uint256"},{"indexed":false,"internalType":"uint256","name":"newTotal","type":"uint256"}],"name":"Minted","type":"event"},{"anonymous":false,"inputs":[{"indexed":true,"internalType":"address","name":"newMinter","type":"address"}],"name":"MinterUpdated","type":"event"},{"anonymous":false,"inputs":[{"indexed":true,"internalType":"address","name":"user","type":"address"},{"indexed":false,"internalType":"uint256","name":"requestedAmount","type":"uint256"},{"indexed":false,"internalType":"uint256","name":"actualAmount","type":"uint256"}],"name":"Slashed","type":"event"},{"anonymous":false,"inputs":[{"indexed":true,"internalType":"address","name":"from","type":"address"},{"indexed":true,"internalType":"address","name":"to","type":"address"},{"indexed":false,"internalType":"uint256","name":"value","type":"uint256"}],"name":"Transfer","type":"event"},{"inputs":[{"internalType":"address","name":"owner","type":"address"},{"internalType":"address","name":"spender","type":"address"}],"name":"allowance","outputs":[{"internalType":"uint256","name":"","type":"uint256"}],"stateMutability":"view","type":"function"},{"inputs":[{"internalType":"address","name":"spender","type":"address"},{"internalType":"uint256","name":"value","type":"uint256"}],"name":"approve","outputs":[{"internalType":"bool","name":"","type":"bool"}],"stateMutability":"nonpayable","type":"function"},{"inputs":[{"internalType":"address","name":"account","type":"address"}],"name":"balanceOf","outputs":[{"internalType":"uint256","name":"","type":"uint256"}],"stateMutability":"view","type":"function"},{"inputs":[],"name":"committee","outputs":[{"internalType":"contract ICommitteeManager","name":"","type":"address"}],"stateMutability":"view","type":"function"},{"inputs":[],"name":"decimals","outputs":[{"internalType":"uint8","name":"","type":"uint8"}],"stateMutability":"pure","type":"function"},{"inputs":[{"internalType":"address","name":"user","type":"address"}],"name":"getTier","outputs":[{"internalType":"uint8","name":"","type":"uint8"}],"stateMutability":"view","type":"function"},{"inputs":[{"internalType":"address","name":"to","type":"address"},{"internalType":"uint256","name":"amount","type":"uint256"}],"name":"mint","outputs":[],"stateMutability":"nonpayable","type":"function"},{"inputs":[],"name":"minter","outputs":[{"internalType":"address","name":"","type":"address"}],"stateMutability":"view","type":"function"},{"inputs":[],"name":"name","outputs":[{"internalType":"string","name":"","type":"string"}],"stateMutability":"view","type":"function"},{"inputs":[{"internalType":"address","name":"_minter","type":"address"}],"name":"setMinter","outputs":[],"stateMutability":"nonpayable","type":"function"},{"inputs":[{"internalType":"address","name":"user","type":"address"},{"internalType":"uint256","name":"amount","type":"uint256"}],"name":"slash","outputs":[{"internalType":"uint256","name":"actualAmount","type":"uint256"}],"stateMutability":"nonpayable","type":"function"},{"inputs":[],"name":"symbol","outputs":[{"internalType":"string","name":"","type":"string"}],"stateMutability":"view","type":"function"},{"inputs":[{"internalType":"address","name":"","type":"address"}],"name":"totalMinted","outputs":[{"internalType":"uint256","name":"","type":"uint256"}],"stateMutability":"view","type":"function"},{"inputs":[],"name":"totalSupply","outputs":[{"internalType":"uint256","name":"","type":"uint256"}],"stateMutability":"view","type":"function"},{"inputs":[{"internalType":"address","name":"to","type":"address"},{"internalType":"uint256","name":"value","type":"uint256"}],"name":"transfer","outputs":[{"internalType":"bool","name":"","type":"bool"}],"stateMutability":"nonpayable","type":"function"},{"inputs":[{"internalType":"address","name":"from","type":"address"},{"internalType":"address","name":"to","type":"address"},{"internalType":"uint256","name":"value","type":"uint256"}],"name":"transferFrom","outputs":[{"internalType":"bool","name":"","type":"bool"}],"stateMutability":"nonpayable","type":"function"}],"evm":{"bytecode":{"linkReferences":{},"object":"60a06040523480156200001157600080fd5b50604051620010e7380380620010e783398101604081905262000034916200017f565b828260036200004483826200029b565b5060046200005382826200029b565b5050506001600160a01b038116620000a55760405162461bcd60e51b8152602060048201526011602482015270496e76616c696420636f6d6d697474656560781b604482015260640160405180910390fd5b6001600160a01b031660805250620003679050565b634e487b7160e01b600052604160045260246000fd5b600082601f830112620000e257600080fd5b81516001600160401b0380821115620000ff57620000ff620000ba565b604051601f8301601f19908116603f011681019082821181831017156200012a576200012a620000ba565b816040528381526020925086838588010111156200014757600080fd5b600091505b838210156200016b57858201830151818301840152908201906200014c565b600093810190920192909252949350505050565b6000806000606084860312156200019557600080fd5b83516001600160401b0380821115620001ad57600080fd5b620001bb87838801620000d0565b94506020860151915080821115620001d257600080fd5b50620001e186828701620000d0565b604086015190935090506001600160a01b03811681146200020157600080fd5b809150509250925092565b600181811c908216806200022157607f821691505b6020821081036200024257634e487b7160e01b600052602260045260246000fd5b50919050565b601f8211156200029657600081815260208120601f850160051c81016020861015620002715750805b601f850160051c820191505b8181101562000292578281556001016200027d565b5050505b505050565b81516001600160401b03811115620002b757620002b7620000ba565b620002cf81620002c884546200020c565b8462000248565b602080601f831160018114620003075760008415620002ee5750858301515b600019600386901b1c1916600185901b17855562000292565b600085815260208120601f198616915b82811015620003385788860151825594840194600190910190840162000317565b5085821015620003575787850151600019600388901b60f8161c191681555b5050505050600190811b01905550565b608051610d5d6200038a6000396000818161024e01526106ea0152610d5d6000f3fe608060405234801561001057600080fd5b50600436106100ff5760003560e01c806340c10f1911610097578063b45aae5211610066578063b45aae5214610236578063d864e74014610249578063dd62ed3e14610270578063fca3b5aa146102a957600080fd5b806340c10f19146101dd57806370a08231146101f257806395d89b411461021b578063a9059cbb1461022357600080fd5b8063095ea7b3116100d3578063095ea7b31461018a57806318160ddd146101ad57806323b872dd146101b5578063313ce567146101c857600080fd5b80623d47901461010457806302fb4d851461013757806306fdde031461014a578063075461721461015f575b600080fd5b610124610112366004610ba1565b60056020526000908152604090205481565b6040519081526020015b60405180910390f35b610124610145366004610bc3565b6102bc565b610152610425565b60405161012e9190610bed565b600654610172906001600160a01b031681565b6040516001600160a01b03909116815260200161012e565b61019d610198366004610bc3565b6104b7565b604051901515815260200161012e565b600254610124565b61019d6101c3366004610c3b565b6104d1565b60005b60405160ff909116815260200161012e565b6101f06101eb366004610bc3565b6104f5565b005b610124610200366004610ba1565b6001600160a01b031660009081526020819052604090205490565b610152610662565b61019d610231366004610bc3565b610671565b6101cb610244366004610ba1565b61067f565b6101727f000000000000000000000000000000000000000000000000000000000000000081565b61012461027e366004610c77565b6001600160a01b03918216600090815260016020908152604080832093909416825291909152205490565b6101f06102b7366004610ba1565b6106d5565b6006546000906001600160a01b031633146103165760405162461bcd60e51b81526020600482015260156024820152742737ba1030baba3437b934bd32b21036b4b73a32b960591b60448201526064015b60405180910390fd5b6001600160a01b03831661035b5760405162461bcd60e51b815260206004820152600c60248201526b24b73b30b634b2103ab9b2b960a11b604482015260640161030d565b600082116103a05760405162461bcd60e51b81526020600482015260126024820152710416d6f756e74206d757374206265203e20360741b604482015260640161030d565b6001600160a01b0383166000908152602081905260409020548281106103c657826103c8565b805b915081156103da576103da848361082a565b60408051848152602081018490526001600160a01b038616917f45a371af55b0726877a30f464edc14db5879ab096590bacce682cf6c18223596910160405180910390a25092915050565b60606003805461043490610caa565b80601f016020809104026020016040519081016040528092919081815260200182805461046090610caa565b80156104ad5780601f10610482576101008083540402835291602001916104ad565b820191906000526020600020905b81548152906001019060200180831161049057829003601f168201915b5050505050905090565b6000336104c5818585610864565b60019150505b92915050565b6000336104df858285610876565b6104ea8585856108f5565b506001949350505050565b6006546001600160a01b031633146105475760405162461bcd60e51b81526020600482015260156024820152742737ba1030baba3437b934bd32b21036b4b73a32b960591b604482015260640161030d565b6001600160a01b0382166105915760405162461bcd60e51b8152602060048201526011602482015270125b9d985b1a59081c9958da5c1a595b9d607a1b604482015260640161030d565b600081116105d65760405162461bcd60e51b81526020600482015260126024820152710416d6f756e74206d757374206265203e20360741b604482015260640161030d565b6105e08282610954565b6001600160a01b03821660009081526005602052604081208054839290610608908490610ce4565b90915550506001600160a01b038216600081815260056020908152604091829020548251858152918201527f25b428dfde728ccfaddad7e29e4ac23c24ed7fd1a6e3e3f91894a9a073f5dfff910160405180910390a25050565b60606004805461043490610caa565b6000336104c58185856108f5565b6001600160a01b0381166000908152600560205260408120546101f481106106aa5750600392915050565b60c881106106bb5750600292915050565b603281106106cc5750600192915050565b50600092915050565b60405163e636d84b60e01b81523360048201527f00000000000000000000000000000000000000000000000000000000000000006001600160a01b03169063e636d84b90602401602060405180830381865afa158015610739573d6000803e3d6000fd5b505050506040513d601f19601f8201168201806040525081019061075d9190610d05565b6107995760405162461bcd60e51b815260206004820152600d60248201526c4e6f7420636f6d6d697474656560981b604482015260640161030d565b6001600160a01b0381166107e05760405162461bcd60e51b815260206004820152600e60248201526d24b73b30b634b21036b4b73a32b960911b604482015260640161030d565b600680546001600160a01b0319166001600160a01b0383169081179091556040517fad0f299ec81a386c98df0ac27dae11dd020ed1b56963c53a7292e7a3a314539a90600090a250565b6001600160a01b03821661085457604051634b637e8f60e11b81526000600482015260240161030d565b61086082600083610986565b5050565b6108718383836001610ab0565b505050565b6001600160a01b038381166000908152600160209081526040808320938616835292905220546000198110156108ef57818110156108e057604051637dc7a0d960e11b81526001600160a01b0384166004820152602481018290526044810183905260640161030d565b6108ef84848484036000610ab0565b50505050565b6001600160a01b03831661091f57604051634b637e8f60e11b81526000600482015260240161030d565b6001600160a01b0382166109495760405163ec442f0560e01b81526000600482015260240161030d565b610871838383610986565b6001600160a01b03821661097e5760405163ec442f0560e01b81526000600482015260240161030d565b610860600083835b6001600160a01b0383166109b15780600260008282546109a69190610ce4565b90915550610a239050565b6001600160a01b03831660009081526020819052604090205481811015610a045760405163391434e360e21b81526001600160a01b0385166004820152602481018290526044810183905260640161030d565b6001600160a01b03841660009081526020819052604090209082900390555b6001600160a01b038216610a3f57600280548290039055610a5e565b6001600160a01b03821660009081526020819052604090208054820190555b816001600160a01b0316836001600160a01b03167fddf252ad1be2c89b69c2b068fc378daa952ba7f163c4a11628f55a4df523b3ef83604051610aa391815260200190565b60405180910390a3505050565b6001600160a01b038416610ada5760405163e602df0560e01b81526000600482015260240161030d565b6001600160a01b038316610b0457604051634a1406b160e11b81526000600482015260240161030d565b6001600160a01b03808516600090815260016020908152604080832093871683529290522082905580156108ef57826001600160a01b0316846001600160a01b03167f8c5be1e5ebec7d5bd14f71427d1e84f3dd0314c0f7b2291e5b200ac8c7c3b92584604051610b7791815260200190565b60405180910390a350505050565b80356001600160a01b0381168114610b9c57600080fd5b919050565b600060208284031215610bb357600080fd5b610bbc82610b85565b9392505050565b60008060408385031215610bd657600080fd5b610bdf83610b85565b946020939093013593505050565b600060208083528351808285015260005b81811015610c1a57858101830151858201604001528201610bfe565b506000604082860101526040601f19601f8301168501019250505092915050565b600080600060608486031215610c5057600080fd5b610c5984610b85565b9250610c6760208501610b85565b9150604084013590509250925092565b60008060408385031215610c8a57600080fd5b610c9383610b85565b9150610ca160208401610b85565b90509250929050565b600181811c90821680610cbe57607f821691505b602082108103610cde57634e487b7160e01b600052602260045260246000fd5b50919050565b808201808211156104cb57634e487b7160e01b600052601160045260246000fd5b600060208284031215610d1757600080fd5b81518015158114610bbc57600080fdfea2646970667358221220cfa0a2b8ed59124e8093fb16b4678354487fba245cc3344d3f282a259596100264736f6c63430008140033","opcodes":"PUSH1 0xA0 PUSH1 0x40 MSTORE CALLVALUE DUP1 ISZERO PUSH3 0x11 JUMPI PUSH1 0x0 DUP1 REVERT JUMPDEST POP PUSH1 0x40 MLOAD PUSH3 0x10E7 CODESIZE SUB DUP1 PUSH3 0x10E7 DUP4 CODECOPY DUP2 ADD PUSH1 0x40 DUP2 SWAP1 MSTORE PUSH3 0x34 SWAP2 PUSH3 0x17F JUMP JUMPDEST DUP3 DUP3 PUSH1 0x3 PUSH3 0x44 DUP4 DUP3 PUSH3 0x29B JUMP JUMPDEST POP PUSH1 0x4 PUSH3 0x53 DUP3 DUP3 PUSH3 0x29B JUMP JUMPDEST POP POP POP PUSH1 0x1 PUSH1 0x1 PUSH1 0xA0 SHL SUB DUP2 AND PUSH3 0xA5 JUMPI PUSH1 0x40 MLOAD PUSH3 0x461BCD PUSH1 0xE5 SHL DUP2 MSTORE PUSH1 0x20 PUSH1 0x4 DUP3 ADD MSTORE PUSH1 0x11 PUSH1 0x24 DUP3 ADD MSTORE PUSH17 0x496E76616C696420636F6D6D6974746565 PUSH1 0x78 SHL PUSH1 0x44 DUP3 ADD MSTORE PUSH1 0x64 ADD PUSH1 0x40 MLOAD DUP1 SWAP2 SUB SWAP1 REVERT JUMPDEST PUSH1 0x1 PUSH1 0x1 PUSH1 0xA0 SHL SUB AND PUSH1 0x80 MSTORE POP PUSH3 0x367 SWAP1 POP JUMP JUMPDEST PUSH4 0x4E487B71 PUSH1 0xE0 SHL PUSH1 0x0 MSTORE PUSH1 0x41 PUSH1 0x4 MSTORE PUSH1 0x24 PUSH1 0x0 REVERT JUMPDEST PUSH1 0x0 DUP3 PUSH1 0x1F DUP4 ADD SLT PUSH3 0xE2 JUMPI PUSH1 0x0 DUP1 REVERT JUMPDEST DUP2 MLOAD PUSH1 0x1 PUSH1 0x1 PUSH1 0x40 SHL SUB DUP1 DUP3 GT ISZERO PUSH3 0xFF JUMPI PUSH3 0xFF PUSH3 0xBA JUMP JUMPDEST PUSH1 0x40 MLOAD PUSH1 0x1F DUP4 ADD PUSH1 0x1F NOT SWAP1 DUP2 AND PUSH1 0x3F ADD AND DUP2 ADD SWAP1 DUP3 DUP3 GT DUP2 DUP4 LT OR ISZERO PUSH3 0x12A JUMPI PUSH3 0x12A PUSH3 0xBA JUMP JUMPDEST DUP2 PUSH1 0x40 MSTORE DUP4 DUP2 MSTORE PUSH1 0x20 SWAP3 POP DUP7 DUP4 DUP6 DUP9 ADD ADD GT ISZERO PUSH3 0x147 JUMPI PUSH1 0x0 DUP1 REVERT JUMPDEST PUSH1 0x0 SWAP2 POP JUMPDEST DUP4 DUP3 LT ISZERO PUSH3 0x16B JUMPI DUP6 DUP3 ADD DUP4 ADD MLOAD DUP2 DUP4 ADD DUP5 ADD MSTORE SWAP1 DUP3 ADD SWAP1 PUSH3 0x14C JUMP JUMPDEST PUSH1 0x0 SWAP4 DUP2 ADD SWAP1 SWAP3 ADD SWAP3 SWAP1 SWAP3 MSTORE SWAP5 SWAP4 POP POP POP POP JUMP JUMPDEST PUSH1 0x0 DUP1 PUSH1 0x0 PUSH1 0x60 DUP5 DUP7 SUB SLT ISZERO PUSH3 0x195 JUMPI PUSH1 0x0 DUP1 REVERT JUMPDEST DUP4 MLOAD PUSH1 0x1 PUSH1 0x1 PUSH1 0x40 SHL SUB DUP1 DUP3 GT ISZERO PUSH3 0x1AD JUMPI PUSH1 0x0 DUP1 REVERT JUMPDEST PUSH3 0x1BB DUP8 DUP4 DUP9 ADD PUSH3 0xD0 JUMP JUMPDEST SWAP5 POP PUSH1 0x20 DUP7 ADD MLOAD SWAP2 POP DUP1 DUP3 GT ISZERO PUSH3 0x1D2 JUMPI PUSH1 0x0 DUP1 REVERT JUMPDEST POP PUSH3 0x1E1 DUP7 DUP3 DUP8 ADD PUSH3 0xD0 JUMP JUMPDEST PUSH1 0x40 DUP7 ADD MLOAD SWAP1 SWAP4 POP SWAP1 POP PUSH1 0x1 PUSH1 0x1 PUSH1 0xA0 SHL SUB DUP2 AND DUP2 EQ PUSH3 0x201 JUMPI PUSH1 0x0 DUP1 REVERT JUMPDEST DUP1 SWAP2 POP POP SWAP3 POP SWAP3 POP SWAP3 JUMP JUMPDEST PUSH1 0x1 DUP2 DUP2 SHR SWAP1 DUP3 AND DUP1 PUSH3 0x221 JUMPI PUSH1 0x7F DUP3 AND SWAP2 POP JUMPDEST PUSH1 0x20 DUP3 LT DUP2 SUB PUSH3 0x242 JUMPI PUSH4 0x4E487B71 PUSH1 0xE0 SHL PUSH1 0x0 MSTORE PUSH1 0x22 PUSH1 0x4 MSTORE PUSH1 0x24 PUSH1 0x0 REVERT JUMPDEST POP SWAP2 SWAP1 POP JUMP JUMPDEST PUSH1 0x1F DUP3 GT ISZERO PUSH3 0x296 JUMPI PUSH1 0x0 DUP2 DUP2 MSTORE PUSH1 0x20 DUP2 KECCAK256 PUSH1 0x1F DUP6 ADD PUSH1 0x5 SHR DUP2 ADD PUSH1 0x20 DUP7 LT ISZERO PUSH3 0x271 JUMPI POP DUP1 JUMPDEST PUSH1 0x1F DUP6 ADD PUSH1 0x5 SHR DUP3 ADD SWAP2 POP JUMPDEST DUP2 DUP2 LT ISZERO PUSH3 0x292 JUMPI DUP3 DUP2 SSTORE PUSH1 0x1 ADD PUSH3 0x27D JUMP JUMPDEST POP POP POP JUMPDEST POP POP POP JUMP JUMPDEST DUP2 MLOAD PUSH1 0x1 PUSH1 0x1 PUSH1 0x40 SHL SUB DUP2 GT ISZERO PUSH3 0x2B7 JUMPI PUSH3 0x2B7 PUSH3 0xBA JUMP JUMPDEST PUSH3 0x2CF DUP2 PUSH3 0x2C8 DUP5 SLOAD PUSH3 0x20C JUMP JUMPDEST DUP5 PUSH3 0x248 JUMP JUMPDEST PUSH1 0x20 DUP1 PUSH1 0x1F DUP4 GT PUSH1 0x1 DUP2 EQ PUSH3 0x307 JUMPI PUSH1 0x0 DUP5 ISZERO PUSH3 0x2EE JUMPI POP DUP6 DUP4 ADD MLOAD JUMPDEST PUSH1 0x0 NOT PUSH1 0x3 DUP7 SWAP1 SHL SHR NOT AND PUSH1 0x1 DUP6 SWAP1 SHL OR DUP6 SSTORE PUSH3 0x292 JUMP JUMPDEST PUSH1 0x0 DUP6 DUP2 MSTORE PUSH1 0x20 DUP2 KECCAK256 PUSH1 0x1F NOT DUP7 AND SWAP2 JUMPDEST DUP3 DUP2 LT ISZERO PUSH3 0x338 JUMPI DUP9 DUP7 ADD MLOAD DUP3 SSTORE SWAP5 DUP5 ADD SWAP5 PUSH1 0x1 SWAP1 SWAP2 ADD SWAP1 DUP5 ADD PUSH3 0x317 JUMP JUMPDEST POP DUP6 DUP3 LT ISZERO PUSH3 0x357 JUMPI DUP8 DUP6 ADD MLOAD PUSH1 0x0 NOT PUSH1 0x3 DUP9 SWAP1 SHL PUSH1 0xF8 AND SHR NOT AND DUP2 SSTORE JUMPDEST POP POP POP POP POP PUSH1 0x1 SWAP1 DUP2 SHL ADD SWAP1 SSTORE POP JUMP JUMPDEST PUSH1 0x80 MLOAD PUSH2 0xD5D PUSH3 0x38A PUSH1 0x0 CODECOPY PUSH1 0x0 DUP2 DUP2 PUSH2 0x24E ADD MSTORE PUSH2 0x6EA ADD MSTORE PUSH2 0xD5D PUSH1 0x0 RETURN INVALID PUSH1 0x80 PUSH1 0x40 MSTORE CALLVALUE DUP1 ISZERO PUSH2 0x10 JUMPI PUSH1 0x0 DUP1 REVERT JUMPDEST POP PUSH1 0x4 CALLDATASIZE LT PUSH2 0xFF JUMPI PUSH1 0x0 CALLDATALOAD PUSH1 0xE0 SHR DUP1 PUSH4 0x40C10F19 GT PUSH2 0x97 JUMPI DUP1 PUSH4 0xB45AAE52 GT PUSH2 0x66 JUMPI DUP1 PUSH4 0xB45AAE52 EQ PUSH2 0x236 JUMPI DUP1 PUSH4 0xD864E740 EQ PUSH2 0x249 JUMPI DUP1 PUSH4 0xDD62ED3E EQ PUSH2 0x270 JUMPI DUP1 PUSH4 0xFCA3B5AA EQ PUSH2 0x2A9 JUMPI PUSH1 0x0 DUP1 REVERT JUMPDEST DUP1 PUSH4 0x40C10F19 EQ PUSH2 0x1DD JUMPI DUP1 PUSH4 0x70A08231 EQ PUSH2 0x1F2 JUMPI DUP1 PUSH4 0x95D89B41 EQ PUSH2 0x21B JUMPI DUP1 PUSH4 0xA9059CBB EQ PUSH2 0x223 JUMPI PUSH1 0x0 DUP1 REVERT JUMPDEST DUP1 PUSH4 0x95EA7B3 GT PUSH2 0xD3 JUMPI DUP1 PUSH4 0x95EA7B3 EQ PUSH2 0x18A JUMPI DUP1 PUSH4 0x18160DDD EQ PUSH2 0x1AD JUMPI DUP1 PUSH4 0x23B872DD EQ PUSH2 0x1B5 JUMPI DUP1 PUSH4 0x313CE567 EQ PUSH2 0x1C8 JUMPI PUSH1 0x0 DUP1 REVERT JUMPDEST DUP1 PUSH3 0x3D4790 EQ PUSH2 0x104 JUMPI DUP1 PUSH4 0x2FB4D85 EQ PUSH2 0x137 JUMPI DUP1 PUSH4 0x6FDDE03 EQ PUSH2 0x14A JUMPI DUP1 PUSH4 0x7546172 EQ PUSH2 0x15F JUMPI JUMPDEST PUSH1 0x0 DUP1 REVERT JUMPDEST PUSH2 0x124 PUSH2 0x112 CALLDATASIZE PUSH1 0x4 PUSH2 0xBA1 JUMP JUMPDEST PUSH1 0x5 PUSH1 0x20 MSTORE PUSH1 0x0 SWAP1 DUP2 MSTORE PUSH1 0x40 SWAP1 KECCAK256 SLOAD DUP2 JUMP JUMPDEST PUSH1 0x40 MLOAD SWAP1 DUP2 MSTORE PUSH1 0x20 ADD JUMPDEST PUSH1 0x40 MLOAD DUP1 SWAP2 SUB SWAP1 RETURN JUMPDEST PUSH2 0x124 PUSH2 0x145 CALLDATASIZE PUSH1 0x4 PUSH2 0xBC3 JUMP JUMPDEST PUSH2 0x2BC JUMP JUMPDEST PUSH2 0x152 PUSH2 0x425 JUMP JUMPDEST PUSH1 0x40 MLOAD PUSH2 0x12E SWAP2 SWAP1 PUSH2 0xBED JUMP JUMPDEST PUSH1 0x6 SLOAD PUSH2 0x172 SWAP1 PUSH1 0x1 PUSH1 0x1 PUSH1 0xA0 SHL SUB AND DUP2 JUMP JUMPDEST PUSH1 0x40 MLOAD PUSH1 0x1 PUSH1 0x1 PUSH1 0xA0 SHL SUB SWAP1 SWAP2 AND DUP2 MSTORE PUSH1 0x20 ADD PUSH2 0x12E JUMP JUMPDEST PUSH2 0x19D PUSH2 0x198 CALLDATASIZE PUSH1 0x4 PUSH2 0xBC3 JUMP JUMPDEST PUSH2 0x4B7 JUMP JUMPDEST PUSH1 0x40 MLOAD SWAP1 ISZERO ISZERO DUP2 MSTORE PUSH1 0x20 ADD PUSH2 0x12E JUMP JUMPDEST PUSH1 0x2 SLOAD PUSH2 0x124 JUMP JUMPDEST PUSH2 0x19D PUSH2 0x1C3 CALLDATASIZE PUSH1 0x4 PUSH2 0xC3B JUMP JUMPDEST PUSH2 0x4D1 JUMP JUMPDEST PUSH1 0x0 JUMPDEST PUSH1 0x40 MLOAD PUSH1 0xFF SWAP1 SWAP2 AND DUP2 MSTORE PUSH1 0x20 ADD PUSH2 0x12E JUMP JUMPDEST PUSH2 0x1F0 PUSH2 0x1EB CALLDATASIZE PUSH1 0x4 PUSH2 0xBC3 JUMP JUMPDEST PUSH2 0x4F5 JUMP JUMPDEST STOP JUMPDEST PUSH2 0x124 PUSH2 0x200 CALLDATASIZE PUSH1 0x4 PUSH2 0xBA1 JUMP JUMPDEST PUSH1 0x1 PUSH1 0x1 PUSH1 0xA0 SHL SUB AND PUSH1 0x0 SWAP1 DUP2 MSTORE PUSH1 0x20 DUP2 SWAP1 MSTORE PUSH1 0x40 SWAP1 KECCAK256 SLOAD SWAP1 JUMP JUMPDEST PUSH2 0x152 PUSH2 0x662 JUMP JUMPDEST PUSH2 0x19D PUSH2 0x231 CALLDATASIZE PUSH1 0x4 PUSH2 0xBC3 JUMP JUMPDEST PUSH2 0x671 JUMP JUMPDEST PUSH2 0x1CB PUSH2 0x244 CALLDATASIZE PUSH1 0x4 PUSH2 0xBA1 JUMP JUMPDEST PUSH2 0x67F JUMP JUMPDEST PUSH2 0x172 PUSH32 0x0 DUP2 JUMP JUMPDEST PUSH2 0x124 PUSH2 0x27E CALLDATASIZE PUSH1 0x4 PUSH2 0xC77 JUMP JUMPDEST PUSH1 0x1 PUSH1 0x1 PUSH1 0xA0 SHL SUB SWAP2 DUP3 AND PUSH1 0x0 SWAP1 DUP2 MSTORE PUSH1 0x1 PUSH1 0x20 SWAP1 DUP2 MSTORE PUSH1 0x40 DUP1 DUP4 KECCAK256 SWAP4 SWAP1 SWAP5 AND DUP3 MSTORE SWAP2 SWAP1 SWAP2 MSTORE KECCAK256 SLOAD SWAP1 JUMP JUMPDEST PUSH2 0x1F0 PUSH2 0x2B7 CALLDATASIZE PUSH1 0x4 PUSH2 0xBA1 JUMP JUMPDEST PUSH2 0x6D5 JUMP JUMPDEST PUSH1 0x6 SLOAD PUSH1 0x0 SWAP1 PUSH1 0x1 PUSH1 0x1 PUSH1 0xA0 SHL SUB AND CALLER EQ PUSH2 0x316 JUMPI PUSH1 0x40 MLOAD PUSH3 0x461BCD PUSH1 0xE5 SHL DUP2 MSTORE PUSH1 0x20 PUSH1 0x4 DUP3 ADD MSTORE PUSH1 0x15 PUSH1 0x24 DUP3 ADD MSTORE PUSH21 0x2737BA1030BABA3437B934BD32B21036B4B73A32B9 PUSH1 0x59 SHL PUSH1 0x44 DUP3 ADD MSTORE PUSH1 0x64 ADD JUMPDEST PUSH1 0x40 MLOAD DUP1 SWAP2 SUB SWAP1 REVERT JUMPDEST PUSH1 0x1 PUSH1 0x1 PUSH1 0xA0 SHL SUB DUP4 AND PUSH2 0x35B JUMPI PUSH1 0x40 MLOAD PUSH3 0x461BCD PUSH1 0xE5 SHL DUP2 MSTORE PUSH1 0x20 PUSH1 0x4 DUP3 ADD MSTORE PUSH1 0xC PUSH1 0x24 DUP3 ADD MSTORE PUSH12 0x24B73B30B634B2103AB9B2B9 PUSH1 0xA1 SHL PUSH1 0x44 DUP3 ADD MSTORE PUSH1 0x64 ADD PUSH2 0x30D JUMP JUMPDEST PUSH1 0x0 DUP3 GT PUSH2 0x3A0 JUMPI PUSH1 0x40 MLOAD PUSH3 0x461BCD PUSH1 0xE5 SHL DUP2 MSTORE PUSH1 0x20 PUSH1 0x4 DUP3 ADD MSTORE PUSH1 0x12 PUSH1 0x24 DUP3 ADD MSTORE PUSH18 0x416D6F756E74206D757374206265203E203 PUSH1 0x74 SHL PUSH1 0x44 DUP3 ADD MSTORE PUSH1 0x64 ADD PUSH2 0x30D JUMP JUMPDEST PUSH1 0x1 PUSH1 0x1 PUSH1 0xA0 SHL SUB DUP4 AND PUSH1 0x0 SWAP1 DUP2 MSTORE PUSH1 0x20 DUP2 SWAP1 MSTORE PUSH1 0x40 SWAP1 KECCAK256 SLOAD DUP3 DUP2 LT PUSH2 0x3C6 JUMPI DUP3 PUSH2 0x3C8 JUMP JUMPDEST DUP1 JUMPDEST SWAP2 POP DUP2 ISZERO PUSH2 0x3DA JUMPI PUSH2 0x3DA DUP5 DUP4 PUSH2 0x82A JUMP JUMPDEST PUSH1 0x40 DUP1 MLOAD DUP5 DUP2 MSTORE PUSH1 0x20 DUP2 ADD DUP5 SWAP1 MSTORE PUSH1 0x1 PUSH1 0x1 PUSH1 0xA0 SHL SUB DUP7 AND SWAP2 PUSH32 0x45A371AF55B0726877A30F464EDC14DB5879AB096590BACCE682CF6C18223596 SWAP2 ADD PUSH1 0x40 MLOAD DUP1 SWAP2 SUB SWAP1 LOG2 POP SWAP3 SWAP2 POP POP JUMP JUMPDEST PUSH1 0x60 PUSH1 0x3 DUP1 SLOAD PUSH2 0x434 SWAP1 PUSH2 0xCAA JUMP JUMPDEST DUP1 PUSH1 0x1F ADD PUSH1 0x20 DUP1 SWAP2 DIV MUL PUSH1 0x20 ADD PUSH1 0x40 MLOAD SWAP1 DUP2 ADD PUSH1 0x40 MSTORE DUP1 SWAP3 SWAP2 SWAP1 DUP2 DUP2 MSTORE PUSH1 0x20 ADD DUP3 DUP1 SLOAD PUSH2 0x460 SWAP1 PUSH2 0xCAA JUMP JUMPDEST DUP1 ISZERO PUSH2 0x4AD JUMPI DUP1 PUSH1 0x1F LT PUSH2 0x482 JUMPI PUSH2 0x100 DUP1 DUP4 SLOAD DIV MUL DUP4 MSTORE SWAP2 PUSH1 0x20 ADD SWAP2 PUSH2 0x4AD JUMP JUMPDEST DUP3 ADD SWAP2 SWAP1 PUSH1 0x0 MSTORE PUSH1 0x20 PUSH1 0x0 KECCAK256 SWAP1 JUMPDEST DUP2 SLOAD DUP2 MSTORE SWAP1 PUSH1 0x1 ADD SWAP1 PUSH1 0x20 ADD DUP1 DUP4 GT PUSH2 0x490 JUMPI DUP3 SWAP1 SUB PUSH1 0x1F AND DUP3 ADD SWAP2 JUMPDEST POP POP POP POP POP SWAP1 POP SWAP1 JUMP JUMPDEST PUSH1 0x0 CALLER PUSH2 0x4C5 DUP2 DUP6 DUP6 PUSH2 0x864 JUMP JUMPDEST PUSH1 0x1 SWAP2 POP POP JUMPDEST SWAP3 SWAP2 POP POP JUMP JUMPDEST PUSH1 0x0 CALLER PUSH2 0x4DF DUP6 DUP3 DUP6 PUSH2 0x876 JUMP JUMPDEST PUSH2 0x4EA DUP6 DUP6 DUP6 PUSH2 0x8F5 JUMP JUMPDEST POP PUSH1 0x1 SWAP5 SWAP4 POP POP POP POP JUMP JUMPDEST PUSH1 0x6 SLOAD PUSH1 0x1 PUSH1 0x1 PUSH1 0xA0 SHL SUB AND CALLER EQ PUSH2 0x547 JUMPI PUSH1 0x40 MLOAD PUSH3 0x461BCD PUSH1 0xE5 SHL DUP2 MSTORE PUSH1 0x20 PUSH1 0x4 DUP3 ADD MSTORE PUSH1 0x15 PUSH1 0x24 DUP3 ADD MSTORE PUSH21 0x2737BA1030BABA3437B934BD32B21036B4B73A32B9 PUSH1 0x59 SHL PUSH1 0x44 DUP3 ADD MSTORE PUSH1 0x64 ADD PUSH2 0x30D JUMP JUMPDEST PUSH1 0x1 PUSH1 0x1 PUSH1 0xA0 SHL SUB DUP3 AND PUSH2 0x591 JUMPI PUSH1 0x40 MLOAD PUSH3 0x461BCD PUSH1 0xE5 SHL DUP2 MSTORE PUSH1 0x20 PUSH1 0x4 DUP3 ADD MSTORE PUSH1 0x11 PUSH1 0x24 DUP3 ADD MSTORE PUSH17 0x125B9D985B1A59081C9958DA5C1A595B9D PUSH1 0x7A SHL PUSH1 0x44 DUP3 ADD MSTORE PUSH1 0x64 ADD PUSH2 0x30D JUMP JUMPDEST PUSH1 0x0 DUP2 GT PUSH2 0x5D6 JUMPI PUSH1 0x40 MLOAD PUSH3 0x461BCD PUSH1 0xE5 SHL DUP2 MSTORE PUSH1 0x20 PUSH1 0x4 DUP3 ADD MSTORE PUSH1 0x12 PUSH1 0x24 DUP3 ADD MSTORE PUSH18 0x416D6F756E74206D757374206265203E203 PUSH1 0x74 SHL PUSH1 0x44 DUP3 ADD MSTORE PUSH1 0x64 ADD PUSH2 0x30D JUMP JUMPDEST PUSH2 0x5E0 DUP3 DUP3 PUSH2 0x954 JUMP JUMPDEST PUSH1 0x1 PUSH1 0x1 PUSH1 0xA0 SHL SUB DUP3 AND PUSH1 0x0 SWAP1 DUP2 MSTORE PUSH1 0x5 PUSH1 0x20 MSTORE PUSH1 0x40 DUP2 KECCAK256 DUP1 SLOAD DUP4 SWAP3 SWAP1 PUSH2 0x608 SWAP1 DUP5 SWAP1 PUSH2 0xCE4 JUMP JUMPDEST SWAP1 SWAP2 SSTORE POP POP PUSH1 0x1 PUSH1 0x1 PUSH1 0xA0 SHL SUB DUP3 AND PUSH1 0x0 DUP2 DUP2 MSTORE PUSH1 0x5 PUSH1 0x20 SWAP1 DUP2 MSTORE PUSH1 0x40 SWAP2 DUP3 SWAP1 KECCAK256 SLOAD DUP3 MLOAD DUP6 DUP2 MSTORE SWAP2 DUP3 ADD MSTORE PUSH32 0x25B428DFDE728CCFADDAD7E29E4AC23C24ED7FD1A6E3E3F91894A9A073F5DFFF SWAP2 ADD PUSH1 0x40 MLOAD DUP1 SWAP2 SUB SWAP1 LOG2 POP POP JUMP JUMPDEST PUSH1 0x60 PUSH1 0x4 DUP1 SLOAD PUSH2 0x434 SWAP1 PUSH2 0xCAA JUMP JUMPDEST PUSH1 0x0 CALLER PUSH2 0x4C5 DUP2 DUP6 DUP6 PUSH2 0x8F5 JUMP JUMPDEST PUSH1 0x1 PUSH1 0x1 PUSH1 0xA0 SHL SUB DUP2 AND PUSH1 0x0 SWAP1 DUP2 MSTORE PUSH1 0x5 PUSH1 0x20 MSTORE PUSH1 0x40 DUP2 KECCAK256 SLOAD PUSH2 0x1F4 DUP2 LT PUSH2 0x6AA JUMPI POP PUSH1 0x3 SWAP3 SWAP2 POP POP JUMP JUMPDEST PUSH1 0xC8 DUP2 LT PUSH2 0x6BB JUMPI POP PUSH1 0x2 SWAP3 SWAP2 POP POP JUMP JUMPDEST PUSH1 0x32 DUP2 LT PUSH2 0x6CC JUMPI POP PUSH1 0x1 SWAP3 SWAP2 POP POP JUMP JUMPDEST POP PUSH1 0x0 SWAP3 SWAP2 POP POP JUMP JUMPDEST PUSH1 0x40 MLOAD PUSH4 0xE636D84B PUSH1 0xE0 SHL DUP2 MSTORE CALLER PUSH1 0x4 DUP3 ADD MSTORE PUSH32 0x0 PUSH1 0x1 PUSH1 0x1 PUSH1 0xA0 SHL SUB AND SWAP1 PUSH4 0xE636D84B SWAP1 PUSH1 0x24 ADD PUSH1 0x20 PUSH1 0x40 MLOAD DUP1 DUP4 SUB DUP2 DUP7 GAS STATICCALL ISZERO DUP1 ISZERO PUSH2 0x739 JUMPI RETURNDATASIZE PUSH1 0x0 DUP1 RETURNDATACOPY RETURNDATASIZE PUSH1 0x0 REVERT JUMPDEST POP POP POP POP PUSH1 0x40 MLOAD RETURNDATASIZE PUSH1 0x1F NOT PUSH1 0x1F DUP3 ADD AND DUP3 ADD DUP1 PUSH1 0x40 MSTORE POP DUP2 ADD SWAP1 PUSH2 0x75D SWAP2 SWAP1 PUSH2 0xD05 JUMP JUMPDEST PUSH2 0x799 JUMPI PUSH1 0x40 MLOAD PUSH3 0x461BCD PUSH1 0xE5 SHL DUP2 MSTORE PUSH1 0x20 PUSH1 0x4 DUP3 ADD MSTORE PUSH1 0xD PUSH1 0x24 DUP3 ADD MSTORE PUSH13 0x4E6F7420636F6D6D6974746565 PUSH1 0x98 SHL PUSH1 0x44 DUP3 ADD MSTORE PUSH1 0x64 ADD PUSH2 0x30D JUMP JUMPDEST PUSH1 0x1 PUSH1 0x1 PUSH1 0xA0 SHL SUB DUP2 AND PUSH2 0x7E0 JUMPI PUSH1 0x40 MLOAD PUSH3 0x461BCD PUSH1 0xE5 SHL DUP2 MSTORE PUSH1 0x20 PUSH1 0x4 DUP3 ADD MSTORE PUSH1 0xE PUSH1 0x24 DUP3 ADD MSTORE PUSH14 0x24B73B30B634B21036B4B73A32B9 PUSH1 0x91 SHL PUSH1 0x44 DUP3 ADD MSTORE PUSH1 0x64 ADD PUSH2 0x30D JUMP JUMPDEST PUSH1 0x6 DUP1 SLOAD PUSH1 0x1 PUSH1 0x1 PUSH1 0xA0 SHL SUB NOT AND PUSH1 0x1 PUSH1 0x1 PUSH1 0xA0 SHL SUB DUP4 AND SWAP1 DUP2 OR SWAP1 SWAP2 SSTORE PUSH1 0x40 MLOAD PUSH32 0xAD0F299EC81A386C98DF0AC27DAE11DD020ED1B56963C53A7292E7A3A314539A SWAP1 PUSH1 0x0 SWAP1 LOG2 POP JUMP JUMPDEST PUSH1 0x1 PUSH1 0x1 PUSH1 0xA0 SHL SUB DUP3 AND PUSH2 0x854 JUMPI PUSH1 0x40 MLOAD PUSH4 0x4B637E8F PUSH1 0xE1 SHL DUP2 MSTORE PUSH1 0x0 PUSH1 0x4 DUP3 ADD MSTORE PUSH1 0x24 ADD PUSH2 0x30D JUMP JUMPDEST PUSH2 0x860 DUP3 PUSH1 0x0 DUP4 PUSH2 0x986 JUMP JUMPDEST POP POP JUMP JUMPDEST PUSH2 0x871 DUP4 DUP4 DUP4 PUSH1 0x1 PUSH2 0xAB0 JUMP JUMPDEST POP POP POP JUMP JUMPDEST PUSH1 0x1 PUSH1 0x1 PUSH1 0xA0 SHL SUB DUP4 DUP2 AND PUSH1 0x0 SWAP1 DUP2 MSTORE PUSH1 0x1 PUSH1 0x20 SWAP1 DUP2 MSTORE PUSH1 0x40 DUP1 DUP4 KECCAK256 SWAP4 DUP7 AND DUP4 MSTORE SWAP3 SWAP1 MSTORE KECCAK256 SLOAD PUSH1 0x0 NOT DUP2 LT ISZERO PUSH2 0x8EF JUMPI DUP2 DUP2 LT ISZERO PUSH2 0x8E0 JUMPI PUSH1 0x40 MLOAD PUSH4 0x7DC7A0D9 PUSH1 0xE1 SHL DUP2 MSTORE PUSH1 0x1 PUSH1 0x1 PUSH1 0xA0 SHL SUB DUP5 AND PUSH1 0x4 DUP3 ADD MSTORE PUSH1 0x24 DUP2 ADD DUP3 SWAP1 MSTORE PUSH1 0x44 DUP2 ADD DUP4 SWAP1 MSTORE PUSH1 0x64 ADD PUSH2 0x30D JUMP JUMPDEST PUSH2 0x8EF DUP5 DUP5 DUP5 DUP5 SUB PUSH1 0x0 PUSH2 0xAB0 JUMP JUMPDEST POP POP POP POP JUMP JUMPDEST PUSH1 0x1 PUSH1 0x1 PUSH1 0xA0 SHL SUB DUP4 AND PUSH2 0x91F JUMPI PUSH1 0x40 MLOAD PUSH4 0x4B637E8F PUSH1 0xE1 SHL DUP2 MSTORE PUSH1 0x0 PUSH1 0x4 DUP3 ADD MSTORE PUSH1 0x24 ADD PUSH2 0x30D JUMP JUMPDEST PUSH1 0x1 PUSH1 0x1 PUSH1 0xA0 SHL SUB DUP3 AND PUSH2 0x949 JUMPI PUSH1 0x40 MLOAD PUSH4 0xEC442F05 PUSH1 0xE0 SHL DUP2 MSTORE PUSH1 0x0 PUSH1 0x4 DUP3 ADD MSTORE PUSH1 0x24 ADD PUSH2 0x30D JUMP JUMPDEST PUSH2 0x871 DUP4 DUP4 DUP4 PUSH2 0x986 JUMP JUMPDEST PUSH1 0x1 PUSH1 0x1 PUSH1 0xA0 SHL SUB DUP3 AND PUSH2 0x97E JUMPI PUSH1 0x40 MLOAD PUSH4 0xEC442F05 PUSH1 0xE0 SHL DUP2 MSTORE PUSH1 0x0 PUSH1 0x4 DUP3 ADD MSTORE PUSH1 0x24 ADD PUSH2 0x30D JUMP JUMPDEST PUSH2 0x860 PUSH1 0x0 DUP4 DUP4 JUMPDEST PUSH1 0x1 PUSH1 0x1 PUSH1 0xA0 SHL SUB DUP4 AND PUSH2 0x9B1 JUMPI DUP1 PUSH1 0x2 PUSH1 0x0 DUP3 DUP3 SLOAD PUSH2 0x9A6 SWAP2 SWAP1 PUSH2 0xCE4 JUMP JUMPDEST SWAP1 SWAP2 SSTORE POP PUSH2 0xA23 SWAP1 POP JUMP JUMPDEST PUSH1 0x1 PUSH1 0x1 PUSH1 0xA0 SHL SUB DUP4 AND PUSH1 0x0 SWAP1 DUP2 MSTORE PUSH1 0x20 DUP2 SWAP1 MSTORE PUSH1 0x40 SWAP1 KECCAK256 SLOAD DUP2 DUP2 LT ISZERO PUSH2 0xA04 JUMPI PUSH1 0x40 MLOAD PUSH4 0x391434E3 PUSH1 0xE2 SHL DUP2 MSTORE PUSH1 0x1 PUSH1 0x1 PUSH1 0xA0 SHL SUB DUP6 AND PUSH1 0x4 DUP3 ADD MSTORE PUSH1 0x24 DUP2 ADD DUP3 SWAP1 MSTORE PUSH1 0x44 DUP2 ADD DUP4 SWAP1 MSTORE PUSH1 0x64 ADD PUSH2 0x30D JUMP JUMPDEST PUSH1 0x1 PUSH1 0x1 PUSH1 0xA0 SHL SUB DUP5 AND PUSH1 0x0 SWAP1 DUP2 MSTORE PUSH1 0x20 DUP2 SWAP1 MSTORE PUSH1 0x40 SWAP1 KECCAK256 SWAP1 DUP3 SWAP1 SUB SWAP1 SSTORE JUMPDEST PUSH1 0x1 PUSH1 0x1 PUSH1 0xA0 SHL SUB DUP3 AND PUSH2 0xA3F JUMPI PUSH1 0x2 DUP1 SLOAD DUP3 SWAP1 SUB SWAP1 SSTORE PUSH2 0xA5E JUMP JUMPDEST PUSH1 0x1 PUSH1 0x1 PUSH1 0xA0 SHL SUB DUP3 AND PUSH1 0x0 SWAP1 DUP2 MSTORE PUSH1 0x20 DUP2 SWAP1 MSTORE PUSH1 0x40 SWAP1 KECCAK256 DUP1 SLOAD DUP3 ADD SWAP1 SSTORE JUMPDEST DUP2 PUSH1 0x1 PUSH1 0x1 PUSH1 0xA0 SHL SUB AND DUP4 PUSH1 0x1 PUSH1 0x1 PUSH1 0xA0 SHL SUB AND PUSH32 0xDDF252AD1BE2C89B69C2B068FC378DAA952BA7F163C4A11628F55A4DF523B3EF DUP4 PUSH1 0x40 MLOAD PUSH2 0xAA3 SWAP2 DUP2 MSTORE PUSH1 0x20 ADD SWAP1 JUMP JUMPDEST PUSH1 0x40 MLOAD DUP1 SWAP2 SUB SWAP1 LOG3 POP POP POP JUMP JUMPDEST PUSH1 0x1 PUSH1 0x1 PUSH1 0xA0 SHL SUB DUP5 AND PUSH2 0xADA JUMPI PUSH1 0x40 MLOAD PUSH4 0xE602DF05 PUSH1 0xE0 SHL DUP2 MSTORE PUSH1 0x0 PUSH1 0x4 DUP3 ADD MSTORE PUSH1 0x24 ADD PUSH2 0x30D JUMP JUMPDEST PUSH1 0x1 PUSH1 0x1 PUSH1 0xA0 SHL SUB DUP4 AND PUSH2 0xB04 JUMPI PUSH1 0x40 MLOAD PUSH4 0x4A1406B1 PUSH1 0xE1 SHL DUP2 MSTORE PUSH1 0x0 PUSH1 0x4 DUP3 ADD MSTORE PUSH1 0x24 ADD PUSH2 0x30D JUMP JUMPDEST PUSH1 0x1 PUSH1 0x1 PUSH1 0xA0 SHL SUB DUP1 DUP6 AND PUSH1 0x0 SWAP1 DUP2 MSTORE PUSH1 0x1 PUSH1 0x20 SWAP1 DUP2 MSTORE PUSH1 0x40 DUP1 DUP4 KECCAK256 SWAP4 DUP8 AND DUP4 MSTORE SWAP3 SWAP1 MSTORE KECCAK256 DUP3 SWAP1 SSTORE DUP1 ISZERO PUSH2 0x8EF JUMPI DUP3 PUSH1 0x1 PUSH1 0x1 PUSH1 0xA0 SHL SUB AND DUP5 PUSH1 0x1 PUSH1 0x1 PUSH1 0xA0 SHL SUB AND PUSH32 0x8C5BE1E5EBEC7D5BD14F71427D1E84F3DD0314C0F7B2291E5B200AC8C7C3B925 DUP5 PUSH1 0x40 MLOAD PUSH2 0xB77 SWAP2 DUP2 MSTORE PUSH1 0x20 ADD SWAP1 JUMP JUMPDEST PUSH1 0x40 MLOAD DUP1 SWAP2 SUB SWAP1 LOG3 POP POP POP POP JUMP JUMPDEST DUP1 CALLDATALOAD PUSH1 0x1 PUSH1 0x1 PUSH1 0xA0 SHL SUB DUP2 AND DUP2 EQ PUSH2 0xB9C JUMPI PUSH1 0x0 DUP1 REVERT JUMPDEST SWAP2 SWAP1 POP JUMP JUMPDEST PUSH1 0x0 PUSH1 0x20 DUP3 DUP5 SUB SLT ISZERO PUSH2 0xBB3 JUMPI PUSH1 0x0 DUP1 REVERT JUMPDEST PUSH2 0xBBC DUP3 PUSH2 0xB85 JUMP JUMPDEST SWAP4 SWAP3 POP POP POP JUMP JUMPDEST PUSH1 0x0 DUP1 PUSH1 0x40 DUP4 DUP6 SUB SLT ISZERO PUSH2 0xBD6 JUMPI PUSH1 0x0 DUP1 REVERT JUMPDEST PUSH2 0xBDF DUP4 PUSH2 0xB85 JUMP JUMPDEST SWAP5 PUSH1 0x20 SWAP4 SWAP1 SWAP4 ADD CALLDATALOAD SWAP4 POP POP POP JUMP JUMPDEST PUSH1 0x0 PUSH1 0x20 DUP1 DUP4 MSTORE DUP4 MLOAD DUP1 DUP3 DUP6 ADD MSTORE PUSH1 0x0 JUMPDEST DUP2 DUP2 LT ISZERO PUSH2 0xC1A JUMPI DUP6 DUP2 ADD DUP4 ADD MLOAD DUP6 DUP3 ADD PUSH1 0x40 ADD MSTORE DUP3 ADD PUSH2 0xBFE JUMP JUMPDEST POP PUSH1 0x0 PUSH1 0x40 DUP3 DUP7 ADD ADD MSTORE PUSH1 0x40 PUSH1 0x1F NOT PUSH1 0x1F DUP4 ADD AND DUP6 ADD ADD SWAP3 POP POP POP SWAP3 SWAP2 POP POP JUMP JUMPDEST PUSH1 0x0 DUP1 PUSH1 0x0 PUSH1 0x60 DUP5 DUP7 SUB SLT ISZERO PUSH2 0xC50 JUMPI PUSH1 0x0 DUP1 REVERT JUMPDEST PUSH2 0xC59 DUP5 PUSH2 0xB85 JUMP JUMPDEST SWAP3 POP PUSH2 0xC67 PUSH1 0x20 DUP6 ADD PUSH2 0xB85 JUMP JUMPDEST SWAP2 POP PUSH1 0x40 DUP5 ADD CALLDATALOAD SWAP1 POP SWAP3 POP SWAP3 POP SWAP3 JUMP JUMPDEST PUSH1 0x0 DUP1 PUSH1 0x40 DUP4 DUP6 SUB SLT ISZERO PUSH2 0xC8A JUMPI PUSH1 0x0 DUP1 REVERT JUMPDEST PUSH2 0xC93 DUP4 PUSH2 0xB85 JUMP JUMPDEST SWAP2 POP PUSH2 0xCA1 PUSH1 0x20 DUP5 ADD PUSH2 0xB85 JUMP JUMPDEST SWAP1 POP SWAP3 POP SWAP3 SWAP1 POP JUMP JUMPDEST PUSH1 0x1 DUP2 DUP2 SHR SWAP1 DUP3 AND DUP1 PUSH2 0xCBE JUMPI PUSH1 0x7F DUP3 AND SWAP2 POP JUMPDEST PUSH1 0x20 DUP3 LT DUP2 SUB PUSH2 0xCDE JUMPI PUSH4 0x4E487B71 PUSH1 0xE0 SHL PUSH1 0x0 MSTORE PUSH1 0x22 PUSH1 0x4 MSTORE PUSH1 0x24 PUSH1 0x0 REVERT JUMPDEST POP SWAP2 SWAP1 POP JUMP JUMPDEST DUP1 DUP3 ADD DUP1 DUP3 GT ISZERO PUSH2 0x4CB JUMPI PUSH4 0x4E487B71 PUSH1 0xE0 SHL PUSH1 0x0 MSTORE PUSH1 0x11 PUSH1 0x4 MSTORE PUSH1 0x24 PUSH1 0x0 REVERT JUMPDEST PUSH1 0x0 PUSH1 0x20 DUP3 DUP5 SUB SLT ISZERO PUSH2 0xD17 JUMPI PUSH1 0x0 DUP1 REVERT JUMPDEST DUP2 MLOAD DUP1 ISZERO ISZERO DUP2 EQ PUSH2 0xBBC JUMPI PUSH1 0x0 DUP1 REVERT INVALID LOG2 PUSH5 0x6970667358 0x22 SLT KECCAK256 0xCF LOG0 LOG2 0xB8 0xED MSIZE SLT 0x4E DUP1 SWAP4 0xFB AND 0xB4 PUSH8 0x8354487FBA245CC3 CALLVALUE 0x4D EXTCODEHASH 0x28 0x2A 0x25 SWAP6 SWAP7 LT MUL PUSH5 0x736F6C6343 STOP ADDMOD EQ STOP CALLER "},"methodIdentifiers":{"allowance(address,address)":"dd62ed3e","approve(address,uint256)":"095ea7b3","balanceOf(address)":"70a08231","committee()":"d864e740","decimals()":"313ce567","getTier(address)":"b45aae52","mint(address,uint256)":"40c10f19","minter()":"07546172","name()":"06fdde03","setMinter(address)":"fca3b5aa","slash(address,uint256)":"02fb4d85","symbol()":"95d89b41","totalMinted(address)":"003d4790","totalSupply()":"18160ddd","transfer(address,uint256)":"a9059cbb","transferFrom(address,address,uint256)":"23b872dd"}}}}}