{"Contracts/AMMPool.sol":{"AMMPool":{"abi":[{"inputs":[{"internalType":"address","name":"gt","type":"address"},{"internalType":"address","name":"rt","type":"address"},{"internalType":"address","name":"committee","type":"address"}],"stateMutability":"nonpayable","type":"constructor"},{"inputs":[],"name":"BufferRTTransferFailed","type":"error"},{"inputs":[],"name":"BufferSizeIsMax","type":"error"},{"inputs":[{"internalType":"uint256","name":"requestedGT","type":"uint256"},{"internalType":"uint256","name":"allowedGT","type":"uint256"}],"name":"EffectiveGTExceeded","type":"error"},{"inputs":[],"name":"EmptyReserve","type":"error"},{"inputs":[],"name":"GTTransferFailed","type":"error"},{"inputs":[],"name":"InvalidCommitteeAddress","type":"error"},{"inputs":[],"name":"InvalidFeeRecipient","type":"error"},{"inputs":[],"name":"InvalidGTAddress","type":"error"},{"inputs":[],"name":"InvalidRTAddress","type":"error"},{"inputs":[],"name":"NotCommitteeMember","type":"error"},{"inputs":[],"name":"PoolAlreadyInitialized","type":"error"},{"inputs":[],"name":"PoolNotInitialized","type":"error"},{"inputs":[],"name":"RTTransferFailed","type":"error"},{"inputs":[],"name":"ReentrancyGuardReentrantCall","type":"error"},{"inputs":[],"name":"SameTokenAddress","type":"error"},{"inputs":[],"name":"SlippageTooHigh","type":"error"},{"inputs":[],"name":"SwapGTOutTransferFailed","type":"error"},{"inputs":[],"name":"SwapGTTransferFailed","type":"error"},{"inputs":[],"name":"SwapRTInTransferFailed","type":"error"},{"inputs":[],"name":"SwapRTTransferFailed","type":"error"},{"inputs":[],"name":"ZeroAmountIn","type":"error"},{"inputs":[],"name":"ZeroAmountOut","type":"error"},{"inputs":[],"name":"ZeroBufferAmount","type":"error"},{"inputs":[],"name":"ZeroGTAmount","type":"error"},{"inputs":[],"name":"ZeroRTAmount","type":"error"},{"anonymous":false,"inputs":[{"indexed":false,"internalType":"uint256","name":"currentBufferRT","type":"uint256"}],"name":"BufferAlert","type":"event"},{"anonymous":false,"inputs":[{"indexed":true,"internalType":"address","name":"operator","type":"address"},{"indexed":false,"internalType":"uint256","name":"amount","type":"uint256"},{"indexed":false,"internalType":"uint256","name":"newBufferRT","type":"uint256"}],"name":"BufferSituation","type":"event"},{"anonymous":false,"inputs":[{"indexed":true,"internalType":"address","name":"oldRecipient","type":"address"},{"indexed":true,"internalType":"address","name":"newRecipient","type":"address"}],"name":"FeeRecipientUpdated","type":"event"},{"anonymous":false,"inputs":[{"indexed":false,"internalType":"uint256","name":"gtAmount","type":"uint256"},{"indexed":false,"internalType":"uint256","name":"rtAmount","type":"uint256"},{"indexed":false,"internalType":"uint256","name":"newK","type":"uint256"}],"name":"PoolInitialized","type":"event"},{"anonymous":false,"inputs":[{"indexed":true,"internalType":"address","name":"operator","type":"address"},{"indexed":false,"internalType":"uint256","name":"amount","type":"uint256"},{"indexed":false,"internalType":"uint256","name":"newReserveRT","type":"uint256"},{"indexed":false,"internalType":"uint256","name":"newBufferRT","type":"uint256"},{"indexed":false,"internalType":"uint256","name":"newK","type":"uint256"}],"name":"RTInjected","type":"event"},{"anonymous":false,"inputs":[{"indexed":true,"internalType":"address","name":"user","type":"address"},{"indexed":false,"internalType":"bool","name":"isGTtoRT","type":"bool"},{"indexed":false,"internalType":"uint256","name":"amountIn","type":"uint256"},{"indexed":false,"internalType":"uint256","name":"amountOut","type":"uint256"},{"indexed":false,"internalType":"uint256","name":"feeRate","type":"uint256"}],"name":"Swap","type":"event"},{"inputs":[],"name":"BASIS_POINTS","outputs":[{"internalType":"uint256","name":"","type":"uint256"}],"stateMutability":"view","type":"function"},{"inputs":[],"name":"BUFFER_ALERT","outputs":[{"internalType":"uint256","name":"","type":"uint256"}],"stateMutability":"view","type":"function"},{"inputs":[],"name":"BUFFER_SIZE","outputs":[{"internalType":"uint256","name":"","type":"uint256"}],"stateMutability":"view","type":"function"},{"inputs":[{"internalType":"uint256","name":"amount","type":"uint256"}],"name":"BufferRTAction","outputs":[],"stateMutability":"nonpayable","type":"function"},{"inputs":[],"name":"COOLDOWN_INJECT","outputs":[{"internalType":"uint256","name":"","type":"uint256"}],"stateMutability":"view","type":"function"},{"inputs":[],"name":"INJECT_TRIGGER","outputs":[{"internalType":"uint256","name":"","type":"uint256"}],"stateMutability":"view","type":"function"},{"inputs":[],"name":"MAX_SWAP_PER_USER","outputs":[{"internalType":"uint256","name":"","type":"uint256"}],"stateMutability":"view","type":"function"},{"inputs":[],"name":"MAX_SWAP_PROPORTION","outputs":[{"internalType":"uint256","name":"","type":"uint256"}],"stateMutability":"view","type":"function"},{"inputs":[],"name":"TARGET_RT","outputs":[{"internalType":"uint256","name":"","type":"uint256"}],"stateMutability":"view","type":"function"},{"inputs":[],"name":"bufferRT","outputs":[{"internalType":"uint256","name":"","type":"uint256"}],"stateMutability":"view","type":"function"},{"inputs":[],"name":"committeeManager","outputs":[{"internalType":"contract ICommitteeManager","name":"","type":"address"}],"stateMutability":"view","type":"function"},{"inputs":[{"internalType":"address","name":"","type":"address"}],"name":"dailyGTSwap","outputs":[{"internalType":"uint256","name":"day","type":"uint256"},{"internalType":"uint256","name":"usedGT","type":"uint256"}],"stateMutability":"view","type":"function"},{"inputs":[],"name":"feeRecipient","outputs":[{"internalType":"address","name":"","type":"address"}],"stateMutability":"view","type":"function"},{"inputs":[{"internalType":"uint256","name":"amountIn","type":"uint256"},{"internalType":"bool","name":"isGTtoRT","type":"bool"}],"name":"getAmountOut","outputs":[{"internalType":"uint256","name":"amountOut","type":"uint256"}],"stateMutability":"view","type":"function"},{"inputs":[],"name":"getCurrentFeeRate","outputs":[{"internalType":"uint256","name":"bp","type":"uint256"}],"stateMutability":"view","type":"function"},{"inputs":[{"internalType":"address","name":"user","type":"address"}],"name":"getCurrentImmediateLimit","outputs":[{"internalType":"uint256","name":"","type":"uint256"}],"stateMutability":"view","type":"function"},{"inputs":[{"internalType":"address","name":"user","type":"address"}],"name":"getHoldingLimitGT","outputs":[{"internalType":"uint256","name":"","type":"uint256"}],"stateMutability":"view","type":"function"},{"inputs":[],"name":"getPoolStatus","outputs":[{"internalType":"uint256","name":"currentReserveGT","type":"uint256"},{"internalType":"uint256","name":"currentReserveRT","type":"uint256"},{"internalType":"uint256","name":"currentBufferRT","type":"uint256"},{"internalType":"uint256","name":"currentK","type":"uint256"},{"internalType":"uint256","name":"currentLastInjectTime","type":"uint256"}],"stateMutability":"view","type":"function"},{"inputs":[{"internalType":"address","name":"user","type":"address"}],"name":"getRemainingDailyGT","outputs":[{"internalType":"uint256","name":"","type":"uint256"}],"stateMutability":"view","type":"function"},{"inputs":[],"name":"getReserves","outputs":[{"internalType":"uint256","name":"gt","type":"uint256"},{"internalType":"uint256","name":"rt","type":"uint256"},{"internalType":"uint256","name":"currentK","type":"uint256"}],"stateMutability":"view","type":"function"},{"inputs":[{"internalType":"address","name":"user","type":"address"}],"name":"getUsedGTToday","outputs":[{"internalType":"uint256","name":"","type":"uint256"}],"stateMutability":"view","type":"function"},{"inputs":[],"name":"greenToken","outputs":[{"internalType":"contract IERC20","name":"","type":"address"}],"stateMutability":"view","type":"function"},{"inputs":[{"internalType":"uint256","name":"gtAmount","type":"uint256"},{"internalType":"uint256","name":"rtAmount","type":"uint256"}],"name":"initialize","outputs":[],"stateMutability":"nonpayable","type":"function"},{"inputs":[],"name":"initialized","outputs":[{"internalType":"bool","name":"","type":"bool"}],"stateMutability":"view","type":"function"},{"inputs":[],"name":"k","outputs":[{"internalType":"uint256","name":"","type":"uint256"}],"stateMutability":"view","type":"function"},{"inputs":[],"name":"lastInjectTime","outputs":[{"internalType":"uint256","name":"","type":"uint256"}],"stateMutability":"view","type":"function"},{"inputs":[],"name":"reserveGT","outputs":[{"internalType":"uint256","name":"","type":"uint256"}],"stateMutability":"view","type":"function"},{"inputs":[],"name":"reserveRT","outputs":[{"internalType":"uint256","name":"","type":"uint256"}],"stateMutability":"view","type":"function"},{"inputs":[],"name":"rewardToken","outputs":[{"internalType":"contract IERC20","name":"","type":"address"}],"stateMutability":"view","type":"function"},{"inputs":[{"internalType":"address","name":"newRecipient","type":"address"}],"name":"setFeeRecipient","outputs":[],"stateMutability":"nonpayable","type":"function"},{"inputs":[{"internalType":"uint256","name":"gtIn","type":"uint256"},{"internalType":"uint256","name":"minRTOut","type":"uint256"}],"name":"swapGTforRT","outputs":[{"internalType":"uint256","name":"rtOut","type":"uint256"}],"stateMutability":"nonpayable","type":"function"},{"inputs":[{"internalType":"uint256","name":"rtIn","type":"uint256"},{"internalType":"uint256","name":"minGTOut","type":"uint256"}],"name":"swapRTforGT","outputs":[{"internalType":"uint256","name":"gtOut","type":"uint256"}],"stateMutability":"nonpayable","type":"function"}],"evm":{"bytecode":{"linkReferences":{},"object":"60806040523480156200001157600080fd5b50604051620018883803806200188883398101604081905262000034916200016d565b60017f9b779b17422d0df92223018b32b4d1fa46e071723d6817e2486d003becc55f00556001600160a01b0383166200008057604051632e30e85760e01b815260040160405180910390fd5b6001600160a01b038216620000a8576040516331bbb52b60e21b815260040160405180910390fd5b6001600160a01b038116620000d0576040516343a7785f60e11b815260040160405180910390fd5b816001600160a01b0316836001600160a01b031603620001035760405163034730c160e41b815260040160405180910390fd5b600380546001600160a01b039485166001600160a01b03199182161790915560048054938516938216939093179092556009805483163017905560058054919093169116179055620001b7565b80516001600160a01b03811681146200016857600080fd5b919050565b6000806000606084860312156200018357600080fd5b6200018e8462000150565b92506200019e6020850162000150565b9150620001ae6040850162000150565b90509250925092565b6116c180620001c76000396000f3fe608060405234801561001057600080fd5b50600436106101ef5760003560e01c80638b647f651161010f578063e30c2c34116100a2578063efadc5b211610071578063efadc5b214610437578063f614787b14610441578063f7c618c114610454578063fcc8d2361461046757600080fd5b8063e30c2c34146103eb578063e4a30116146103fe578063e74b981b14610411578063ea88704d1461042457600080fd5b8063b80882c5116100de578063b80882c514610379578063d99634a2146103c4578063e1f1c4a7146103d9578063e2e4f062146103e257600080fd5b80638b647f65146103825780639e94ccc814610395578063a66caa6d146103a8578063b4f40c61146103bb57600080fd5b806346904840116101875780636a68c3ba116101565780636a68c3ba146102f35780637e8611e21461032f5780637f79496c1461034257806380e23c6d1461037957600080fd5b806346904840146102bf5780635314b1d1146102d25780635ba111c9146102db5780636091ad4f146102eb57600080fd5b806311106ee2116101c357806311106ee21461026f578063158ef93e146102825780633b7c70de146102a65780633cf7979d146102af57600080fd5b80624e394e146101f457806302b32af5146102175780630684bec0146102425780630902f1ac1461024b575b600080fd5b61020468c328093e61ee40000081565b6040519081526020015b60405180910390f35b60035461022a906001600160a01b031681565b6040516001600160a01b03909116815260200161020e565b61020460075481565b6006546007546008546040805193845260208401929092529082015260600161020e565b61020461027d366004611508565b610477565b60095461029690600160a01b900460ff1681565b604051901515815260200161020e565b61020460065481565b61020468a2a15d09519be0000081565b60095461022a906001600160a01b031681565b61020460015481565b6102046802b5e3af16b188000081565b61020461058b565b61031a610301366004611538565b6002602052600090815260409020805460019091015482565b6040805192835260208301919091520161020e565b60055461022a906001600160a01b031681565b600654600754600054600854600154604080519586526020860194909452928401919091526060830152608082015260a00161020e565b610204610fa081565b610204610390366004611561565b610646565b6102046103a3366004611538565b6108a5565b6102046103b6366004611538565b610939565b61020460085481565b6103d76103d2366004611583565b610963565b005b61020461271081565b61020460005481565b6102046103f9366004611538565b610b5f565b6103d761040c366004611561565b610b99565b6103d761041f366004611538565b610e28565b610204610432366004611538565b610f2a565b6102046201518081565b61020461044f366004611561565b610f80565b60045461022a906001600160a01b031681565b6102046830ca024f987b90000081565b600954600090600160a01b900460ff166104a45760405163486aa30760e01b815260040160405180910390fd5b826000036104c55760405163990965c160e01b815260040160405180910390fd5b60008083156104db5750506006546007546104e4565b50506007546006545b8115806104ef575080155b1561050d576040516308d9b03560e31b815260040160405180910390fd5b600061051761058b565b90506000610527826127106115b2565b61053190886115c5565b905080610540612710866115c5565b61054a91906115dc565b61055484836115c5565b61055e91906115ef565b94508460000361058157604051631125efa160e21b815260040160405180910390fd5b5050505092915050565b600954600090600160a01b900460ff166105b85760405163486aa30760e01b815260040160405180910390fd5b6105cc68a2a15d09519be0000060506115c5565b6007546105da9060646115c5565b11156105e65750600a90565b6105fa68a2a15d09519be00000603c6115c5565b6007546106089060646115c5565b106106135750601e90565b61062768a2a15d09519be0000060286115c5565b6007546106359060646115c5565b106106405750604690565b50609690565b6000610650611232565b600954600160a01b900460ff1661067a5760405163486aa30760e01b815260040160405180910390fd5b8260000361069b5760405163990965c160e01b815260040160405180910390fd5b6106a6836000610477565b9050818110156106c95760405163428637bb60e11b815260040160405180910390fd5b60006106d361058b565b600480546040516323b872dd60e01b81529293506001600160a01b0316916323b872dd9161070791339130918a9101611611565b6020604051808303816000875af1158015610726573d6000803e3d6000fd5b505050506040513d601f19601f8201168201806040525081019061074a9190611635565b61076757604051637d79de5160e11b815260040160405180910390fd5b60035460405163a9059cbb60e01b8152336004820152602481018490526001600160a01b039091169063a9059cbb906044016020604051808303816000875af11580156107b8573d6000803e3d6000fd5b505050506040513d601f19601f820116820180604052508101906107dc9190611635565b6107f957604051631a5bed9560e21b815260040160405180910390fd5b836007600082825461080b91906115dc565b92505081905550816006600082825461082491906115b2565b909155505060075460065461083991906115c5565b6008556040805160008152602081018690529081018390526060810182905233907f176648f1f11cda284c124490086be42a926ddf0ae887ebe7b1d6b337d89427569060800160405180910390a25061089f600160008051602061166c83398151915255565b92915050565b6003546040516370a0823160e01b81526001600160a01b03838116600483015260009283929116906370a0823190602401602060405180830381865afa1580156108f3573d6000803e3d6000fd5b505050506040513d601f19601f820116820180604052508101906109179190611652565b9050612710610928610fa0836115c5565b61093291906115ef565b9392505050565b60008061094583610b5f565b90506000610952846108a5565b905080821015610932575092915050565b60055460405163e636d84b60e01b81523360048201526001600160a01b039091169063e636d84b90602401602060405180830381865afa1580156109ab573d6000803e3d6000fd5b505050506040513d601f19601f820116820180604052508101906109cf9190611635565b6109ec576040516347ca878b60e11b815260040160405180910390fd5b600954600160a01b900460ff16610a165760405163486aa30760e01b815260040160405180910390fd5b80600003610a375760405163ca73e6b760e01b815260040160405180910390fd5b68c328093e61ee40000081600054610a4f91906115dc565b1115610a6e57604051630e3b020d60e41b815260040160405180910390fd5b600480546040516323b872dd60e01b81526001600160a01b03909116916323b872dd91610aa19133913091879101611611565b6020604051808303816000875af1158015610ac0573d6000803e3d6000fd5b505050506040513d601f19601f82011682018060405250810190610ae49190611635565b610b015760405163140941dd60e11b815260040160405180910390fd5b80600080828254610b1291906115dc565b909155505060005460405133917f379e108bc7f7af047fc45c149ae80d8b58796af60bf720a6156cfc92e2a71db391610b5391858252602082015260400190565b60405180910390a25b50565b600080610b6b83610f2a565b90506802b5e3af16b18800008110610b865750600092915050565b610932816802b5e3af16b18800006115b2565b60055460405163e636d84b60e01b81523360048201526001600160a01b039091169063e636d84b90602401602060405180830381865afa158015610be1573d6000803e3d6000fd5b505050506040513d601f19601f82011682018060405250810190610c059190611635565b610c22576040516347ca878b60e11b815260040160405180910390fd5b600954600160a01b900460ff1615610c4d57604051637983c05160e01b815260040160405180910390fd5b81600003610c6e5760405163cf50d4bd60e01b815260040160405180910390fd5b80600003610c8f57604051633cf7888d60e01b815260040160405180910390fd5b6003546040516323b872dd60e01b81526001600160a01b03909116906323b872dd90610cc390339030908790600401611611565b6020604051808303816000875af1158015610ce2573d6000803e3d6000fd5b505050506040513d601f19601f82011682018060405250810190610d069190611635565b610d23576040516314a7044f60e01b815260040160405180910390fd5b600480546040516323b872dd60e01b81526001600160a01b03909116916323b872dd91610d569133913091879101611611565b6020604051808303816000875af1158015610d75573d6000803e3d6000fd5b505050506040513d601f19601f82011682018060405250810190610d999190611635565b610db657604051631efc259b60e31b815260040160405180910390fd5b60068290556007819055610dca81836115c5565b60088190556009805460ff60a01b1916600160a01b1790556040805184815260208101849052908101919091527f2432ac7d1a69edf7a84a587b57cbfba673d3513d85558394c1c81d327923a6899060600160405180910390a15050565b60055460405163e636d84b60e01b81523360048201526001600160a01b039091169063e636d84b90602401602060405180830381865afa158015610e70573d6000803e3d6000fd5b505050506040513d601f19601f82011682018060405250810190610e949190611635565b610eb1576040516347ca878b60e11b815260040160405180910390fd5b6001600160a01b038116610ed857604051630ed1b8b360e31b815260040160405180910390fd5b600980546001600160a01b038381166001600160a01b0319831681179093556040519116919082907faaebcf1bfa00580e41d966056b48521fa9f202645c86d4ddf28113e617c1b1d390600090a35050565b600080610f3561124e565b6001600160a01b0384166000908152600260205260409020549091508114610f605750600092915050565b50506001600160a01b031660009081526002602052604090206001015490565b6000610f8a611232565b600954600160a01b900460ff16610fb45760405163486aa30760e01b815260040160405180910390fd5b82600003610fd55760405163990965c160e01b815260040160405180910390fd5b610fdd611262565b6000610fe93385611425565b90508084111561101a5760405163d1d29c5360e01b8152600481018590526024810182905260440160405180910390fd5b611025846001610477565b9150828210156110485760405163428637bb60e11b815260040160405180910390fd5b600061105261058b565b6003546040516323b872dd60e01b81529192506001600160a01b0316906323b872dd9061108790339030908a90600401611611565b6020604051808303816000875af11580156110a6573d6000803e3d6000fd5b505050506040513d601f19601f820116820180604052508101906110ca9190611635565b6110e7576040516314a0605d60e31b815260040160405180910390fd5b6004805460405163a9059cbb60e01b81523392810192909252602482018590526001600160a01b03169063a9059cbb906044016020604051808303816000875af1158015611139573d6000803e3d6000fd5b505050506040513d601f19601f8201168201806040525081019061115d9190611635565b6111795760405162a5861d60e31b815260040160405180910390fd5b846006600082825461118b91906115dc565b9250508190555082600760008282546111a491906115b2565b90915550506007546006546111b991906115c5565b6008556111c63386611447565b6111ce611262565b6040805160018152602081018790529081018490526060810182905233907f176648f1f11cda284c124490086be42a926ddf0ae887ebe7b1d6b337d89427569060800160405180910390a2505061089f600160008051602061166c83398151915255565b61123a6114c8565b600260008051602061166c83398151915255565b600061125d62015180426115ef565b905090565b600061271061127c610fa068a2a15d09519be000006115c5565b61128691906115ef565b905080600754106112945750565b600154156112bf576000620151806001546112af91906115dc565b9050804210156112bd575050565b505b600054600003611307577f13f1bc4129f202b02d9e046860b624559d2706c59d4dbea155405818a49862c36000546040516112fc91815260200190565b60405180910390a150565b600060075468a2a15d09519be0000061132091906115b2565b90506000816000541015611337575060005461133a565b50805b8060008082825461134b91906115b2565b92505081905550806007600082825461136491906115dc565b90915550504260015560075460065461137d91906115c5565b6008819055600754600054604080518581526020810193909352820152606081019190915233907fb17a3514dfd2b9387260e144dd42b10ac29cc9ad6e816e3e6dde6ea4e49a9bca9060800160405180910390a26830ca024f987b9000006000541015611420577f13f1bc4129f202b02d9e046860b624559d2706c59d4dbea155405818a49862c360005460405161141791815260200190565b60405180910390a15b505050565b60008061143184610939565b9050828082101561143f5750805b949350505050565b600061145161124e565b6001600160a01b0384166000908152600260205260409020549091508114611493576001600160a01b0383166000908152600260205260408120828155600101555b6001600160a01b038316600090815260026020526040812060010180548492906114be9084906115dc565b9091555050505050565b60008051602061166c833981519152546002036114f857604051633ee5aeb560e01b815260040160405180910390fd5b565b8015158114610b5c57600080fd5b6000806040838503121561151b57600080fd5b82359150602083013561152d816114fa565b809150509250929050565b60006020828403121561154a57600080fd5b81356001600160a01b038116811461093257600080fd5b6000806040838503121561157457600080fd5b50508035926020909101359150565b60006020828403121561159557600080fd5b5035919050565b634e487b7160e01b600052601160045260246000fd5b8181038181111561089f5761089f61159c565b808202811582820484141761089f5761089f61159c565b8082018082111561089f5761089f61159c565b60008261160c57634e487b7160e01b600052601260045260246000fd5b500490565b6001600160a01b039384168152919092166020820152604081019190915260600190565b60006020828403121561164757600080fd5b8151610932816114fa565b60006020828403121561166457600080fd5b505191905056fe9b779b17422d0df92223018b32b4d1fa46e071723d6817e2486d003becc55f00a2646970667358221220d8448660724c909767515da551fed0ef9666ee7b8088765102a3792721fb8a7a64736f6c63430008140033","opcodes":"PUSH1 0x80 PUSH1 0x40 MSTORE CALLVALUE DUP1 ISZERO PUSH3 0x11 JUMPI PUSH1 0x0 DUP1 REVERT JUMPDEST POP PUSH1 0x40 MLOAD PUSH3 0x1888 CODESIZE SUB DUP1 PUSH3 0x1888 DUP4 CODECOPY DUP2 ADD PUSH1 0x40 DUP2 SWAP1 MSTORE PUSH3 0x34 SWAP2 PUSH3 0x16D JUMP JUMPDEST PUSH1 0x1 PUSH32 0x9B779B17422D0DF92223018B32B4D1FA46E071723D6817E2486D003BECC55F00 SSTORE PUSH1 0x1 PUSH1 0x1 PUSH1 0xA0 SHL SUB DUP4 AND PUSH3 0x80 JUMPI PUSH1 0x40 MLOAD PUSH4 0x2E30E857 PUSH1 0xE0 SHL DUP2 MSTORE PUSH1 0x4 ADD PUSH1 0x40 MLOAD DUP1 SWAP2 SUB SWAP1 REVERT JUMPDEST PUSH1 0x1 PUSH1 0x1 PUSH1 0xA0 SHL SUB DUP3 AND PUSH3 0xA8 JUMPI PUSH1 0x40 MLOAD PUSH4 0x31BBB52B PUSH1 0xE2 SHL DUP2 MSTORE PUSH1 0x4 ADD PUSH1 0x40 MLOAD DUP1 SWAP2 SUB SWAP1 REVERT JUMPDEST PUSH1 0x1 PUSH1 0x1 PUSH1 0xA0 SHL SUB DUP2 AND PUSH3 0xD0 JUMPI PUSH1 0x40 MLOAD PUSH4 0x43A7785F PUSH1 0xE1 SHL DUP2 MSTORE PUSH1 0x4 ADD PUSH1 0x40 MLOAD DUP1 SWAP2 SUB SWAP1 REVERT JUMPDEST DUP2 PUSH1 0x1 PUSH1 0x1 PUSH1 0xA0 SHL SUB AND DUP4 PUSH1 0x1 PUSH1 0x1 PUSH1 0xA0 SHL SUB AND SUB PUSH3 0x103 JUMPI PUSH1 0x40 MLOAD PUSH4 0x34730C1 PUSH1 0xE4 SHL DUP2 MSTORE PUSH1 0x4 ADD PUSH1 0x40 MLOAD DUP1 SWAP2 SUB SWAP1 REVERT JUMPDEST PUSH1 0x3 DUP1 SLOAD PUSH1 0x1 PUSH1 0x1 PUSH1 0xA0 SHL SUB SWAP5 DUP6 AND PUSH1 0x1 PUSH1 0x1 PUSH1 0xA0 SHL SUB NOT SWAP2 DUP3 AND OR SWAP1 SWAP2 SSTORE PUSH1 0x4 DUP1 SLOAD SWAP4 DUP6 AND SWAP4 DUP3 AND SWAP4 SWAP1 SWAP4 OR SWAP1 SWAP3 SSTORE PUSH1 0x9 DUP1 SLOAD DUP4 AND ADDRESS OR SWAP1 SSTORE PUSH1 0x5 DUP1 SLOAD SWAP2 SWAP1 SWAP4 AND SWAP2 AND OR SWAP1 SSTORE PUSH3 0x1B7 JUMP JUMPDEST DUP1 MLOAD PUSH1 0x1 PUSH1 0x1 PUSH1 0xA0 SHL SUB DUP2 AND DUP2 EQ PUSH3 0x168 JUMPI PUSH1 0x0 DUP1 REVERT JUMPDEST SWAP2 SWAP1 POP JUMP JUMPDEST PUSH1 0x0 DUP1 PUSH1 0x0 PUSH1 0x60 DUP5 DUP7 SUB SLT ISZERO PUSH3 0x183 JUMPI PUSH1 0x0 DUP1 REVERT JUMPDEST PUSH3 0x18E DUP5 PUSH3 0x150 JUMP JUMPDEST SWAP3 POP PUSH3 0x19E PUSH1 0x20 DUP6 ADD PUSH3 0x150 JUMP JUMPDEST SWAP2 POP PUSH3 0x1AE PUSH1 0x40 DUP6 ADD PUSH3 0x150 JUMP JUMPDEST SWAP1 POP SWAP3 POP SWAP3 POP SWAP3 JUMP JUMPDEST PUSH2 0x16C1 DUP1 PUSH3 0x1C7 PUSH1 0x0 CODECOPY PUSH1 0x0 RETURN INVALID PUSH1 0x80 PUSH1 0x40 MSTORE CALLVALUE DUP1 ISZERO PUSH2 0x10 JUMPI PUSH1 0x0 DUP1 REVERT JUMPDEST POP PUSH1 0x4 CALLDATASIZE LT PUSH2 0x1EF JUMPI PUSH1 0x0 CALLDATALOAD PUSH1 0xE0 SHR DUP1 PUSH4 0x8B647F65 GT PUSH2 0x10F JUMPI DUP1 PUSH4 0xE30C2C34 GT PUSH2 0xA2 JUMPI DUP1 PUSH4 0xEFADC5B2 GT PUSH2 0x71 JUMPI DUP1 PUSH4 0xEFADC5B2 EQ PUSH2 0x437 JUMPI DUP1 PUSH4 0xF614787B EQ PUSH2 0x441 JUMPI DUP1 PUSH4 0xF7C618C1 EQ PUSH2 0x454 JUMPI DUP1 PUSH4 0xFCC8D236 EQ PUSH2 0x467 JUMPI PUSH1 0x0 DUP1 REVERT JUMPDEST DUP1 PUSH4 0xE30C2C34 EQ PUSH2 0x3EB JUMPI DUP1 PUSH4 0xE4A30116 EQ PUSH2 0x3FE JUMPI DUP1 PUSH4 0xE74B981B EQ PUSH2 0x411 JUMPI DUP1 PUSH4 0xEA88704D EQ PUSH2 0x424 JUMPI PUSH1 0x0 DUP1 REVERT JUMPDEST DUP1 PUSH4 0xB80882C5 GT PUSH2 0xDE JUMPI DUP1 PUSH4 0xB80882C5 EQ PUSH2 0x379 JUMPI DUP1 PUSH4 0xD99634A2 EQ PUSH2 0x3C4 JUMPI DUP1 PUSH4 0xE1F1C4A7 EQ PUSH2 0x3D9 JUMPI DUP1 PUSH4 0xE2E4F062 EQ PUSH2 0x3E2 JUMPI PUSH1 0x0 DUP1 REVERT JUMPDEST DUP1 PUSH4 0x8B647F65 EQ PUSH2 0x382 JUMPI DUP1 PUSH4 0x9E94CCC8 EQ PUSH2 0x395 JUMPI DUP1 PUSH4 0xA66CAA6D EQ PUSH2 0x3A8 JUMPI DUP1 PUSH4 0xB4F40C61 EQ PUSH2 0x3BB JUMPI PUSH1 0x0 DUP1 REVERT JUMPDEST DUP1 PUSH4 0x46904840 GT PUSH2 0x187 JUMPI DUP1 PUSH4 0x6A68C3BA GT PUSH2 0x156 JUMPI DUP1 PUSH4 0x6A68C3BA EQ PUSH2 0x2F3 JUMPI DUP1 PUSH4 0x7E8611E2 EQ PUSH2 0x32F JUMPI DUP1 PUSH4 0x7F79496C EQ PUSH2 0x342 JUMPI DUP1 PUSH4 0x80E23C6D EQ PUSH2 0x379 JUMPI PUSH1 0x0 DUP1 REVERT JUMPDEST DUP1 PUSH4 0x46904840 EQ PUSH2 0x2BF JUMPI DUP1 PUSH4 0x5314B1D1 EQ PUSH2 0x2D2 JUMPI DUP1 PUSH4 0x5BA111C9 EQ PUSH2 0x2DB JUMPI DUP1 PUSH4 0x6091AD4F EQ PUSH2 0x2EB JUMPI PUSH1 0x0 DUP1 REVERT JUMPDEST DUP1 PUSH4 0x11106EE2 GT PUSH2 0x1C3 JUMPI DUP1 PUSH4 0x11106EE2 EQ PUSH2 0x26F JUMPI DUP1 PUSH4 0x158EF93E EQ PUSH2 0x282 JUMPI DUP1 PUSH4 0x3B7C70DE EQ PUSH2 0x2A6 JUMPI DUP1 PUSH4 0x3CF7979D EQ PUSH2 0x2AF JUMPI PUSH1 0x0 DUP1 REVERT JUMPDEST DUP1 PUSH3 0x4E394E EQ PUSH2 0x1F4 JUMPI DUP1 PUSH4 0x2B32AF5 EQ PUSH2 0x217 JUMPI DUP1 PUSH4 0x684BEC0 EQ PUSH2 0x242 JUMPI DUP1 PUSH4 0x902F1AC EQ PUSH2 0x24B JUMPI JUMPDEST PUSH1 0x0 DUP1 REVERT JUMPDEST PUSH2 0x204 PUSH9 0xC328093E61EE400000 DUP2 JUMP JUMPDEST PUSH1 0x40 MLOAD SWAP1 DUP2 MSTORE PUSH1 0x20 ADD JUMPDEST PUSH1 0x40 MLOAD DUP1 SWAP2 SUB SWAP1 RETURN JUMPDEST PUSH1 0x3 SLOAD PUSH2 0x22A SWAP1 PUSH1 0x1 PUSH1 0x1 PUSH1 0xA0 SHL SUB AND DUP2 JUMP JUMPDEST PUSH1 0x40 MLOAD PUSH1 0x1 PUSH1 0x1 PUSH1 0xA0 SHL SUB SWAP1 SWAP2 AND DUP2 MSTORE PUSH1 0x20 ADD PUSH2 0x20E JUMP JUMPDEST PUSH2 0x204 PUSH1 0x7 SLOAD DUP2 JUMP JUMPDEST PUSH1 0x6 SLOAD PUSH1 0x7 SLOAD PUSH1 0x8 SLOAD PUSH1 0x40 DUP1 MLOAD SWAP4 DUP5 MSTORE PUSH1 0x20 DUP5 ADD SWAP3 SWAP1 SWAP3 MSTORE SWAP1 DUP3 ADD MSTORE PUSH1 0x60 ADD PUSH2 0x20E JUMP JUMPDEST PUSH2 0x204 PUSH2 0x27D CALLDATASIZE PUSH1 0x4 PUSH2 0x1508 JUMP JUMPDEST PUSH2 0x477 JUMP JUMPDEST PUSH1 0x9 SLOAD PUSH2 0x296 SWAP1 PUSH1 0x1 PUSH1 0xA0 SHL SWAP1 DIV PUSH1 0xFF AND DUP2 JUMP JUMPDEST PUSH1 0x40 MLOAD SWAP1 ISZERO ISZERO DUP2 MSTORE PUSH1 0x20 ADD PUSH2 0x20E JUMP JUMPDEST PUSH2 0x204 PUSH1 0x6 SLOAD DUP2 JUMP JUMPDEST PUSH2 0x204 PUSH9 0xA2A15D09519BE00000 DUP2 JUMP JUMPDEST PUSH1 0x9 SLOAD PUSH2 0x22A SWAP1 PUSH1 0x1 PUSH1 0x1 PUSH1 0xA0 SHL SUB AND DUP2 JUMP JUMPDEST PUSH2 0x204 PUSH1 0x1 SLOAD DUP2 JUMP JUMPDEST PUSH2 0x204 PUSH9 0x2B5E3AF16B1880000 DUP2 JUMP JUMPDEST PUSH2 0x204 PUSH2 0x58B JUMP JUMPDEST PUSH2 0x31A PUSH2 0x301 CALLDATASIZE PUSH1 0x4 PUSH2 0x1538 JUMP JUMPDEST PUSH1 0x2 PUSH1 0x20 MSTORE PUSH1 0x0 SWAP1 DUP2 MSTORE PUSH1 0x40 SWAP1 KECCAK256 DUP1 SLOAD PUSH1 0x1 SWAP1 SWAP2 ADD SLOAD DUP3 JUMP JUMPDEST PUSH1 0x40 DUP1 MLOAD SWAP3 DUP4 MSTORE PUSH1 0x20 DUP4 ADD SWAP2 SWAP1 SWAP2 MSTORE ADD PUSH2 0x20E JUMP JUMPDEST PUSH1 0x5 SLOAD PUSH2 0x22A SWAP1 PUSH1 0x1 PUSH1 0x1 PUSH1 0xA0 SHL SUB AND DUP2 JUMP JUMPDEST PUSH1 0x6 SLOAD PUSH1 0x7 SLOAD PUSH1 0x0 SLOAD PUSH1 0x8 SLOAD PUSH1 0x1 SLOAD PUSH1 0x40 DUP1 MLOAD SWAP6 DUP7 MSTORE PUSH1 0x20 DUP7 ADD SWAP5 SWAP1 SWAP5 MSTORE SWAP3 DUP5 ADD SWAP2 SWAP1 SWAP2 MSTORE PUSH1 0x60 DUP4 ADD MSTORE PUSH1 0x80 DUP3 ADD MSTORE PUSH1 0xA0 ADD PUSH2 0x20E JUMP JUMPDEST PUSH2 0x204 PUSH2 0xFA0 DUP2 JUMP JUMPDEST PUSH2 0x204 PUSH2 0x390 CALLDATASIZE PUSH1 0x4 PUSH2 0x1561 JUMP JUMPDEST PUSH2 0x646 JUMP JUMPDEST PUSH2 0x204 PUSH2 0x3A3 CALLDATASIZE PUSH1 0x4 PUSH2 0x1538 JUMP JUMPDEST PUSH2 0x8A5 JUMP JUMPDEST PUSH2 0x204 PUSH2 0x3B6 CALLDATASIZE PUSH1 0x4 PUSH2 0x1538 JUMP JUMPDEST PUSH2 0x939 JUMP JUMPDEST PUSH2 0x204 PUSH1 0x8 SLOAD DUP2 JUMP JUMPDEST PUSH2 0x3D7 PUSH2 0x3D2 CALLDATASIZE PUSH1 0x4 PUSH2 0x1583 JUMP JUMPDEST PUSH2 0x963 JUMP JUMPDEST STOP JUMPDEST PUSH2 0x204 PUSH2 0x2710 DUP2 JUMP JUMPDEST PUSH2 0x204 PUSH1 0x0 SLOAD DUP2 JUMP JUMPDEST PUSH2 0x204 PUSH2 0x3F9 CALLDATASIZE PUSH1 0x4 PUSH2 0x1538 JUMP JUMPDEST PUSH2 0xB5F JUMP JUMPDEST PUSH2 0x3D7 PUSH2 0x40C CALLDATASIZE PUSH1 0x4 PUSH2 0x1561 JUMP JUMPDEST PUSH2 0xB99 JUMP JUMPDEST PUSH2 0x3D7 PUSH2 0x41F CALLDATASIZE PUSH1 0x4 PUSH2 0x1538 JUMP JUMPDEST PUSH2 0xE28 JUMP JUMPDEST PUSH2 0x204 PUSH2 0x432 CALLDATASIZE PUSH1 0x4 PUSH2 0x1538 JUMP JUMPDEST PUSH2 0xF2A JUMP JUMPDEST PUSH2 0x204 PUSH3 0x15180 DUP2 JUMP JUMPDEST PUSH2 0x204 PUSH2 0x44F CALLDATASIZE PUSH1 0x4 PUSH2 0x1561 JUMP JUMPDEST PUSH2 0xF80 JUMP JUMPDEST PUSH1 0x4 SLOAD PUSH2 0x22A SWAP1 PUSH1 0x1 PUSH1 0x1 PUSH1 0xA0 SHL SUB AND DUP2 JUMP JUMPDEST PUSH2 0x204 PUSH9 0x30CA024F987B900000 DUP2 JUMP JUMPDEST PUSH1 0x9 SLOAD PUSH1 0x0 SWAP1 PUSH1 0x1 PUSH1 0xA0 SHL SWAP1 DIV PUSH1 0xFF AND PUSH2 0x4A4 JUMPI PUSH1 0x40 MLOAD PUSH4 0x486AA307 PUSH1 0xE0 SHL DUP2 MSTORE PUSH1 0x4 ADD PUSH1 0x40 MLOAD DUP1 SWAP2 SUB SWAP1 REVERT JUMPDEST DUP3 PUSH1 0x0 SUB PUSH2 0x4C5 JUMPI PUSH1 0x40 MLOAD PUSH4 0x990965C1 PUSH1 0xE0 SHL DUP2 MSTORE PUSH1 0x4 ADD PUSH1 0x40 MLOAD DUP1 SWAP2 SUB SWAP1 REVERT JUMPDEST PUSH1 0x0 DUP1 DUP4 ISZERO PUSH2 0x4DB JUMPI POP POP PUSH1 0x6 SLOAD PUSH1 0x7 SLOAD PUSH2 0x4E4 JUMP JUMPDEST POP POP PUSH1 0x7 SLOAD PUSH1 0x6 SLOAD JUMPDEST DUP2 ISZERO DUP1 PUSH2 0x4EF JUMPI POP DUP1 ISZERO JUMPDEST ISZERO PUSH2 0x50D JUMPI PUSH1 0x40 MLOAD PUSH4 0x8D9B035 PUSH1 0xE3 SHL DUP2 MSTORE PUSH1 0x4 ADD PUSH1 0x40 MLOAD DUP1 SWAP2 SUB SWAP1 REVERT JUMPDEST PUSH1 0x0 PUSH2 0x517 PUSH2 0x58B JUMP JUMPDEST SWAP1 POP PUSH1 0x0 PUSH2 0x527 DUP3 PUSH2 0x2710 PUSH2 0x15B2 JUMP JUMPDEST PUSH2 0x531 SWAP1 DUP9 PUSH2 0x15C5 JUMP JUMPDEST SWAP1 POP DUP1 PUSH2 0x540 PUSH2 0x2710 DUP7 PUSH2 0x15C5 JUMP JUMPDEST PUSH2 0x54A SWAP2 SWAP1 PUSH2 0x15DC JUMP JUMPDEST PUSH2 0x554 DUP5 DUP4 PUSH2 0x15C5 JUMP JUMPDEST PUSH2 0x55E SWAP2 SWAP1 PUSH2 0x15EF JUMP JUMPDEST SWAP5 POP DUP5 PUSH1 0x0 SUB PUSH2 0x581 JUMPI PUSH1 0x40 MLOAD PUSH4 0x1125EFA1 PUSH1 0xE2 SHL DUP2 MSTORE PUSH1 0x4 ADD PUSH1 0x40 MLOAD DUP1 SWAP2 SUB SWAP1 REVERT JUMPDEST POP POP POP POP SWAP3 SWAP2 POP POP JUMP JUMPDEST PUSH1 0x9 SLOAD PUSH1 0x0 SWAP1 PUSH1 0x1 PUSH1 0xA0 SHL SWAP1 DIV PUSH1 0xFF AND PUSH2 0x5B8 JUMPI PUSH1 0x40 MLOAD PUSH4 0x486AA307 PUSH1 0xE0 SHL DUP2 MSTORE PUSH1 0x4 ADD PUSH1 0x40 MLOAD DUP1 SWAP2 SUB SWAP1 REVERT JUMPDEST PUSH2 0x5CC PUSH9 0xA2A15D09519BE00000 PUSH1 0x50 PUSH2 0x15C5 JUMP JUMPDEST PUSH1 0x7 SLOAD PUSH2 0x5DA SWAP1 PUSH1 0x64 PUSH2 0x15C5 JUMP JUMPDEST GT ISZERO PUSH2 0x5E6 JUMPI POP PUSH1 0xA SWAP1 JUMP JUMPDEST PUSH2 0x5FA PUSH9 0xA2A15D09519BE00000 PUSH1 0x3C PUSH2 0x15C5 JUMP JUMPDEST PUSH1 0x7 SLOAD PUSH2 0x608 SWAP1 PUSH1 0x64 PUSH2 0x15C5 JUMP JUMPDEST LT PUSH2 0x613 JUMPI POP PUSH1 0x1E SWAP1 JUMP JUMPDEST PUSH2 0x627 PUSH9 0xA2A15D09519BE00000 PUSH1 0x28 PUSH2 0x15C5 JUMP JUMPDEST PUSH1 0x7 SLOAD PUSH2 0x635 SWAP1 PUSH1 0x64 PUSH2 0x15C5 JUMP JUMPDEST LT PUSH2 0x640 JUMPI POP PUSH1 0x46 SWAP1 JUMP JUMPDEST POP PUSH1 0x96 SWAP1 JUMP JUMPDEST PUSH1 0x0 PUSH2 0x650 PUSH2 0x1232 JUMP JUMPDEST PUSH1 0x9 SLOAD PUSH1 0x1 PUSH1 0xA0 SHL SWAP1 DIV PUSH1 0xFF AND PUSH2 0x67A JUMPI PUSH1 0x40 MLOAD PUSH4 0x486AA307 PUSH1 0xE0 SHL DUP2 MSTORE PUSH1 0x4 ADD PUSH1 0x40 MLOAD DUP1 SWAP2 SUB SWAP1 REVERT JUMPDEST DUP3 PUSH1 0x0 SUB PUSH2 0x69B JUMPI PUSH1 0x40 MLOAD PUSH4 0x990965C1 PUSH1 0xE0 SHL DUP2 MSTORE PUSH1 0x4 ADD PUSH1 0x40 MLOAD DUP1 SWAP2 SUB SWAP1 REVERT JUMPDEST PUSH2 0x6A6 DUP4 PUSH1 0x0 PUSH2 0x477 JUMP JUMPDEST SWAP1 POP DUP2 DUP2 LT ISZERO PUSH2 0x6C9 JUMPI PUSH1 0x40 MLOAD PUSH4 0x428637BB PUSH1 0xE1 SHL DUP2 MSTORE PUSH1 0x4 ADD PUSH1 0x40 MLOAD DUP1 SWAP2 SUB SWAP1 REVERT JUMPDEST PUSH1 0x0 PUSH2 0x6D3 PUSH2 0x58B JUMP JUMPDEST PUSH1 0x4 DUP1 SLOAD PUSH1 0x40 MLOAD PUSH4 0x23B872DD PUSH1 0xE0 SHL DUP2 MSTORE SWAP3 SWAP4 POP PUSH1 0x1 PUSH1 0x1 PUSH1 0xA0 SHL SUB AND SWAP2 PUSH4 0x23B872DD SWAP2 PUSH2 0x707 SWAP2 CALLER SWAP2 ADDRESS SWAP2 DUP11 SWAP2 ADD PUSH2 0x1611 JUMP JUMPDEST PUSH1 0x20 PUSH1 0x40 MLOAD DUP1 DUP4 SUB DUP2 PUSH1 0x0 DUP8 GAS CALL ISZERO DUP1 ISZERO PUSH2 0x726 JUMPI RETURNDATASIZE PUSH1 0x0 DUP1 RETURNDATACOPY RETURNDATASIZE PUSH1 0x0 REVERT JUMPDEST POP POP POP POP PUSH1 0x40 MLOAD RETURNDATASIZE PUSH1 0x1F NOT PUSH1 0x1F DUP3 ADD AND DUP3 ADD DUP1 PUSH1 0x40 MSTORE POP DUP2 ADD SWAP1 PUSH2 0x74A SWAP2 SWAP1 PUSH2 0x1635 JUMP JUMPDEST PUSH2 0x767 JUMPI PUSH1 0x40 MLOAD PUSH4 0x7D79DE51 PUSH1 0xE1 SHL DUP2 MSTORE PUSH1 0x4 ADD PUSH1 0x40 MLOAD DUP1 SWAP2 SUB SWAP1 REVERT JUMPDEST PUSH1 0x3 SLOAD PUSH1 0x40 MLOAD PUSH4 0xA9059CBB PUSH1 0xE0 SHL DUP2 MSTORE CALLER PUSH1 0x4 DUP3 ADD MSTORE PUSH1 0x24 DUP2 ADD DUP5 SWAP1 MSTORE PUSH1 0x1 PUSH1 0x1 PUSH1 0xA0 SHL SUB SWAP1 SWAP2 AND SWAP1 PUSH4 0xA9059CBB SWAP1 PUSH1 0x44 ADD PUSH1 0x20 PUSH1 0x40 MLOAD DUP1 DUP4 SUB DUP2 PUSH1 0x0 DUP8 GAS CALL ISZERO DUP1 ISZERO PUSH2 0x7B8 JUMPI RETURNDATASIZE PUSH1 0x0 DUP1 RETURNDATACOPY RETURNDATASIZE PUSH1 0x0 REVERT JUMPDEST POP POP POP POP PUSH1 0x40 MLOAD RETURNDATASIZE PUSH1 0x1F NOT PUSH1 0x1F DUP3 ADD AND DUP3 ADD DUP1 PUSH1 0x40 MSTORE POP DUP2 ADD SWAP1 PUSH2 0x7DC SWAP2 SWAP1 PUSH2 0x1635 JUMP JUMPDEST PUSH2 0x7F9 JUMPI PUSH1 0x40 MLOAD PUSH4 0x1A5BED95 PUSH1 0xE2 SHL DUP2 MSTORE PUSH1 0x4 ADD PUSH1 0x40 MLOAD DUP1 SWAP2 SUB SWAP1 REVERT JUMPDEST DUP4 PUSH1 0x7 PUSH1 0x0 DUP3 DUP3 SLOAD PUSH2 0x80B SWAP2 SWAP1 PUSH2 0x15DC JUMP JUMPDEST SWAP3 POP POP DUP2 SWAP1 SSTORE POP DUP2 PUSH1 0x6 PUSH1 0x0 DUP3 DUP3 SLOAD PUSH2 0x824 SWAP2 SWAP1 PUSH2 0x15B2 JUMP JUMPDEST SWAP1 SWAP2 SSTORE POP POP PUSH1 0x7 SLOAD PUSH1 0x6 SLOAD PUSH2 0x839 SWAP2 SWAP1 PUSH2 0x15C5 JUMP JUMPDEST PUSH1 0x8 SSTORE PUSH1 0x40 DUP1 MLOAD PUSH1 0x0 DUP2 MSTORE PUSH1 0x20 DUP2 ADD DUP7 SWAP1 MSTORE SWAP1 DUP2 ADD DUP4 SWAP1 MSTORE PUSH1 0x60 DUP2 ADD DUP3 SWAP1 MSTORE CALLER SWAP1 PUSH32 0x176648F1F11CDA284C124490086BE42A926DDF0AE887EBE7B1D6B337D8942756 SWAP1 PUSH1 0x80 ADD PUSH1 0x40 MLOAD DUP1 SWAP2 SUB SWAP1 LOG2 POP PUSH2 0x89F PUSH1 0x1 PUSH1 0x0 DUP1 MLOAD PUSH1 0x20 PUSH2 0x166C DUP4 CODECOPY DUP2 MLOAD SWAP2 MSTORE SSTORE JUMP JUMPDEST SWAP3 SWAP2 POP POP JUMP JUMPDEST PUSH1 0x3 SLOAD PUSH1 0x40 MLOAD PUSH4 0x70A08231 PUSH1 0xE0 SHL DUP2 MSTORE PUSH1 0x1 PUSH1 0x1 PUSH1 0xA0 SHL SUB DUP4 DUP2 AND PUSH1 0x4 DUP4 ADD MSTORE PUSH1 0x0 SWAP3 DUP4 SWAP3 SWAP2 AND SWAP1 PUSH4 0x70A08231 SWAP1 PUSH1 0x24 ADD PUSH1 0x20 PUSH1 0x40 MLOAD DUP1 DUP4 SUB DUP2 DUP7 GAS STATICCALL ISZERO DUP1 ISZERO PUSH2 0x8F3 JUMPI RETURNDATASIZE PUSH1 0x0 DUP1 RETURNDATACOPY RETURNDATASIZE PUSH1 0x0 REVERT JUMPDEST POP POP POP POP PUSH1 0x40 MLOAD RETURNDATASIZE PUSH1 0x1F NOT PUSH1 0x1F DUP3 ADD AND DUP3 ADD DUP1 PUSH1 0x40 MSTORE POP DUP2 ADD SWAP1 PUSH2 0x917 SWAP2 SWAP1 PUSH2 0x1652 JUMP JUMPDEST SWAP1 POP PUSH2 0x2710 PUSH2 0x928 PUSH2 0xFA0 DUP4 PUSH2 0x15C5 JUMP JUMPDEST PUSH2 0x932 SWAP2 SWAP1 PUSH2 0x15EF JUMP JUMPDEST SWAP4 SWAP3 POP POP POP JUMP JUMPDEST PUSH1 0x0 DUP1 PUSH2 0x945 DUP4 PUSH2 0xB5F JUMP JUMPDEST SWAP1 POP PUSH1 0x0 PUSH2 0x952 DUP5 PUSH2 0x8A5 JUMP JUMPDEST SWAP1 POP DUP1 DUP3 LT ISZERO PUSH2 0x932 JUMPI POP SWAP3 SWAP2 POP POP JUMP JUMPDEST PUSH1 0x5 SLOAD PUSH1 0x40 MLOAD PUSH4 0xE636D84B PUSH1 0xE0 SHL DUP2 MSTORE CALLER PUSH1 0x4 DUP3 ADD MSTORE PUSH1 0x1 PUSH1 0x1 PUSH1 0xA0 SHL SUB SWAP1 SWAP2 AND SWAP1 PUSH4 0xE636D84B SWAP1 PUSH1 0x24 ADD PUSH1 0x20 PUSH1 0x40 MLOAD DUP1 DUP4 SUB DUP2 DUP7 GAS STATICCALL ISZERO DUP1 ISZERO PUSH2 0x9AB JUMPI RETURNDATASIZE PUSH1 0x0 DUP1 RETURNDATACOPY RETURNDATASIZE PUSH1 0x0 REVERT JUMPDEST POP POP POP POP PUSH1 0x40 MLOAD RETURNDATASIZE PUSH1 0x1F NOT PUSH1 0x1F DUP3 ADD AND DUP3 ADD DUP1 PUSH1 0x40 MSTORE POP DUP2 ADD SWAP1 PUSH2 0x9CF SWAP2 SWAP1 PUSH2 0x1635 JUMP JUMPDEST PUSH2 0x9EC JUMPI PUSH1 0x40 MLOAD PUSH4 0x47CA878B PUSH1 0xE1 SHL DUP2 MSTORE PUSH1 0x4 ADD PUSH1 0x40 MLOAD DUP1 SWAP2 SUB SWAP1 REVERT JUMPDEST PUSH1 0x9 SLOAD PUSH1 0x1 PUSH1 0xA0 SHL SWAP1 DIV PUSH1 0xFF AND PUSH2 0xA16 JUMPI PUSH1 0x40 MLOAD PUSH4 0x486AA307 PUSH1 0xE0 SHL DUP2 MSTORE PUSH1 0x4 ADD PUSH1 0x40 MLOAD DUP1 SWAP2 SUB SWAP1 REVERT JUMPDEST DUP1 PUSH1 0x0 SUB PUSH2 0xA37 JUMPI PUSH1 0x40 MLOAD PUSH4 0xCA73E6B7 PUSH1 0xE0 SHL DUP2 MSTORE PUSH1 0x4 ADD PUSH1 0x40 MLOAD DUP1 SWAP2 SUB SWAP1 REVERT JUMPDEST PUSH9 0xC328093E61EE400000 DUP2 PUSH1 0x0 SLOAD PUSH2 0xA4F SWAP2 SWAP1 PUSH2 0x15DC JUMP JUMPDEST GT ISZERO PUSH2 0xA6E JUMPI PUSH1 0x40 MLOAD PUSH4 0xE3B020D PUSH1 0xE4 SHL DUP2 MSTORE PUSH1 0x4 ADD PUSH1 0x40 MLOAD DUP1 SWAP2 SUB SWAP1 REVERT JUMPDEST PUSH1 0x4 DUP1 SLOAD PUSH1 0x40 MLOAD PUSH4 0x23B872DD PUSH1 0xE0 SHL DUP2 MSTORE PUSH1 0x1 PUSH1 0x1 PUSH1 0xA0 SHL SUB SWAP1 SWAP2 AND SWAP2 PUSH4 0x23B872DD SWAP2 PUSH2 0xAA1 SWAP2 CALLER SWAP2 ADDRESS SWAP2 DUP8 SWAP2 ADD PUSH2 0x1611 JUMP JUMPDEST PUSH1 0x20 PUSH1 0x40 MLOAD DUP1 DUP4 SUB DUP2 PUSH1 0x0 DUP8 GAS CALL ISZERO DUP1 ISZERO PUSH2 0xAC0 JUMPI RETURNDATASIZE PUSH1 0x0 DUP1 RETURNDATACOPY RETURNDATASIZE PUSH1 0x0 REVERT JUMPDEST POP POP POP POP PUSH1 0x40 MLOAD RETURNDATASIZE PUSH1 0x1F NOT PUSH1 0x1F DUP3 ADD AND DUP3 ADD DUP1 PUSH1 0x40 MSTORE POP DUP2 ADD SWAP1 PUSH2 0xAE4 SWAP2 SWAP1 PUSH2 0x1635 JUMP JUMPDEST PUSH2 0xB01 JUMPI PUSH1 0x40 MLOAD PUSH4 0x140941DD PUSH1 0xE1 SHL DUP2 MSTORE PUSH1 0x4 ADD PUSH1 0x40 MLOAD DUP1 SWAP2 SUB SWAP1 REVERT JUMPDEST DUP1 PUSH1 0x0 DUP1 DUP3 DUP3 SLOAD PUSH2 0xB12 SWAP2 SWAP1 PUSH2 0x15DC JUMP JUMPDEST SWAP1 SWAP2 SSTORE POP POP PUSH1 0x0 SLOAD PUSH1 0x40 MLOAD CALLER SWAP2 PUSH32 0x379E108BC7F7AF047FC45C149AE80D8B58796AF60BF720A6156CFC92E2A71DB3 SWAP2 PUSH2 0xB53 SWAP2 DUP6 DUP3 MSTORE PUSH1 0x20 DUP3 ADD MSTORE PUSH1 0x40 ADD SWAP1 JUMP JUMPDEST PUSH1 0x40 MLOAD DUP1 SWAP2 SUB SWAP1 LOG2 JUMPDEST POP JUMP JUMPDEST PUSH1 0x0 DUP1 PUSH2 0xB6B DUP4 PUSH2 0xF2A JUMP JUMPDEST SWAP1 POP PUSH9 0x2B5E3AF16B1880000 DUP2 LT PUSH2 0xB86 JUMPI POP PUSH1 0x0 SWAP3 SWAP2 POP POP JUMP JUMPDEST PUSH2 0x932 DUP2 PUSH9 0x2B5E3AF16B1880000 PUSH2 0x15B2 JUMP JUMPDEST PUSH1 0x5 SLOAD PUSH1 0x40 MLOAD PUSH4 0xE636D84B PUSH1 0xE0 SHL DUP2 MSTORE CALLER PUSH1 0x4 DUP3 ADD MSTORE PUSH1 0x1 PUSH1 0x1 PUSH1 0xA0 SHL SUB SWAP1 SWAP2 AND SWAP1 PUSH4 0xE636D84B SWAP1 PUSH1 0x24 ADD PUSH1 0x20 PUSH1 0x40 MLOAD DUP1 DUP4 SUB DUP2 DUP7 GAS STATICCALL ISZERO DUP1 ISZERO PUSH2 0xBE1 JUMPI RETURNDATASIZE PUSH1 0x0 DUP1 RETURNDATACOPY RETURNDATASIZE PUSH1 0x0 REVERT JUMPDEST POP POP POP POP PUSH1 0x40 MLOAD RETURNDATASIZE PUSH1 0x1F NOT PUSH1 0x1F DUP3 ADD AND DUP3 ADD DUP1 PUSH1 0x40 MSTORE POP DUP2 ADD SWAP1 PUSH2 0xC05 SWAP2 SWAP1 PUSH2 0x1635 JUMP JUMPDEST PUSH2 0xC22 JUMPI PUSH1 0x40 MLOAD PUSH4 0x47CA878B PUSH1 0xE1 SHL DUP2 MSTORE PUSH1 0x4 ADD PUSH1 0x40 MLOAD DUP1 SWAP2 SUB SWAP1 REVERT JUMPDEST PUSH1 0x9 SLOAD PUSH1 0x1 PUSH1 0xA0 SHL SWAP1 DIV PUSH1 0xFF AND ISZERO PUSH2 0xC4D JUMPI PUSH1 0x40 MLOAD PUSH4 0x7983C051 PUSH1 0xE0 SHL DUP2 MSTORE PUSH1 0x4 ADD PUSH1 0x40 MLOAD DUP1 SWAP2 SUB SWAP1 REVERT JUMPDEST DUP2 PUSH1 0x0 SUB PUSH2 0xC6E JUMPI PUSH1 0x40 MLOAD PUSH4 0xCF50D4BD PUSH1 0xE0 SHL DUP2 MSTORE PUSH1 0x4 ADD PUSH1 0x40 MLOAD DUP1 SWAP2 SUB SWAP1 REVERT JUMPDEST DUP1 PUSH1 0x0 SUB PUSH2 0xC8F JUMPI PUSH1 0x40 MLOAD PUSH4 0x3CF7888D PUSH1 0xE0 SHL DUP2 MSTORE PUSH1 0x4 ADD PUSH1 0x40 MLOAD DUP1 SWAP2 SUB SWAP1 REVERT JUMPDEST PUSH1 0x3 SLOAD PUSH1 0x40 MLOAD PUSH4 0x23B872DD PUSH1 0xE0 SHL DUP2 MSTORE PUSH1 0x1 PUSH1 0x1 PUSH1 0xA0 SHL SUB SWAP1 SWAP2 AND SWAP1 PUSH4 0x23B872DD SWAP1 PUSH2 0xCC3 SWAP1 CALLER SWAP1 ADDRESS SWAP1 DUP8 SWAP1 PUSH1 0x4 ADD PUSH2 0x1611 JUMP JUMPDEST PUSH1 0x20 PUSH1 0x40 MLOAD DUP1 DUP4 SUB DUP2 PUSH1 0x0 DUP8 GAS CALL ISZERO DUP1 ISZERO PUSH2 0xCE2 JUMPI RETURNDATASIZE PUSH1 0x0 DUP1 RETURNDATACOPY RETURNDATASIZE PUSH1 0x0 REVERT JUMPDEST POP POP POP POP PUSH1 0x40 MLOAD RETURNDATASIZE PUSH1 0x1F NOT PUSH1 0x1F DUP3 ADD AND DUP3 ADD DUP1 PUSH1 0x40 MSTORE POP DUP2 ADD SWAP1 PUSH2 0xD06 SWAP2 SWAP1 PUSH2 0x1635 JUMP JUMPDEST PUSH2 0xD23 JUMPI PUSH1 0x40 MLOAD PUSH4 0x14A7044F PUSH1 0xE0 SHL DUP2 MSTORE PUSH1 0x4 ADD PUSH1 0x40 MLOAD DUP1 SWAP2 SUB SWAP1 REVERT JUMPDEST PUSH1 0x4 DUP1 SLOAD PUSH1 0x40 MLOAD PUSH4 0x23B872DD PUSH1 0xE0 SHL DUP2 MSTORE PUSH1 0x1 PUSH1 0x1 PUSH1 0xA0 SHL SUB SWAP1 SWAP2 AND SWAP2 PUSH4 0x23B872DD SWAP2 PUSH2 0xD56 SWAP2 CALLER SWAP2 ADDRESS SWAP2 DUP8 SWAP2 ADD PUSH2 0x1611 JUMP JUMPDEST PUSH1 0x20 PUSH1 0x40 MLOAD DUP1 DUP4 SUB DUP2 PUSH1 0x0 DUP8 GAS CALL ISZERO DUP1 ISZERO PUSH2 0xD75 JUMPI RETURNDATASIZE PUSH1 0x0 DUP1 RETURNDATACOPY RETURNDATASIZE PUSH1 0x0 REVERT JUMPDEST POP POP POP POP PUSH1 0x40 MLOAD RETURNDATASIZE PUSH1 0x1F NOT PUSH1 0x1F DUP3 ADD AND DUP3 ADD DUP1 PUSH1 0x40 MSTORE POP DUP2 ADD SWAP1 PUSH2 0xD99 SWAP2 SWAP1 PUSH2 0x1635 JUMP JUMPDEST PUSH2 0xDB6 JUMPI PUSH1 0x40 MLOAD PUSH4 0x1EFC259B PUSH1 0xE3 SHL DUP2 MSTORE PUSH1 0x4 ADD PUSH1 0x40 MLOAD DUP1 SWAP2 SUB SWAP1 REVERT JUMPDEST PUSH1 0x6 DUP3 SWAP1 SSTORE PUSH1 0x7 DUP2 SWAP1 SSTORE PUSH2 0xDCA DUP2 DUP4 PUSH2 0x15C5 JUMP JUMPDEST PUSH1 0x8 DUP2 SWAP1 SSTORE PUSH1 0x9 DUP1 SLOAD PUSH1 0xFF PUSH1 0xA0 SHL NOT AND PUSH1 0x1 PUSH1 0xA0 SHL OR SWAP1 SSTORE PUSH1 0x40 DUP1 MLOAD DUP5 DUP2 MSTORE PUSH1 0x20 DUP2 ADD DUP5 SWAP1 MSTORE SWAP1 DUP2 ADD SWAP2 SWAP1 SWAP2 MSTORE PUSH32 0x2432AC7D1A69EDF7A84A587B57CBFBA673D3513D85558394C1C81D327923A689 SWAP1 PUSH1 0x60 ADD PUSH1 0x40 MLOAD DUP1 SWAP2 SUB SWAP1 LOG1 POP POP JUMP JUMPDEST PUSH1 0x5 SLOAD PUSH1 0x40 MLOAD PUSH4 0xE636D84B PUSH1 0xE0 SHL DUP2 MSTORE CALLER PUSH1 0x4 DUP3 ADD MSTORE PUSH1 0x1 PUSH1 0x1 PUSH1 0xA0 SHL SUB SWAP1 SWAP2 AND SWAP1 PUSH4 0xE636D84B SWAP1 PUSH1 0x24 ADD PUSH1 0x20 PUSH1 0x40 MLOAD DUP1 DUP4 SUB DUP2 DUP7 GAS STATICCALL ISZERO DUP1 ISZERO PUSH2 0xE70 JUMPI RETURNDATASIZE PUSH1 0x0 DUP1 RETURNDATACOPY RETURNDATASIZE PUSH1 0x0 REVERT JUMPDEST POP POP POP POP PUSH1 0x40 MLOAD RETURNDATASIZE PUSH1 0x1F NOT PUSH1 0x1F DUP3 ADD AND DUP3 ADD DUP1 PUSH1 0x40 MSTORE POP DUP2 ADD SWAP1 PUSH2 0xE94 SWAP2 SWAP1 PUSH2 0x1635 JUMP JUMPDEST PUSH2 0xEB1 JUMPI PUSH1 0x40 MLOAD PUSH4 0x47CA878B PUSH1 0xE1 SHL DUP2 MSTORE PUSH1 0x4 ADD PUSH1 0x40 MLOAD DUP1 SWAP2 SUB SWAP1 REVERT JUMPDEST PUSH1 0x1 PUSH1 0x1 PUSH1 0xA0 SHL SUB DUP2 AND PUSH2 0xED8 JUMPI PUSH1 0x40 MLOAD PUSH4 0xED1B8B3 PUSH1 0xE3 SHL DUP2 MSTORE PUSH1 0x4 ADD PUSH1 0x40 MLOAD DUP1 SWAP2 SUB SWAP1 REVERT JUMPDEST PUSH1 0x9 DUP1 SLOAD PUSH1 0x1 PUSH1 0x1 PUSH1 0xA0 SHL SUB DUP4 DUP2 AND PUSH1 0x1 PUSH1 0x1 PUSH1 0xA0 SHL SUB NOT DUP4 AND DUP2 OR SWAP1 SWAP4 SSTORE PUSH1 0x40 MLOAD SWAP2 AND SWAP2 SWAP1 DUP3 SWAP1 PUSH32 0xAAEBCF1BFA00580E41D966056B48521FA9F202645C86D4DDF28113E617C1B1D3 SWAP1 PUSH1 0x0 SWAP1 LOG3 POP POP JUMP JUMPDEST PUSH1 0x0 DUP1 PUSH2 0xF35 PUSH2 0x124E JUMP JUMPDEST PUSH1 0x1 PUSH1 0x1 PUSH1 0xA0 SHL SUB DUP5 AND PUSH1 0x0 SWAP1 DUP2 MSTORE PUSH1 0x2 PUSH1 0x20 MSTORE PUSH1 0x40 SWAP1 KECCAK256 SLOAD SWAP1 SWAP2 POP DUP2 EQ PUSH2 0xF60 JUMPI POP PUSH1 0x0 SWAP3 SWAP2 POP POP JUMP JUMPDEST POP POP PUSH1 0x1 PUSH1 0x1 PUSH1 0xA0 SHL SUB AND PUSH1 0x0 SWAP1 DUP2 MSTORE PUSH1 0x2 PUSH1 0x20 MSTORE PUSH1 0x40 SWAP1 KECCAK256 PUSH1 0x1 ADD SLOAD SWAP1 JUMP JUMPDEST PUSH1 0x0 PUSH2 0xF8A PUSH2 0x1232 JUMP JUMPDEST PUSH1 0x9 SLOAD PUSH1 0x1 PUSH1 0xA0 SHL SWAP1 DIV PUSH1 0xFF AND PUSH2 0xFB4 JUMPI PUSH1 0x40 MLOAD PUSH4 0x486AA307 PUSH1 0xE0 SHL DUP2 MSTORE PUSH1 0x4 ADD PUSH1 0x40 MLOAD DUP1 SWAP2 SUB SWAP1 REVERT JUMPDEST DUP3 PUSH1 0x0 SUB PUSH2 0xFD5 JUMPI PUSH1 0x40 MLOAD PUSH4 0x990965C1 PUSH1 0xE0 SHL DUP2 MSTORE PUSH1 0x4 ADD PUSH1 0x40 MLOAD DUP1 SWAP2 SUB SWAP1 REVERT JUMPDEST PUSH2 0xFDD PUSH2 0x1262 JUMP JUMPDEST PUSH1 0x0 PUSH2 0xFE9 CALLER DUP6 PUSH2 0x1425 JUMP JUMPDEST SWAP1 POP DUP1 DUP5 GT ISZERO PUSH2 0x101A JUMPI PUSH1 0x40 MLOAD PUSH4 0xD1D29C53 PUSH1 0xE0 SHL DUP2 MSTORE PUSH1 0x4 DUP2 ADD DUP6 SWAP1 MSTORE PUSH1 0x24 DUP2 ADD DUP3 SWAP1 MSTORE PUSH1 0x44 ADD PUSH1 0x40 MLOAD DUP1 SWAP2 SUB SWAP1 REVERT JUMPDEST PUSH2 0x1025 DUP5 PUSH1 0x1 PUSH2 0x477 JUMP JUMPDEST SWAP2 POP DUP3 DUP3 LT ISZERO PUSH2 0x1048 JUMPI PUSH1 0x40 MLOAD PUSH4 0x428637BB PUSH1 0xE1 SHL DUP2 MSTORE PUSH1 0x4 ADD PUSH1 0x40 MLOAD DUP1 SWAP2 SUB SWAP1 REVERT JUMPDEST PUSH1 0x0 PUSH2 0x1052 PUSH2 0x58B JUMP JUMPDEST PUSH1 0x3 SLOAD PUSH1 0x40 MLOAD PUSH4 0x23B872DD PUSH1 0xE0 SHL DUP2 MSTORE SWAP2 SWAP3 POP PUSH1 0x1 PUSH1 0x1 PUSH1 0xA0 SHL SUB AND SWAP1 PUSH4 0x23B872DD SWAP1 PUSH2 0x1087 SWAP1 CALLER SWAP1 ADDRESS SWAP1 DUP11 SWAP1 PUSH1 0x4 ADD PUSH2 0x1611 JUMP JUMPDEST PUSH1 0x20 PUSH1 0x40 MLOAD DUP1 DUP4 SUB DUP2 PUSH1 0x0 DUP8 GAS CALL ISZERO DUP1 ISZERO PUSH2 0x10A6 JUMPI RETURNDATASIZE PUSH1 0x0 DUP1 RETURNDATACOPY RETURNDATASIZE PUSH1 0x0 REVERT JUMPDEST POP POP POP POP PUSH1 0x40 MLOAD RETURNDATASIZE PUSH1 0x1F NOT PUSH1 0x1F DUP3 ADD AND DUP3 ADD DUP1 PUSH1 0x40 MSTORE POP DUP2 ADD SWAP1 PUSH2 0x10CA SWAP2 SWAP1 PUSH2 0x1635 JUMP JUMPDEST PUSH2 0x10E7 JUMPI PUSH1 0x40 MLOAD PUSH4 0x14A0605D PUSH1 0xE3 SHL DUP2 MSTORE PUSH1 0x4 ADD PUSH1 0x40 MLOAD DUP1 SWAP2 SUB SWAP1 REVERT JUMPDEST PUSH1 0x4 DUP1 SLOAD PUSH1 0x40 MLOAD PUSH4 0xA9059CBB PUSH1 0xE0 SHL DUP2 MSTORE CALLER SWAP3 DUP2 ADD SWAP3 SWAP1 SWAP3 MSTORE PUSH1 0x24 DUP3 ADD DUP6 SWAP1 MSTORE PUSH1 0x1 PUSH1 0x1 PUSH1 0xA0 SHL SUB AND SWAP1 PUSH4 0xA9059CBB SWAP1 PUSH1 0x44 ADD PUSH1 0x20 PUSH1 0x40 MLOAD DUP1 DUP4 SUB DUP2 PUSH1 0x0 DUP8 GAS CALL ISZERO DUP1 ISZERO PUSH2 0x1139 JUMPI RETURNDATASIZE PUSH1 0x0 DUP1 RETURNDATACOPY RETURNDATASIZE PUSH1 0x0 REVERT JUMPDEST POP POP POP POP PUSH1 0x40 MLOAD RETURNDATASIZE PUSH1 0x1F NOT PUSH1 0x1F DUP3 ADD AND DUP3 ADD DUP1 PUSH1 0x40 MSTORE POP DUP2 ADD SWAP1 PUSH2 0x115D SWAP2 SWAP1 PUSH2 0x1635 JUMP JUMPDEST PUSH2 0x1179 JUMPI PUSH1 0x40 MLOAD PUSH3 0xA5861D PUSH1 0xE3 SHL DUP2 MSTORE PUSH1 0x4 ADD PUSH1 0x40 MLOAD DUP1 SWAP2 SUB SWAP1 REVERT JUMPDEST DUP5 PUSH1 0x6 PUSH1 0x0 DUP3 DUP3 SLOAD PUSH2 0x118B SWAP2 SWAP1 PUSH2 0x15DC JUMP JUMPDEST SWAP3 POP POP DUP2 SWAP1 SSTORE POP DUP3 PUSH1 0x7 PUSH1 0x0 DUP3 DUP3 SLOAD PUSH2 0x11A4 SWAP2 SWAP1 PUSH2 0x15B2 JUMP JUMPDEST SWAP1 SWAP2 SSTORE POP POP PUSH1 0x7 SLOAD PUSH1 0x6 SLOAD PUSH2 0x11B9 SWAP2 SWAP1 PUSH2 0x15C5 JUMP JUMPDEST PUSH1 0x8 SSTORE PUSH2 0x11C6 CALLER DUP7 PUSH2 0x1447 JUMP JUMPDEST PUSH2 0x11CE PUSH2 0x1262 JUMP JUMPDEST PUSH1 0x40 DUP1 MLOAD PUSH1 0x1 DUP2 MSTORE PUSH1 0x20 DUP2 ADD DUP8 SWAP1 MSTORE SWAP1 DUP2 ADD DUP5 SWAP1 MSTORE PUSH1 0x60 DUP2 ADD DUP3 SWAP1 MSTORE CALLER SWAP1 PUSH32 0x176648F1F11CDA284C124490086BE42A926DDF0AE887EBE7B1D6B337D8942756 SWAP1 PUSH1 0x80 ADD PUSH1 0x40 MLOAD DUP1 SWAP2 SUB SWAP1 LOG2 POP POP PUSH2 0x89F PUSH1 0x1 PUSH1 0x0 DUP1 MLOAD PUSH1 0x20 PUSH2 0x166C DUP4 CODECOPY DUP2 MLOAD SWAP2 MSTORE SSTORE JUMP JUMPDEST PUSH2 0x123A PUSH2 0x14C8 JUMP JUMPDEST PUSH1 0x2 PUSH1 0x0 DUP1 MLOAD PUSH1 0x20 PUSH2 0x166C DUP4 CODECOPY DUP2 MLOAD SWAP2 MSTORE SSTORE JUMP JUMPDEST PUSH1 0x0 PUSH2 0x125D PUSH3 0x15180 TIMESTAMP PUSH2 0x15EF JUMP JUMPDEST SWAP1 POP SWAP1 JUMP JUMPDEST PUSH1 0x0 PUSH2 0x2710 PUSH2 0x127C PUSH2 0xFA0 PUSH9 0xA2A15D09519BE00000 PUSH2 0x15C5 JUMP JUMPDEST PUSH2 0x1286 SWAP2 SWAP1 PUSH2 0x15EF JUMP JUMPDEST SWAP1 POP DUP1 PUSH1 0x7 SLOAD LT PUSH2 0x1294 JUMPI POP JUMP JUMPDEST PUSH1 0x1 SLOAD ISZERO PUSH2 0x12BF JUMPI PUSH1 0x0 PUSH3 0x15180 PUSH1 0x1 SLOAD PUSH2 0x12AF SWAP2 SWAP1 PUSH2 0x15DC JUMP JUMPDEST SWAP1 POP DUP1 TIMESTAMP LT ISZERO PUSH2 0x12BD JUMPI POP POP JUMP JUMPDEST POP JUMPDEST PUSH1 0x0 SLOAD PUSH1 0x0 SUB PUSH2 0x1307 JUMPI PUSH32 0x13F1BC4129F202B02D9E046860B624559D2706C59D4DBEA155405818A49862C3 PUSH1 0x0 SLOAD PUSH1 0x40 MLOAD PUSH2 0x12FC SWAP2 DUP2 MSTORE PUSH1 0x20 ADD SWAP1 JUMP JUMPDEST PUSH1 0x40 MLOAD DUP1 SWAP2 SUB SWAP1 LOG1 POP JUMP JUMPDEST PUSH1 0x0 PUSH1 0x7 SLOAD PUSH9 0xA2A15D09519BE00000 PUSH2 0x1320 SWAP2 SWAP1 PUSH2 0x15B2 JUMP JUMPDEST SWAP1 POP PUSH1 0x0 DUP2 PUSH1 0x0 SLOAD LT ISZERO PUSH2 0x1337 JUMPI POP PUSH1 0x0 SLOAD PUSH2 0x133A JUMP JUMPDEST POP DUP1 JUMPDEST DUP1 PUSH1 0x0 DUP1 DUP3 DUP3 SLOAD PUSH2 0x134B SWAP2 SWAP1 PUSH2 0x15B2 JUMP JUMPDEST SWAP3 POP POP DUP2 SWAP1 SSTORE POP DUP1 PUSH1 0x7 PUSH1 0x0 DUP3 DUP3 SLOAD PUSH2 0x1364 SWAP2 SWAP1 PUSH2 0x15DC JUMP JUMPDEST SWAP1 SWAP2 SSTORE POP POP TIMESTAMP PUSH1 0x1 SSTORE PUSH1 0x7 SLOAD PUSH1 0x6 SLOAD PUSH2 0x137D SWAP2 SWAP1 PUSH2 0x15C5 JUMP JUMPDEST PUSH1 0x8 DUP2 SWAP1 SSTORE PUSH1 0x7 SLOAD PUSH1 0x0 SLOAD PUSH1 0x40 DUP1 MLOAD DUP6 DUP2 MSTORE PUSH1 0x20 DUP2 ADD SWAP4 SWAP1 SWAP4 MSTORE DUP3 ADD MSTORE PUSH1 0x60 DUP2 ADD SWAP2 SWAP1 SWAP2 MSTORE CALLER SWAP1 PUSH32 0xB17A3514DFD2B9387260E144DD42B10AC29CC9AD6E816E3E6DDE6EA4E49A9BCA SWAP1 PUSH1 0x80 ADD PUSH1 0x40 MLOAD DUP1 SWAP2 SUB SWAP1 LOG2 PUSH9 0x30CA024F987B900000 PUSH1 0x0 SLOAD LT ISZERO PUSH2 0x1420 JUMPI PUSH32 0x13F1BC4129F202B02D9E046860B624559D2706C59D4DBEA155405818A49862C3 PUSH1 0x0 SLOAD PUSH1 0x40 MLOAD PUSH2 0x1417 SWAP2 DUP2 MSTORE PUSH1 0x20 ADD SWAP1 JUMP JUMPDEST PUSH1 0x40 MLOAD DUP1 SWAP2 SUB SWAP1 LOG1 JUMPDEST POP POP POP JUMP JUMPDEST PUSH1 0x0 DUP1 PUSH2 0x1431 DUP5 PUSH2 0x939 JUMP JUMPDEST SWAP1 POP DUP3 DUP1 DUP3 LT ISZERO PUSH2 0x143F JUMPI POP DUP1 JUMPDEST SWAP5 SWAP4 POP POP POP POP JUMP JUMPDEST PUSH1 0x0 PUSH2 0x1451 PUSH2 0x124E JUMP JUMPDEST PUSH1 0x1 PUSH1 0x1 PUSH1 0xA0 SHL SUB DUP5 AND PUSH1 0x0 SWAP1 DUP2 MSTORE PUSH1 0x2 PUSH1 0x20 MSTORE PUSH1 0x40 SWAP1 KECCAK256 SLOAD SWAP1 SWAP2 POP DUP2 EQ PUSH2 0x1493 JUMPI PUSH1 0x1 PUSH1 0x1 PUSH1 0xA0 SHL SUB DUP4 AND PUSH1 0x0 SWAP1 DUP2 MSTORE PUSH1 0x2 PUSH1 0x20 MSTORE PUSH1 0x40 DUP2 KECCAK256 DUP3 DUP2 SSTORE PUSH1 0x1 ADD SSTORE JUMPDEST PUSH1 0x1 PUSH1 0x1 PUSH1 0xA0 SHL SUB DUP4 AND PUSH1 0x0 SWAP1 DUP2 MSTORE PUSH1 0x2 PUSH1 0x20 MSTORE PUSH1 0x40 DUP2 KECCAK256 PUSH1 0x1 ADD DUP1 SLOAD DUP5 SWAP3 SWAP1 PUSH2 0x14BE SWAP1 DUP5 SWAP1 PUSH2 0x15DC JUMP JUMPDEST SWAP1 SWAP2 SSTORE POP POP POP POP POP JUMP JUMPDEST PUSH1 0x0 DUP1 MLOAD PUSH1 0x20 PUSH2 0x166C DUP4 CODECOPY DUP2 MLOAD SWAP2 MSTORE SLOAD PUSH1 0x2 SUB PUSH2 0x14F8 JUMPI PUSH1 0x40 MLOAD PUSH4 0x3EE5AEB5 PUSH1 0xE0 SHL DUP2 MSTORE PUSH1 0x4 ADD PUSH1 0x40 MLOAD DUP1 SWAP2 SUB SWAP1 REVERT JUMPDEST JUMP JUMPDEST DUP1 ISZERO ISZERO DUP2 EQ PUSH2 0xB5C JUMPI PUSH1 0x0 DUP1 REVERT JUMPDEST PUSH1 0x0 DUP1 PUSH1 0x40 DUP4 DUP6 SUB SLT ISZERO PUSH2 0x151B JUMPI PUSH1 0x0 DUP1 REVERT JUMPDEST DUP3 CALLDATALOAD SWAP2 POP PUSH1 0x20 DUP4 ADD CALLDATALOAD PUSH2 0x152D DUP2 PUSH2 0x14FA JUMP JUMPDEST DUP1 SWAP2 POP POP SWAP3 POP SWAP3 SWAP1 POP JUMP JUMPDEST PUSH1 0x0 PUSH1 0x20 DUP3 DUP5 SUB SLT ISZERO PUSH2 0x154A JUMPI PUSH1 0x0 DUP1 REVERT JUMPDEST DUP2 CALLDATALOAD PUSH1 0x1 PUSH1 0x1 PUSH1 0xA0 SHL SUB DUP2 AND DUP2 EQ PUSH2 0x932 JUMPI PUSH1 0x0 DUP1 REVERT JUMPDEST PUSH1 0x0 DUP1 PUSH1 0x40 DUP4 DUP6 SUB SLT ISZERO PUSH2 0x1574 JUMPI PUSH1 0x0 DUP1 REVERT JUMPDEST POP POP DUP1 CALLDATALOAD SWAP3 PUSH1 0x20 SWAP1 SWAP2 ADD CALLDATALOAD SWAP2 POP JUMP JUMPDEST PUSH1 0x0 PUSH1 0x20 DUP3 DUP5 SUB SLT ISZERO PUSH2 0x1595 JUMPI PUSH1 0x0 DUP1 REVERT JUMPDEST POP CALLDATALOAD SWAP2 SWAP1 POP JUMP JUMPDEST PUSH4 0x4E487B71 PUSH1 0xE0 SHL PUSH1 0x0 MSTORE PUSH1 0x11 PUSH1 0x4 MSTORE PUSH1 0x24 PUSH1 0x0 REVERT JUMPDEST DUP2 DUP2 SUB DUP2 DUP2 GT ISZERO PUSH2 0x89F JUMPI PUSH2 0x89F PUSH2 0x159C JUMP JUMPDEST DUP1 DUP3 MUL DUP2 ISZERO DUP3 DUP3 DIV DUP5 EQ OR PUSH2 0x89F JUMPI PUSH2 0x89F PUSH2 0x159C JUMP JUMPDEST DUP1 DUP3 ADD DUP1 DUP3 GT ISZERO PUSH2 0x89F JUMPI PUSH2 0x89F PUSH2 0x159C JUMP JUMPDEST PUSH1 0x0 DUP3 PUSH2 0x160C JUMPI PUSH4 0x4E487B71 PUSH1 0xE0 SHL PUSH1 0x0 MSTORE PUSH1 0x12 PUSH1 0x4 MSTORE PUSH1 0x24 PUSH1 0x0 REVERT JUMPDEST POP DIV SWAP1 JUMP JUMPDEST PUSH1 0x1 PUSH1 0x1 PUSH1 0xA0 SHL SUB SWAP4 DUP5 AND DUP2 MSTORE SWAP2 SWAP1 SWAP3 AND PUSH1 0x20 DUP3 ADD MSTORE PUSH1 0x40 DUP2 ADD SWAP2 SWAP1 SWAP2 MSTORE PUSH1 0x60 ADD SWAP1 JUMP JUMPDEST PUSH1 0x0 PUSH1 0x20 DUP3 DUP5 SUB SLT ISZERO PUSH2 0x1647 JUMPI PUSH1 0x0 DUP1 REVERT JUMPDEST DUP2 MLOAD PUSH2 0x932 DUP2 PUSH2 0x14FA JUMP JUMPDEST PUSH1 0x0 PUSH1 0x20 DUP3 DUP5 SUB SLT ISZERO PUSH2 0x1664 JUMPI PUSH1 0x0 DUP1 REVERT JUMPDEST POP MLOAD SWAP2 SWAP1 POP JUMP INVALID SWAP12 PUSH24 0x9B17422D0DF92223018B32B4D1FA46E071723D6817E2486D STOP EXTCODESIZE 0xEC 0xC5 PUSH0 STOP LOG2 PUSH5 0x6970667358 0x22 SLT KECCAK256 0xD8 PREVRANDAO DUP7 PUSH1 0x72 0x4C SWAP1 SWAP8 PUSH8 0x515DA551FED0EF96 PUSH7 0xEE7B8088765102 LOG3 PUSH26 0x2721FB8A7A64736F6C6343000814003300000000000000000000 "},"methodIdentifiers":{"BASIS_POINTS()":"e1f1c4a7","BUFFER_ALERT()":"fcc8d236","BUFFER_SIZE()":"004e394e","BufferRTAction(uint256)":"d99634a2","COOLDOWN_INJECT()":"efadc5b2","INJECT_TRIGGER()":"b80882c5","MAX_SWAP_PER_USER()":"5ba111c9","MAX_SWAP_PROPORTION()":"80e23c6d","TARGET_RT()":"3cf7979d","bufferRT()":"e2e4f062","committeeManager()":"7e8611e2","dailyGTSwap(address)":"6a68c3ba","feeRecipient()":"46904840","getAmountOut(uint256,bool)":"11106ee2","getCurrentFeeRate()":"6091ad4f","getCurrentImmediateLimit(address)":"a66caa6d","getHoldingLimitGT(address)":"9e94ccc8","getPoolStatus()":"7f79496c","getRemainingDailyGT(address)":"e30c2c34","getReserves()":"0902f1ac","getUsedGTToday(address)":"ea88704d","greenToken()":"02b32af5","initialize(uint256,uint256)":"e4a30116","initialized()":"158ef93e","k()":"b4f40c61","lastInjectTime()":"5314b1d1","reserveGT()":"3b7c70de","reserveRT()":"0684bec0","rewardToken()":"f7c618c1","setFeeRecipient(address)":"e74b981b","swapGTforRT(uint256,uint256)":"f614787b","swapRTforGT(uint256,uint256)":"8b647f65"}}}}}