{"Contracts/ActivityVerification.sol":{"ActivityVerification":{"abi":[{"inputs":[{"internalType":"address","name":"_greenToken","type":"address"},{"internalType":"address","name":"_rewardToken","type":"address"},{"internalType":"address","name":"_committeeManager","type":"address"}],"stateMutability":"nonpayable","type":"constructor"},{"inputs":[],"name":"AlreadyVoted","type":"error"},{"inputs":[],"name":"CannotVoteOnOwnSubmission","type":"error"},{"inputs":[],"name":"InvalidReward","type":"error"},{"inputs":[],"name":"NotAssignedVerifier","type":"error"},{"inputs":[],"name":"NotCommitteeMember","type":"error"},{"inputs":[],"name":"NothingQueued","type":"error"},{"inputs":[],"name":"QueueNotReady","type":"error"},{"inputs":[],"name":"ReentrancyGuardReentrantCall","type":"error"},{"inputs":[],"name":"SubmissionLimitReached","type":"error"},{"inputs":[],"name":"TaskNotFound","type":"error"},{"inputs":[],"name":"TaskNotPending","type":"error"},{"anonymous":false,"inputs":[{"indexed":true,"internalType":"uint256","name":"taskId","type":"uint256"},{"indexed":true,"internalType":"address","name":"submitter","type":"address"},{"indexed":false,"internalType":"uint256","name":"amount","type":"uint256"}],"name":"QueuedGTClaimed","type":"event"},{"anonymous":false,"inputs":[{"indexed":true,"internalType":"uint256","name":"taskId","type":"uint256"},{"indexed":false,"internalType":"enum ActivityVerification.TaskStatus","name":"status","type":"uint8"}],"name":"TaskFinalized","type":"event"},{"anonymous":false,"inputs":[{"indexed":true,"internalType":"uint256","name":"taskId","type":"uint256"},{"indexed":true,"internalType":"address","name":"submitter","type":"address"},{"indexed":false,"internalType":"string","name":"actionType","type":"string"},{"indexed":false,"internalType":"uint256","name":"gtReward","type":"uint256"}],"name":"TaskSubmitted","type":"event"},{"anonymous":false,"inputs":[{"indexed":true,"internalType":"uint256","name":"taskId","type":"uint256"},{"indexed":false,"internalType":"address[3]","name":"verifiers","type":"address[3]"}],"name":"VerifiersAssigned","type":"event"},{"anonymous":false,"inputs":[{"indexed":true,"internalType":"uint256","name":"taskId","type":"uint256"},{"indexed":true,"internalType":"address","name":"voter","type":"address"},{"indexed":false,"internalType":"bool","name":"approve","type":"bool"}],"name":"VoteCast","type":"event"},{"inputs":[],"name":"avgGTperTask","outputs":[{"internalType":"uint256","name":"","type":"uint256"}],"stateMutability":"view","type":"function"},{"inputs":[{"internalType":"uint256","name":"_taskId","type":"uint256"}],"name":"claimQueuedGT","outputs":[],"stateMutability":"nonpayable","type":"function"},{"inputs":[],"name":"committeeManager","outputs":[{"internalType":"contract ICommitteeManager","name":"","type":"address"}],"stateMutability":"view","type":"function"},{"inputs":[],"name":"currentDay","outputs":[{"internalType":"uint256","name":"","type":"uint256"}],"stateMutability":"view","type":"function"},{"inputs":[],"name":"dailyMintCap","outputs":[{"internalType":"uint256","name":"","type":"uint256"}],"stateMutability":"view","type":"function"},{"inputs":[{"internalType":"uint256","name":"","type":"uint256"}],"name":"dailyMintedGT","outputs":[{"internalType":"uint256","name":"","type":"uint256"}],"stateMutability":"view","type":"function"},{"inputs":[{"internalType":"uint256","name":"","type":"uint256"}],"name":"dailyTaskCount","outputs":[{"internalType":"uint256","name":"","type":"uint256"}],"stateMutability":"view","type":"function"},{"inputs":[{"internalType":"uint256","name":"_taskId","type":"uint256"}],"name":"finalizeExpiredTask","outputs":[],"stateMutability":"nonpayable","type":"function"},{"inputs":[{"internalType":"uint256","name":"_taskId","type":"uint256"}],"name":"getTaskVerifiers","outputs":[{"internalType":"address[3]","name":"","type":"address[3]"}],"stateMutability":"view","type":"function"},{"inputs":[],"name":"greenToken","outputs":[{"internalType":"contract IGreenToken","name":"","type":"address"}],"stateMutability":"view","type":"function"},{"inputs":[{"internalType":"uint256","name":"","type":"uint256"},{"internalType":"address","name":"","type":"address"}],"name":"hasVoted","outputs":[{"internalType":"bool","name":"","type":"bool"}],"stateMutability":"view","type":"function"},{"inputs":[],"name":"inactivityPenalty","outputs":[{"internalType":"uint256","name":"","type":"uint256"}],"stateMutability":"view","type":"function"},{"inputs":[],"name":"maxTasksPerDay","outputs":[{"internalType":"uint256","name":"","type":"uint256"}],"stateMutability":"view","type":"function"},{"inputs":[],"name":"rewardToken","outputs":[{"internalType":"contract IRewardToken","name":"","type":"address"}],"stateMutability":"view","type":"function"},{"inputs":[{"internalType":"string","name":"_actionType","type":"string"},{"internalType":"string","name":"_proofCID","type":"string"},{"internalType":"uint256","name":"_gtReward","type":"uint256"}],"name":"submitTask","outputs":[{"internalType":"uint256","name":"taskId","type":"uint256"}],"stateMutability":"nonpayable","type":"function"},{"inputs":[],"name":"taskCount","outputs":[{"internalType":"uint256","name":"","type":"uint256"}],"stateMutability":"view","type":"function"},{"inputs":[{"internalType":"uint256","name":"","type":"uint256"}],"name":"tasks","outputs":[{"internalType":"address","name":"submitter","type":"address"},{"internalType":"string","name":"actionType","type":"string"},{"internalType":"string","name":"proofCID","type":"string"},{"internalType":"uint256","name":"gtReward","type":"uint256"},{"internalType":"uint256","name":"approvals","type":"uint256"},{"internalType":"uint256","name":"rejections","type":"uint256"},{"internalType":"enum ActivityVerification.TaskStatus","name":"status","type":"uint8"},{"internalType":"uint256","name":"timestamp","type":"uint256"},{"internalType":"uint256","name":"voteDeadline","type":"uint256"},{"internalType":"bool","name":"gtQueued","type":"bool"},{"internalType":"bool","name":"gtClaimed","type":"bool"},{"internalType":"uint8","name":"verifierCount","type":"uint8"}],"stateMutability":"view","type":"function"},{"inputs":[{"internalType":"address","name":"","type":"address"},{"internalType":"uint256","name":"","type":"uint256"}],"name":"userDailySubmissions","outputs":[{"internalType":"uint256","name":"","type":"uint256"}],"stateMutability":"view","type":"function"},{"inputs":[],"name":"userTaskLimit","outputs":[{"internalType":"uint256","name":"","type":"uint256"}],"stateMutability":"view","type":"function"},{"inputs":[{"internalType":"address","name":"","type":"address"},{"internalType":"uint256","name":"","type":"uint256"}],"name":"verifierDailyAssigned","outputs":[{"internalType":"uint256","name":"","type":"uint256"}],"stateMutability":"view","type":"function"},{"inputs":[],"name":"verifierPenalty","outputs":[{"internalType":"uint256","name":"","type":"uint256"}],"stateMutability":"view","type":"function"},{"inputs":[],"name":"verifierReward","outputs":[{"internalType":"uint256","name":"","type":"uint256"}],"stateMutability":"view","type":"function"},{"inputs":[],"name":"verifierTaskLimit","outputs":[{"internalType":"uint256","name":"","type":"uint256"}],"stateMutability":"view","type":"function"},{"inputs":[{"internalType":"uint256","name":"","type":"uint256"},{"internalType":"address","name":"","type":"address"}],"name":"voteChoice","outputs":[{"internalType":"bool","name":"","type":"bool"}],"stateMutability":"view","type":"function"},{"inputs":[],"name":"voteDeadlineDuration","outputs":[{"internalType":"uint256","name":"","type":"uint256"}],"stateMutability":"view","type":"function"},{"inputs":[{"internalType":"uint256","name":"_taskId","type":"uint256"},{"internalType":"bool","name":"_approve","type":"bool"}],"name":"voteOnTask","outputs":[],"stateMutability":"nonpayable","type":"function"}],"evm":{"bytecode":{"linkReferences":{},"object":"60e06040523480156200001157600080fd5b5060405162001f7f38038062001f7f833981016040819052620000349162000093565b60017f9b779b17422d0df92223018b32b4d1fa46e071723d6817e2486d003becc55f00556001600160a01b0392831660805290821660a0521660c052620000dd565b80516001600160a01b03811681146200008e57600080fd5b919050565b600080600060608486031215620000a957600080fd5b620000b48462000076565b9250620000c46020850162000076565b9150620000d46040850162000076565b90509250925092565b60805160a05160c051611e2c620001536000396000818161031a0152818161088501528181610ace01528181610b6101528181610e820152610fbd0152600081816103a90152611654015260008181610198015281816107ae015281816114690152818161156e01526116db0152611e2c6000f3fe608060405234801561001057600080fd5b506004361061018e5760003560e01c8063698eda8d116100de578063d2d8165511610097578063e728e1ac11610071578063e728e1ac1461039b578063f7c618c1146103a4578063fb468855146103cb578063fc55383c146103f957600080fd5b8063d2d8165514610367578063d52ffb9114610380578063e163fb2f1461038857600080fd5b8063698eda8d146103055780637e8611e2146103155780638d9776721461033c578063af19bea014610367578063b49e80f41461036f578063b6cb58a51461037757600080fd5b80633a291bc11161014b5780634e6f0858116101255780634e6f0858146102dd57806354e473c6146102f25780635977e4e2146103055780635c9302c91461030d57600080fd5b80633a291bc11461026c578063438596321461028c578063492e5f27146102ca57600080fd5b806302b32af5146101935780632832bcb5146101d75780632b05638c146101ee57806334352d81146101f657806334d9a3961461022157806339e4e6ce1461024c575b600080fd5b6101ba7f000000000000000000000000000000000000000000000000000000000000000081565b6040516001600160a01b0390911681526020015b60405180910390f35b6101e061012c81565b6040519081526020016101ce565b6101e0600881565b6101e061020436600461179a565b600760209081526000928352604080842090915290825290205481565b6101e061022f36600461179a565b600660209081526000928352604080842090915290825290205481565b6101e061025a3660046117c6565b60046020526000908152604090205481565b6101e061027a3660046117c6565b60056020526000908152604090205481565b6102ba61029a3660046117df565b600260209081526000928352604080842090915290825290205460ff1681565b60405190151581526020016101ce565b6101e06102d8366004611858565b610419565b6102f06102eb3660046117c6565b61063f565b005b6102f06103003660046118da565b610870565b6101e0600581565b6101e0610c2e565b6101ba7f000000000000000000000000000000000000000000000000000000000000000081565b61034f61034a3660046117c6565b610c42565b6040516101ce9c9b9a9998979695949392919061197d565b6101e0600281565b6101e0600181565b6101e060005481565b6101e0603c81565b6102f06103963660046117c6565b610dc5565b6101e061a8c081565b6101ba7f000000000000000000000000000000000000000000000000000000000000000081565b6102ba6103d93660046117df565b600360209081526000928352604080842090915290825290205460ff1681565b61040c6104073660046117c6565b610f27565b6040516101ce9190611a0f565b600080610424610c2e565b905060058314610447576040516314414f4160e11b815260040160405180910390fd5b3360009081526006602090815260408083208484529091529020546002116104825760405163c3d181a160e01b815260040160405180910390fd5b600081815260056020526040902054603c116104de5760405162461bcd60e51b815260206004820152601660248201527511185a5b1e481d185cdac818d85c081c995858da195960521b60448201526064015b60405180910390fd5b6000805490806104ed83611a5f565b90915550600081815260016020819052604090912080546001600160a01b031916331781559193508101610522888a83611b0e565b5060028101610532868883611b0e565b506003810184905560068101805460ff19169055426007820181905561055b9061a8c090611bcf565b6008820155336000908152600660209081526040808320858452909152812080549161058683611a5f565b909155505060008281526005602052604081208054916105a583611a5f565b91905055506105b383610fa2565b336001600160a01b0316837f30bd2a1da314becc79ac913f35a1ffbeb59f76eaa3c9cacd2f18644badc13d398a8a886040516105f193929190611be2565b60405180910390a3827f411445e4be669981d37abe27f9f4ac81c75fda1829cc33418f915664b5eb463d82600a0160405161062c9190611c1b565b60405180910390a2505095945050505050565b6106476111cc565b60005481106106695760405163c325ae3360e01b815260040160405180910390fd5b600081815260016020526040812090610680610c2e565b82549091506001600160a01b031633146106cc5760405162461bcd60e51b815260206004820152600d60248201526c2737ba1039bab136b4ba3a32b960991b60448201526064016104d5565b600982015460ff1615806106e957506009820154610100900460ff165b15610707576040516301440ac160e21b815260040160405180910390fd5b600382015460008281526004602052604090205461012c9161072891611bcf565b111561074757604051633794469b60e11b815260040160405180910390fd5b60038201546000828152600460205260408120805490919061076a908490611bcf565b909155505060098201805461ff001916610100179055815460038301546040516340c10f1960e01b81526001600160a01b03928316600482015260248101919091527f0000000000000000000000000000000000000000000000000000000000000000909116906340c10f1990604401600060405180830381600087803b1580156107f457600080fd5b505af1158015610808573d6000803e3d6000fd5b50505050336001600160a01b0316837fb413b8e706ed9b9cec171152eedf8526e9ddffd7de8ac78d3aa9ea89e4d55492846003015460405161084c91815260200190565b60405180910390a3505061086d6001600080516020611dd783398151915255565b50565b60405163e636d84b60e01b81523360048201527f00000000000000000000000000000000000000000000000000000000000000006001600160a01b03169063e636d84b90602401602060405180830381865afa1580156108d4573d6000803e3d6000fd5b505050506040513d601f19601f820116820180604052508101906108f89190611c4c565b610915576040516347ca878b60e11b815260040160405180910390fd5b61091d6111cc565b600054821061093f5760405163c325ae3360e01b815260040160405180910390fd5b600082815260016020526040902080546001600160a01b031633036109775760405163b94f623160e01b815260040160405180910390fd5b6000600682015460ff16600281111561099257610992611945565b146109af5760405162a997df60e81b815260040160405180910390fd5b600083815260026020908152604080832033845290915290205460ff16156109ea57604051637c9a1cf960e01b815260040160405180910390fd5b6109f481336111e8565b610a1157604051638d24d7c560e01b815260040160405180910390fd5b600083815260026020908152604080832033808552908352818420805460ff1990811660011790915587855260038452828520918552925290912080548415801591909316179055610a7957600481018054906000610a6f83611a5f565b9190505550610a91565b600581018054906000610a8b83611a5f565b91905055505b6040518215158152339084907fe71fcdac32df1877c1700e7bda2a03157e20993363a28fc35ac495cefc76e4d49060200160405180910390a360007f00000000000000000000000000000000000000000000000000000000000000006001600160a01b0316637d0eef616040518163ffffffff1660e01b8152600401602060405180830381865afa158015610b2a573d6000803e3d6000fd5b505050506040513d601f19601f82011682018060405250810190610b4e9190611c70565b9050808260040154101580610bf25750807f00000000000000000000000000000000000000000000000000000000000000006001600160a01b031663997072f76040518163ffffffff1660e01b8152600401602060405180830381865afa158015610bbd573d6000803e3d6000fd5b505050506040513d601f19601f82011682018060405250810190610be19190611c70565b610beb9190611c89565b8260050154115b80610c025750610c028285611252565b15610c1157610c1184826112d2565b5050610c2a6001600080516020611dd783398151915255565b5050565b6000610c3d6201518042611c9c565b905090565b6001602081905260009182526040909120805491810180546001600160a01b0390931692610c6f90611a8e565b80601f0160208091040260200160405190810160405280929190818152602001828054610c9b90611a8e565b8015610ce85780601f10610cbd57610100808354040283529160200191610ce8565b820191906000526020600020905b815481529060010190602001808311610ccb57829003601f168201915b505050505090806002018054610cfd90611a8e565b80601f0160208091040260200160405190810160405280929190818152602001828054610d2990611a8e565b8015610d765780601f10610d4b57610100808354040283529160200191610d76565b820191906000526020600020905b815481529060010190602001808311610d5957829003601f168201915b50505060038401546004850154600586015460068701546007880154600889015460098a0154600d909a01549899959894975092955060ff91821694909381831692610100909204821691168c565b610dcd6111cc565b6000548110610def5760405163c325ae3360e01b815260040160405180910390fd5b600081815260016020526040812090600682015460ff166002811115610e1757610e17611945565b14610e345760405162a997df60e81b815260040160405180910390fd5b80600801544211610e7e5760405162461bcd60e51b8152602060048201526014602482015273111958591b1a5b99481b9bdd081c995858da195960621b60448201526064016104d5565b60007f00000000000000000000000000000000000000000000000000000000000000006001600160a01b0316637d0eef616040518163ffffffff1660e01b8152600401602060405180830381865afa158015610ede573d6000803e3d6000fd5b505050506040513d601f19601f82011682018060405250810190610f029190611c70565b9050610f0e83826112d2565b505061086d6001600080516020611dd783398151915255565b610f2f611767565b6000548210610f515760405163c325ae3360e01b815260040160405180910390fd5b60008281526001602052604090819020815160608101909252600a0160038282826020028201915b81546001600160a01b03168152600190910190602001808311610f795750505050509050919050565b600060016000838152602001908152602001600020905060007f00000000000000000000000000000000000000000000000000000000000000006001600160a01b0316639eab52536040518163ffffffff1660e01b8152600401600060405180830381865afa158015611019573d6000803e3d6000fd5b505050506040513d6000823e601f3d908101601f191682016040526110419190810190611cce565b9050600061104d610c2e565b90506000805b835181108015611066575060038260ff16105b1561115b57600084828151811061107f5761107f611d93565b602090810291909101015186549091506001600160a01b03908116908216036110a85750611149565b6001600160a01b03811660009081526007602090815260408083208784529091529020546008116110d95750611149565b8086600a018460ff16600381106110f2576110f2611d93565b0180546001600160a01b0319166001600160a01b0392831617905581166000908152600760209081526040808320878452909152812080549161113483611a5f565b9190505550828061114490611da9565b935050505b8061115381611a5f565b915050611053565b508060ff166003146111af5760405162461bcd60e51b815260206004820152601960248201527f4e656564203320656c696769626c65207665726966696572730000000000000060448201526064016104d5565b600d93909301805460ff191660ff90941693909317909255505050565b6111d461139c565b6002600080516020611dd783398151915255565b6000805b600d84015460ff1681101561124657826001600160a01b031684600a01826003811061121a5761121a611d93565b01546001600160a01b03160361123457600191505061124c565b8061123e81611a5f565b9150506111ec565b50600090505b92915050565b6000805b600d84015460ff168110156112c857600083815260026020526040812090600a8601836003811061128957611289611d93565b01546001600160a01b0316815260208101919091526040016000205460ff166112b657600091505061124c565b806112c081611a5f565b915050611256565b5060019392505050565b60008281526001602052604090206004810154821161134c5760068101805460ff19166001179055611303816113ce565b61130e8360016114df565b827f0e9cb48757bd52e4ffd9f48c23c229bbe87f7ff9c8197d305db283fd2e5ddbe8600160405161133f9190611dc8565b60405180910390a2505050565b60068101805460ff191660021790556113668360006114df565b827f0e9cb48757bd52e4ffd9f48c23c229bbe87f7ff9c8197d305db283fd2e5ddbe8600260405161133f9190611dc8565b505050565b600080516020611dd7833981519152546002036113cc57604051633ee5aeb560e01b815260040160405180910390fd5b565b60006113d8610c2e565b600383015460008281526004602052604090205491925061012c916113fd9190611bcf565b116114cb57600382015460008281526004602052604081208054909190611425908490611bcf565b909155505060098201805461ff001916610100179055815460038301546040516340c10f1960e01b81526001600160a01b03928316600482015260248101919091527f0000000000000000000000000000000000000000000000000000000000000000909116906340c10f1990604401600060405180830381600087803b1580156114af57600080fd5b505af11580156114c3573d6000803e3d6000fd5b505050505050565b60098201805461ffff191660011790555050565b6000828152600160205260408120905b600d82015460ff1681101561176157600082600a01826003811061151557611515611d93565b015460008681526002602090815260408083206001600160a01b039094168084529390915290205490915060ff16806115e3576040516302fb4d8560e01b81526001600160a01b038381166004830152600260248301527f000000000000000000000000000000000000000000000000000000000000000016906302fb4d85906044016020604051808303816000875af11580156115b7573d6000803e3d6000fd5b505050506040513d601f19601f820116820180604052508101906115db9190611c70565b50505061174f565b60008681526003602090815260408083206001600160a01b038616845290915281205460ff16908680156116145750815b80611626575086158015611626575081155b905080156116b5576040516340c10f1960e01b81526001600160a01b038581166004830152600160248301527f000000000000000000000000000000000000000000000000000000000000000016906340c10f1990604401600060405180830381600087803b15801561169857600080fd5b505af11580156116ac573d6000803e3d6000fd5b5050505061174a565b6040516302fb4d8560e01b81526001600160a01b038581166004830152600560248301527f000000000000000000000000000000000000000000000000000000000000000016906302fb4d85906044016020604051808303816000875af1158015611724573d6000803e3d6000fd5b505050506040513d601f19601f820116820180604052508101906117489190611c70565b505b505050505b8061175981611a5f565b9150506114ef565b50505050565b60405180606001604052806003906020820280368337509192915050565b6001600160a01b038116811461086d57600080fd5b600080604083850312156117ad57600080fd5b82356117b881611785565b946020939093013593505050565b6000602082840312156117d857600080fd5b5035919050565b600080604083850312156117f257600080fd5b82359150602083013561180481611785565b809150509250929050565b60008083601f84011261182157600080fd5b50813567ffffffffffffffff81111561183957600080fd5b60208301915083602082850101111561185157600080fd5b9250929050565b60008060008060006060868803121561187057600080fd5b853567ffffffffffffffff8082111561188857600080fd5b61189489838a0161180f565b909750955060208801359150808211156118ad57600080fd5b506118ba8882890161180f565b96999598509660400135949350505050565b801515811461086d57600080fd5b600080604083850312156118ed57600080fd5b823591506020830135611804816118cc565b6000815180845260005b8181101561192557602081850181015186830182015201611909565b506000602082860101526020601f19601f83011685010191505092915050565b634e487b7160e01b600052602160045260246000fd5b6003811061197957634e487b7160e01b600052602160045260246000fd5b9052565b6001600160a01b038d168152610180602082018190526000906119a28382018f6118ff565b905082810360408401526119b6818e6118ff565b9150508a60608301528960808301528860a08301526119d860c083018961195b565b60e0820196909652610100810194909452911515610120840152151561014083015260ff1661016090910152979650505050505050565b60608101818360005b6003811015611a405781516001600160a01b0316835260209283019290910190600101611a18565b50505092915050565b634e487b7160e01b600052601160045260246000fd5b600060018201611a7157611a71611a49565b5060010190565b634e487b7160e01b600052604160045260246000fd5b600181811c90821680611aa257607f821691505b602082108103611ac257634e487b7160e01b600052602260045260246000fd5b50919050565b601f82111561139757600081815260208120601f850160051c81016020861015611aef5750805b601f850160051c820191505b818110156114c357828155600101611afb565b67ffffffffffffffff831115611b2657611b26611a78565b611b3a83611b348354611a8e565b83611ac8565b6000601f841160018114611b6e5760008515611b565750838201355b600019600387901b1c1916600186901b178355611bc8565b600083815260209020601f19861690835b82811015611b9f5786850135825560209485019460019092019101611b7f565b5086821015611bbc5760001960f88860031b161c19848701351681555b505060018560011b0183555b5050505050565b8082018082111561124c5761124c611a49565b604081528260408201528284606083013760006060848301015260006060601f19601f8601168301019050826020830152949350505050565b60608101818360005b6003811015611a405781546001600160a01b0316835260209092019160019182019101611c24565b600060208284031215611c5e57600080fd5b8151611c69816118cc565b9392505050565b600060208284031215611c8257600080fd5b5051919050565b8181038181111561124c5761124c611a49565b600082611cb957634e487b7160e01b600052601260045260246000fd5b500490565b8051611cc981611785565b919050565b60006020808385031215611ce157600080fd5b825167ffffffffffffffff80821115611cf957600080fd5b818501915085601f830112611d0d57600080fd5b815181811115611d1f57611d1f611a78565b8060051b604051601f19603f83011681018181108582111715611d4457611d44611a78565b604052918252848201925083810185019188831115611d6257600080fd5b938501935b82851015611d8757611d7885611cbe565b84529385019392850192611d67565b98975050505050505050565b634e487b7160e01b600052603260045260246000fd5b600060ff821660ff8103611dbf57611dbf611a49565b60010192915050565b6020810161124c828461195b56fe9b779b17422d0df92223018b32b4d1fa46e071723d6817e2486d003becc55f00a26469706673582212206c0020a85989bb303e563df95ddf9840128421e7936fd98bcb8c4ea738d0a45164736f6c63430008140033","opcodes":"PUSH1 0xE0 PUSH1 0x40 MSTORE CALLVALUE DUP1 ISZERO PUSH3 0x11 JUMPI PUSH1 0x0 DUP1 REVERT JUMPDEST POP PUSH1 0x40 MLOAD PUSH3 0x1F7F CODESIZE SUB DUP1 PUSH3 0x1F7F DUP4 CODECOPY DUP2 ADD PUSH1 0x40 DUP2 SWAP1 MSTORE PUSH3 0x34 SWAP2 PUSH3 0x93 JUMP JUMPDEST PUSH1 0x1 PUSH32 0x9B779B17422D0DF92223018B32B4D1FA46E071723D6817E2486D003BECC55F00 SSTORE PUSH1 0x1 PUSH1 0x1 PUSH1 0xA0 SHL SUB SWAP3 DUP4 AND PUSH1 0x80 MSTORE SWAP1 DUP3 AND PUSH1 0xA0 MSTORE AND PUSH1 0xC0 MSTORE PUSH3 0xDD JUMP JUMPDEST DUP1 MLOAD PUSH1 0x1 PUSH1 0x1 PUSH1 0xA0 SHL SUB DUP2 AND DUP2 EQ PUSH3 0x8E JUMPI PUSH1 0x0 DUP1 REVERT JUMPDEST SWAP2 SWAP1 POP JUMP JUMPDEST PUSH1 0x0 DUP1 PUSH1 0x0 PUSH1 0x60 DUP5 DUP7 SUB SLT ISZERO PUSH3 0xA9 JUMPI PUSH1 0x0 DUP1 REVERT JUMPDEST PUSH3 0xB4 DUP5 PUSH3 0x76 JUMP JUMPDEST SWAP3 POP PUSH3 0xC4 PUSH1 0x20 DUP6 ADD PUSH3 0x76 JUMP JUMPDEST SWAP2 POP PUSH3 0xD4 PUSH1 0x40 DUP6 ADD PUSH3 0x76 JUMP JUMPDEST SWAP1 POP SWAP3 POP SWAP3 POP SWAP3 JUMP JUMPDEST PUSH1 0x80 MLOAD PUSH1 0xA0 MLOAD PUSH1 0xC0 MLOAD PUSH2 0x1E2C PUSH3 0x153 PUSH1 0x0 CODECOPY PUSH1 0x0 DUP2 DUP2 PUSH2 0x31A ADD MSTORE DUP2 DUP2 PUSH2 0x885 ADD MSTORE DUP2 DUP2 PUSH2 0xACE ADD MSTORE DUP2 DUP2 PUSH2 0xB61 ADD MSTORE DUP2 DUP2 PUSH2 0xE82 ADD MSTORE PUSH2 0xFBD ADD MSTORE PUSH1 0x0 DUP2 DUP2 PUSH2 0x3A9 ADD MSTORE PUSH2 0x1654 ADD MSTORE PUSH1 0x0 DUP2 DUP2 PUSH2 0x198 ADD MSTORE DUP2 DUP2 PUSH2 0x7AE ADD MSTORE DUP2 DUP2 PUSH2 0x1469 ADD MSTORE DUP2 DUP2 PUSH2 0x156E ADD MSTORE PUSH2 0x16DB ADD MSTORE PUSH2 0x1E2C PUSH1 0x0 RETURN INVALID PUSH1 0x80 PUSH1 0x40 MSTORE CALLVALUE DUP1 ISZERO PUSH2 0x10 JUMPI PUSH1 0x0 DUP1 REVERT JUMPDEST POP PUSH1 0x4 CALLDATASIZE LT PUSH2 0x18E JUMPI PUSH1 0x0 CALLDATALOAD PUSH1 0xE0 SHR DUP1 PUSH4 0x698EDA8D GT PUSH2 0xDE JUMPI DUP1 PUSH4 0xD2D81655 GT PUSH2 0x97 JUMPI DUP1 PUSH4 0xE728E1AC GT PUSH2 0x71 JUMPI DUP1 PUSH4 0xE728E1AC EQ PUSH2 0x39B JUMPI DUP1 PUSH4 0xF7C618C1 EQ PUSH2 0x3A4 JUMPI DUP1 PUSH4 0xFB468855 EQ PUSH2 0x3CB JUMPI DUP1 PUSH4 0xFC55383C EQ PUSH2 0x3F9 JUMPI PUSH1 0x0 DUP1 REVERT JUMPDEST DUP1 PUSH4 0xD2D81655 EQ PUSH2 0x367 JUMPI DUP1 PUSH4 0xD52FFB91 EQ PUSH2 0x380 JUMPI DUP1 PUSH4 0xE163FB2F EQ PUSH2 0x388 JUMPI PUSH1 0x0 DUP1 REVERT JUMPDEST DUP1 PUSH4 0x698EDA8D EQ PUSH2 0x305 JUMPI DUP1 PUSH4 0x7E8611E2 EQ PUSH2 0x315 JUMPI DUP1 PUSH4 0x8D977672 EQ PUSH2 0x33C JUMPI DUP1 PUSH4 0xAF19BEA0 EQ PUSH2 0x367 JUMPI DUP1 PUSH4 0xB49E80F4 EQ PUSH2 0x36F JUMPI DUP1 PUSH4 0xB6CB58A5 EQ PUSH2 0x377 JUMPI PUSH1 0x0 DUP1 REVERT JUMPDEST DUP1 PUSH4 0x3A291BC1 GT PUSH2 0x14B JUMPI DUP1 PUSH4 0x4E6F0858 GT PUSH2 0x125 JUMPI DUP1 PUSH4 0x4E6F0858 EQ PUSH2 0x2DD JUMPI DUP1 PUSH4 0x54E473C6 EQ PUSH2 0x2F2 JUMPI DUP1 PUSH4 0x5977E4E2 EQ PUSH2 0x305 JUMPI DUP1 PUSH4 0x5C9302C9 EQ PUSH2 0x30D JUMPI PUSH1 0x0 DUP1 REVERT JUMPDEST DUP1 PUSH4 0x3A291BC1 EQ PUSH2 0x26C JUMPI DUP1 PUSH4 0x43859632 EQ PUSH2 0x28C JUMPI DUP1 PUSH4 0x492E5F27 EQ PUSH2 0x2CA JUMPI PUSH1 0x0 DUP1 REVERT JUMPDEST DUP1 PUSH4 0x2B32AF5 EQ PUSH2 0x193 JUMPI DUP1 PUSH4 0x2832BCB5 EQ PUSH2 0x1D7 JUMPI DUP1 PUSH4 0x2B05638C EQ PUSH2 0x1EE JUMPI DUP1 PUSH4 0x34352D81 EQ PUSH2 0x1F6 JUMPI DUP1 PUSH4 0x34D9A396 EQ PUSH2 0x221 JUMPI DUP1 PUSH4 0x39E4E6CE EQ PUSH2 0x24C JUMPI JUMPDEST PUSH1 0x0 DUP1 REVERT JUMPDEST PUSH2 0x1BA PUSH32 0x0 DUP2 JUMP JUMPDEST PUSH1 0x40 MLOAD PUSH1 0x1 PUSH1 0x1 PUSH1 0xA0 SHL SUB SWAP1 SWAP2 AND DUP2 MSTORE PUSH1 0x20 ADD JUMPDEST PUSH1 0x40 MLOAD DUP1 SWAP2 SUB SWAP1 RETURN JUMPDEST PUSH2 0x1E0 PUSH2 0x12C DUP2 JUMP JUMPDEST PUSH1 0x40 MLOAD SWAP1 DUP2 MSTORE PUSH1 0x20 ADD PUSH2 0x1CE JUMP JUMPDEST PUSH2 0x1E0 PUSH1 0x8 DUP2 JUMP JUMPDEST PUSH2 0x1E0 PUSH2 0x204 CALLDATASIZE PUSH1 0x4 PUSH2 0x179A JUMP JUMPDEST PUSH1 0x7 PUSH1 0x20 SWAP1 DUP2 MSTORE PUSH1 0x0 SWAP3 DUP4 MSTORE PUSH1 0x40 DUP1 DUP5 KECCAK256 SWAP1 SWAP2 MSTORE SWAP1 DUP3 MSTORE SWAP1 KECCAK256 SLOAD DUP2 JUMP JUMPDEST PUSH2 0x1E0 PUSH2 0x22F CALLDATASIZE PUSH1 0x4 PUSH2 0x179A JUMP JUMPDEST PUSH1 0x6 PUSH1 0x20 SWAP1 DUP2 MSTORE PUSH1 0x0 SWAP3 DUP4 MSTORE PUSH1 0x40 DUP1 DUP5 KECCAK256 SWAP1 SWAP2 MSTORE SWAP1 DUP3 MSTORE SWAP1 KECCAK256 SLOAD DUP2 JUMP JUMPDEST PUSH2 0x1E0 PUSH2 0x25A CALLDATASIZE PUSH1 0x4 PUSH2 0x17C6 JUMP JUMPDEST PUSH1 0x4 PUSH1 0x20 MSTORE PUSH1 0x0 SWAP1 DUP2 MSTORE PUSH1 0x40 SWAP1 KECCAK256 SLOAD DUP2 JUMP JUMPDEST PUSH2 0x1E0 PUSH2 0x27A CALLDATASIZE PUSH1 0x4 PUSH2 0x17C6 JUMP JUMPDEST PUSH1 0x5 PUSH1 0x20 MSTORE PUSH1 0x0 SWAP1 DUP2 MSTORE PUSH1 0x40 SWAP1 KECCAK256 SLOAD DUP2 JUMP JUMPDEST PUSH2 0x2BA PUSH2 0x29A CALLDATASIZE PUSH1 0x4 PUSH2 0x17DF JUMP JUMPDEST PUSH1 0x2 PUSH1 0x20 SWAP1 DUP2 MSTORE PUSH1 0x0 SWAP3 DUP4 MSTORE PUSH1 0x40 DUP1 DUP5 KECCAK256 SWAP1 SWAP2 MSTORE SWAP1 DUP3 MSTORE SWAP1 KECCAK256 SLOAD PUSH1 0xFF AND DUP2 JUMP JUMPDEST PUSH1 0x40 MLOAD SWAP1 ISZERO ISZERO DUP2 MSTORE PUSH1 0x20 ADD PUSH2 0x1CE JUMP JUMPDEST PUSH2 0x1E0 PUSH2 0x2D8 CALLDATASIZE PUSH1 0x4 PUSH2 0x1858 JUMP JUMPDEST PUSH2 0x419 JUMP JUMPDEST PUSH2 0x2F0 PUSH2 0x2EB CALLDATASIZE PUSH1 0x4 PUSH2 0x17C6 JUMP JUMPDEST PUSH2 0x63F JUMP JUMPDEST STOP JUMPDEST PUSH2 0x2F0 PUSH2 0x300 CALLDATASIZE PUSH1 0x4 PUSH2 0x18DA JUMP JUMPDEST PUSH2 0x870 JUMP JUMPDEST PUSH2 0x1E0 PUSH1 0x5 DUP2 JUMP JUMPDEST PUSH2 0x1E0 PUSH2 0xC2E JUMP JUMPDEST PUSH2 0x1BA PUSH32 0x0 DUP2 JUMP JUMPDEST PUSH2 0x34F PUSH2 0x34A CALLDATASIZE PUSH1 0x4 PUSH2 0x17C6 JUMP JUMPDEST PUSH2 0xC42 JUMP JUMPDEST PUSH1 0x40 MLOAD PUSH2 0x1CE SWAP13 SWAP12 SWAP11 SWAP10 SWAP9 SWAP8 SWAP7 SWAP6 SWAP5 SWAP4 SWAP3 SWAP2 SWAP1 PUSH2 0x197D JUMP JUMPDEST PUSH2 0x1E0 PUSH1 0x2 DUP2 JUMP JUMPDEST PUSH2 0x1E0 PUSH1 0x1 DUP2 JUMP JUMPDEST PUSH2 0x1E0 PUSH1 0x0 SLOAD DUP2 JUMP JUMPDEST PUSH2 0x1E0 PUSH1 0x3C DUP2 JUMP JUMPDEST PUSH2 0x2F0 PUSH2 0x396 CALLDATASIZE PUSH1 0x4 PUSH2 0x17C6 JUMP JUMPDEST PUSH2 0xDC5 JUMP JUMPDEST PUSH2 0x1E0 PUSH2 0xA8C0 DUP2 JUMP JUMPDEST PUSH2 0x1BA PUSH32 0x0 DUP2 JUMP JUMPDEST PUSH2 0x2BA PUSH2 0x3D9 CALLDATASIZE PUSH1 0x4 PUSH2 0x17DF JUMP JUMPDEST PUSH1 0x3 PUSH1 0x20 SWAP1 DUP2 MSTORE PUSH1 0x0 SWAP3 DUP4 MSTORE PUSH1 0x40 DUP1 DUP5 KECCAK256 SWAP1 SWAP2 MSTORE SWAP1 DUP3 MSTORE SWAP1 KECCAK256 SLOAD PUSH1 0xFF AND DUP2 JUMP JUMPDEST PUSH2 0x40C PUSH2 0x407 CALLDATASIZE PUSH1 0x4 PUSH2 0x17C6 JUMP JUMPDEST PUSH2 0xF27 JUMP JUMPDEST PUSH1 0x40 MLOAD PUSH2 0x1CE SWAP2 SWAP1 PUSH2 0x1A0F JUMP JUMPDEST PUSH1 0x0 DUP1 PUSH2 0x424 PUSH2 0xC2E JUMP JUMPDEST SWAP1 POP PUSH1 0x5 DUP4 EQ PUSH2 0x447 JUMPI PUSH1 0x40 MLOAD PUSH4 0x14414F41 PUSH1 0xE1 SHL DUP2 MSTORE PUSH1 0x4 ADD PUSH1 0x40 MLOAD DUP1 SWAP2 SUB SWAP1 REVERT JUMPDEST CALLER PUSH1 0x0 SWAP1 DUP2 MSTORE PUSH1 0x6 PUSH1 0x20 SWAP1 DUP2 MSTORE PUSH1 0x40 DUP1 DUP4 KECCAK256 DUP5 DUP5 MSTORE SWAP1 SWAP2 MSTORE SWAP1 KECCAK256 SLOAD PUSH1 0x2 GT PUSH2 0x482 JUMPI PUSH1 0x40 MLOAD PUSH4 0xC3D181A1 PUSH1 0xE0 SHL DUP2 MSTORE PUSH1 0x4 ADD PUSH1 0x40 MLOAD DUP1 SWAP2 SUB SWAP1 REVERT JUMPDEST PUSH1 0x0 DUP2 DUP2 MSTORE PUSH1 0x5 PUSH1 0x20 MSTORE PUSH1 0x40 SWAP1 KECCAK256 SLOAD PUSH1 0x3C GT PUSH2 0x4DE JUMPI PUSH1 0x40 MLOAD PUSH3 0x461BCD PUSH1 0xE5 SHL DUP2 MSTORE PUSH1 0x20 PUSH1 0x4 DUP3 ADD MSTORE PUSH1 0x16 PUSH1 0x24 DUP3 ADD MSTORE PUSH22 0x11185A5B1E481D185CDAC818D85C081C995858DA1959 PUSH1 0x52 SHL PUSH1 0x44 DUP3 ADD MSTORE PUSH1 0x64 ADD JUMPDEST PUSH1 0x40 MLOAD DUP1 SWAP2 SUB SWAP1 REVERT JUMPDEST PUSH1 0x0 DUP1 SLOAD SWAP1 DUP1 PUSH2 0x4ED DUP4 PUSH2 0x1A5F JUMP JUMPDEST SWAP1 SWAP2 SSTORE POP PUSH1 0x0 DUP2 DUP2 MSTORE PUSH1 0x1 PUSH1 0x20 DUP2 SWAP1 MSTORE PUSH1 0x40 SWAP1 SWAP2 KECCAK256 DUP1 SLOAD PUSH1 0x1 PUSH1 0x1 PUSH1 0xA0 SHL SUB NOT AND CALLER OR DUP2 SSTORE SWAP2 SWAP4 POP DUP2 ADD PUSH2 0x522 DUP9 DUP11 DUP4 PUSH2 0x1B0E JUMP JUMPDEST POP PUSH1 0x2 DUP2 ADD PUSH2 0x532 DUP7 DUP9 DUP4 PUSH2 0x1B0E JUMP JUMPDEST POP PUSH1 0x3 DUP2 ADD DUP5 SWAP1 SSTORE PUSH1 0x6 DUP2 ADD DUP1 SLOAD PUSH1 0xFF NOT AND SWAP1 SSTORE TIMESTAMP PUSH1 0x7 DUP3 ADD DUP2 SWAP1 SSTORE PUSH2 0x55B SWAP1 PUSH2 0xA8C0 SWAP1 PUSH2 0x1BCF JUMP JUMPDEST PUSH1 0x8 DUP3 ADD SSTORE CALLER PUSH1 0x0 SWAP1 DUP2 MSTORE PUSH1 0x6 PUSH1 0x20 SWAP1 DUP2 MSTORE PUSH1 0x40 DUP1 DUP4 KECCAK256 DUP6 DUP5 MSTORE SWAP1 SWAP2 MSTORE DUP2 KECCAK256 DUP1 SLOAD SWAP2 PUSH2 0x586 DUP4 PUSH2 0x1A5F JUMP JUMPDEST SWAP1 SWAP2 SSTORE POP POP PUSH1 0x0 DUP3 DUP2 MSTORE PUSH1 0x5 PUSH1 0x20 MSTORE PUSH1 0x40 DUP2 KECCAK256 DUP1 SLOAD SWAP2 PUSH2 0x5A5 DUP4 PUSH2 0x1A5F JUMP JUMPDEST SWAP2 SWAP1 POP SSTORE POP PUSH2 0x5B3 DUP4 PUSH2 0xFA2 JUMP JUMPDEST CALLER PUSH1 0x1 PUSH1 0x1 PUSH1 0xA0 SHL SUB AND DUP4 PUSH32 0x30BD2A1DA314BECC79AC913F35A1FFBEB59F76EAA3C9CACD2F18644BADC13D39 DUP11 DUP11 DUP9 PUSH1 0x40 MLOAD PUSH2 0x5F1 SWAP4 SWAP3 SWAP2 SWAP1 PUSH2 0x1BE2 JUMP JUMPDEST PUSH1 0x40 MLOAD DUP1 SWAP2 SUB SWAP1 LOG3 DUP3 PUSH32 0x411445E4BE669981D37ABE27F9F4AC81C75FDA1829CC33418F915664B5EB463D DUP3 PUSH1 0xA ADD PUSH1 0x40 MLOAD PUSH2 0x62C SWAP2 SWAP1 PUSH2 0x1C1B JUMP JUMPDEST PUSH1 0x40 MLOAD DUP1 SWAP2 SUB SWAP1 LOG2 POP POP SWAP6 SWAP5 POP POP POP POP POP JUMP JUMPDEST PUSH2 0x647 PUSH2 0x11CC JUMP JUMPDEST PUSH1 0x0 SLOAD DUP2 LT PUSH2 0x669 JUMPI PUSH1 0x40 MLOAD PUSH4 0xC325AE33 PUSH1 0xE0 SHL DUP2 MSTORE PUSH1 0x4 ADD PUSH1 0x40 MLOAD DUP1 SWAP2 SUB SWAP1 REVERT JUMPDEST PUSH1 0x0 DUP2 DUP2 MSTORE PUSH1 0x1 PUSH1 0x20 MSTORE PUSH1 0x40 DUP2 KECCAK256 SWAP1 PUSH2 0x680 PUSH2 0xC2E JUMP JUMPDEST DUP3 SLOAD SWAP1 SWAP2 POP PUSH1 0x1 PUSH1 0x1 PUSH1 0xA0 SHL SUB AND CALLER EQ PUSH2 0x6CC JUMPI PUSH1 0x40 MLOAD PUSH3 0x461BCD PUSH1 0xE5 SHL DUP2 MSTORE PUSH1 0x20 PUSH1 0x4 DUP3 ADD MSTORE PUSH1 0xD PUSH1 0x24 DUP3 ADD MSTORE PUSH13 0x2737BA1039BAB136B4BA3A32B9 PUSH1 0x99 SHL PUSH1 0x44 DUP3 ADD MSTORE PUSH1 0x64 ADD PUSH2 0x4D5 JUMP JUMPDEST PUSH1 0x9 DUP3 ADD SLOAD PUSH1 0xFF AND ISZERO DUP1 PUSH2 0x6E9 JUMPI POP PUSH1 0x9 DUP3 ADD SLOAD PUSH2 0x100 SWAP1 DIV PUSH1 0xFF AND JUMPDEST ISZERO PUSH2 0x707 JUMPI PUSH1 0x40 MLOAD PUSH4 0x1440AC1 PUSH1 0xE2 SHL DUP2 MSTORE PUSH1 0x4 ADD PUSH1 0x40 MLOAD DUP1 SWAP2 SUB SWAP1 REVERT JUMPDEST PUSH1 0x3 DUP3 ADD SLOAD PUSH1 0x0 DUP3 DUP2 MSTORE PUSH1 0x4 PUSH1 0x20 MSTORE PUSH1 0x40 SWAP1 KECCAK256 SLOAD PUSH2 0x12C SWAP2 PUSH2 0x728 SWAP2 PUSH2 0x1BCF JUMP JUMPDEST GT ISZERO PUSH2 0x747 JUMPI PUSH1 0x40 MLOAD PUSH4 0x3794469B PUSH1 0xE1 SHL DUP2 MSTORE PUSH1 0x4 ADD PUSH1 0x40 MLOAD DUP1 SWAP2 SUB SWAP1 REVERT JUMPDEST PUSH1 0x3 DUP3 ADD SLOAD PUSH1 0x0 DUP3 DUP2 MSTORE PUSH1 0x4 PUSH1 0x20 MSTORE PUSH1 0x40 DUP2 KECCAK256 DUP1 SLOAD SWAP1 SWAP2 SWAP1 PUSH2 0x76A SWAP1 DUP5 SWAP1 PUSH2 0x1BCF JUMP JUMPDEST SWAP1 SWAP2 SSTORE POP POP PUSH1 0x9 DUP3 ADD DUP1 SLOAD PUSH2 0xFF00 NOT AND PUSH2 0x100 OR SWAP1 SSTORE DUP2 SLOAD PUSH1 0x3 DUP4 ADD SLOAD PUSH1 0x40 MLOAD PUSH4 0x40C10F19 PUSH1 0xE0 SHL DUP2 MSTORE PUSH1 0x1 PUSH1 0x1 PUSH1 0xA0 SHL SUB SWAP3 DUP4 AND PUSH1 0x4 DUP3 ADD MSTORE PUSH1 0x24 DUP2 ADD SWAP2 SWAP1 SWAP2 MSTORE PUSH32 0x0 SWAP1 SWAP2 AND SWAP1 PUSH4 0x40C10F19 SWAP1 PUSH1 0x44 ADD PUSH1 0x0 PUSH1 0x40 MLOAD DUP1 DUP4 SUB DUP2 PUSH1 0x0 DUP8 DUP1 EXTCODESIZE ISZERO DUP1 ISZERO PUSH2 0x7F4 JUMPI PUSH1 0x0 DUP1 REVERT JUMPDEST POP GAS CALL ISZERO DUP1 ISZERO PUSH2 0x808 JUMPI RETURNDATASIZE PUSH1 0x0 DUP1 RETURNDATACOPY RETURNDATASIZE PUSH1 0x0 REVERT JUMPDEST POP POP POP POP CALLER PUSH1 0x1 PUSH1 0x1 PUSH1 0xA0 SHL SUB AND DUP4 PUSH32 0xB413B8E706ED9B9CEC171152EEDF8526E9DDFFD7DE8AC78D3AA9EA89E4D55492 DUP5 PUSH1 0x3 ADD SLOAD PUSH1 0x40 MLOAD PUSH2 0x84C SWAP2 DUP2 MSTORE PUSH1 0x20 ADD SWAP1 JUMP JUMPDEST PUSH1 0x40 MLOAD DUP1 SWAP2 SUB SWAP1 LOG3 POP POP PUSH2 0x86D PUSH1 0x1 PUSH1 0x0 DUP1 MLOAD PUSH1 0x20 PUSH2 0x1DD7 DUP4 CODECOPY DUP2 MLOAD SWAP2 MSTORE SSTORE JUMP JUMPDEST POP JUMP JUMPDEST PUSH1 0x40 MLOAD PUSH4 0xE636D84B PUSH1 0xE0 SHL DUP2 MSTORE CALLER PUSH1 0x4 DUP3 ADD MSTORE PUSH32 0x0 PUSH1 0x1 PUSH1 0x1 PUSH1 0xA0 SHL SUB AND SWAP1 PUSH4 0xE636D84B SWAP1 PUSH1 0x24 ADD PUSH1 0x20 PUSH1 0x40 MLOAD DUP1 DUP4 SUB DUP2 DUP7 GAS STATICCALL ISZERO DUP1 ISZERO PUSH2 0x8D4 JUMPI RETURNDATASIZE PUSH1 0x0 DUP1 RETURNDATACOPY RETURNDATASIZE PUSH1 0x0 REVERT JUMPDEST POP POP POP POP PUSH1 0x40 MLOAD RETURNDATASIZE PUSH1 0x1F NOT PUSH1 0x1F DUP3 ADD AND DUP3 ADD DUP1 PUSH1 0x40 MSTORE POP DUP2 ADD SWAP1 PUSH2 0x8F8 SWAP2 SWAP1 PUSH2 0x1C4C JUMP JUMPDEST PUSH2 0x915 JUMPI PUSH1 0x40 MLOAD PUSH4 0x47CA878B PUSH1 0xE1 SHL DUP2 MSTORE PUSH1 0x4 ADD PUSH1 0x40 MLOAD DUP1 SWAP2 SUB SWAP1 REVERT JUMPDEST PUSH2 0x91D PUSH2 0x11CC JUMP JUMPDEST PUSH1 0x0 SLOAD DUP3 LT PUSH2 0x93F JUMPI PUSH1 0x40 MLOAD PUSH4 0xC325AE33 PUSH1 0xE0 SHL DUP2 MSTORE PUSH1 0x4 ADD PUSH1 0x40 MLOAD DUP1 SWAP2 SUB SWAP1 REVERT JUMPDEST PUSH1 0x0 DUP3 DUP2 MSTORE PUSH1 0x1 PUSH1 0x20 MSTORE PUSH1 0x40 SWAP1 KECCAK256 DUP1 SLOAD PUSH1 0x1 PUSH1 0x1 PUSH1 0xA0 SHL SUB AND CALLER SUB PUSH2 0x977 JUMPI PUSH1 0x40 MLOAD PUSH4 0xB94F6231 PUSH1 0xE0 SHL DUP2 MSTORE PUSH1 0x4 ADD PUSH1 0x40 MLOAD DUP1 SWAP2 SUB SWAP1 REVERT JUMPDEST PUSH1 0x0 PUSH1 0x6 DUP3 ADD SLOAD PUSH1 0xFF AND PUSH1 0x2 DUP2 GT ISZERO PUSH2 0x992 JUMPI PUSH2 0x992 PUSH2 0x1945 JUMP JUMPDEST EQ PUSH2 0x9AF JUMPI PUSH1 0x40 MLOAD PUSH3 0xA997DF PUSH1 0xE8 SHL DUP2 MSTORE PUSH1 0x4 ADD PUSH1 0x40 MLOAD DUP1 SWAP2 SUB SWAP1 REVERT JUMPDEST PUSH1 0x0 DUP4 DUP2 MSTORE PUSH1 0x2 PUSH1 0x20 SWAP1 DUP2 MSTORE PUSH1 0x40 DUP1 DUP4 KECCAK256 CALLER DUP5 MSTORE SWAP1 SWAP2 MSTORE SWAP1 KECCAK256 SLOAD PUSH1 0xFF AND ISZERO PUSH2 0x9EA JUMPI PUSH1 0x40 MLOAD PUSH4 0x7C9A1CF9 PUSH1 0xE0 SHL DUP2 MSTORE PUSH1 0x4 ADD PUSH1 0x40 MLOAD DUP1 SWAP2 SUB SWAP1 REVERT JUMPDEST PUSH2 0x9F4 DUP2 CALLER PUSH2 0x11E8 JUMP JUMPDEST PUSH2 0xA11 JUMPI PUSH1 0x40 MLOAD PUSH4 0x8D24D7C5 PUSH1 0xE0 SHL DUP2 MSTORE PUSH1 0x4 ADD PUSH1 0x40 MLOAD DUP1 SWAP2 SUB SWAP1 REVERT JUMPDEST PUSH1 0x0 DUP4 DUP2 MSTORE PUSH1 0x2 PUSH1 0x20 SWAP1 DUP2 MSTORE PUSH1 0x40 DUP1 DUP4 KECCAK256 CALLER DUP1 DUP6 MSTORE SWAP1 DUP4 MSTORE DUP2 DUP5 KECCAK256 DUP1 SLOAD PUSH1 0xFF NOT SWAP1 DUP2 AND PUSH1 0x1 OR SWAP1 SWAP2 SSTORE DUP8 DUP6 MSTORE PUSH1 0x3 DUP5 MSTORE DUP3 DUP6 KECCAK256 SWAP2 DUP6 MSTORE SWAP3 MSTORE SWAP1 SWAP2 KECCAK256 DUP1 SLOAD DUP5 ISZERO DUP1 ISZERO SWAP2 SWAP1 SWAP4 AND OR SWAP1 SSTORE PUSH2 0xA79 JUMPI PUSH1 0x4 DUP2 ADD DUP1 SLOAD SWAP1 PUSH1 0x0 PUSH2 0xA6F DUP4 PUSH2 0x1A5F JUMP JUMPDEST SWAP2 SWAP1 POP SSTORE POP PUSH2 0xA91 JUMP JUMPDEST PUSH1 0x5 DUP2 ADD DUP1 SLOAD SWAP1 PUSH1 0x0 PUSH2 0xA8B DUP4 PUSH2 0x1A5F JUMP JUMPDEST SWAP2 SWAP1 POP SSTORE POP JUMPDEST PUSH1 0x40 MLOAD DUP3 ISZERO ISZERO DUP2 MSTORE CALLER SWAP1 DUP5 SWAP1 PUSH32 0xE71FCDAC32DF1877C1700E7BDA2A03157E20993363A28FC35AC495CEFC76E4D4 SWAP1 PUSH1 0x20 ADD PUSH1 0x40 MLOAD DUP1 SWAP2 SUB SWAP1 LOG3 PUSH1 0x0 PUSH32 0x0 PUSH1 0x1 PUSH1 0x1 PUSH1 0xA0 SHL SUB AND PUSH4 0x7D0EEF61 PUSH1 0x40 MLOAD DUP2 PUSH4 0xFFFFFFFF AND PUSH1 0xE0 SHL DUP2 MSTORE PUSH1 0x4 ADD PUSH1 0x20 PUSH1 0x40 MLOAD DUP1 DUP4 SUB DUP2 DUP7 GAS STATICCALL ISZERO DUP1 ISZERO PUSH2 0xB2A JUMPI RETURNDATASIZE PUSH1 0x0 DUP1 RETURNDATACOPY RETURNDATASIZE PUSH1 0x0 REVERT JUMPDEST POP POP POP POP PUSH1 0x40 MLOAD RETURNDATASIZE PUSH1 0x1F NOT PUSH1 0x1F DUP3 ADD AND DUP3 ADD DUP1 PUSH1 0x40 MSTORE POP DUP2 ADD SWAP1 PUSH2 0xB4E SWAP2 SWAP1 PUSH2 0x1C70 JUMP JUMPDEST SWAP1 POP DUP1 DUP3 PUSH1 0x4 ADD SLOAD LT ISZERO DUP1 PUSH2 0xBF2 JUMPI POP DUP1 PUSH32 0x0 PUSH1 0x1 PUSH1 0x1 PUSH1 0xA0 SHL SUB AND PUSH4 0x997072F7 PUSH1 0x40 MLOAD DUP2 PUSH4 0xFFFFFFFF AND PUSH1 0xE0 SHL DUP2 MSTORE PUSH1 0x4 ADD PUSH1 0x20 PUSH1 0x40 MLOAD DUP1 DUP4 SUB DUP2 DUP7 GAS STATICCALL ISZERO DUP1 ISZERO PUSH2 0xBBD JUMPI RETURNDATASIZE PUSH1 0x0 DUP1 RETURNDATACOPY RETURNDATASIZE PUSH1 0x0 REVERT JUMPDEST POP POP POP POP PUSH1 0x40 MLOAD RETURNDATASIZE PUSH1 0x1F NOT PUSH1 0x1F DUP3 ADD AND DUP3 ADD DUP1 PUSH1 0x40 MSTORE POP DUP2 ADD SWAP1 PUSH2 0xBE1 SWAP2 SWAP1 PUSH2 0x1C70 JUMP JUMPDEST PUSH2 0xBEB SWAP2 SWAP1 PUSH2 0x1C89 JUMP JUMPDEST DUP3 PUSH1 0x5 ADD SLOAD GT JUMPDEST DUP1 PUSH2 0xC02 JUMPI POP PUSH2 0xC02 DUP3 DUP6 PUSH2 0x1252 JUMP JUMPDEST ISZERO PUSH2 0xC11 JUMPI PUSH2 0xC11 DUP5 DUP3 PUSH2 0x12D2 JUMP JUMPDEST POP POP PUSH2 0xC2A PUSH1 0x1 PUSH1 0x0 DUP1 MLOAD PUSH1 0x20 PUSH2 0x1DD7 DUP4 CODECOPY DUP2 MLOAD SWAP2 MSTORE SSTORE JUMP JUMPDEST POP POP JUMP JUMPDEST PUSH1 0x0 PUSH2 0xC3D PUSH3 0x15180 TIMESTAMP PUSH2 0x1C9C JUMP JUMPDEST SWAP1 POP SWAP1 JUMP JUMPDEST PUSH1 0x1 PUSH1 0x20 DUP2 SWAP1 MSTORE PUSH1 0x0 SWAP2 DUP3 MSTORE PUSH1 0x40 SWAP1 SWAP2 KECCAK256 DUP1 SLOAD SWAP2 DUP2 ADD DUP1 SLOAD PUSH1 0x1 PUSH1 0x1 PUSH1 0xA0 SHL SUB SWAP1 SWAP4 AND SWAP3 PUSH2 0xC6F SWAP1 PUSH2 0x1A8E JUMP JUMPDEST DUP1 PUSH1 0x1F ADD PUSH1 0x20 DUP1 SWAP2 DIV MUL PUSH1 0x20 ADD PUSH1 0x40 MLOAD SWAP1 DUP2 ADD PUSH1 0x40 MSTORE DUP1 SWAP3 SWAP2 SWAP1 DUP2 DUP2 MSTORE PUSH1 0x20 ADD DUP3 DUP1 SLOAD PUSH2 0xC9B SWAP1 PUSH2 0x1A8E JUMP JUMPDEST DUP1 ISZERO PUSH2 0xCE8 JUMPI DUP1 PUSH1 0x1F LT PUSH2 0xCBD JUMPI PUSH2 0x100 DUP1 DUP4 SLOAD DIV MUL DUP4 MSTORE SWAP2 PUSH1 0x20 ADD SWAP2 PUSH2 0xCE8 JUMP JUMPDEST DUP3 ADD SWAP2 SWAP1 PUSH1 0x0 MSTORE PUSH1 0x20 PUSH1 0x0 KECCAK256 SWAP1 JUMPDEST DUP2 SLOAD DUP2 MSTORE SWAP1 PUSH1 0x1 ADD SWAP1 PUSH1 0x20 ADD DUP1 DUP4 GT PUSH2 0xCCB JUMPI DUP3 SWAP1 SUB PUSH1 0x1F AND DUP3 ADD SWAP2 JUMPDEST POP POP POP POP POP SWAP1 DUP1 PUSH1 0x2 ADD DUP1 SLOAD PUSH2 0xCFD SWAP1 PUSH2 0x1A8E JUMP JUMPDEST DUP1 PUSH1 0x1F ADD PUSH1 0x20 DUP1 SWAP2 DIV MUL PUSH1 0x20 ADD PUSH1 0x40 MLOAD SWAP1 DUP2 ADD PUSH1 0x40 MSTORE DUP1 SWAP3 SWAP2 SWAP1 DUP2 DUP2 MSTORE PUSH1 0x20 ADD DUP3 DUP1 SLOAD PUSH2 0xD29 SWAP1 PUSH2 0x1A8E JUMP JUMPDEST DUP1 ISZERO PUSH2 0xD76 JUMPI DUP1 PUSH1 0x1F LT PUSH2 0xD4B JUMPI PUSH2 0x100 DUP1 DUP4 SLOAD DIV MUL DUP4 MSTORE SWAP2 PUSH1 0x20 ADD SWAP2 PUSH2 0xD76 JUMP JUMPDEST DUP3 ADD SWAP2 SWAP1 PUSH1 0x0 MSTORE PUSH1 0x20 PUSH1 0x0 KECCAK256 SWAP1 JUMPDEST DUP2 SLOAD DUP2 MSTORE SWAP1 PUSH1 0x1 ADD SWAP1 PUSH1 0x20 ADD DUP1 DUP4 GT PUSH2 0xD59 JUMPI DUP3 SWAP1 SUB PUSH1 0x1F AND DUP3 ADD SWAP2 JUMPDEST POP POP POP PUSH1 0x3 DUP5 ADD SLOAD PUSH1 0x4 DUP6 ADD SLOAD PUSH1 0x5 DUP7 ADD SLOAD PUSH1 0x6 DUP8 ADD SLOAD PUSH1 0x7 DUP9 ADD SLOAD PUSH1 0x8 DUP10 ADD SLOAD PUSH1 0x9 DUP11 ADD SLOAD PUSH1 0xD SWAP1 SWAP11 ADD SLOAD SWAP9 SWAP10 SWAP6 SWAP9 SWAP5 SWAP8 POP SWAP3 SWAP6 POP PUSH1 0xFF SWAP2 DUP3 AND SWAP5 SWAP1 SWAP4 DUP2 DUP4 AND SWAP3 PUSH2 0x100 SWAP1 SWAP3 DIV DUP3 AND SWAP2 AND DUP13 JUMP JUMPDEST PUSH2 0xDCD PUSH2 0x11CC JUMP JUMPDEST PUSH1 0x0 SLOAD DUP2 LT PUSH2 0xDEF JUMPI PUSH1 0x40 MLOAD PUSH4 0xC325AE33 PUSH1 0xE0 SHL DUP2 MSTORE PUSH1 0x4 ADD PUSH1 0x40 MLOAD DUP1 SWAP2 SUB SWAP1 REVERT JUMPDEST PUSH1 0x0 DUP2 DUP2 MSTORE PUSH1 0x1 PUSH1 0x20 MSTORE PUSH1 0x40 DUP2 KECCAK256 SWAP1 PUSH1 0x6 DUP3 ADD SLOAD PUSH1 0xFF AND PUSH1 0x2 DUP2 GT ISZERO PUSH2 0xE17 JUMPI PUSH2 0xE17 PUSH2 0x1945 JUMP JUMPDEST EQ PUSH2 0xE34 JUMPI PUSH1 0x40 MLOAD PUSH3 0xA997DF PUSH1 0xE8 SHL DUP2 MSTORE PUSH1 0x4 ADD PUSH1 0x40 MLOAD DUP1 SWAP2 SUB SWAP1 REVERT JUMPDEST DUP1 PUSH1 0x8 ADD SLOAD TIMESTAMP GT PUSH2 0xE7E JUMPI PUSH1 0x40 MLOAD PUSH3 0x461BCD PUSH1 0xE5 SHL DUP2 MSTORE PUSH1 0x20 PUSH1 0x4 DUP3 ADD MSTORE PUSH1 0x14 PUSH1 0x24 DUP3 ADD MSTORE PUSH20 0x111958591B1A5B99481B9BDD081C995858DA1959 PUSH1 0x62 SHL PUSH1 0x44 DUP3 ADD MSTORE PUSH1 0x64 ADD PUSH2 0x4D5 JUMP JUMPDEST PUSH1 0x0 PUSH32 0x0 PUSH1 0x1 PUSH1 0x1 PUSH1 0xA0 SHL SUB AND PUSH4 0x7D0EEF61 PUSH1 0x40 MLOAD DUP2 PUSH4 0xFFFFFFFF AND PUSH1 0xE0 SHL DUP2 MSTORE PUSH1 0x4 ADD PUSH1 0x20 PUSH1 0x40 MLOAD DUP1 DUP4 SUB DUP2 DUP7 GAS STATICCALL ISZERO DUP1 ISZERO PUSH2 0xEDE JUMPI RETURNDATASIZE PUSH1 0x0 DUP1 RETURNDATACOPY RETURNDATASIZE PUSH1 0x0 REVERT JUMPDEST POP POP POP POP PUSH1 0x40 MLOAD RETURNDATASIZE PUSH1 0x1F NOT PUSH1 0x1F DUP3 ADD AND DUP3 ADD DUP1 PUSH1 0x40 MSTORE POP DUP2 ADD SWAP1 PUSH2 0xF02 SWAP2 SWAP1 PUSH2 0x1C70 JUMP JUMPDEST SWAP1 POP PUSH2 0xF0E DUP4 DUP3 PUSH2 0x12D2 JUMP JUMPDEST POP POP PUSH2 0x86D PUSH1 0x1 PUSH1 0x0 DUP1 MLOAD PUSH1 0x20 PUSH2 0x1DD7 DUP4 CODECOPY DUP2 MLOAD SWAP2 MSTORE SSTORE JUMP JUMPDEST PUSH2 0xF2F PUSH2 0x1767 JUMP JUMPDEST PUSH1 0x0 SLOAD DUP3 LT PUSH2 0xF51 JUMPI PUSH1 0x40 MLOAD PUSH4 0xC325AE33 PUSH1 0xE0 SHL DUP2 MSTORE PUSH1 0x4 ADD PUSH1 0x40 MLOAD DUP1 SWAP2 SUB SWAP1 REVERT JUMPDEST PUSH1 0x0 DUP3 DUP2 MSTORE PUSH1 0x1 PUSH1 0x20 MSTORE PUSH1 0x40 SWAP1 DUP2 SWAP1 KECCAK256 DUP2 MLOAD PUSH1 0x60 DUP2 ADD SWAP1 SWAP3 MSTORE PUSH1 0xA ADD PUSH1 0x3 DUP3 DUP3 DUP3 PUSH1 0x20 MUL DUP3 ADD SWAP2 JUMPDEST DUP2 SLOAD PUSH1 0x1 PUSH1 0x1 PUSH1 0xA0 SHL SUB AND DUP2 MSTORE PUSH1 0x1 SWAP1 SWAP2 ADD SWAP1 PUSH1 0x20 ADD DUP1 DUP4 GT PUSH2 0xF79 JUMPI POP POP POP POP POP SWAP1 POP SWAP2 SWAP1 POP JUMP JUMPDEST PUSH1 0x0 PUSH1 0x1 PUSH1 0x0 DUP4 DUP2 MSTORE PUSH1 0x20 ADD SWAP1 DUP2 MSTORE PUSH1 0x20 ADD PUSH1 0x0 KECCAK256 SWAP1 POP PUSH1 0x0 PUSH32 0x0 PUSH1 0x1 PUSH1 0x1 PUSH1 0xA0 SHL SUB AND PUSH4 0x9EAB5253 PUSH1 0x40 MLOAD DUP2 PUSH4 0xFFFFFFFF AND PUSH1 0xE0 SHL DUP2 MSTORE PUSH1 0x4 ADD PUSH1 0x0 PUSH1 0x40 MLOAD DUP1 DUP4 SUB DUP2 DUP7 GAS STATICCALL ISZERO DUP1 ISZERO PUSH2 0x1019 JUMPI RETURNDATASIZE PUSH1 0x0 DUP1 RETURNDATACOPY RETURNDATASIZE PUSH1 0x0 REVERT JUMPDEST POP POP POP POP PUSH1 0x40 MLOAD RETURNDATASIZE PUSH1 0x0 DUP3 RETURNDATACOPY PUSH1 0x1F RETURNDATASIZE SWAP1 DUP2 ADD PUSH1 0x1F NOT AND DUP3 ADD PUSH1 0x40 MSTORE PUSH2 0x1041 SWAP2 SWAP1 DUP2 ADD SWAP1 PUSH2 0x1CCE JUMP JUMPDEST SWAP1 POP PUSH1 0x0 PUSH2 0x104D PUSH2 0xC2E JUMP JUMPDEST SWAP1 POP PUSH1 0x0 DUP1 JUMPDEST DUP4 MLOAD DUP2 LT DUP1 ISZERO PUSH2 0x1066 JUMPI POP PUSH1 0x3 DUP3 PUSH1 0xFF AND LT JUMPDEST ISZERO PUSH2 0x115B JUMPI PUSH1 0x0 DUP5 DUP3 DUP2 MLOAD DUP2 LT PUSH2 0x107F JUMPI PUSH2 0x107F PUSH2 0x1D93 JUMP JUMPDEST PUSH1 0x20 SWAP1 DUP2 MUL SWAP2 SWAP1 SWAP2 ADD ADD MLOAD DUP7 SLOAD SWAP1 SWAP2 POP PUSH1 0x1 PUSH1 0x1 PUSH1 0xA0 SHL SUB SWAP1 DUP2 AND SWAP1 DUP3 AND SUB PUSH2 0x10A8 JUMPI POP PUSH2 0x1149 JUMP JUMPDEST PUSH1 0x1 PUSH1 0x1 PUSH1 0xA0 SHL SUB DUP2 AND PUSH1 0x0 SWAP1 DUP2 MSTORE PUSH1 0x7 PUSH1 0x20 SWAP1 DUP2 MSTORE PUSH1 0x40 DUP1 DUP4 KECCAK256 DUP8 DUP5 MSTORE SWAP1 SWAP2 MSTORE SWAP1 KECCAK256 SLOAD PUSH1 0x8 GT PUSH2 0x10D9 JUMPI POP PUSH2 0x1149 JUMP JUMPDEST DUP1 DUP7 PUSH1 0xA ADD DUP5 PUSH1 0xFF AND PUSH1 0x3 DUP2 LT PUSH2 0x10F2 JUMPI PUSH2 0x10F2 PUSH2 0x1D93 JUMP JUMPDEST ADD DUP1 SLOAD PUSH1 0x1 PUSH1 0x1 PUSH1 0xA0 SHL SUB NOT AND PUSH1 0x1 PUSH1 0x1 PUSH1 0xA0 SHL SUB SWAP3 DUP4 AND OR SWAP1 SSTORE DUP2 AND PUSH1 0x0 SWAP1 DUP2 MSTORE PUSH1 0x7 PUSH1 0x20 SWAP1 DUP2 MSTORE PUSH1 0x40 DUP1 DUP4 KECCAK256 DUP8 DUP5 MSTORE SWAP1 SWAP2 MSTORE DUP2 KECCAK256 DUP1 SLOAD SWAP2 PUSH2 0x1134 DUP4 PUSH2 0x1A5F JUMP JUMPDEST SWAP2 SWAP1 POP SSTORE POP DUP3 DUP1 PUSH2 0x1144 SWAP1 PUSH2 0x1DA9 JUMP JUMPDEST SWAP4 POP POP POP JUMPDEST DUP1 PUSH2 0x1153 DUP2 PUSH2 0x1A5F JUMP JUMPDEST SWAP2 POP POP PUSH2 0x1053 JUMP JUMPDEST POP DUP1 PUSH1 0xFF AND PUSH1 0x3 EQ PUSH2 0x11AF JUMPI PUSH1 0x40 MLOAD PUSH3 0x461BCD PUSH1 0xE5 SHL DUP2 MSTORE PUSH1 0x20 PUSH1 0x4 DUP3 ADD MSTORE PUSH1 0x19 PUSH1 0x24 DUP3 ADD MSTORE PUSH32 0x4E656564203320656C696769626C652076657269666965727300000000000000 PUSH1 0x44 DUP3 ADD MSTORE PUSH1 0x64 ADD PUSH2 0x4D5 JUMP JUMPDEST PUSH1 0xD SWAP4 SWAP1 SWAP4 ADD DUP1 SLOAD PUSH1 0xFF NOT AND PUSH1 0xFF SWAP1 SWAP5 AND SWAP4 SWAP1 SWAP4 OR SWAP1 SWAP3 SSTORE POP POP POP JUMP JUMPDEST PUSH2 0x11D4 PUSH2 0x139C JUMP JUMPDEST PUSH1 0x2 PUSH1 0x0 DUP1 MLOAD PUSH1 0x20 PUSH2 0x1DD7 DUP4 CODECOPY DUP2 MLOAD SWAP2 MSTORE SSTORE JUMP JUMPDEST PUSH1 0x0 DUP1 JUMPDEST PUSH1 0xD DUP5 ADD SLOAD PUSH1 0xFF AND DUP2 LT ISZERO PUSH2 0x1246 JUMPI DUP3 PUSH1 0x1 PUSH1 0x1 PUSH1 0xA0 SHL SUB AND DUP5 PUSH1 0xA ADD DUP3 PUSH1 0x3 DUP2 LT PUSH2 0x121A JUMPI PUSH2 0x121A PUSH2 0x1D93 JUMP JUMPDEST ADD SLOAD PUSH1 0x1 PUSH1 0x1 PUSH1 0xA0 SHL SUB AND SUB PUSH2 0x1234 JUMPI PUSH1 0x1 SWAP2 POP POP PUSH2 0x124C JUMP JUMPDEST DUP1 PUSH2 0x123E DUP2 PUSH2 0x1A5F JUMP JUMPDEST SWAP2 POP POP PUSH2 0x11EC JUMP JUMPDEST POP PUSH1 0x0 SWAP1 POP JUMPDEST SWAP3 SWAP2 POP POP JUMP JUMPDEST PUSH1 0x0 DUP1 JUMPDEST PUSH1 0xD DUP5 ADD SLOAD PUSH1 0xFF AND DUP2 LT ISZERO PUSH2 0x12C8 JUMPI PUSH1 0x0 DUP4 DUP2 MSTORE PUSH1 0x2 PUSH1 0x20 MSTORE PUSH1 0x40 DUP2 KECCAK256 SWAP1 PUSH1 0xA DUP7 ADD DUP4 PUSH1 0x3 DUP2 LT PUSH2 0x1289 JUMPI PUSH2 0x1289 PUSH2 0x1D93 JUMP JUMPDEST ADD SLOAD PUSH1 0x1 PUSH1 0x1 PUSH1 0xA0 SHL SUB AND DUP2 MSTORE PUSH1 0x20 DUP2 ADD SWAP2 SWAP1 SWAP2 MSTORE PUSH1 0x40 ADD PUSH1 0x0 KECCAK256 SLOAD PUSH1 0xFF AND PUSH2 0x12B6 JUMPI PUSH1 0x0 SWAP2 POP POP PUSH2 0x124C JUMP JUMPDEST DUP1 PUSH2 0x12C0 DUP2 PUSH2 0x1A5F JUMP JUMPDEST SWAP2 POP POP PUSH2 0x1256 JUMP JUMPDEST POP PUSH1 0x1 SWAP4 SWAP3 POP POP POP JUMP JUMPDEST PUSH1 0x0 DUP3 DUP2 MSTORE PUSH1 0x1 PUSH1 0x20 MSTORE PUSH1 0x40 SWAP1 KECCAK256 PUSH1 0x4 DUP2 ADD SLOAD DUP3 GT PUSH2 0x134C JUMPI PUSH1 0x6 DUP2 ADD DUP1 SLOAD PUSH1 0xFF NOT AND PUSH1 0x1 OR SWAP1 SSTORE PUSH2 0x1303 DUP2 PUSH2 0x13CE JUMP JUMPDEST PUSH2 0x130E DUP4 PUSH1 0x1 PUSH2 0x14DF JUMP JUMPDEST DUP3 PUSH32 0xE9CB48757BD52E4FFD9F48C23C229BBE87F7FF9C8197D305DB283FD2E5DDBE8 PUSH1 0x1 PUSH1 0x40 MLOAD PUSH2 0x133F SWAP2 SWAP1 PUSH2 0x1DC8 JUMP JUMPDEST PUSH1 0x40 MLOAD DUP1 SWAP2 SUB SWAP1 LOG2 POP POP POP JUMP JUMPDEST PUSH1 0x6 DUP2 ADD DUP1 SLOAD PUSH1 0xFF NOT AND PUSH1 0x2 OR SWAP1 SSTORE PUSH2 0x1366 DUP4 PUSH1 0x0 PUSH2 0x14DF JUMP JUMPDEST DUP3 PUSH32 0xE9CB48757BD52E4FFD9F48C23C229BBE87F7FF9C8197D305DB283FD2E5DDBE8 PUSH1 0x2 PUSH1 0x40 MLOAD PUSH2 0x133F SWAP2 SWAP1 PUSH2 0x1DC8 JUMP JUMPDEST POP POP POP JUMP JUMPDEST PUSH1 0x0 DUP1 MLOAD PUSH1 0x20 PUSH2 0x1DD7 DUP4 CODECOPY DUP2 MLOAD SWAP2 MSTORE SLOAD PUSH1 0x2 SUB PUSH2 0x13CC JUMPI PUSH1 0x40 MLOAD PUSH4 0x3EE5AEB5 PUSH1 0xE0 SHL DUP2 MSTORE PUSH1 0x4 ADD PUSH1 0x40 MLOAD DUP1 SWAP2 SUB SWAP1 REVERT JUMPDEST JUMP JUMPDEST PUSH1 0x0 PUSH2 0x13D8 PUSH2 0xC2E JUMP JUMPDEST PUSH1 0x3 DUP4 ADD SLOAD PUSH1 0x0 DUP3 DUP2 MSTORE PUSH1 0x4 PUSH1 0x20 MSTORE PUSH1 0x40 SWAP1 KECCAK256 SLOAD SWAP2 SWAP3 POP PUSH2 0x12C SWAP2 PUSH2 0x13FD SWAP2 SWAP1 PUSH2 0x1BCF JUMP JUMPDEST GT PUSH2 0x14CB JUMPI PUSH1 0x3 DUP3 ADD SLOAD PUSH1 0x0 DUP3 DUP2 MSTORE PUSH1 0x4 PUSH1 0x20 MSTORE PUSH1 0x40 DUP2 KECCAK256 DUP1 SLOAD SWAP1 SWAP2 SWAP1 PUSH2 0x1425 SWAP1 DUP5 SWAP1 PUSH2 0x1BCF JUMP JUMPDEST SWAP1 SWAP2 SSTORE POP POP PUSH1 0x9 DUP3 ADD DUP1 SLOAD PUSH2 0xFF00 NOT AND PUSH2 0x100 OR SWAP1 SSTORE DUP2 SLOAD PUSH1 0x3 DUP4 ADD SLOAD PUSH1 0x40 MLOAD PUSH4 0x40C10F19 PUSH1 0xE0 SHL DUP2 MSTORE PUSH1 0x1 PUSH1 0x1 PUSH1 0xA0 SHL SUB SWAP3 DUP4 AND PUSH1 0x4 DUP3 ADD MSTORE PUSH1 0x24 DUP2 ADD SWAP2 SWAP1 SWAP2 MSTORE PUSH32 0x0 SWAP1 SWAP2 AND SWAP1 PUSH4 0x40C10F19 SWAP1 PUSH1 0x44 ADD PUSH1 0x0 PUSH1 0x40 MLOAD DUP1 DUP4 SUB DUP2 PUSH1 0x0 DUP8 DUP1 EXTCODESIZE ISZERO DUP1 ISZERO PUSH2 0x14AF JUMPI PUSH1 0x0 DUP1 REVERT JUMPDEST POP GAS CALL ISZERO DUP1 ISZERO PUSH2 0x14C3 JUMPI RETURNDATASIZE PUSH1 0x0 DUP1 RETURNDATACOPY RETURNDATASIZE PUSH1 0x0 REVERT JUMPDEST POP POP POP POP POP POP JUMP JUMPDEST PUSH1 0x9 DUP3 ADD DUP1 SLOAD PUSH2 0xFFFF NOT AND PUSH1 0x1 OR SWAP1 SSTORE POP POP JUMP JUMPDEST PUSH1 0x0 DUP3 DUP2 MSTORE PUSH1 0x1 PUSH1 0x20 MSTORE PUSH1 0x40 DUP2 KECCAK256 SWAP1 JUMPDEST PUSH1 0xD DUP3 ADD SLOAD PUSH1 0xFF AND DUP2 LT ISZERO PUSH2 0x1761 JUMPI PUSH1 0x0 DUP3 PUSH1 0xA ADD DUP3 PUSH1 0x3 DUP2 LT PUSH2 0x1515 JUMPI PUSH2 0x1515 PUSH2 0x1D93 JUMP JUMPDEST ADD SLOAD PUSH1 0x0 DUP7 DUP2 MSTORE PUSH1 0x2 PUSH1 0x20 SWAP1 DUP2 MSTORE PUSH1 0x40 DUP1 DUP4 KECCAK256 PUSH1 0x1 PUSH1 0x1 PUSH1 0xA0 SHL SUB SWAP1 SWAP5 AND DUP1 DUP5 MSTORE SWAP4 SWAP1 SWAP2 MSTORE SWAP1 KECCAK256 SLOAD SWAP1 SWAP2 POP PUSH1 0xFF AND DUP1 PUSH2 0x15E3 JUMPI PUSH1 0x40 MLOAD PUSH4 0x2FB4D85 PUSH1 0xE0 SHL DUP2 MSTORE PUSH1 0x1 PUSH1 0x1 PUSH1 0xA0 SHL SUB DUP4 DUP2 AND PUSH1 0x4 DUP4 ADD MSTORE PUSH1 0x2 PUSH1 0x24 DUP4 ADD MSTORE PUSH32 0x0 AND SWAP1 PUSH4 0x2FB4D85 SWAP1 PUSH1 0x44 ADD PUSH1 0x20 PUSH1 0x40 MLOAD DUP1 DUP4 SUB DUP2 PUSH1 0x0 DUP8 GAS CALL ISZERO DUP1 ISZERO PUSH2 0x15B7 JUMPI RETURNDATASIZE PUSH1 0x0 DUP1 RETURNDATACOPY RETURNDATASIZE PUSH1 0x0 REVERT JUMPDEST POP POP POP POP PUSH1 0x40 MLOAD RETURNDATASIZE PUSH1 0x1F NOT PUSH1 0x1F DUP3 ADD AND DUP3 ADD DUP1 PUSH1 0x40 MSTORE POP DUP2 ADD SWAP1 PUSH2 0x15DB SWAP2 SWAP1 PUSH2 0x1C70 JUMP JUMPDEST POP POP POP PUSH2 0x174F JUMP JUMPDEST PUSH1 0x0 DUP7 DUP2 MSTORE PUSH1 0x3 PUSH1 0x20 SWAP1 DUP2 MSTORE PUSH1 0x40 DUP1 DUP4 KECCAK256 PUSH1 0x1 PUSH1 0x1 PUSH1 0xA0 SHL SUB DUP7 AND DUP5 MSTORE SWAP1 SWAP2 MSTORE DUP2 KECCAK256 SLOAD PUSH1 0xFF AND SWAP1 DUP7 DUP1 ISZERO PUSH2 0x1614 JUMPI POP DUP2 JUMPDEST DUP1 PUSH2 0x1626 JUMPI POP DUP7 ISZERO DUP1 ISZERO PUSH2 0x1626 JUMPI POP DUP2 ISZERO JUMPDEST SWAP1 POP DUP1 ISZERO PUSH2 0x16B5 JUMPI PUSH1 0x40 MLOAD PUSH4 0x40C10F19 PUSH1 0xE0 SHL DUP2 MSTORE PUSH1 0x1 PUSH1 0x1 PUSH1 0xA0 SHL SUB DUP6 DUP2 AND PUSH1 0x4 DUP4 ADD MSTORE PUSH1 0x1 PUSH1 0x24 DUP4 ADD MSTORE PUSH32 0x0 AND SWAP1 PUSH4 0x40C10F19 SWAP1 PUSH1 0x44 ADD PUSH1 0x0 PUSH1 0x40 MLOAD DUP1 DUP4 SUB DUP2 PUSH1 0x0 DUP8 DUP1 EXTCODESIZE ISZERO DUP1 ISZERO PUSH2 0x1698 JUMPI PUSH1 0x0 DUP1 REVERT JUMPDEST POP GAS CALL ISZERO DUP1 ISZERO PUSH2 0x16AC JUMPI RETURNDATASIZE PUSH1 0x0 DUP1 RETURNDATACOPY RETURNDATASIZE PUSH1 0x0 REVERT JUMPDEST POP POP POP POP PUSH2 0x174A JUMP JUMPDEST PUSH1 0x40 MLOAD PUSH4 0x2FB4D85 PUSH1 0xE0 SHL DUP2 MSTORE PUSH1 0x1 PUSH1 0x1 PUSH1 0xA0 SHL SUB DUP6 DUP2 AND PUSH1 0x4 DUP4 ADD MSTORE PUSH1 0x5 PUSH1 0x24 DUP4 ADD MSTORE PUSH32 0x0 AND SWAP1 PUSH4 0x2FB4D85 SWAP1 PUSH1 0x44 ADD PUSH1 0x20 PUSH1 0x40 MLOAD DUP1 DUP4 SUB DUP2 PUSH1 0x0 DUP8 GAS CALL ISZERO DUP1 ISZERO PUSH2 0x1724 JUMPI RETURNDATASIZE PUSH1 0x0 DUP1 RETURNDATACOPY RETURNDATASIZE PUSH1 0x0 REVERT JUMPDEST POP POP POP POP PUSH1 0x40 MLOAD RETURNDATASIZE PUSH1 0x1F NOT PUSH1 0x1F DUP3 ADD AND DUP3 ADD DUP1 PUSH1 0x40 MSTORE POP DUP2 ADD SWAP1 PUSH2 0x1748 SWAP2 SWAP1 PUSH2 0x1C70 JUMP JUMPDEST POP JUMPDEST POP POP POP POP JUMPDEST DUP1 PUSH2 0x1759 DUP2 PUSH2 0x1A5F JUMP JUMPDEST SWAP2 POP POP PUSH2 0x14EF JUMP JUMPDEST POP POP POP POP JUMP JUMPDEST PUSH1 0x40 MLOAD DUP1 PUSH1 0x60 ADD PUSH1 0x40 MSTORE DUP1 PUSH1 0x3 SWAP1 PUSH1 0x20 DUP3 MUL DUP1 CALLDATASIZE DUP4 CALLDATACOPY POP SWAP2 SWAP3 SWAP2 POP POP JUMP JUMPDEST PUSH1 0x1 PUSH1 0x1 PUSH1 0xA0 SHL SUB DUP2 AND DUP2 EQ PUSH2 0x86D JUMPI PUSH1 0x0 DUP1 REVERT JUMPDEST PUSH1 0x0 DUP1 PUSH1 0x40 DUP4 DUP6 SUB SLT ISZERO PUSH2 0x17AD JUMPI PUSH1 0x0 DUP1 REVERT JUMPDEST DUP3 CALLDATALOAD PUSH2 0x17B8 DUP2 PUSH2 0x1785 JUMP JUMPDEST SWAP5 PUSH1 0x20 SWAP4 SWAP1 SWAP4 ADD CALLDATALOAD SWAP4 POP POP POP JUMP JUMPDEST PUSH1 0x0 PUSH1 0x20 DUP3 DUP5 SUB SLT ISZERO PUSH2 0x17D8 JUMPI PUSH1 0x0 DUP1 REVERT JUMPDEST POP CALLDATALOAD SWAP2 SWAP1 POP JUMP JUMPDEST PUSH1 0x0 DUP1 PUSH1 0x40 DUP4 DUP6 SUB SLT ISZERO PUSH2 0x17F2 JUMPI PUSH1 0x0 DUP1 REVERT JUMPDEST DUP3 CALLDATALOAD SWAP2 POP PUSH1 0x20 DUP4 ADD CALLDATALOAD PUSH2 0x1804 DUP2 PUSH2 0x1785 JUMP JUMPDEST DUP1 SWAP2 POP POP SWAP3 POP SWAP3 SWAP1 POP JUMP JUMPDEST PUSH1 0x0 DUP1 DUP4 PUSH1 0x1F DUP5 ADD SLT PUSH2 0x1821 JUMPI PUSH1 0x0 DUP1 REVERT JUMPDEST POP DUP2 CALLDATALOAD PUSH8 0xFFFFFFFFFFFFFFFF DUP2 GT ISZERO PUSH2 0x1839 JUMPI PUSH1 0x0 DUP1 REVERT JUMPDEST PUSH1 0x20 DUP4 ADD SWAP2 POP DUP4 PUSH1 0x20 DUP3 DUP6 ADD ADD GT ISZERO PUSH2 0x1851 JUMPI PUSH1 0x0 DUP1 REVERT JUMPDEST SWAP3 POP SWAP3 SWAP1 POP JUMP JUMPDEST PUSH1 0x0 DUP1 PUSH1 0x0 DUP1 PUSH1 0x0 PUSH1 0x60 DUP7 DUP9 SUB SLT ISZERO PUSH2 0x1870 JUMPI PUSH1 0x0 DUP1 REVERT JUMPDEST DUP6 CALLDATALOAD PUSH8 0xFFFFFFFFFFFFFFFF DUP1 DUP3 GT ISZERO PUSH2 0x1888 JUMPI PUSH1 0x0 DUP1 REVERT JUMPDEST PUSH2 0x1894 DUP10 DUP4 DUP11 ADD PUSH2 0x180F JUMP JUMPDEST SWAP1 SWAP8 POP SWAP6 POP PUSH1 0x20 DUP9 ADD CALLDATALOAD SWAP2 POP DUP1 DUP3 GT ISZERO PUSH2 0x18AD JUMPI PUSH1 0x0 DUP1 REVERT JUMPDEST POP PUSH2 0x18BA DUP9 DUP3 DUP10 ADD PUSH2 0x180F JUMP JUMPDEST SWAP7 SWAP10 SWAP6 SWAP9 POP SWAP7 PUSH1 0x40 ADD CALLDATALOAD SWAP5 SWAP4 POP POP POP POP JUMP JUMPDEST DUP1 ISZERO ISZERO DUP2 EQ PUSH2 0x86D JUMPI PUSH1 0x0 DUP1 REVERT JUMPDEST PUSH1 0x0 DUP1 PUSH1 0x40 DUP4 DUP6 SUB SLT ISZERO PUSH2 0x18ED JUMPI PUSH1 0x0 DUP1 REVERT JUMPDEST DUP3 CALLDATALOAD SWAP2 POP PUSH1 0x20 DUP4 ADD CALLDATALOAD PUSH2 0x1804 DUP2 PUSH2 0x18CC JUMP JUMPDEST PUSH1 0x0 DUP2 MLOAD DUP1 DUP5 MSTORE PUSH1 0x0 JUMPDEST DUP2 DUP2 LT ISZERO PUSH2 0x1925 JUMPI PUSH1 0x20 DUP2 DUP6 ADD DUP2 ADD MLOAD DUP7 DUP4 ADD DUP3 ADD MSTORE ADD PUSH2 0x1909 JUMP JUMPDEST POP PUSH1 0x0 PUSH1 0x20 DUP3 DUP7 ADD ADD MSTORE PUSH1 0x20 PUSH1 0x1F NOT PUSH1 0x1F DUP4 ADD AND DUP6 ADD ADD SWAP2 POP POP SWAP3 SWAP2 POP POP JUMP JUMPDEST PUSH4 0x4E487B71 PUSH1 0xE0 SHL PUSH1 0x0 MSTORE PUSH1 0x21 PUSH1 0x4 MSTORE PUSH1 0x24 PUSH1 0x0 REVERT JUMPDEST PUSH1 0x3 DUP2 LT PUSH2 0x1979 JUMPI PUSH4 0x4E487B71 PUSH1 0xE0 SHL PUSH1 0x0 MSTORE PUSH1 0x21 PUSH1 0x4 MSTORE PUSH1 0x24 PUSH1 0x0 REVERT JUMPDEST SWAP1 MSTORE JUMP JUMPDEST PUSH1 0x1 PUSH1 0x1 PUSH1 0xA0 SHL SUB DUP14 AND DUP2 MSTORE PUSH2 0x180 PUSH1 0x20 DUP3 ADD DUP2 SWAP1 MSTORE PUSH1 0x0 SWAP1 PUSH2 0x19A2 DUP4 DUP3 ADD DUP16 PUSH2 0x18FF JUMP JUMPDEST SWAP1 POP DUP3 DUP2 SUB PUSH1 0x40 DUP5 ADD MSTORE PUSH2 0x19B6 DUP2 DUP15 PUSH2 0x18FF JUMP JUMPDEST SWAP2 POP POP DUP11 PUSH1 0x60 DUP4 ADD MSTORE DUP10 PUSH1 0x80 DUP4 ADD MSTORE DUP9 PUSH1 0xA0 DUP4 ADD MSTORE PUSH2 0x19D8 PUSH1 0xC0 DUP4 ADD DUP10 PUSH2 0x195B JUMP JUMPDEST PUSH1 0xE0 DUP3 ADD SWAP7 SWAP1 SWAP7 MSTORE PUSH2 0x100 DUP2 ADD SWAP5 SWAP1 SWAP5 MSTORE SWAP2 ISZERO ISZERO PUSH2 0x120 DUP5 ADD MSTORE ISZERO ISZERO PUSH2 0x140 DUP4 ADD MSTORE PUSH1 0xFF AND PUSH2 0x160 SWAP1 SWAP2 ADD MSTORE SWAP8 SWAP7 POP POP POP POP POP POP POP JUMP JUMPDEST PUSH1 0x60 DUP2 ADD DUP2 DUP4 PUSH1 0x0 JUMPDEST PUSH1 0x3 DUP2 LT ISZERO PUSH2 0x1A40 JUMPI DUP2 MLOAD PUSH1 0x1 PUSH1 0x1 PUSH1 0xA0 SHL SUB AND DUP4 MSTORE PUSH1 0x20 SWAP3 DUP4 ADD SWAP3 SWAP1 SWAP2 ADD SWAP1 PUSH1 0x1 ADD PUSH2 0x1A18 JUMP JUMPDEST POP POP POP SWAP3 SWAP2 POP POP JUMP JUMPDEST PUSH4 0x4E487B71 PUSH1 0xE0 SHL PUSH1 0x0 MSTORE PUSH1 0x11 PUSH1 0x4 MSTORE PUSH1 0x24 PUSH1 0x0 REVERT JUMPDEST PUSH1 0x0 PUSH1 0x1 DUP3 ADD PUSH2 0x1A71 JUMPI PUSH2 0x1A71 PUSH2 0x1A49 JUMP JUMPDEST POP PUSH1 0x1 ADD SWAP1 JUMP JUMPDEST PUSH4 0x4E487B71 PUSH1 0xE0 SHL PUSH1 0x0 MSTORE PUSH1 0x41 PUSH1 0x4 MSTORE PUSH1 0x24 PUSH1 0x0 REVERT JUMPDEST PUSH1 0x1 DUP2 DUP2 SHR SWAP1 DUP3 AND DUP1 PUSH2 0x1AA2 JUMPI PUSH1 0x7F DUP3 AND SWAP2 POP JUMPDEST PUSH1 0x20 DUP3 LT DUP2 SUB PUSH2 0x1AC2 JUMPI PUSH4 0x4E487B71 PUSH1 0xE0 SHL PUSH1 0x0 MSTORE PUSH1 0x22 PUSH1 0x4 MSTORE PUSH1 0x24 PUSH1 0x0 REVERT JUMPDEST POP SWAP2 SWAP1 POP JUMP JUMPDEST PUSH1 0x1F DUP3 GT ISZERO PUSH2 0x1397 JUMPI PUSH1 0x0 DUP2 DUP2 MSTORE PUSH1 0x20 DUP2 KECCAK256 PUSH1 0x1F DUP6 ADD PUSH1 0x5 SHR DUP2 ADD PUSH1 0x20 DUP7 LT ISZERO PUSH2 0x1AEF JUMPI POP DUP1 JUMPDEST PUSH1 0x1F DUP6 ADD PUSH1 0x5 SHR DUP3 ADD SWAP2 POP JUMPDEST DUP2 DUP2 LT ISZERO PUSH2 0x14C3 JUMPI DUP3 DUP2 SSTORE PUSH1 0x1 ADD PUSH2 0x1AFB JUMP JUMPDEST PUSH8 0xFFFFFFFFFFFFFFFF DUP4 GT ISZERO PUSH2 0x1B26 JUMPI PUSH2 0x1B26 PUSH2 0x1A78 JUMP JUMPDEST PUSH2 0x1B3A DUP4 PUSH2 0x1B34 DUP4 SLOAD PUSH2 0x1A8E JUMP JUMPDEST DUP4 PUSH2 0x1AC8 JUMP JUMPDEST PUSH1 0x0 PUSH1 0x1F DUP5 GT PUSH1 0x1 DUP2 EQ PUSH2 0x1B6E JUMPI PUSH1 0x0 DUP6 ISZERO PUSH2 0x1B56 JUMPI POP DUP4 DUP3 ADD CALLDATALOAD JUMPDEST PUSH1 0x0 NOT PUSH1 0x3 DUP8 SWAP1 SHL SHR NOT AND PUSH1 0x1 DUP7 SWAP1 SHL OR DUP4 SSTORE PUSH2 0x1BC8 JUMP JUMPDEST PUSH1 0x0 DUP4 DUP2 MSTORE PUSH1 0x20 SWAP1 KECCAK256 PUSH1 0x1F NOT DUP7 AND SWAP1 DUP4 JUMPDEST DUP3 DUP2 LT ISZERO PUSH2 0x1B9F JUMPI DUP7 DUP6 ADD CALLDATALOAD DUP3 SSTORE PUSH1 0x20 SWAP5 DUP6 ADD SWAP5 PUSH1 0x1 SWAP1 SWAP3 ADD SWAP2 ADD PUSH2 0x1B7F JUMP JUMPDEST POP DUP7 DUP3 LT ISZERO PUSH2 0x1BBC JUMPI PUSH1 0x0 NOT PUSH1 0xF8 DUP9 PUSH1 0x3 SHL AND SHR NOT DUP5 DUP8 ADD CALLDATALOAD AND DUP2 SSTORE JUMPDEST POP POP PUSH1 0x1 DUP6 PUSH1 0x1 SHL ADD DUP4 SSTORE JUMPDEST POP POP POP POP POP JUMP JUMPDEST DUP1 DUP3 ADD DUP1 DUP3 GT ISZERO PUSH2 0x124C JUMPI PUSH2 0x124C PUSH2 0x1A49 JUMP JUMPDEST PUSH1 0x40 DUP2 MSTORE DUP3 PUSH1 0x40 DUP3 ADD MSTORE DUP3 DUP5 PUSH1 0x60 DUP4 ADD CALLDATACOPY PUSH1 0x0 PUSH1 0x60 DUP5 DUP4 ADD ADD MSTORE PUSH1 0x0 PUSH1 0x60 PUSH1 0x1F NOT PUSH1 0x1F DUP7 ADD AND DUP4 ADD ADD SWAP1 POP DUP3 PUSH1 0x20 DUP4 ADD MSTORE SWAP5 SWAP4 POP POP POP POP JUMP JUMPDEST PUSH1 0x60 DUP2 ADD DUP2 DUP4 PUSH1 0x0 JUMPDEST PUSH1 0x3 DUP2 LT ISZERO PUSH2 0x1A40 JUMPI DUP2 SLOAD PUSH1 0x1 PUSH1 0x1 PUSH1 0xA0 SHL SUB AND DUP4 MSTORE PUSH1 0x20 SWAP1 SWAP3 ADD SWAP2 PUSH1 0x1 SWAP2 DUP3 ADD SWAP2 ADD PUSH2 0x1C24 JUMP JUMPDEST PUSH1 0x0 PUSH1 0x20 DUP3 DUP5 SUB SLT ISZERO PUSH2 0x1C5E JUMPI PUSH1 0x0 DUP1 REVERT JUMPDEST DUP2 MLOAD PUSH2 0x1C69 DUP2 PUSH2 0x18CC JUMP JUMPDEST SWAP4 SWAP3 POP POP POP JUMP JUMPDEST PUSH1 0x0 PUSH1 0x20 DUP3 DUP5 SUB SLT ISZERO PUSH2 0x1C82 JUMPI PUSH1 0x0 DUP1 REVERT JUMPDEST POP MLOAD SWAP2 SWAP1 POP JUMP JUMPDEST DUP2 DUP2 SUB DUP2 DUP2 GT ISZERO PUSH2 0x124C JUMPI PUSH2 0x124C PUSH2 0x1A49 JUMP JUMPDEST PUSH1 0x0 DUP3 PUSH2 0x1CB9 JUMPI PUSH4 0x4E487B71 PUSH1 0xE0 SHL PUSH1 0x0 MSTORE PUSH1 0x12 PUSH1 0x4 MSTORE PUSH1 0x24 PUSH1 0x0 REVERT JUMPDEST POP DIV SWAP1 JUMP JUMPDEST DUP1 MLOAD PUSH2 0x1CC9 DUP2 PUSH2 0x1785 JUMP JUMPDEST SWAP2 SWAP1 POP JUMP JUMPDEST PUSH1 0x0 PUSH1 0x20 DUP1 DUP4 DUP6 SUB SLT ISZERO PUSH2 0x1CE1 JUMPI PUSH1 0x0 DUP1 REVERT JUMPDEST DUP3 MLOAD PUSH8 0xFFFFFFFFFFFFFFFF DUP1 DUP3 GT ISZERO PUSH2 0x1CF9 JUMPI PUSH1 0x0 DUP1 REVERT JUMPDEST DUP2 DUP6 ADD SWAP2 POP DUP6 PUSH1 0x1F DUP4 ADD SLT PUSH2 0x1D0D JUMPI PUSH1 0x0 DUP1 REVERT JUMPDEST DUP2 MLOAD DUP2 DUP2 GT ISZERO PUSH2 0x1D1F JUMPI PUSH2 0x1D1F PUSH2 0x1A78 JUMP JUMPDEST DUP1 PUSH1 0x5 SHL PUSH1 0x40 MLOAD PUSH1 0x1F NOT PUSH1 0x3F DUP4 ADD AND DUP2 ADD DUP2 DUP2 LT DUP6 DUP3 GT OR ISZERO PUSH2 0x1D44 JUMPI PUSH2 0x1D44 PUSH2 0x1A78 JUMP JUMPDEST PUSH1 0x40 MSTORE SWAP2 DUP3 MSTORE DUP5 DUP3 ADD SWAP3 POP DUP4 DUP2 ADD DUP6 ADD SWAP2 DUP9 DUP4 GT ISZERO PUSH2 0x1D62 JUMPI PUSH1 0x0 DUP1 REVERT JUMPDEST SWAP4 DUP6 ADD SWAP4 JUMPDEST DUP3 DUP6 LT ISZERO PUSH2 0x1D87 JUMPI PUSH2 0x1D78 DUP6 PUSH2 0x1CBE JUMP JUMPDEST DUP5 MSTORE SWAP4 DUP6 ADD SWAP4 SWAP3 DUP6 ADD SWAP3 PUSH2 0x1D67 JUMP JUMPDEST SWAP9 SWAP8 POP POP POP POP POP POP POP POP JUMP JUMPDEST PUSH4 0x4E487B71 PUSH1 0xE0 SHL PUSH1 0x0 MSTORE PUSH1 0x32 PUSH1 0x4 MSTORE PUSH1 0x24 PUSH1 0x0 REVERT JUMPDEST PUSH1 0x0 PUSH1 0xFF DUP3 AND PUSH1 0xFF DUP2 SUB PUSH2 0x1DBF JUMPI PUSH2 0x1DBF PUSH2 0x1A49 JUMP JUMPDEST PUSH1 0x1 ADD SWAP3 SWAP2 POP POP JUMP JUMPDEST PUSH1 0x20 DUP2 ADD PUSH2 0x124C DUP3 DUP5 PUSH2 0x195B JUMP INVALID SWAP12 PUSH24 0x9B17422D0DF92223018B32B4D1FA46E071723D6817E2486D STOP EXTCODESIZE 0xEC 0xC5 PUSH0 STOP LOG2 PUSH5 0x6970667358 0x22 SLT KECCAK256 PUSH13 0x20A85989BB303E563DF95DDF SWAP9 BLOCKHASH SLT DUP5 0x21 0xE7 SWAP4 PUSH16 0xD98BCB8C4EA738D0A45164736F6C6343 STOP ADDMOD EQ STOP CALLER "},"methodIdentifiers":{"avgGTperTask()":"698eda8d","claimQueuedGT(uint256)":"4e6f0858","committeeManager()":"7e8611e2","currentDay()":"5c9302c9","dailyMintCap()":"2832bcb5","dailyMintedGT(uint256)":"39e4e6ce","dailyTaskCount(uint256)":"3a291bc1","finalizeExpiredTask(uint256)":"e163fb2f","getTaskVerifiers(uint256)":"fc55383c","greenToken()":"02b32af5","hasVoted(uint256,address)":"43859632","inactivityPenalty()":"d2d81655","maxTasksPerDay()":"d52ffb91","rewardToken()":"f7c618c1","submitTask(string,string,uint256)":"492e5f27","taskCount()":"b6cb58a5","tasks(uint256)":"8d977672","userDailySubmissions(address,uint256)":"34d9a396","userTaskLimit()":"af19bea0","verifierDailyAssigned(address,uint256)":"34352d81","verifierPenalty()":"5977e4e2","verifierReward()":"b49e80f4","verifierTaskLimit()":"2b05638c","voteChoice(uint256,address)":"fb468855","voteDeadlineDuration()":"e728e1ac","voteOnTask(uint256,bool)":"54e473c6"}}}}}