{
  "_format": "hh-sol-artifact-1",
  "contractName": "Governance",
  "sourceName": "Contracts/Governance.sol",
  "abi": [
    {
      "inputs": [],
      "stateMutability": "nonpayable",
      "type": "constructor"
    },
    {
      "anonymous": false,
      "inputs": [
        {
          "indexed": true,
          "internalType": "address",
          "name": "user",
          "type": "address"
        }
      ],
      "name": "CommitteeAdded",
      "type": "event"
    },
    {
      "anonymous": false,
      "inputs": [
        {
          "indexed": true,
          "internalType": "address",
          "name": "user",
          "type": "address"
        }
      ],
      "name": "CommitteeRemoved",
      "type": "event"
    },
    {
      "anonymous": false,
      "inputs": [
        {
          "indexed": true,
          "internalType": "address",
          "name": "user",
          "type": "address"
        },
        {
          "indexed": false,
          "internalType": "uint256",
          "name": "amount",
          "type": "uint256"
        }
      ],
      "name": "GTAdded",
      "type": "event"
    },
    {
      "anonymous": false,
      "inputs": [
        {
          "indexed": true,
          "internalType": "address",
          "name": "user",
          "type": "address"
        },
        {
          "indexed": false,
          "internalType": "uint256",
          "name": "amount",
          "type": "uint256"
        }
      ],
      "name": "InitialGTGranted",
      "type": "event"
    },
    {
      "anonymous": false,
      "inputs": [],
      "name": "ManualGovernanceDisabled",
      "type": "event"
    },
    {
      "anonymous": false,
      "inputs": [
        {
          "indexed": false,
          "internalType": "string",
          "name": "reason",
          "type": "string"
        }
      ],
      "name": "ManualGovernanceTriggered",
      "type": "event"
    },
    {
      "anonymous": false,
      "inputs": [
        {
          "indexed": false,
          "internalType": "enum Governance.GovernancePhase",
          "name": "newPhase",
          "type": "uint8"
        }
      ],
      "name": "PhaseUpdated",
      "type": "event"
    },
    {
      "anonymous": false,
      "inputs": [
        {
          "indexed": true,
          "internalType": "uint256",
          "name": "proposalId",
          "type": "uint256"
        },
        {
          "indexed": true,
          "internalType": "address",
          "name": "proposer",
          "type": "address"
        },
        {
          "indexed": false,
          "internalType": "string",
          "name": "description",
          "type": "string"
        }
      ],
      "name": "ProposalCreated",
      "type": "event"
    },
    {
      "anonymous": false,
      "inputs": [
        {
          "indexed": true,
          "internalType": "uint256",
          "name": "proposalId",
          "type": "uint256"
        },
        {
          "indexed": false,
          "internalType": "bool",
          "name": "passed",
          "type": "bool"
        }
      ],
      "name": "ProposalExecuted",
      "type": "event"
    },
    {
      "anonymous": false,
      "inputs": [
        {
          "indexed": true,
          "internalType": "uint256",
          "name": "proposalId",
          "type": "uint256"
        },
        {
          "indexed": true,
          "internalType": "address",
          "name": "voter",
          "type": "address"
        },
        {
          "indexed": false,
          "internalType": "bool",
          "name": "support",
          "type": "bool"
        }
      ],
      "name": "ProposalVoted",
      "type": "event"
    },
    {
      "anonymous": false,
      "inputs": [
        {
          "indexed": true,
          "internalType": "address",
          "name": "user",
          "type": "address"
        }
      ],
      "name": "VerifierQualified",
      "type": "event"
    },
    {
      "anonymous": false,
      "inputs": [
        {
          "indexed": true,
          "internalType": "address",
          "name": "user",
          "type": "address"
        }
      ],
      "name": "VerifierRemoved",
      "type": "event"
    },
    {
      "inputs": [
        {
          "internalType": "address",
          "name": "",
          "type": "address"
        }
      ],
      "name": "GTBalance",
      "outputs": [
        {
          "internalType": "uint256",
          "name": "",
          "type": "uint256"
        }
      ],
      "stateMutability": "view",
      "type": "function"
    },
    {
      "inputs": [],
      "name": "MAX_INITIAL_GT",
      "outputs": [
        {
          "internalType": "uint256",
          "name": "",
          "type": "uint256"
        }
      ],
      "stateMutability": "view",
      "type": "function"
    },
    {
      "inputs": [],
      "name": "MIN_INITIAL_GT",
      "outputs": [
        {
          "internalType": "uint256",
          "name": "",
          "type": "uint256"
        }
      ],
      "stateMutability": "view",
      "type": "function"
    },
    {
      "inputs": [
        {
          "internalType": "address",
          "name": "user",
          "type": "address"
        }
      ],
      "name": "addCommittee",
      "outputs": [],
      "stateMutability": "nonpayable",
      "type": "function"
    },
    {
      "inputs": [
        {
          "internalType": "address",
          "name": "user",
          "type": "address"
        },
        {
          "internalType": "uint256",
          "name": "amount",
          "type": "uint256"
        }
      ],
      "name": "addGT",
      "outputs": [],
      "stateMutability": "nonpayable",
      "type": "function"
    },
    {
      "inputs": [
        {
          "internalType": "address",
          "name": "user",
          "type": "address"
        }
      ],
      "name": "checkQualification",
      "outputs": [],
      "stateMutability": "nonpayable",
      "type": "function"
    },
    {
      "inputs": [
        {
          "internalType": "address",
          "name": "",
          "type": "address"
        }
      ],
      "name": "committeeMembers",
      "outputs": [
        {
          "internalType": "bool",
          "name": "",
          "type": "bool"
        }
      ],
      "stateMutability": "view",
      "type": "function"
    },
    {
      "inputs": [
        {
          "internalType": "string",
          "name": "description",
          "type": "string"
        }
      ],
      "name": "createProposal",
      "outputs": [
        {
          "internalType": "uint256",
          "name": "",
          "type": "uint256"
        }
      ],
      "stateMutability": "nonpayable",
      "type": "function"
    },
    {
      "inputs": [],
      "name": "currentPhase",
      "outputs": [
        {
          "internalType": "enum Governance.GovernancePhase",
          "name": "",
          "type": "uint8"
        }
      ],
      "stateMutability": "view",
      "type": "function"
    },
    {
      "inputs": [
        {
          "internalType": "address",
          "name": "user",
          "type": "address"
        },
        {
          "internalType": "uint256",
          "name": "amount",
          "type": "uint256"
        }
      ],
      "name": "deductGT",
      "outputs": [],
      "stateMutability": "nonpayable",
      "type": "function"
    },
    {
      "inputs": [],
      "name": "disableManualGovernance",
      "outputs": [],
      "stateMutability": "nonpayable",
      "type": "function"
    },
    {
      "inputs": [
        {
          "internalType": "uint256",
          "name": "proposalId",
          "type": "uint256"
        }
      ],
      "name": "executeProposal",
      "outputs": [],
      "stateMutability": "nonpayable",
      "type": "function"
    },
    {
      "inputs": [
        {
          "internalType": "address",
          "name": "user",
          "type": "address"
        }
      ],
      "name": "getGT",
      "outputs": [
        {
          "internalType": "uint256",
          "name": "",
          "type": "uint256"
        }
      ],
      "stateMutability": "view",
      "type": "function"
    },
    {
      "inputs": [
        {
          "internalType": "uint256",
          "name": "proposalId",
          "type": "uint256"
        }
      ],
      "name": "getProposal",
      "outputs": [
        {
          "internalType": "uint256",
          "name": "id",
          "type": "uint256"
        },
        {
          "internalType": "string",
          "name": "description",
          "type": "string"
        },
        {
          "internalType": "address",
          "name": "proposer",
          "type": "address"
        },
        {
          "internalType": "uint256",
          "name": "yesVotes",
          "type": "uint256"
        },
        {
          "internalType": "uint256",
          "name": "noVotes",
          "type": "uint256"
        },
        {
          "internalType": "bool",
          "name": "executed",
          "type": "bool"
        },
        {
          "internalType": "bool",
          "name": "active",
          "type": "bool"
        }
      ],
      "stateMutability": "view",
      "type": "function"
    },
    {
      "inputs": [
        {
          "internalType": "address",
          "name": "user",
          "type": "address"
        },
        {
          "internalType": "uint256",
          "name": "amount",
          "type": "uint256"
        }
      ],
      "name": "grantInitialGT",
      "outputs": [],
      "stateMutability": "nonpayable",
      "type": "function"
    },
    {
      "inputs": [
        {
          "internalType": "uint256",
          "name": "",
          "type": "uint256"
        },
        {
          "internalType": "address",
          "name": "",
          "type": "address"
        }
      ],
      "name": "hasVoted",
      "outputs": [
        {
          "internalType": "bool",
          "name": "",
          "type": "bool"
        }
      ],
      "stateMutability": "view",
      "type": "function"
    },
    {
      "inputs": [
        {
          "internalType": "address",
          "name": "user",
          "type": "address"
        }
      ],
      "name": "isCommittee",
      "outputs": [
        {
          "internalType": "bool",
          "name": "",
          "type": "bool"
        }
      ],
      "stateMutability": "view",
      "type": "function"
    },
    {
      "inputs": [
        {
          "internalType": "address",
          "name": "user",
          "type": "address"
        }
      ],
      "name": "isVerifier",
      "outputs": [
        {
          "internalType": "bool",
          "name": "",
          "type": "bool"
        }
      ],
      "stateMutability": "view",
      "type": "function"
    },
    {
      "inputs": [],
      "name": "proposalCount",
      "outputs": [
        {
          "internalType": "uint256",
          "name": "",
          "type": "uint256"
        }
      ],
      "stateMutability": "view",
      "type": "function"
    },
    {
      "inputs": [
        {
          "internalType": "uint256",
          "name": "",
          "type": "uint256"
        }
      ],
      "name": "proposals",
      "outputs": [
        {
          "internalType": "uint256",
          "name": "id",
          "type": "uint256"
        },
        {
          "internalType": "string",
          "name": "description",
          "type": "string"
        },
        {
          "internalType": "address",
          "name": "proposer",
          "type": "address"
        },
        {
          "internalType": "uint256",
          "name": "yesVotes",
          "type": "uint256"
        },
        {
          "internalType": "uint256",
          "name": "noVotes",
          "type": "uint256"
        },
        {
          "internalType": "bool",
          "name": "executed",
          "type": "bool"
        },
        {
          "internalType": "bool",
          "name": "active",
          "type": "bool"
        }
      ],
      "stateMutability": "view",
      "type": "function"
    },
    {
      "inputs": [],
      "name": "qualifiedCount",
      "outputs": [
        {
          "internalType": "uint256",
          "name": "",
          "type": "uint256"
        }
      ],
      "stateMutability": "view",
      "type": "function"
    },
    {
      "inputs": [
        {
          "internalType": "address",
          "name": "",
          "type": "address"
        }
      ],
      "name": "qualifiedVerifier",
      "outputs": [
        {
          "internalType": "bool",
          "name": "",
          "type": "bool"
        }
      ],
      "stateMutability": "view",
      "type": "function"
    },
    {
      "inputs": [
        {
          "internalType": "address",
          "name": "user",
          "type": "address"
        }
      ],
      "name": "removeCommittee",
      "outputs": [],
      "stateMutability": "nonpayable",
      "type": "function"
    },
    {
      "inputs": [
        {
          "internalType": "string",
          "name": "reason",
          "type": "string"
        }
      ],
      "name": "triggerManualGovernance",
      "outputs": [],
      "stateMutability": "nonpayable",
      "type": "function"
    },
    {
      "inputs": [],
      "name": "updatePhase",
      "outputs": [],
      "stateMutability": "nonpayable",
      "type": "function"
    },
    {
      "inputs": [],
      "name": "verifierThreshold",
      "outputs": [
        {
          "internalType": "uint256",
          "name": "",
          "type": "uint256"
        }
      ],
      "stateMutability": "view",
      "type": "function"
    },
    {
      "inputs": [
        {
          "internalType": "uint256",
          "name": "proposalId",
          "type": "uint256"
        },
        {
          "internalType": "bool",
          "name": "support",
          "type": "bool"
        }
      ],
      "name": "voteProposal",
      "outputs": [],
      "stateMutability": "nonpayable",
      "type": "function"
    }
  ],
  "bytecode": "0x6080604052606460035534801561001557600080fd5b503360009081526001602081905260408220805460ff1990811690921790558154169055611aac806100486000396000f3fe608060405234801561001057600080fd5b50600436106101a95760003560e01c806349c2a1a6116100f95780639ca7acea11610097578063c7f758a811610071578063c7f758a8146103f6578063d521b8c514610409578063da35c6641461041c578063eed2e79f1461042557600080fd5b80639ca7acea146103d2578063b965f734146103db578063bcfb9b61146103e357600080fd5b80636956a5d2116100d35780636956a5d214610378578063731a477d146103805780638c9540d31461039357806396dffcbf146103bf57600080fd5b806349c2a1a6146103395780634f14b55d1461034c57806353f59d3b1461035557600080fd5b806322193e8911610166578063380462171161014057806338046217146102d057806343859632146102e357806344d3fed11461031157806345234de71461031957600080fd5b806322193e891461023a578063233dc47e1461026d57806333105218146102a457600080fd5b8063013cf08b146101ae578063034b9aae146101dd578063055ad42e146101e757806309e8f2ed146102015780630b3c6f08146102145780630d61b51914610227575b600080fd5b6101c16101bc366004611604565b610438565b6040516101d4979695949392919061161d565b60405180910390f35b6101e561050c565b005b6000546101f49060ff1681565b6040516101d491906116c9565b6101e561020f3660046116f1565b610516565b6101e561022236600461177f565b610599565b6101e5610235366004611604565b6106b4565b61025d6102483660046117a9565b60046020526000908152604090205460ff1681565b60405190151581526020016101d4565b61029661027b3660046117a9565b6001600160a01b031660009081526002602052604090205490565b6040519081526020016101d4565b61025d6102b23660046117a9565b6001600160a01b031660009081526004602052604090205460ff1690565b6101e56102de3660046117a9565b610836565b61025d6102f13660046117cb565b600860209081526000928352604080842090915290825290205460ff1681565b610296603281565b6102966103273660046117a9565b60026020526000908152604090205481565b6102966103473660046116f1565b610937565b61029660055481565b61025d6103633660046117a9565b60016020526000908152604090205460ff1681565b610296601481565b6101e561038e36600461177f565b610b41565b61025d6103a13660046117a9565b6001600160a01b031660009081526001602052604090205460ff1690565b6101e56103cd3660046117a9565b610c4f565b61029660035481565b6101e5610c89565b6101e56103f13660046117f7565b610dc8565b6101c1610404366004611604565b611019565b6101e56104173660046117a9565b61116d565b61029660065481565b6101e561043336600461177f565b611290565b6007602052600090815260409020805460018201805491929161045a9061182c565b80601f01602080910402602001604051908101604052809291908181526020018280546104869061182c565b80156104d35780601f106104a8576101008083540402835291602001916104d3565b820191906000526020600020905b8154815290600101906020018083116104b657829003601f168201915b5050505060028301546003840154600485015460059095015493946001600160a01b039092169390925060ff8082169161010090041687565b6105146113bb565b565b3360009081526001602052604090205460ff1661054e5760405162461bcd60e51b815260040161054590611866565b60405180910390fd5b6000805460ff191660031790556040517fe0a9bb272ad19498a3003e0d453db38e0923cd5e8e5cb1d87ab89853789f30bc9061058d908490849061188d565b60405180910390a15050565b3360009081526001602052604090205460ff166105c85760405162461bcd60e51b815260040161054590611866565b6001600160a01b0382166105ee5760405162461bcd60e51b8152600401610545906118bc565b600081116106335760405162461bcd60e51b81526020600482015260126024820152710416d6f756e74206d757374206265203e20360741b6044820152606401610545565b6001600160a01b0382166000908152600260205260408120805483929061065b9084906118fb565b90915550506040518181526001600160a01b038316907f99fadbaabd7bbb21f8694d7c4bdb2512bf8e1239b30a9a3ddf89619ae22f0951906020015b60405180910390a26106a88261149f565b6106b06113bb565b5050565b3360009081526001602052604090205460ff166106e35760405162461bcd60e51b815260040161054590611866565b6000818152600760205260408120805490910361073c5760405162461bcd60e51b8152602060048201526017602482015276141c9bdc1bdcd85b08191bd95cc81b9bdd08195e1a5cdd604a1b6044820152606401610545565b6005810154610100900460ff1661078e5760405162461bcd60e51b815260206004820152601660248201527550726f706f73616c206973206e6f742061637469766560501b6044820152606401610545565b600581015460ff16156107df5760405162461bcd60e51b8152602060048201526019602482015278141c9bdc1bdcd85b08185b1c9958591e48195e1958dd5d1959603a1b6044820152606401610545565b60058101805461ffff191660011790556004810154600382015460405191108082529083907f948f4a9cd986f1118c3fbd459f7a22b23c0693e1ca3ef06a6a8be5aa7d39cc039060200160405180910390a2505050565b3360009081526001602052604090205460ff166108655760405162461bcd60e51b815260040161054590611866565b6001600160a01b03811661088b5760405162461bcd60e51b8152600401610545906118bc565b6001600160a01b03811660009081526001602052604090205460ff16156108e85760405162461bcd60e51b8152602060048201526011602482015270416c726561647920636f6d6d697474656560781b6044820152606401610545565b6001600160a01b0381166000818152600160208190526040808320805460ff1916909217909155517f3d7ec2a7591efbf272e92f356bd60d86a31605d6f50bf19ba8751ce307965a849190a250565b60008161097a5760405162461bcd60e51b815260206004820152601160248201527022b6b83a3c903232b9b1b934b83a34b7b760791b6044820152606401610545565b3360009081526001602052604090205460ff166109d95760405162461bcd60e51b815260206004820152601a60248201527f4f6e6c7920636f6d6d69747465652063616e2070726f706f73650000000000006044820152606401610545565b600680549060006109e98361190e565b91905055506040518060e00160405280600654815260200184848080601f016020809104026020016040519081016040528093929190818152602001838380828437600092018290525093855250503360208085019190915260408085018490526060850184905260808501849052600160a090950185905260065484526007825290922084518155918401519192830191610a8691508261198c565b506040828101516002830180546001600160a01b0319166001600160a01b03909216919091179055606083015160038301556080830151600483015560a08301516005909201805460c09094015161ffff1990941692151561ff001916929092176101009315159390930292909217905560065490513391907f7585f467599d0f008985f231af99293be388626ac16ca59505c2f8f88969cd6390610b2e908790879061188d565b60405180910390a3506006545b92915050565b3360009081526001602052604090205460ff16610b705760405162461bcd60e51b815260040161054590611866565b6001600160a01b038216610b965760405162461bcd60e51b8152600401610545906118bc565b60148110158015610ba8575060328111155b610be75760405162461bcd60e51b815260206004820152601060248201526f496e76616c69642047542072616e676560801b6044820152606401610545565b6001600160a01b03821660009081526002602052604081208054839290610c0f9084906118fb565b90915550506040518181526001600160a01b038316907fd6b63df4f5bb5a0c77dfea0e46f35985e27d244eec539e5c2a7567cc32bb58b490602001610697565b6001600160a01b038116610c755760405162461bcd60e51b8152600401610545906118bc565b610c7e8161149f565b610c866113bb565b50565b3360009081526001602052604090205460ff16610cb85760405162461bcd60e51b815260040161054590611866565b600360005460ff166003811115610cd157610cd16116b3565b14610d135760405162461bcd60e51b81526020600482015260126024820152714e6f7420696e206d616e75616c206d6f646560701b6044820152606401610545565b600a60055410610d3757600080546002919060ff19166001835b0217905550610d5e565b6005805410610d5357600080546001919060ff19168280610d2d565b6000805460ff191690555b6040517fadb61cfd798ae86d6cab9be5454c9ac4007f7e4f2233ac25c5f5ed1fbb6b67b290600090a16000546040517f05ac19f4e6db6fd8b645dd056e4842cd2f63e0c6f0568176c17ef60e3c16732d91610dbe9160ff909116906116c9565b60405180910390a1565b60008281526007602052604081208054909103610e215760405162461bcd60e51b8152602060048201526017602482015276141c9bdc1bdcd85b08191bd95cc81b9bdd08195e1a5cdd604a1b6044820152606401610545565b6005810154610100900460ff16610e735760405162461bcd60e51b815260206004820152601660248201527550726f706f73616c206973206e6f742061637469766560501b6044820152606401610545565b600581015460ff1615610ec45760405162461bcd60e51b8152602060048201526019602482015278141c9bdc1bdcd85b08185b1c9958591e48195e1958dd5d1959603a1b6044820152606401610545565b600083815260086020908152604080832033845290915290205460ff1615610f1e5760405162461bcd60e51b815260206004820152600d60248201526c105b1c9958591e481d9bdd1959609a1b6044820152606401610545565b3360009081526001602052604090205460ff16610f7d5760405162461bcd60e51b815260206004820152601760248201527f4f6e6c7920636f6d6d69747465652063616e20766f74650000000000000000006044820152606401610545565b60008381526008602090815260408083203384529091529020805460ff191660011790558115610fc357600381018054906000610fb98361190e565b9190505550610fdb565b600481018054906000610fd58361190e565b91905055505b6040518215158152339084907f0def80f9a3b4c7a4251442658ccf516bf33ea4acaf31638fc6da8ebdb0f64c729060200160405180910390a3505050565b60006060600080600080600080600760008a81526020019081526020016000206040518060e00160405290816000820154815260200160018201805461105e9061182c565b80601f016020809104026020016040519081016040528092919081815260200182805461108a9061182c565b80156110d75780601f106110ac576101008083540402835291602001916110d7565b820191906000526020600020905b8154815290600101906020018083116110ba57829003601f168201915b505050918352505060028201546001600160a01b03166020808301919091526003830154604080840191909152600484015460608085019190915260059094015460ff808216151560808087019190915261010090920416151560a0948501528551928601519186015194860151908601519386015160c090960151929f919e50939c50929a5090985091965090945092505050565b3360009081526001602052604090205460ff1661119c5760405162461bcd60e51b815260040161054590611866565b6001600160a01b0381166111c25760405162461bcd60e51b8152600401610545906118bc565b6001600160a01b03811660009081526001602052604090205460ff166111fa5760405162461bcd60e51b815260040161054590611866565b336001600160a01b038216036112475760405162461bcd60e51b815260206004820152601260248201527121b0b73737ba103932b6b7bb329039b2b63360711b6044820152606401610545565b6001600160a01b038116600081815260016020526040808220805460ff19169055517f7a03e78100f5e4b822f4633cd9d55dd2220adc31155c2a03ac291fa0f902b4479190a250565b3360009081526001602052604090205460ff166112bf5760405162461bcd60e51b815260040161054590611866565b6001600160a01b0382166112e55760405162461bcd60e51b8152600401610545906118bc565b6000811161132a5760405162461bcd60e51b81526020600482015260126024820152710416d6f756e74206d757374206265203e20360741b6044820152606401610545565b6001600160a01b0382166000908152600260205260409020548111156113845760405162461bcd60e51b815260206004820152600f60248201526e125b9cdd59999a58da595b9d0811d5608a1b6044820152606401610545565b6001600160a01b038216600090815260026020526040812080548392906113ac908490611a4c565b909155506106a890508261149f565b600360005460ff1660038111156113d4576113d46116b3565b036113db57565b60005460055460ff90911690600a1161140857600080546002919060ff19166001835b021790555061142f565b600580541061142457600080546001919060ff191682806113fe565b6000805460ff191690555b60005460ff166003811115611446576114466116b3565b816003811115611458576114586116b3565b14610c86576000546040517f05ac19f4e6db6fd8b645dd056e4842cd2f63e0c6f0568176c17ef60e3c16732d916114949160ff909116906116c9565b60405180910390a150565b6003546001600160a01b038216600090815260026020526040902054108015906114e257506001600160a01b03811660009081526004602052604090205460ff16155b15611554576001600160a01b0381166000908152600460205260408120805460ff1916600117905560058054916115188361190e565b90915550506040516001600160a01b038216907f383b7d83c58db5e48f03a5392dca15b58dd5e3dfd94802da12e3abe6519c251890600090a250565b6003546001600160a01b03821660009081526002602052604090205410801561159557506001600160a01b03811660009081526004602052604090205460ff165b15610c86576001600160a01b0381166000908152600460205260408120805460ff1916905560058054916115c883611a5f565b90915550506040516001600160a01b038216907f44a3cd4eb5cc5748f6169df057b1cb2ae4c383e87cd94663c430e095d4cba42490600090a250565b60006020828403121561161657600080fd5b5035919050565b8781526000602060e08184015288518060e085015260005b81811015611652578a810183015185820161010001528201611635565b506101009150600082828601015281601f19601f8301168501019250505061168560408301886001600160a01b03169052565b85606083015284608083015261169f60a083018515159052565b82151560c083015298975050505050505050565b634e487b7160e01b600052602160045260246000fd5b60208101600483106116eb57634e487b7160e01b600052602160045260246000fd5b91905290565b6000806020838503121561170457600080fd5b823567ffffffffffffffff8082111561171c57600080fd5b818501915085601f83011261173057600080fd5b81358181111561173f57600080fd5b86602082850101111561175157600080fd5b60209290920196919550909350505050565b80356001600160a01b038116811461177a57600080fd5b919050565b6000806040838503121561179257600080fd5b61179b83611763565b946020939093013593505050565b6000602082840312156117bb57600080fd5b6117c482611763565b9392505050565b600080604083850312156117de57600080fd5b823591506117ee60208401611763565b90509250929050565b6000806040838503121561180a57600080fd5b823591506020830135801515811461182157600080fd5b809150509250929050565b600181811c9082168061184057607f821691505b60208210810361186057634e487b7160e01b600052602260045260246000fd5b50919050565b6020808252600d908201526c4e6f7420636f6d6d697474656560981b604082015260600190565b60208152816020820152818360408301376000818301604090810191909152601f909201601f19160101919050565b6020808252600f908201526e496e76616c6964206164647265737360881b604082015260600190565b634e487b7160e01b600052601160045260246000fd5b80820180821115610b3b57610b3b6118e5565b600060018201611920576119206118e5565b5060010190565b634e487b7160e01b600052604160045260246000fd5b601f82111561198757600081815260208120601f850160051c810160208610156119645750805b601f850160051c820191505b8181101561198357828155600101611970565b5050505b505050565b815167ffffffffffffffff8111156119a6576119a6611927565b6119ba816119b4845461182c565b8461193d565b602080601f8311600181146119ef57600084156119d75750858301515b600019600386901b1c1916600185901b178555611983565b600085815260208120601f198616915b82811015611a1e578886015182559484019460019091019084016119ff565b5085821015611a3c5787850151600019600388901b60f8161c191681555b5050505050600190811b01905550565b81810381811115610b3b57610b3b6118e5565b600081611a6e57611a6e6118e5565b50600019019056fea2646970667358221220ca0c92e764beb46c2c6e3a5ec93aa585e4c0029267f7bec765e61e6202b93d9764736f6c63430008140033",
  "linkReferences": {},
  "deployedLinkReferences": {}
}