{
  "_format": "hh-sol-artifact-1",
  "contractName": "RewardRedemption",
  "sourceName": "Contracts/RewardRedemption.sol",
  "abi": [
    {
      "inputs": [
        {
          "internalType": "address",
          "name": "_rt",
          "type": "address"
        },
        {
          "internalType": "address",
          "name": "_amm",
          "type": "address"
        },
        {
          "internalType": "address",
          "name": "_committee",
          "type": "address"
        }
      ],
      "stateMutability": "nonpayable",
      "type": "constructor"
    },
    {
      "inputs": [],
      "name": "InsufficientReserves",
      "type": "error"
    },
    {
      "inputs": [],
      "name": "NotCommitteeMember",
      "type": "error"
    },
    {
      "inputs": [],
      "name": "ReentrancyGuardReentrantCall",
      "type": "error"
    },
    {
      "inputs": [],
      "name": "RewardNotActive",
      "type": "error"
    },
    {
      "anonymous": false,
      "inputs": [
        {
          "indexed": true,
          "internalType": "uint256",
          "name": "id",
          "type": "uint256"
        },
        {
          "indexed": false,
          "internalType": "string",
          "name": "name",
          "type": "string"
        },
        {
          "indexed": false,
          "internalType": "uint256",
          "name": "baseCost",
          "type": "uint256"
        }
      ],
      "name": "RewardAdded",
      "type": "event"
    },
    {
      "anonymous": false,
      "inputs": [
        {
          "indexed": true,
          "internalType": "address",
          "name": "user",
          "type": "address"
        },
        {
          "indexed": true,
          "internalType": "uint256",
          "name": "rewardId",
          "type": "uint256"
        },
        {
          "indexed": false,
          "internalType": "uint256",
          "name": "cost",
          "type": "uint256"
        }
      ],
      "name": "RewardRedeemed",
      "type": "event"
    },
    {
      "anonymous": false,
      "inputs": [
        {
          "indexed": true,
          "internalType": "uint256",
          "name": "id",
          "type": "uint256"
        }
      ],
      "name": "RewardRemoved",
      "type": "event"
    },
    {
      "inputs": [
        {
          "internalType": "string",
          "name": "_name",
          "type": "string"
        },
        {
          "internalType": "uint256",
          "name": "_baseCost",
          "type": "uint256"
        }
      ],
      "name": "addReward",
      "outputs": [],
      "stateMutability": "nonpayable",
      "type": "function"
    },
    {
      "inputs": [],
      "name": "ammPool",
      "outputs": [
        {
          "internalType": "contract IAMMPool",
          "name": "",
          "type": "address"
        }
      ],
      "stateMutability": "view",
      "type": "function"
    },
    {
      "inputs": [],
      "name": "committeeManager",
      "outputs": [
        {
          "internalType": "contract ICommitteeManager",
          "name": "",
          "type": "address"
        }
      ],
      "stateMutability": "view",
      "type": "function"
    },
    {
      "inputs": [],
      "name": "getCatalog",
      "outputs": [
        {
          "components": [
            {
              "internalType": "string",
              "name": "name",
              "type": "string"
            },
            {
              "internalType": "uint256",
              "name": "baseCost",
              "type": "uint256"
            },
            {
              "internalType": "bool",
              "name": "active",
              "type": "bool"
            }
          ],
          "internalType": "struct RewardRedemption.Reward[]",
          "name": "",
          "type": "tuple[]"
        }
      ],
      "stateMutability": "view",
      "type": "function"
    },
    {
      "inputs": [
        {
          "internalType": "uint256",
          "name": "_id",
          "type": "uint256"
        }
      ],
      "name": "getCurrentCost",
      "outputs": [
        {
          "internalType": "uint256",
          "name": "",
          "type": "uint256"
        }
      ],
      "stateMutability": "view",
      "type": "function"
    },
    {
      "inputs": [],
      "name": "nextRewardId",
      "outputs": [
        {
          "internalType": "uint256",
          "name": "",
          "type": "uint256"
        }
      ],
      "stateMutability": "view",
      "type": "function"
    },
    {
      "inputs": [
        {
          "internalType": "uint256",
          "name": "_id",
          "type": "uint256"
        }
      ],
      "name": "redeem",
      "outputs": [],
      "stateMutability": "nonpayable",
      "type": "function"
    },
    {
      "inputs": [
        {
          "internalType": "uint256",
          "name": "_id",
          "type": "uint256"
        }
      ],
      "name": "removeReward",
      "outputs": [],
      "stateMutability": "nonpayable",
      "type": "function"
    },
    {
      "inputs": [],
      "name": "rewardToken",
      "outputs": [
        {
          "internalType": "contract IRewardToken",
          "name": "",
          "type": "address"
        }
      ],
      "stateMutability": "view",
      "type": "function"
    },
    {
      "inputs": [
        {
          "internalType": "uint256",
          "name": "",
          "type": "uint256"
        }
      ],
      "name": "rewards",
      "outputs": [
        {
          "internalType": "string",
          "name": "name",
          "type": "string"
        },
        {
          "internalType": "uint256",
          "name": "baseCost",
          "type": "uint256"
        },
        {
          "internalType": "bool",
          "name": "active",
          "type": "bool"
        }
      ],
      "stateMutability": "view",
      "type": "function"
    }
  ],
  "bytecode": "0x60e060405234801561001057600080fd5b50604051610ecf380380610ecf83398101604081905261002f9161008c565b60017f9b779b17422d0df92223018b32b4d1fa46e071723d6817e2486d003becc55f00556001600160a01b0392831660805290821660a0521660c0526100cf565b80516001600160a01b038116811461008757600080fd5b919050565b6000806000606084860312156100a157600080fd5b6100aa84610070565b92506100b860208501610070565b91506100c660408501610070565b90509250925092565b60805160a05160c051610db061011f6000396000818160ec01528181610368015261045001526000818160a80152818161070101526107870152600081816101af01526106020152610db06000f3fe608060405234801561001057600080fd5b506004361061009e5760003560e01c8063db006a7511610066578063db006a751461014b578063e57b9e951461015e578063f064997c1461017f578063f301af4214610188578063f7c618c1146101aa57600080fd5b80631899b506146100a35780637e8611e2146100e7578063c0bf3e231461010e578063c553173f14610123578063cdd35d4c14610138575b600080fd5b6100ca7f000000000000000000000000000000000000000000000000000000000000000081565b6040516001600160a01b0390911681526020015b60405180910390f35b6100ca7f000000000000000000000000000000000000000000000000000000000000000081565b6101166101d1565b6040516100de91906109b6565b610136610131366004610a39565b610353565b005b610136610146366004610a52565b61043b565b610136610159366004610a39565b6105d0565b61017161016c366004610a39565b6106ca565b6040519081526020016100de565b61017160015481565b61019b610196366004610a39565b610850565b6040516100de93929190610aca565b6100ca7f000000000000000000000000000000000000000000000000000000000000000081565b6060600060015467ffffffffffffffff8111156101f0576101f0610af4565b60405190808252806020026020018201604052801561024757816020015b610234604051806060016040528060608152602001600081526020016000151581525090565b81526020019060019003908161020e5790505b50905060005b60015481101561034d576000818152602081905260409081902081516060810190925280548290829061027f90610b0a565b80601f01602080910402602001604051908101604052809291908181526020018280546102ab90610b0a565b80156102f85780601f106102cd576101008083540402835291602001916102f8565b820191906000526020600020905b8154815290600101906020018083116102db57829003601f168201915b50505091835250506001820154602082015260029091015460ff161515604090910152825183908390811061032f5761032f610b3e565b6020026020010181905250808061034590610b6a565b91505061024d565b50919050565b60405163e636d84b60e01b81523360048201527f00000000000000000000000000000000000000000000000000000000000000006001600160a01b03169063e636d84b90602401602060405180830381865afa1580156103b7573d6000803e3d6000fd5b505050506040513d601f19601f820116820180604052508101906103db9190610b83565b6103f8576040516347ca878b60e11b815260040160405180910390fd5b600081815260208190526040808220600201805460ff191690555182917f5d3a571a89edce81bd931e9d740ff7f0560940fc502a27f178f002eca691dfd991a250565b60405163e636d84b60e01b81523360048201527f00000000000000000000000000000000000000000000000000000000000000006001600160a01b03169063e636d84b90602401602060405180830381865afa15801561049f573d6000803e3d6000fd5b505050506040513d601f19601f820116820180604052508101906104c39190610b83565b6104e0576040516347ca878b60e11b815260040160405180910390fd5b604051806060016040528084848080601f0160208091040260200160405190810160405280939291908181526020018383808284376000920182905250938552505050602080830185905260016040938401819052548252819052208151819061054a9082610bfb565b506020820151816001015560408201518160020160006101000a81548160ff0219169083151502179055509050506001547f37c72785eab64b1da5fbd974ad0d1cabd3165254886ab44bb84dbb855c98db598484846040516105ae93929190610cbb565b60405180910390a2600180549060006105c683610b6a565b9190505550505050565b6105d86108fe565b60006105e3826106ca565b60405163079cc67960e41b8152336004820152602481018290529091507f00000000000000000000000000000000000000000000000000000000000000006001600160a01b0316906379cc679090604401600060405180830381600087803b15801561064e57600080fd5b505af1158015610662573d6000803e3d6000fd5b50506040518381528492503391507fc37465ff193f774057dca6e5213393c0be6539811e14d27361449666b618ecff9060200160405180910390a3506106c760017f9b779b17422d0df92223018b32b4d1fa46e071723d6817e2486d003becc55f0055565b50565b6000818152602081905260408120600281015460ff166106fd5760405163f6dc03f760e01b815260040160405180910390fd5b60007f00000000000000000000000000000000000000000000000000000000000000006001600160a01b03166303d167526040518163ffffffff1660e01b8152600401602060405180830381865afa15801561075d573d6000803e3d6000fd5b505050506040513d601f19601f820116820180604052508101906107819190610cf4565b905060007f00000000000000000000000000000000000000000000000000000000000000006001600160a01b0316630902f1ac6040518163ffffffff1660e01b8152600401606060405180830381865afa1580156107e3573d6000803e3d6000fd5b505050506040513d601f19601f820116820180604052508101906108079190610d0d565b509150508060000361082c5760405163128bd24d60e31b815260040160405180910390fd5b8082846001015461083d9190610d3b565b6108479190610d58565b95945050505050565b60006020819052908152604090208054819061086b90610b0a565b80601f016020809104026020016040519081016040528092919081815260200182805461089790610b0a565b80156108e45780601f106108b9576101008083540402835291602001916108e4565b820191906000526020600020905b8154815290600101906020018083116108c757829003601f168201915b50505050600183015460029093015491929160ff16905083565b61090661092c565b60027f9b779b17422d0df92223018b32b4d1fa46e071723d6817e2486d003becc55f0055565b7f9b779b17422d0df92223018b32b4d1fa46e071723d6817e2486d003becc55f005460020361096e57604051633ee5aeb560e01b815260040160405180910390fd5b565b6000815180845260005b818110156109965760208185018101518683018201520161097a565b506000602082860101526020601f19601f83011685010191505092915050565b60006020808301818452808551808352604092508286019150828160051b87010184880160005b83811015610a2b57603f19898403018552815160608151818652610a0382870182610970565b838b0151878c01529289015115159589019590955250948701949250908601906001016109dd565b509098975050505050505050565b600060208284031215610a4b57600080fd5b5035919050565b600080600060408486031215610a6757600080fd5b833567ffffffffffffffff80821115610a7f57600080fd5b818601915086601f830112610a9357600080fd5b813581811115610aa257600080fd5b876020828501011115610ab457600080fd5b6020928301989097509590910135949350505050565b606081526000610add6060830186610970565b602083019490945250901515604090910152919050565b634e487b7160e01b600052604160045260246000fd5b600181811c90821680610b1e57607f821691505b60208210810361034d57634e487b7160e01b600052602260045260246000fd5b634e487b7160e01b600052603260045260246000fd5b634e487b7160e01b600052601160045260246000fd5b600060018201610b7c57610b7c610b54565b5060010190565b600060208284031215610b9557600080fd5b81518015158114610ba557600080fd5b9392505050565b601f821115610bf657600081815260208120601f850160051c81016020861015610bd35750805b601f850160051c820191505b81811015610bf257828155600101610bdf565b5050505b505050565b815167ffffffffffffffff811115610c1557610c15610af4565b610c2981610c238454610b0a565b84610bac565b602080601f831160018114610c5e5760008415610c465750858301515b600019600386901b1c1916600185901b178555610bf2565b600085815260208120601f198616915b82811015610c8d57888601518255948401946001909101908401610c6e565b5085821015610cab5787850151600019600388901b60f8161c191681555b5050505050600190811b01905550565b604081528260408201528284606083013760006060848301015260006060601f19601f8601168301019050826020830152949350505050565b600060208284031215610d0657600080fd5b5051919050565b600080600060608486031215610d2257600080fd5b8351925060208401519150604084015190509250925092565b8082028115828204841417610d5257610d52610b54565b92915050565b600082610d7557634e487b7160e01b600052601260045260246000fd5b50049056fea2646970667358221220769609a50ed516102083abb46151579650ff82d83073fd3fc4bf0999073a476764736f6c63430008140033",
  "linkReferences": {},
  "deployedLinkReferences": {}
}