{
  "_format": "hh-sol-artifact-1",
  "contractName": "RewardToken",
  "sourceName": "Contracts/RewardToken.sol",
  "abi": [
    {
      "inputs": [
        {
          "internalType": "string",
          "name": "name",
          "type": "string"
        },
        {
          "internalType": "string",
          "name": "symbol",
          "type": "string"
        },
        {
          "internalType": "address",
          "name": "_committee",
          "type": "address"
        }
      ],
      "stateMutability": "nonpayable",
      "type": "constructor"
    },
    {
      "inputs": [
        {
          "internalType": "address",
          "name": "spender",
          "type": "address"
        },
        {
          "internalType": "uint256",
          "name": "allowance",
          "type": "uint256"
        },
        {
          "internalType": "uint256",
          "name": "needed",
          "type": "uint256"
        }
      ],
      "name": "ERC20InsufficientAllowance",
      "type": "error"
    },
    {
      "inputs": [
        {
          "internalType": "address",
          "name": "sender",
          "type": "address"
        },
        {
          "internalType": "uint256",
          "name": "balance",
          "type": "uint256"
        },
        {
          "internalType": "uint256",
          "name": "needed",
          "type": "uint256"
        }
      ],
      "name": "ERC20InsufficientBalance",
      "type": "error"
    },
    {
      "inputs": [
        {
          "internalType": "address",
          "name": "approver",
          "type": "address"
        }
      ],
      "name": "ERC20InvalidApprover",
      "type": "error"
    },
    {
      "inputs": [
        {
          "internalType": "address",
          "name": "receiver",
          "type": "address"
        }
      ],
      "name": "ERC20InvalidReceiver",
      "type": "error"
    },
    {
      "inputs": [
        {
          "internalType": "address",
          "name": "sender",
          "type": "address"
        }
      ],
      "name": "ERC20InvalidSender",
      "type": "error"
    },
    {
      "inputs": [
        {
          "internalType": "address",
          "name": "spender",
          "type": "address"
        }
      ],
      "name": "ERC20InvalidSpender",
      "type": "error"
    },
    {
      "anonymous": false,
      "inputs": [
        {
          "indexed": true,
          "internalType": "address",
          "name": "owner",
          "type": "address"
        },
        {
          "indexed": true,
          "internalType": "address",
          "name": "spender",
          "type": "address"
        },
        {
          "indexed": false,
          "internalType": "uint256",
          "name": "value",
          "type": "uint256"
        }
      ],
      "name": "Approval",
      "type": "event"
    },
    {
      "anonymous": false,
      "inputs": [
        {
          "indexed": true,
          "internalType": "address",
          "name": "from",
          "type": "address"
        },
        {
          "indexed": false,
          "internalType": "uint256",
          "name": "amount",
          "type": "uint256"
        }
      ],
      "name": "Burned",
      "type": "event"
    },
    {
      "anonymous": false,
      "inputs": [
        {
          "indexed": true,
          "internalType": "address",
          "name": "to",
          "type": "address"
        },
        {
          "indexed": false,
          "internalType": "uint256",
          "name": "amount",
          "type": "uint256"
        }
      ],
      "name": "Minted",
      "type": "event"
    },
    {
      "anonymous": false,
      "inputs": [
        {
          "indexed": true,
          "internalType": "address",
          "name": "newMinter",
          "type": "address"
        }
      ],
      "name": "MinterUpdated",
      "type": "event"
    },
    {
      "anonymous": false,
      "inputs": [
        {
          "indexed": true,
          "internalType": "address",
          "name": "from",
          "type": "address"
        },
        {
          "indexed": true,
          "internalType": "address",
          "name": "to",
          "type": "address"
        },
        {
          "indexed": false,
          "internalType": "uint256",
          "name": "value",
          "type": "uint256"
        }
      ],
      "name": "Transfer",
      "type": "event"
    },
    {
      "inputs": [
        {
          "internalType": "address",
          "name": "owner",
          "type": "address"
        },
        {
          "internalType": "address",
          "name": "spender",
          "type": "address"
        }
      ],
      "name": "allowance",
      "outputs": [
        {
          "internalType": "uint256",
          "name": "",
          "type": "uint256"
        }
      ],
      "stateMutability": "view",
      "type": "function"
    },
    {
      "inputs": [
        {
          "internalType": "address",
          "name": "spender",
          "type": "address"
        },
        {
          "internalType": "uint256",
          "name": "value",
          "type": "uint256"
        }
      ],
      "name": "approve",
      "outputs": [
        {
          "internalType": "bool",
          "name": "",
          "type": "bool"
        }
      ],
      "stateMutability": "nonpayable",
      "type": "function"
    },
    {
      "inputs": [
        {
          "internalType": "address",
          "name": "account",
          "type": "address"
        }
      ],
      "name": "balanceOf",
      "outputs": [
        {
          "internalType": "uint256",
          "name": "",
          "type": "uint256"
        }
      ],
      "stateMutability": "view",
      "type": "function"
    },
    {
      "inputs": [
        {
          "internalType": "uint256",
          "name": "amount",
          "type": "uint256"
        }
      ],
      "name": "burn",
      "outputs": [],
      "stateMutability": "nonpayable",
      "type": "function"
    },
    {
      "inputs": [
        {
          "internalType": "address",
          "name": "account",
          "type": "address"
        },
        {
          "internalType": "uint256",
          "name": "amount",
          "type": "uint256"
        }
      ],
      "name": "burnFrom",
      "outputs": [],
      "stateMutability": "nonpayable",
      "type": "function"
    },
    {
      "inputs": [],
      "name": "committee",
      "outputs": [
        {
          "internalType": "contract ICommitteeManager",
          "name": "",
          "type": "address"
        }
      ],
      "stateMutability": "view",
      "type": "function"
    },
    {
      "inputs": [],
      "name": "decimals",
      "outputs": [
        {
          "internalType": "uint8",
          "name": "",
          "type": "uint8"
        }
      ],
      "stateMutability": "pure",
      "type": "function"
    },
    {
      "inputs": [
        {
          "internalType": "address",
          "name": "to",
          "type": "address"
        },
        {
          "internalType": "uint256",
          "name": "amount",
          "type": "uint256"
        }
      ],
      "name": "mint",
      "outputs": [],
      "stateMutability": "nonpayable",
      "type": "function"
    },
    {
      "inputs": [],
      "name": "minter",
      "outputs": [
        {
          "internalType": "address",
          "name": "",
          "type": "address"
        }
      ],
      "stateMutability": "view",
      "type": "function"
    },
    {
      "inputs": [],
      "name": "name",
      "outputs": [
        {
          "internalType": "string",
          "name": "",
          "type": "string"
        }
      ],
      "stateMutability": "view",
      "type": "function"
    },
    {
      "inputs": [
        {
          "internalType": "address",
          "name": "_minter",
          "type": "address"
        }
      ],
      "name": "setMinter",
      "outputs": [],
      "stateMutability": "nonpayable",
      "type": "function"
    },
    {
      "inputs": [],
      "name": "symbol",
      "outputs": [
        {
          "internalType": "string",
          "name": "",
          "type": "string"
        }
      ],
      "stateMutability": "view",
      "type": "function"
    },
    {
      "inputs": [],
      "name": "totalSupply",
      "outputs": [
        {
          "internalType": "uint256",
          "name": "",
          "type": "uint256"
        }
      ],
      "stateMutability": "view",
      "type": "function"
    },
    {
      "inputs": [
        {
          "internalType": "address",
          "name": "to",
          "type": "address"
        },
        {
          "internalType": "uint256",
          "name": "value",
          "type": "uint256"
        }
      ],
      "name": "transfer",
      "outputs": [
        {
          "internalType": "bool",
          "name": "",
          "type": "bool"
        }
      ],
      "stateMutability": "nonpayable",
      "type": "function"
    },
    {
      "inputs": [
        {
          "internalType": "address",
          "name": "from",
          "type": "address"
        },
        {
          "internalType": "address",
          "name": "to",
          "type": "address"
        },
        {
          "internalType": "uint256",
          "name": "value",
          "type": "uint256"
        }
      ],
      "name": "transferFrom",
      "outputs": [
        {
          "internalType": "bool",
          "name": "",
          "type": "bool"
        }
      ],
      "stateMutability": "nonpayable",
      "type": "function"
    }
  ],
  "bytecode": "0x60a06040523480156200001157600080fd5b50604051620010163803806200101683398101604081905262000034916200017f565b828260036200004483826200029b565b5060046200005382826200029b565b5050506001600160a01b038116620000a55760405162461bcd60e51b8152602060048201526011602482015270496e76616c696420636f6d6d697474656560781b604482015260640160405180910390fd5b6001600160a01b031660805250620003679050565b634e487b7160e01b600052604160045260246000fd5b600082601f830112620000e257600080fd5b81516001600160401b0380821115620000ff57620000ff620000ba565b604051601f8301601f19908116603f011681019082821181831017156200012a576200012a620000ba565b816040528381526020925086838588010111156200014757600080fd5b600091505b838210156200016b57858201830151818301840152908201906200014c565b600093810190920192909252949350505050565b6000806000606084860312156200019557600080fd5b83516001600160401b0380821115620001ad57600080fd5b620001bb87838801620000d0565b94506020860151915080821115620001d257600080fd5b50620001e186828701620000d0565b604086015190935090506001600160a01b03811681146200020157600080fd5b809150509250925092565b600181811c908216806200022157607f821691505b6020821081036200024257634e487b7160e01b600052602260045260246000fd5b50919050565b601f8211156200029657600081815260208120601f850160051c81016020861015620002715750805b601f850160051c820191505b8181101562000292578281556001016200027d565b5050505b505050565b81516001600160401b03811115620002b757620002b7620000ba565b620002cf81620002c884546200020c565b8462000248565b602080601f831160018114620003075760008415620002ee5750858301515b600019600386901b1c1916600185901b17855562000292565b600085815260208120601f198616915b82811015620003385788860151825594840194600190910190840162000317565b5085821015620003575787850151600019600388901b60f8161c191681555b5050505050600190811b01905550565b608051610c8c6200038a6000396000818161021e01526105ae0152610c8c6000f3fe608060405234801561001057600080fd5b50600436106100f55760003560e01c806342966c6811610097578063a9059cbb11610066578063a9059cbb14610206578063d864e74014610219578063dd62ed3e14610240578063fca3b5aa1461027957600080fd5b806342966c68146101af57806370a08231146101c257806379cc6790146101eb57806395d89b41146101fe57600080fd5b806318160ddd116100d357806318160ddd1461016657806323b872dd14610178578063313ce5671461018b57806340c10f191461019a57600080fd5b806306fdde03146100fa5780630754617214610118578063095ea7b314610143575b600080fd5b61010261028c565b60405161010f9190610a6f565b60405180910390f35b60055461012b906001600160a01b031681565b6040516001600160a01b03909116815260200161010f565b610156610151366004610ad9565b61031e565b604051901515815260200161010f565b6002545b60405190815260200161010f565b610156610186366004610b03565b610338565b6040516000815260200161010f565b6101ad6101a8366004610ad9565b61035c565b005b6101ad6101bd366004610b3f565b61046e565b61016a6101d0366004610b58565b6001600160a01b031660009081526020819052604090205490565b6101ad6101f9366004610ad9565b6104cf565b61010261057c565b610156610214366004610ad9565b61058b565b61012b7f000000000000000000000000000000000000000000000000000000000000000081565b61016a61024e366004610b7a565b6001600160a01b03918216600090815260016020908152604080832093909416825291909152205490565b6101ad610287366004610b58565b610599565b60606003805461029b90610bad565b80601f01602080910402602001604051908101604052809291908181526020018280546102c790610bad565b80156103145780601f106102e957610100808354040283529160200191610314565b820191906000526020600020905b8154815290600101906020018083116102f757829003601f168201915b5050505050905090565b60003361032c8185856106ee565b60019150505b92915050565b600033610346858285610700565b61035185858561077f565b506001949350505050565b6005546001600160a01b031633146103b35760405162461bcd60e51b81526020600482015260156024820152742737ba1030baba3437b934bd32b21036b4b73a32b960591b60448201526064015b60405180910390fd5b6001600160a01b0382166103fd5760405162461bcd60e51b8152602060048201526011602482015270125b9d985b1a59081c9958da5c1a595b9d607a1b60448201526064016103aa565b6000811161041d5760405162461bcd60e51b81526004016103aa90610be7565b61042782826107de565b816001600160a01b03167f30385c845b448a36257a6a1716e6ad2e1bc2cbe333cde1e69fe849ad6511adfe8260405161046291815260200190565b60405180910390a25050565b6000811161048e5760405162461bcd60e51b81526004016103aa90610be7565b61049781610818565b60405181815233907f696de425f79f4a40bc6d2122ca50507f0efbeabbff86a84871b7196ab8ea8df79060200160405180910390a250565b6001600160a01b0382166105175760405162461bcd60e51b815260206004820152600f60248201526e125b9d985b1a59081858d8dbdd5b9d608a1b60448201526064016103aa565b600081116105375760405162461bcd60e51b81526004016103aa90610be7565b6105418282610825565b816001600160a01b03167f696de425f79f4a40bc6d2122ca50507f0efbeabbff86a84871b7196ab8ea8df78260405161046291815260200190565b60606004805461029b90610bad565b60003361032c81858561077f565b60405163e636d84b60e01b81523360048201527f00000000000000000000000000000000000000000000000000000000000000006001600160a01b03169063e636d84b90602401602060405180830381865afa1580156105fd573d6000803e3d6000fd5b505050506040513d601f19601f820116820180604052508101906106219190610c13565b61065d5760405162461bcd60e51b815260206004820152600d60248201526c4e6f7420636f6d6d697474656560981b60448201526064016103aa565b6001600160a01b0381166106a45760405162461bcd60e51b815260206004820152600e60248201526d24b73b30b634b21036b4b73a32b960911b60448201526064016103aa565b600580546001600160a01b0319166001600160a01b0383169081179091556040517fad0f299ec81a386c98df0ac27dae11dd020ed1b56963c53a7292e7a3a314539a90600090a250565b6106fb838383600161083a565b505050565b6001600160a01b03838116600090815260016020908152604080832093861683529290522054600019811015610779578181101561076a57604051637dc7a0d960e11b81526001600160a01b038416600482015260248101829052604481018390526064016103aa565b6107798484848403600061083a565b50505050565b6001600160a01b0383166107a957604051634b637e8f60e11b8152600060048201526024016103aa565b6001600160a01b0382166107d35760405163ec442f0560e01b8152600060048201526024016103aa565b6106fb83838361090f565b6001600160a01b0382166108085760405163ec442f0560e01b8152600060048201526024016103aa565b6108146000838361090f565b5050565b6108223382610a39565b50565b610830823383610700565b6108148282610a39565b6001600160a01b0384166108645760405163e602df0560e01b8152600060048201526024016103aa565b6001600160a01b03831661088e57604051634a1406b160e11b8152600060048201526024016103aa565b6001600160a01b038085166000908152600160209081526040808320938716835292905220829055801561077957826001600160a01b0316846001600160a01b03167f8c5be1e5ebec7d5bd14f71427d1e84f3dd0314c0f7b2291e5b200ac8c7c3b9258460405161090191815260200190565b60405180910390a350505050565b6001600160a01b03831661093a57806002600082825461092f9190610c35565b909155506109ac9050565b6001600160a01b0383166000908152602081905260409020548181101561098d5760405163391434e360e21b81526001600160a01b038516600482015260248101829052604481018390526064016103aa565b6001600160a01b03841660009081526020819052604090209082900390555b6001600160a01b0382166109c8576002805482900390556109e7565b6001600160a01b03821660009081526020819052604090208054820190555b816001600160a01b0316836001600160a01b03167fddf252ad1be2c89b69c2b068fc378daa952ba7f163c4a11628f55a4df523b3ef83604051610a2c91815260200190565b60405180910390a3505050565b6001600160a01b038216610a6357604051634b637e8f60e11b8152600060048201526024016103aa565b6108148260008361090f565b600060208083528351808285015260005b81811015610a9c57858101830151858201604001528201610a80565b506000604082860101526040601f19601f8301168501019250505092915050565b80356001600160a01b0381168114610ad457600080fd5b919050565b60008060408385031215610aec57600080fd5b610af583610abd565b946020939093013593505050565b600080600060608486031215610b1857600080fd5b610b2184610abd565b9250610b2f60208501610abd565b9150604084013590509250925092565b600060208284031215610b5157600080fd5b5035919050565b600060208284031215610b6a57600080fd5b610b7382610abd565b9392505050565b60008060408385031215610b8d57600080fd5b610b9683610abd565b9150610ba460208401610abd565b90509250929050565b600181811c90821680610bc157607f821691505b602082108103610be157634e487b7160e01b600052602260045260246000fd5b50919050565b6020808252601290820152710416d6f756e74206d757374206265203e20360741b604082015260600190565b600060208284031215610c2557600080fd5b81518015158114610b7357600080fd5b8082018082111561033257634e487b7160e01b600052601160045260246000fdfea2646970667358221220df7395f366e3af037d1e180678319449258faddff73d232ed4047a16fe42718a64736f6c63430008140033",
  "linkReferences": {},
  "deployedLinkReferences": {}
}