{
  "_format": "hh-sol-artifact-1",
  "contractName": "CommitteeManager",
  "sourceName": "Contracts/CommitteeManager.sol",
  "abi": [
    {
      "inputs": [
        {
          "internalType": "address[]",
          "name": "_members",
          "type": "address[]"
        }
      ],
      "stateMutability": "nonpayable",
      "type": "constructor"
    },
    {
      "inputs": [],
      "name": "AlreadyApproved",
      "type": "error"
    },
    {
      "inputs": [],
      "name": "AlreadyMember",
      "type": "error"
    },
    {
      "inputs": [],
      "name": "DuplicateMember",
      "type": "error"
    },
    {
      "inputs": [],
      "name": "EmptyProposalData",
      "type": "error"
    },
    {
      "inputs": [],
      "name": "InvalidMemberCount",
      "type": "error"
    },
    {
      "inputs": [],
      "name": "MaxMembersReached",
      "type": "error"
    },
    {
      "inputs": [],
      "name": "MinMembersReached",
      "type": "error"
    },
    {
      "inputs": [],
      "name": "NotAMember",
      "type": "error"
    },
    {
      "inputs": [],
      "name": "NotCommitteeMember",
      "type": "error"
    },
    {
      "inputs": [],
      "name": "OnlyProposerCanCancel",
      "type": "error"
    },
    {
      "inputs": [],
      "name": "ProposalAlreadyConsumed",
      "type": "error"
    },
    {
      "inputs": [],
      "name": "ProposalExpired",
      "type": "error"
    },
    {
      "inputs": [],
      "name": "ProposalNotExecuted",
      "type": "error"
    },
    {
      "inputs": [],
      "name": "ProposalNotFound",
      "type": "error"
    },
    {
      "inputs": [],
      "name": "ProposalNotPending",
      "type": "error"
    },
    {
      "inputs": [],
      "name": "TargetMismatch",
      "type": "error"
    },
    {
      "inputs": [],
      "name": "ZeroAddress",
      "type": "error"
    },
    {
      "anonymous": false,
      "inputs": [
        {
          "indexed": true,
          "internalType": "address",
          "name": "member",
          "type": "address"
        }
      ],
      "name": "MemberAdded",
      "type": "event"
    },
    {
      "anonymous": false,
      "inputs": [
        {
          "indexed": true,
          "internalType": "address",
          "name": "member",
          "type": "address"
        }
      ],
      "name": "MemberRemoved",
      "type": "event"
    },
    {
      "anonymous": false,
      "inputs": [
        {
          "indexed": true,
          "internalType": "uint256",
          "name": "proposalId",
          "type": "uint256"
        },
        {
          "indexed": true,
          "internalType": "address",
          "name": "approver",
          "type": "address"
        },
        {
          "indexed": false,
          "internalType": "uint256",
          "name": "currentApprovals",
          "type": "uint256"
        }
      ],
      "name": "ProposalApproved",
      "type": "event"
    },
    {
      "anonymous": false,
      "inputs": [
        {
          "indexed": true,
          "internalType": "uint256",
          "name": "proposalId",
          "type": "uint256"
        },
        {
          "indexed": true,
          "internalType": "address",
          "name": "canceller",
          "type": "address"
        }
      ],
      "name": "ProposalCancelled",
      "type": "event"
    },
    {
      "anonymous": false,
      "inputs": [
        {
          "indexed": true,
          "internalType": "uint256",
          "name": "proposalId",
          "type": "uint256"
        },
        {
          "indexed": true,
          "internalType": "address",
          "name": "consumer",
          "type": "address"
        }
      ],
      "name": "ProposalConsumed",
      "type": "event"
    },
    {
      "anonymous": false,
      "inputs": [
        {
          "indexed": true,
          "internalType": "uint256",
          "name": "proposalId",
          "type": "uint256"
        },
        {
          "indexed": false,
          "internalType": "enum CommitteeManager.ActionType",
          "name": "actionType",
          "type": "uint8"
        },
        {
          "indexed": true,
          "internalType": "address",
          "name": "proposer",
          "type": "address"
        },
        {
          "indexed": true,
          "internalType": "address",
          "name": "targetContract",
          "type": "address"
        }
      ],
      "name": "ProposalCreated",
      "type": "event"
    },
    {
      "anonymous": false,
      "inputs": [
        {
          "indexed": true,
          "internalType": "uint256",
          "name": "proposalId",
          "type": "uint256"
        },
        {
          "indexed": false,
          "internalType": "enum CommitteeManager.ActionType",
          "name": "actionType",
          "type": "uint8"
        }
      ],
      "name": "ProposalExecuted",
      "type": "event"
    },
    {
      "inputs": [],
      "name": "PROPOSAL_TTL",
      "outputs": [
        {
          "internalType": "uint256",
          "name": "",
          "type": "uint256"
        }
      ],
      "stateMutability": "view",
      "type": "function"
    },
    {
      "inputs": [],
      "name": "approvalThreshold",
      "outputs": [
        {
          "internalType": "uint256",
          "name": "",
          "type": "uint256"
        }
      ],
      "stateMutability": "view",
      "type": "function"
    },
    {
      "inputs": [
        {
          "internalType": "uint256",
          "name": "_proposalId",
          "type": "uint256"
        }
      ],
      "name": "approveProposal",
      "outputs": [],
      "stateMutability": "nonpayable",
      "type": "function"
    },
    {
      "inputs": [
        {
          "internalType": "uint256",
          "name": "_proposalId",
          "type": "uint256"
        }
      ],
      "name": "cancelProposal",
      "outputs": [],
      "stateMutability": "nonpayable",
      "type": "function"
    },
    {
      "inputs": [
        {
          "internalType": "uint256",
          "name": "_proposalId",
          "type": "uint256"
        }
      ],
      "name": "consumeProposal",
      "outputs": [
        {
          "internalType": "enum CommitteeManager.ActionType",
          "name": "actionType",
          "type": "uint8"
        },
        {
          "internalType": "bytes",
          "name": "data",
          "type": "bytes"
        }
      ],
      "stateMutability": "nonpayable",
      "type": "function"
    },
    {
      "inputs": [
        {
          "internalType": "uint256",
          "name": "_proposalId",
          "type": "uint256"
        }
      ],
      "name": "getEffectiveStatus",
      "outputs": [
        {
          "internalType": "enum CommitteeManager.ProposalStatus",
          "name": "",
          "type": "uint8"
        }
      ],
      "stateMutability": "view",
      "type": "function"
    },
    {
      "inputs": [],
      "name": "getMemberCount",
      "outputs": [
        {
          "internalType": "uint256",
          "name": "",
          "type": "uint256"
        }
      ],
      "stateMutability": "view",
      "type": "function"
    },
    {
      "inputs": [],
      "name": "getMembers",
      "outputs": [
        {
          "internalType": "address[]",
          "name": "",
          "type": "address[]"
        }
      ],
      "stateMutability": "view",
      "type": "function"
    },
    {
      "inputs": [
        {
          "internalType": "uint256",
          "name": "_proposalId",
          "type": "uint256"
        }
      ],
      "name": "getProposal",
      "outputs": [
        {
          "internalType": "enum CommitteeManager.ActionType",
          "name": "actionType",
          "type": "uint8"
        },
        {
          "internalType": "address",
          "name": "targetContract",
          "type": "address"
        },
        {
          "internalType": "address",
          "name": "proposer",
          "type": "address"
        },
        {
          "internalType": "uint256",
          "name": "approvalCount",
          "type": "uint256"
        },
        {
          "internalType": "enum CommitteeManager.ProposalStatus",
          "name": "status",
          "type": "uint8"
        },
        {
          "internalType": "uint256",
          "name": "createdAt",
          "type": "uint256"
        },
        {
          "internalType": "bool",
          "name": "consumed",
          "type": "bool"
        }
      ],
      "stateMutability": "view",
      "type": "function"
    },
    {
      "inputs": [
        {
          "internalType": "uint256",
          "name": "_proposalId",
          "type": "uint256"
        },
        {
          "internalType": "address",
          "name": "_member",
          "type": "address"
        }
      ],
      "name": "hasApproved",
      "outputs": [
        {
          "internalType": "bool",
          "name": "",
          "type": "bool"
        }
      ],
      "stateMutability": "view",
      "type": "function"
    },
    {
      "inputs": [
        {
          "internalType": "address",
          "name": "",
          "type": "address"
        }
      ],
      "name": "isCommitteeMember",
      "outputs": [
        {
          "internalType": "bool",
          "name": "",
          "type": "bool"
        }
      ],
      "stateMutability": "view",
      "type": "function"
    },
    {
      "inputs": [
        {
          "internalType": "uint256",
          "name": "_proposalId",
          "type": "uint256"
        }
      ],
      "name": "isProposalExecuted",
      "outputs": [
        {
          "internalType": "bool",
          "name": "",
          "type": "bool"
        }
      ],
      "stateMutability": "view",
      "type": "function"
    },
    {
      "inputs": [],
      "name": "memberCount",
      "outputs": [
        {
          "internalType": "uint256",
          "name": "",
          "type": "uint256"
        }
      ],
      "stateMutability": "view",
      "type": "function"
    },
    {
      "inputs": [
        {
          "internalType": "uint256",
          "name": "",
          "type": "uint256"
        }
      ],
      "name": "members",
      "outputs": [
        {
          "internalType": "address",
          "name": "",
          "type": "address"
        }
      ],
      "stateMutability": "view",
      "type": "function"
    },
    {
      "inputs": [],
      "name": "proposalCount",
      "outputs": [
        {
          "internalType": "uint256",
          "name": "",
          "type": "uint256"
        }
      ],
      "stateMutability": "view",
      "type": "function"
    },
    {
      "inputs": [
        {
          "internalType": "uint256",
          "name": "",
          "type": "uint256"
        }
      ],
      "name": "proposals",
      "outputs": [
        {
          "internalType": "enum CommitteeManager.ActionType",
          "name": "actionType",
          "type": "uint8"
        },
        {
          "internalType": "address",
          "name": "targetContract",
          "type": "address"
        },
        {
          "internalType": "bytes",
          "name": "data",
          "type": "bytes"
        },
        {
          "internalType": "address",
          "name": "proposer",
          "type": "address"
        },
        {
          "internalType": "uint256",
          "name": "approvalCount",
          "type": "uint256"
        },
        {
          "internalType": "enum CommitteeManager.ProposalStatus",
          "name": "status",
          "type": "uint8"
        },
        {
          "internalType": "uint256",
          "name": "createdAt",
          "type": "uint256"
        },
        {
          "internalType": "bool",
          "name": "consumed",
          "type": "bool"
        }
      ],
      "stateMutability": "view",
      "type": "function"
    },
    {
      "inputs": [
        {
          "internalType": "enum CommitteeManager.ActionType",
          "name": "_actionType",
          "type": "uint8"
        },
        {
          "internalType": "address",
          "name": "_targetContract",
          "type": "address"
        },
        {
          "internalType": "bytes",
          "name": "_data",
          "type": "bytes"
        }
      ],
      "name": "propose",
      "outputs": [
        {
          "internalType": "uint256",
          "name": "proposalId",
          "type": "uint256"
        }
      ],
      "stateMutability": "nonpayable",
      "type": "function"
    }
  ],
  "bytecode": "0x608060405262093a806006553480156200001857600080fd5b5060405162001a0a38038062001a0a8339810160408190526200003b9162000213565b6003815110806200004d575060058151115b156200006c5760405163027ee80d60e51b815260040160405180910390fd5b60005b8151811015620001a7576000828281518110620000905762000090620002e5565b6020026020010151905060006001600160a01b0316816001600160a01b031603620000ce5760405163d92e233d60e01b815260040160405180910390fd5b6001600160a01b03811660009081526020819052604090205460ff16156200010957604051637670720160e11b815260040160405180910390fd5b6001600160a01b038116600081815260208190526040808220805460ff19166001908117909155805480820182559083527fb10e2d527612073b26eecdfd717e6a320cf44b4afac2b0732d9fcbe2b7fa0cf60180546001600160a01b03191684179055517fb251eb052afc73ffd02ffe85ad79990a8b3fed60d76dbc2fa2fdd7123dffd9149190a250806200019e8162000311565b9150506200006f565b5080516002818155600391620001bd916200032d565b620001ca9060026200034d565b620001d6919062000363565b6005555062000386565b634e487b7160e01b600052604160045260246000fd5b80516001600160a01b03811681146200020e57600080fd5b919050565b600060208083850312156200022757600080fd5b82516001600160401b03808211156200023f57600080fd5b818501915085601f8301126200025457600080fd5b815181811115620002695762000269620001e0565b8060051b604051601f19603f83011681018181108582111715620002915762000291620001e0565b604052918252848201925083810185019188831115620002b057600080fd5b938501935b82851015620002d957620002c985620001f6565b84529385019392850192620002b5565b98975050505050505050565b634e487b7160e01b600052603260045260246000fd5b634e487b7160e01b600052601160045260246000fd5b600060018201620003265762000326620002fb565b5060010190565b8082028115828204841417620003475762000347620002fb565b92915050565b80820180821115620003475762000347620002fb565b6000826200038157634e487b7160e01b600052601260045260246000fd5b500490565b61167480620003966000396000f3fe608060405234801561001057600080fd5b506004361061010a5760003560e01c806398951b56116100a2578063c7f758a811610071578063c7f758a814610238578063d00c1aec1461025e578063da35c66414610271578063e0a8f6f51461027a578063e636d84b1461028d57600080fd5b806398951b56146101e6578063997072f7146101fb5780639eab525314610203578063a47f65dd1461021857600080fd5b80632afaa3cb116100de5780632afaa3cb1461017e578063462069f4146101915780635daf08ca146101b25780637d0eef61146101dd57600080fd5b806224a6f11461010f578063013cf08b1461012b57806311aee380146101525780632358d5a81461015b575b600080fd5b61011860065481565b6040519081526020015b60405180910390f35b61013e610139366004611105565b6102b0565b60405161012298979695949392919061119e565b61011860025481565b61016e610169366004611222565b610398565b6040519015158152602001610122565b61011861018c366004611252565b6103c8565b6101a461019f366004611105565b61058c565b6040516101229291906112e8565b6101c56101c0366004611105565b61072d565b6040516001600160a01b039091168152602001610122565b61011860055481565b6101f96101f4366004611105565b610757565b005b600254610118565b61020b6108e7565b6040516101229190611310565b61022b610226366004611105565b610949565b604051610122919061135d565b61024b610246366004611105565b6109cd565b604051610122979695949392919061136b565b61016e61026c366004611105565b610a62565b61011860035481565b6101f9610288366004611105565b610a92565b61016e61029b3660046113be565b60006020819052908152604090205460ff1681565b6004602052600090815260409020805460018201805460ff8316936101009093046001600160a01b03169291906102e6906113e2565b80601f0160208091040260200160405190810160405280929190818152602001828054610312906113e2565b801561035f5780601f106103345761010080835404028352916020019161035f565b820191906000526020600020905b81548152906001019060200180831161034257829003601f168201915b505050600284015460038501546004860154600587015460069097015495966001600160a01b039093169591945060ff90811693501688565b60008281526004602090815260408083206001600160a01b038516845260070190915290205460ff165b92915050565b3360009081526020819052604081205460ff166103f8576040516347ca878b60e11b815260040160405180910390fd5b600082900361041a57604051630f3aac4560e21b815260040160405180910390fd5b600085600481111561042e5761042e61111e565b148061044b575060018560048111156104495761044961111e565b145b156104595760009350610480565b6001600160a01b0384166104805760405163d92e233d60e01b815260040160405180910390fd5b6003805490600061049083611432565b9091555060008181526004602081905260409091208054929350918791839160ff19169060019084908111156104c8576104c861111e565b02179055508054610100600160a81b0319166101006001600160a01b03871602178155600181016104fa8486836114b0565b506002810180546001600160a01b0319163317905560006003820181905560048201805460ff1916600183021790555042600582015560068101805460ff191690556040516001600160a01b03861690339084907f27ea2cad5e4584ad97131983569ea163d6939d2154ceb6288fc4ee1bb8a2c63b9061057b908b90611571565b60405180910390a450949350505050565b6000606060035483106105b25760405163635e873760e01b815260040160405180910390fd5b60008381526004602052604090206001600482015460ff1660038111156105db576105db61111e565b146105f9576040516374e0240960e11b815260040160405180910390fd5b805461010090046001600160a01b03163314610628576040516373f3f92760e01b815260040160405180910390fd5b600681015460ff161561064e5760405163e1472d3b60e01b815260040160405180910390fd5b60068101805460ff19166001179055604051339085907f384a218e013e0ddc0f968a1596cc8d042283a45f20befed09b3b9406d16e84dc90600090a3805460018201805460ff9092169181906106a3906113e2565b80601f01602080910402602001604051908101604052809291908181526020018280546106cf906113e2565b801561071c5780601f106106f15761010080835404028352916020019161071c565b820191906000526020600020905b8154815290600101906020018083116106ff57829003601f168201915b505050505090509250925050915091565b6001818154811061073d57600080fd5b6000918252602090912001546001600160a01b0316905081565b3360009081526020819052604090205460ff16610787576040516347ca878b60e11b815260040160405180910390fd5b60035481106107a95760405163635e873760e01b815260040160405180910390fd5b600081815260046020526040812090600482015460ff1660038111156107d1576107d161111e565b146107ef576040516324f39bb560e11b815260040160405180910390fd5b6006548160050154610801919061157f565b421115610821576040516328a7237960e01b815260040160405180910390fd5b33600090815260078201602052604090205460ff16156108545760405163080fc0bd60e11b815260040160405180910390fd5b3360009081526007820160205260408120805460ff191660011790556003820180549161088083611432565b9190505550336001600160a01b0316827f2f0f51d2f12c71357e60d575d47e93e081dbaf32072245ab1e01540f0aadbf1a83600301546040516108c591815260200190565b60405180910390a36005548160030154106108e3576108e382610b97565b5050565b6060600180548060200260200160405190810160405280929190818152602001828054801561093f57602002820191906000526020600020905b81546001600160a01b03168152600190910190602001808311610921575b5050505050905090565b6000600354821061096d5760405163635e873760e01b815260040160405180910390fd5b600082815260046020526040812090600482015460ff1660038111156109955761099561111e565b1480156109b2575060065481600501546109af919061157f565b42115b156109c05750600392915050565b6004015460ff1692915050565b600080600080600080600060035488106109fa5760405163635e873760e01b815260040160405180910390fd5b600088815260046020526040812090610a128a610949565b825460028401546003850154600586015460069096015460ff8085169e506001600160a01b0361010090950485169d50929093169a50985091965092945091909116915050919395979092949650565b60008181526004602081905260408220015460019060ff166003811115610a8b57610a8b61111e565b1492915050565b3360009081526020819052604090205460ff16610ac2576040516347ca878b60e11b815260040160405180910390fd5b6003548110610ae45760405163635e873760e01b815260040160405180910390fd5b600081815260046020526040812090600482015460ff166003811115610b0c57610b0c61111e565b14610b2a576040516324f39bb560e11b815260040160405180910390fd5b60028101546001600160a01b03163314610b57576040516321c9572160e21b815260040160405180910390fd5b60048101805460ff19166002179055604051339083907f74c34a008ce735d9fcf0bd03a9b238d212ad4c441c020661f4ffbb6442645b8590600090a35050565b60008181526004602081905260408220808201805460ff19166001179055805490929160ff90911690811115610bcf57610bcf61111e565b03610c96576000816001018054610be5906113e2565b80601f0160208091040260200160405190810160405280929190818152602001828054610c11906113e2565b8015610c5e5780601f10610c3357610100808354040283529160200191610c5e565b820191906000526020600020905b815481529060010190602001808311610c4157829003601f168201915b5050505050806020019051810190610c769190611592565b9050610c8181610db3565b5060068101805460ff19166001179055610d71565b6001815460ff166004811115610cae57610cae61111e565b03610d71576000816001018054610cc4906113e2565b80601f0160208091040260200160405190810160405280929190818152602001828054610cf0906113e2565b8015610d3d5780601f10610d1257610100808354040283529160200191610d3d565b820191906000526020600020905b815481529060010190602001808311610d2057829003601f168201915b5050505050806020019051810190610d559190611592565b9050610d6081610f0e565b5060068101805460ff191660011790555b805460405183917f5b9614f21773d68c0b149bda804ff3d491c8bc8795f7ed236cc97804cd00538991610da79160ff1690611571565b60405180910390a25050565b6001600160a01b038116610dda5760405163d92e233d60e01b815260040160405180910390fd5b6001600160a01b03811660009081526020819052604090205460ff1615610e14576040516340803a5f60e11b815260040160405180910390fd5b600560025410610e3757604051632962ac5560e21b815260040160405180910390fd5b6001600160a01b0381166000818152602081905260408120805460ff19166001908117909155805480820182559082527fb10e2d527612073b26eecdfd717e6a320cf44b4afac2b0732d9fcbe2b7fa0cf60180546001600160a01b0319169092179091556002805491610ea983611432565b919050555060036002546002610ebf91906115af565b610eca90600261157f565b610ed491906115c6565b6005556040516001600160a01b038216907fb251eb052afc73ffd02ffe85ad79990a8b3fed60d76dbc2fa2fdd7123dffd91490600090a250565b6001600160a01b03811660009081526020819052604090205460ff16610f47576040516305031d1160e31b815260040160405180910390fd5b600360025411610f6a576040516329076bbd60e01b815260040160405180910390fd5b6001600160a01b0381166000908152602081905260408120805460ff191690556002805491610f98836115e8565b919050555060036002546002610fae91906115af565b610fb990600261157f565b610fc391906115c6565b60055560005b6001548110156110cd57816001600160a01b031660018281548110610ff057610ff06115ff565b6000918252602090912001546001600160a01b0316036110bb5760018054611019908290611615565b81548110611029576110296115ff565b600091825260209091200154600180546001600160a01b039092169183908110611055576110556115ff565b9060005260206000200160006101000a8154816001600160a01b0302191690836001600160a01b03160217905550600180548061109457611094611628565b600082815260209020810160001990810180546001600160a01b03191690550190556110cd565b806110c581611432565b915050610fc9565b506040516001600160a01b038216907f6e76fb4c77256006d9c38ec7d82b45a8c8f3c27b1d6766fffc42dfb8de68449290600090a250565b60006020828403121561111757600080fd5b5035919050565b634e487b7160e01b600052602160045260246000fd5b600581106111445761114461111e565b9052565b6000815180845260005b8181101561116e57602081850181015186830182015201611152565b506000602082860101526020601f19601f83011685010191505092915050565b600481106111445761114461111e565b60006101006111ad838c611134565b6001600160a01b038a81166020850152604084018290526111d08285018b611148565b9250808916606085015250508560808301526111ef60a083018661118e565b8360c083015282151560e08301529998505050505050505050565b6001600160a01b038116811461121f57600080fd5b50565b6000806040838503121561123557600080fd5b8235915060208301356112478161120a565b809150509250929050565b6000806000806060858703121561126857600080fd5b84356005811061127757600080fd5b935060208501356112878161120a565b9250604085013567ffffffffffffffff808211156112a457600080fd5b818701915087601f8301126112b857600080fd5b8135818111156112c757600080fd5b8860208285010111156112d957600080fd5b95989497505060200194505050565b6112f28184611134565b6040602082015260006113086040830184611148565b949350505050565b6020808252825182820181905260009190848201906040850190845b818110156113515783516001600160a01b03168352928401929184019160010161132c565b50909695505050505050565b602081016103c2828461118e565b60e08101611379828a611134565b6001600160a01b03888116602084015287166040830152606082018690526113a4608083018661118e565b8360a083015282151560c083015298975050505050505050565b6000602082840312156113d057600080fd5b81356113db8161120a565b9392505050565b600181811c908216806113f657607f821691505b60208210810361141657634e487b7160e01b600052602260045260246000fd5b50919050565b634e487b7160e01b600052601160045260246000fd5b6000600182016114445761144461141c565b5060010190565b634e487b7160e01b600052604160045260246000fd5b601f8211156114ab57600081815260208120601f850160051c810160208610156114885750805b601f850160051c820191505b818110156114a757828155600101611494565b5050505b505050565b67ffffffffffffffff8311156114c8576114c861144b565b6114dc836114d683546113e2565b83611461565b6000601f84116001811461151057600085156114f85750838201355b600019600387901b1c1916600186901b17835561156a565b600083815260209020601f19861690835b828110156115415786850135825560209485019460019092019101611521565b508682101561155e5760001960f88860031b161c19848701351681555b505060018560011b0183555b5050505050565b602081016103c28284611134565b808201808211156103c2576103c261141c565b6000602082840312156115a457600080fd5b81516113db8161120a565b80820281158282048414176103c2576103c261141c565b6000826115e357634e487b7160e01b600052601260045260246000fd5b500490565b6000816115f7576115f761141c565b506000190190565b634e487b7160e01b600052603260045260246000fd5b818103818111156103c2576103c261141c565b634e487b7160e01b600052603160045260246000fdfea2646970667358221220489eccc7e7845a5e894d917787ed7cce1bb2da2b0a6cb8999bae3c1500b637db64736f6c63430008140033",
  "linkReferences": {},
  "deployedLinkReferences": {}
}