{
  "_format": "hh-sol-artifact-1",
  "contractName": "ActivityVerification",
  "sourceName": "Contracts/ActivityVerification.sol",
  "abi": [
    {
      "inputs": [
        {
          "internalType": "address",
          "name": "_greenToken",
          "type": "address"
        },
        {
          "internalType": "address",
          "name": "_rewardToken",
          "type": "address"
        },
        {
          "internalType": "address",
          "name": "_committeeManager",
          "type": "address"
        }
      ],
      "stateMutability": "nonpayable",
      "type": "constructor"
    },
    {
      "inputs": [],
      "name": "AlreadyVoted",
      "type": "error"
    },
    {
      "inputs": [],
      "name": "CannotVoteOnOwnSubmission",
      "type": "error"
    },
    {
      "inputs": [],
      "name": "InvalidReward",
      "type": "error"
    },
    {
      "inputs": [],
      "name": "NotAssignedVerifier",
      "type": "error"
    },
    {
      "inputs": [],
      "name": "NotCommitteeMember",
      "type": "error"
    },
    {
      "inputs": [],
      "name": "NothingQueued",
      "type": "error"
    },
    {
      "inputs": [],
      "name": "QueueNotReady",
      "type": "error"
    },
    {
      "inputs": [],
      "name": "ReentrancyGuardReentrantCall",
      "type": "error"
    },
    {
      "inputs": [],
      "name": "SubmissionLimitReached",
      "type": "error"
    },
    {
      "inputs": [],
      "name": "TaskNotFound",
      "type": "error"
    },
    {
      "inputs": [],
      "name": "TaskNotPending",
      "type": "error"
    },
    {
      "anonymous": false,
      "inputs": [
        {
          "indexed": true,
          "internalType": "uint256",
          "name": "taskId",
          "type": "uint256"
        },
        {
          "indexed": true,
          "internalType": "address",
          "name": "submitter",
          "type": "address"
        },
        {
          "indexed": false,
          "internalType": "uint256",
          "name": "amount",
          "type": "uint256"
        }
      ],
      "name": "QueuedGTClaimed",
      "type": "event"
    },
    {
      "anonymous": false,
      "inputs": [
        {
          "indexed": true,
          "internalType": "uint256",
          "name": "taskId",
          "type": "uint256"
        },
        {
          "indexed": false,
          "internalType": "enum ActivityVerification.TaskStatus",
          "name": "status",
          "type": "uint8"
        }
      ],
      "name": "TaskFinalized",
      "type": "event"
    },
    {
      "anonymous": false,
      "inputs": [
        {
          "indexed": true,
          "internalType": "uint256",
          "name": "taskId",
          "type": "uint256"
        },
        {
          "indexed": true,
          "internalType": "address",
          "name": "submitter",
          "type": "address"
        },
        {
          "indexed": false,
          "internalType": "string",
          "name": "actionType",
          "type": "string"
        },
        {
          "indexed": false,
          "internalType": "uint256",
          "name": "gtReward",
          "type": "uint256"
        }
      ],
      "name": "TaskSubmitted",
      "type": "event"
    },
    {
      "anonymous": false,
      "inputs": [
        {
          "indexed": true,
          "internalType": "uint256",
          "name": "taskId",
          "type": "uint256"
        },
        {
          "indexed": false,
          "internalType": "address[3]",
          "name": "verifiers",
          "type": "address[3]"
        }
      ],
      "name": "VerifiersAssigned",
      "type": "event"
    },
    {
      "anonymous": false,
      "inputs": [
        {
          "indexed": true,
          "internalType": "uint256",
          "name": "taskId",
          "type": "uint256"
        },
        {
          "indexed": true,
          "internalType": "address",
          "name": "voter",
          "type": "address"
        },
        {
          "indexed": false,
          "internalType": "bool",
          "name": "approve",
          "type": "bool"
        }
      ],
      "name": "VoteCast",
      "type": "event"
    },
    {
      "inputs": [],
      "name": "avgGTperTask",
      "outputs": [
        {
          "internalType": "uint256",
          "name": "",
          "type": "uint256"
        }
      ],
      "stateMutability": "view",
      "type": "function"
    },
    {
      "inputs": [
        {
          "internalType": "uint256",
          "name": "_taskId",
          "type": "uint256"
        }
      ],
      "name": "claimQueuedGT",
      "outputs": [],
      "stateMutability": "nonpayable",
      "type": "function"
    },
    {
      "inputs": [],
      "name": "committeeManager",
      "outputs": [
        {
          "internalType": "contract ICommitteeManager",
          "name": "",
          "type": "address"
        }
      ],
      "stateMutability": "view",
      "type": "function"
    },
    {
      "inputs": [],
      "name": "currentDay",
      "outputs": [
        {
          "internalType": "uint256",
          "name": "",
          "type": "uint256"
        }
      ],
      "stateMutability": "view",
      "type": "function"
    },
    {
      "inputs": [],
      "name": "dailyMintCap",
      "outputs": [
        {
          "internalType": "uint256",
          "name": "",
          "type": "uint256"
        }
      ],
      "stateMutability": "view",
      "type": "function"
    },
    {
      "inputs": [
        {
          "internalType": "uint256",
          "name": "",
          "type": "uint256"
        }
      ],
      "name": "dailyMintedGT",
      "outputs": [
        {
          "internalType": "uint256",
          "name": "",
          "type": "uint256"
        }
      ],
      "stateMutability": "view",
      "type": "function"
    },
    {
      "inputs": [
        {
          "internalType": "uint256",
          "name": "",
          "type": "uint256"
        }
      ],
      "name": "dailyTaskCount",
      "outputs": [
        {
          "internalType": "uint256",
          "name": "",
          "type": "uint256"
        }
      ],
      "stateMutability": "view",
      "type": "function"
    },
    {
      "inputs": [
        {
          "internalType": "uint256",
          "name": "_taskId",
          "type": "uint256"
        }
      ],
      "name": "finalizeExpiredTask",
      "outputs": [],
      "stateMutability": "nonpayable",
      "type": "function"
    },
    {
      "inputs": [
        {
          "internalType": "uint256",
          "name": "_taskId",
          "type": "uint256"
        }
      ],
      "name": "getTaskVerifiers",
      "outputs": [
        {
          "internalType": "address[3]",
          "name": "",
          "type": "address[3]"
        }
      ],
      "stateMutability": "view",
      "type": "function"
    },
    {
      "inputs": [],
      "name": "greenToken",
      "outputs": [
        {
          "internalType": "contract IGreenToken",
          "name": "",
          "type": "address"
        }
      ],
      "stateMutability": "view",
      "type": "function"
    },
    {
      "inputs": [
        {
          "internalType": "uint256",
          "name": "",
          "type": "uint256"
        },
        {
          "internalType": "address",
          "name": "",
          "type": "address"
        }
      ],
      "name": "hasVoted",
      "outputs": [
        {
          "internalType": "bool",
          "name": "",
          "type": "bool"
        }
      ],
      "stateMutability": "view",
      "type": "function"
    },
    {
      "inputs": [],
      "name": "inactivityPenalty",
      "outputs": [
        {
          "internalType": "uint256",
          "name": "",
          "type": "uint256"
        }
      ],
      "stateMutability": "view",
      "type": "function"
    },
    {
      "inputs": [],
      "name": "maxTasksPerDay",
      "outputs": [
        {
          "internalType": "uint256",
          "name": "",
          "type": "uint256"
        }
      ],
      "stateMutability": "view",
      "type": "function"
    },
    {
      "inputs": [],
      "name": "rewardToken",
      "outputs": [
        {
          "internalType": "contract IRewardToken",
          "name": "",
          "type": "address"
        }
      ],
      "stateMutability": "view",
      "type": "function"
    },
    {
      "inputs": [
        {
          "internalType": "string",
          "name": "_actionType",
          "type": "string"
        },
        {
          "internalType": "string",
          "name": "_proofCID",
          "type": "string"
        },
        {
          "internalType": "uint256",
          "name": "_gtReward",
          "type": "uint256"
        }
      ],
      "name": "submitTask",
      "outputs": [
        {
          "internalType": "uint256",
          "name": "taskId",
          "type": "uint256"
        }
      ],
      "stateMutability": "nonpayable",
      "type": "function"
    },
    {
      "inputs": [],
      "name": "taskCount",
      "outputs": [
        {
          "internalType": "uint256",
          "name": "",
          "type": "uint256"
        }
      ],
      "stateMutability": "view",
      "type": "function"
    },
    {
      "inputs": [
        {
          "internalType": "uint256",
          "name": "",
          "type": "uint256"
        }
      ],
      "name": "tasks",
      "outputs": [
        {
          "internalType": "address",
          "name": "submitter",
          "type": "address"
        },
        {
          "internalType": "string",
          "name": "actionType",
          "type": "string"
        },
        {
          "internalType": "string",
          "name": "proofCID",
          "type": "string"
        },
        {
          "internalType": "uint256",
          "name": "gtReward",
          "type": "uint256"
        },
        {
          "internalType": "uint256",
          "name": "approvals",
          "type": "uint256"
        },
        {
          "internalType": "uint256",
          "name": "rejections",
          "type": "uint256"
        },
        {
          "internalType": "enum ActivityVerification.TaskStatus",
          "name": "status",
          "type": "uint8"
        },
        {
          "internalType": "uint256",
          "name": "timestamp",
          "type": "uint256"
        },
        {
          "internalType": "uint256",
          "name": "voteDeadline",
          "type": "uint256"
        },
        {
          "internalType": "bool",
          "name": "gtQueued",
          "type": "bool"
        },
        {
          "internalType": "bool",
          "name": "gtClaimed",
          "type": "bool"
        },
        {
          "internalType": "uint8",
          "name": "verifierCount",
          "type": "uint8"
        }
      ],
      "stateMutability": "view",
      "type": "function"
    },
    {
      "inputs": [
        {
          "internalType": "address",
          "name": "",
          "type": "address"
        },
        {
          "internalType": "uint256",
          "name": "",
          "type": "uint256"
        }
      ],
      "name": "userDailySubmissions",
      "outputs": [
        {
          "internalType": "uint256",
          "name": "",
          "type": "uint256"
        }
      ],
      "stateMutability": "view",
      "type": "function"
    },
    {
      "inputs": [],
      "name": "userTaskLimit",
      "outputs": [
        {
          "internalType": "uint256",
          "name": "",
          "type": "uint256"
        }
      ],
      "stateMutability": "view",
      "type": "function"
    },
    {
      "inputs": [
        {
          "internalType": "address",
          "name": "",
          "type": "address"
        },
        {
          "internalType": "uint256",
          "name": "",
          "type": "uint256"
        }
      ],
      "name": "verifierDailyAssigned",
      "outputs": [
        {
          "internalType": "uint256",
          "name": "",
          "type": "uint256"
        }
      ],
      "stateMutability": "view",
      "type": "function"
    },
    {
      "inputs": [],
      "name": "verifierPenalty",
      "outputs": [
        {
          "internalType": "uint256",
          "name": "",
          "type": "uint256"
        }
      ],
      "stateMutability": "view",
      "type": "function"
    },
    {
      "inputs": [],
      "name": "verifierReward",
      "outputs": [
        {
          "internalType": "uint256",
          "name": "",
          "type": "uint256"
        }
      ],
      "stateMutability": "view",
      "type": "function"
    },
    {
      "inputs": [],
      "name": "verifierTaskLimit",
      "outputs": [
        {
          "internalType": "uint256",
          "name": "",
          "type": "uint256"
        }
      ],
      "stateMutability": "view",
      "type": "function"
    },
    {
      "inputs": [
        {
          "internalType": "uint256",
          "name": "",
          "type": "uint256"
        },
        {
          "internalType": "address",
          "name": "",
          "type": "address"
        }
      ],
      "name": "voteChoice",
      "outputs": [
        {
          "internalType": "bool",
          "name": "",
          "type": "bool"
        }
      ],
      "stateMutability": "view",
      "type": "function"
    },
    {
      "inputs": [],
      "name": "voteDeadlineDuration",
      "outputs": [
        {
          "internalType": "uint256",
          "name": "",
          "type": "uint256"
        }
      ],
      "stateMutability": "view",
      "type": "function"
    },
    {
      "inputs": [
        {
          "internalType": "uint256",
          "name": "_taskId",
          "type": "uint256"
        },
        {
          "internalType": "bool",
          "name": "_approve",
          "type": "bool"
        }
      ],
      "name": "voteOnTask",
      "outputs": [],
      "stateMutability": "nonpayable",
      "type": "function"
    }
  ],
  "bytecode": "0x60e06040523480156200001157600080fd5b5060405162001f7f38038062001f7f833981016040819052620000349162000093565b60017f9b779b17422d0df92223018b32b4d1fa46e071723d6817e2486d003becc55f00556001600160a01b0392831660805290821660a0521660c052620000dd565b80516001600160a01b03811681146200008e57600080fd5b919050565b600080600060608486031215620000a957600080fd5b620000b48462000076565b9250620000c46020850162000076565b9150620000d46040850162000076565b90509250925092565b60805160a05160c051611e2c620001536000396000818161031a0152818161088501528181610ace01528181610b6101528181610e820152610fbd0152600081816103a90152611654015260008181610198015281816107ae015281816114690152818161156e01526116db0152611e2c6000f3fe608060405234801561001057600080fd5b506004361061018e5760003560e01c8063698eda8d116100de578063d2d8165511610097578063e728e1ac11610071578063e728e1ac1461039b578063f7c618c1146103a4578063fb468855146103cb578063fc55383c146103f957600080fd5b8063d2d8165514610367578063d52ffb9114610380578063e163fb2f1461038857600080fd5b8063698eda8d146103055780637e8611e2146103155780638d9776721461033c578063af19bea014610367578063b49e80f41461036f578063b6cb58a51461037757600080fd5b80633a291bc11161014b5780634e6f0858116101255780634e6f0858146102dd57806354e473c6146102f25780635977e4e2146103055780635c9302c91461030d57600080fd5b80633a291bc11461026c578063438596321461028c578063492e5f27146102ca57600080fd5b806302b32af5146101935780632832bcb5146101d75780632b05638c146101ee57806334352d81146101f657806334d9a3961461022157806339e4e6ce1461024c575b600080fd5b6101ba7f000000000000000000000000000000000000000000000000000000000000000081565b6040516001600160a01b0390911681526020015b60405180910390f35b6101e061012c81565b6040519081526020016101ce565b6101e0600881565b6101e061020436600461179a565b600760209081526000928352604080842090915290825290205481565b6101e061022f36600461179a565b600660209081526000928352604080842090915290825290205481565b6101e061025a3660046117c6565b60046020526000908152604090205481565b6101e061027a3660046117c6565b60056020526000908152604090205481565b6102ba61029a3660046117df565b600260209081526000928352604080842090915290825290205460ff1681565b60405190151581526020016101ce565b6101e06102d8366004611858565b610419565b6102f06102eb3660046117c6565b61063f565b005b6102f06103003660046118da565b610870565b6101e0600581565b6101e0610c2e565b6101ba7f000000000000000000000000000000000000000000000000000000000000000081565b61034f61034a3660046117c6565b610c42565b6040516101ce9c9b9a9998979695949392919061197d565b6101e0600281565b6101e0600181565b6101e060005481565b6101e0603c81565b6102f06103963660046117c6565b610dc5565b6101e061a8c081565b6101ba7f000000000000000000000000000000000000000000000000000000000000000081565b6102ba6103d93660046117df565b600360209081526000928352604080842090915290825290205460ff1681565b61040c6104073660046117c6565b610f27565b6040516101ce9190611a0f565b600080610424610c2e565b905060058314610447576040516314414f4160e11b815260040160405180910390fd5b3360009081526006602090815260408083208484529091529020546002116104825760405163c3d181a160e01b815260040160405180910390fd5b600081815260056020526040902054603c116104de5760405162461bcd60e51b815260206004820152601660248201527511185a5b1e481d185cdac818d85c081c995858da195960521b60448201526064015b60405180910390fd5b6000805490806104ed83611a5f565b90915550600081815260016020819052604090912080546001600160a01b031916331781559193508101610522888a83611b0e565b5060028101610532868883611b0e565b506003810184905560068101805460ff19169055426007820181905561055b9061a8c090611bcf565b6008820155336000908152600660209081526040808320858452909152812080549161058683611a5f565b909155505060008281526005602052604081208054916105a583611a5f565b91905055506105b383610fa2565b336001600160a01b0316837f30bd2a1da314becc79ac913f35a1ffbeb59f76eaa3c9cacd2f18644badc13d398a8a886040516105f193929190611be2565b60405180910390a3827f411445e4be669981d37abe27f9f4ac81c75fda1829cc33418f915664b5eb463d82600a0160405161062c9190611c1b565b60405180910390a2505095945050505050565b6106476111cc565b60005481106106695760405163c325ae3360e01b815260040160405180910390fd5b600081815260016020526040812090610680610c2e565b82549091506001600160a01b031633146106cc5760405162461bcd60e51b815260206004820152600d60248201526c2737ba1039bab136b4ba3a32b960991b60448201526064016104d5565b600982015460ff1615806106e957506009820154610100900460ff165b15610707576040516301440ac160e21b815260040160405180910390fd5b600382015460008281526004602052604090205461012c9161072891611bcf565b111561074757604051633794469b60e11b815260040160405180910390fd5b60038201546000828152600460205260408120805490919061076a908490611bcf565b909155505060098201805461ff001916610100179055815460038301546040516340c10f1960e01b81526001600160a01b03928316600482015260248101919091527f0000000000000000000000000000000000000000000000000000000000000000909116906340c10f1990604401600060405180830381600087803b1580156107f457600080fd5b505af1158015610808573d6000803e3d6000fd5b50505050336001600160a01b0316837fb413b8e706ed9b9cec171152eedf8526e9ddffd7de8ac78d3aa9ea89e4d55492846003015460405161084c91815260200190565b60405180910390a3505061086d6001600080516020611dd783398151915255565b50565b60405163e636d84b60e01b81523360048201527f00000000000000000000000000000000000000000000000000000000000000006001600160a01b03169063e636d84b90602401602060405180830381865afa1580156108d4573d6000803e3d6000fd5b505050506040513d601f19601f820116820180604052508101906108f89190611c4c565b610915576040516347ca878b60e11b815260040160405180910390fd5b61091d6111cc565b600054821061093f5760405163c325ae3360e01b815260040160405180910390fd5b600082815260016020526040902080546001600160a01b031633036109775760405163b94f623160e01b815260040160405180910390fd5b6000600682015460ff16600281111561099257610992611945565b146109af5760405162a997df60e81b815260040160405180910390fd5b600083815260026020908152604080832033845290915290205460ff16156109ea57604051637c9a1cf960e01b815260040160405180910390fd5b6109f481336111e8565b610a1157604051638d24d7c560e01b815260040160405180910390fd5b600083815260026020908152604080832033808552908352818420805460ff1990811660011790915587855260038452828520918552925290912080548415801591909316179055610a7957600481018054906000610a6f83611a5f565b9190505550610a91565b600581018054906000610a8b83611a5f565b91905055505b6040518215158152339084907fe71fcdac32df1877c1700e7bda2a03157e20993363a28fc35ac495cefc76e4d49060200160405180910390a360007f00000000000000000000000000000000000000000000000000000000000000006001600160a01b0316637d0eef616040518163ffffffff1660e01b8152600401602060405180830381865afa158015610b2a573d6000803e3d6000fd5b505050506040513d601f19601f82011682018060405250810190610b4e9190611c70565b9050808260040154101580610bf25750807f00000000000000000000000000000000000000000000000000000000000000006001600160a01b031663997072f76040518163ffffffff1660e01b8152600401602060405180830381865afa158015610bbd573d6000803e3d6000fd5b505050506040513d601f19601f82011682018060405250810190610be19190611c70565b610beb9190611c89565b8260050154115b80610c025750610c028285611252565b15610c1157610c1184826112d2565b5050610c2a6001600080516020611dd783398151915255565b5050565b6000610c3d6201518042611c9c565b905090565b6001602081905260009182526040909120805491810180546001600160a01b0390931692610c6f90611a8e565b80601f0160208091040260200160405190810160405280929190818152602001828054610c9b90611a8e565b8015610ce85780601f10610cbd57610100808354040283529160200191610ce8565b820191906000526020600020905b815481529060010190602001808311610ccb57829003601f168201915b505050505090806002018054610cfd90611a8e565b80601f0160208091040260200160405190810160405280929190818152602001828054610d2990611a8e565b8015610d765780601f10610d4b57610100808354040283529160200191610d76565b820191906000526020600020905b815481529060010190602001808311610d5957829003601f168201915b50505060038401546004850154600586015460068701546007880154600889015460098a0154600d909a01549899959894975092955060ff91821694909381831692610100909204821691168c565b610dcd6111cc565b6000548110610def5760405163c325ae3360e01b815260040160405180910390fd5b600081815260016020526040812090600682015460ff166002811115610e1757610e17611945565b14610e345760405162a997df60e81b815260040160405180910390fd5b80600801544211610e7e5760405162461bcd60e51b8152602060048201526014602482015273111958591b1a5b99481b9bdd081c995858da195960621b60448201526064016104d5565b60007f00000000000000000000000000000000000000000000000000000000000000006001600160a01b0316637d0eef616040518163ffffffff1660e01b8152600401602060405180830381865afa158015610ede573d6000803e3d6000fd5b505050506040513d601f19601f82011682018060405250810190610f029190611c70565b9050610f0e83826112d2565b505061086d6001600080516020611dd783398151915255565b610f2f611767565b6000548210610f515760405163c325ae3360e01b815260040160405180910390fd5b60008281526001602052604090819020815160608101909252600a0160038282826020028201915b81546001600160a01b03168152600190910190602001808311610f795750505050509050919050565b600060016000838152602001908152602001600020905060007f00000000000000000000000000000000000000000000000000000000000000006001600160a01b0316639eab52536040518163ffffffff1660e01b8152600401600060405180830381865afa158015611019573d6000803e3d6000fd5b505050506040513d6000823e601f3d908101601f191682016040526110419190810190611cce565b9050600061104d610c2e565b90506000805b835181108015611066575060038260ff16105b1561115b57600084828151811061107f5761107f611d93565b602090810291909101015186549091506001600160a01b03908116908216036110a85750611149565b6001600160a01b03811660009081526007602090815260408083208784529091529020546008116110d95750611149565b8086600a018460ff16600381106110f2576110f2611d93565b0180546001600160a01b0319166001600160a01b0392831617905581166000908152600760209081526040808320878452909152812080549161113483611a5f565b9190505550828061114490611da9565b935050505b8061115381611a5f565b915050611053565b508060ff166003146111af5760405162461bcd60e51b815260206004820152601960248201527f4e656564203320656c696769626c65207665726966696572730000000000000060448201526064016104d5565b600d93909301805460ff191660ff90941693909317909255505050565b6111d461139c565b6002600080516020611dd783398151915255565b6000805b600d84015460ff1681101561124657826001600160a01b031684600a01826003811061121a5761121a611d93565b01546001600160a01b03160361123457600191505061124c565b8061123e81611a5f565b9150506111ec565b50600090505b92915050565b6000805b600d84015460ff168110156112c857600083815260026020526040812090600a8601836003811061128957611289611d93565b01546001600160a01b0316815260208101919091526040016000205460ff166112b657600091505061124c565b806112c081611a5f565b915050611256565b5060019392505050565b60008281526001602052604090206004810154821161134c5760068101805460ff19166001179055611303816113ce565b61130e8360016114df565b827f0e9cb48757bd52e4ffd9f48c23c229bbe87f7ff9c8197d305db283fd2e5ddbe8600160405161133f9190611dc8565b60405180910390a2505050565b60068101805460ff191660021790556113668360006114df565b827f0e9cb48757bd52e4ffd9f48c23c229bbe87f7ff9c8197d305db283fd2e5ddbe8600260405161133f9190611dc8565b505050565b600080516020611dd7833981519152546002036113cc57604051633ee5aeb560e01b815260040160405180910390fd5b565b60006113d8610c2e565b600383015460008281526004602052604090205491925061012c916113fd9190611bcf565b116114cb57600382015460008281526004602052604081208054909190611425908490611bcf565b909155505060098201805461ff001916610100179055815460038301546040516340c10f1960e01b81526001600160a01b03928316600482015260248101919091527f0000000000000000000000000000000000000000000000000000000000000000909116906340c10f1990604401600060405180830381600087803b1580156114af57600080fd5b505af11580156114c3573d6000803e3d6000fd5b505050505050565b60098201805461ffff191660011790555050565b6000828152600160205260408120905b600d82015460ff1681101561176157600082600a01826003811061151557611515611d93565b015460008681526002602090815260408083206001600160a01b039094168084529390915290205490915060ff16806115e3576040516302fb4d8560e01b81526001600160a01b038381166004830152600260248301527f000000000000000000000000000000000000000000000000000000000000000016906302fb4d85906044016020604051808303816000875af11580156115b7573d6000803e3d6000fd5b505050506040513d601f19601f820116820180604052508101906115db9190611c70565b50505061174f565b60008681526003602090815260408083206001600160a01b038616845290915281205460ff16908680156116145750815b80611626575086158015611626575081155b905080156116b5576040516340c10f1960e01b81526001600160a01b038581166004830152600160248301527f000000000000000000000000000000000000000000000000000000000000000016906340c10f1990604401600060405180830381600087803b15801561169857600080fd5b505af11580156116ac573d6000803e3d6000fd5b5050505061174a565b6040516302fb4d8560e01b81526001600160a01b038581166004830152600560248301527f000000000000000000000000000000000000000000000000000000000000000016906302fb4d85906044016020604051808303816000875af1158015611724573d6000803e3d6000fd5b505050506040513d601f19601f820116820180604052508101906117489190611c70565b505b505050505b8061175981611a5f565b9150506114ef565b50505050565b60405180606001604052806003906020820280368337509192915050565b6001600160a01b038116811461086d57600080fd5b600080604083850312156117ad57600080fd5b82356117b881611785565b946020939093013593505050565b6000602082840312156117d857600080fd5b5035919050565b600080604083850312156117f257600080fd5b82359150602083013561180481611785565b809150509250929050565b60008083601f84011261182157600080fd5b50813567ffffffffffffffff81111561183957600080fd5b60208301915083602082850101111561185157600080fd5b9250929050565b60008060008060006060868803121561187057600080fd5b853567ffffffffffffffff8082111561188857600080fd5b61189489838a0161180f565b909750955060208801359150808211156118ad57600080fd5b506118ba8882890161180f565b96999598509660400135949350505050565b801515811461086d57600080fd5b600080604083850312156118ed57600080fd5b823591506020830135611804816118cc565b6000815180845260005b8181101561192557602081850181015186830182015201611909565b506000602082860101526020601f19601f83011685010191505092915050565b634e487b7160e01b600052602160045260246000fd5b6003811061197957634e487b7160e01b600052602160045260246000fd5b9052565b6001600160a01b038d168152610180602082018190526000906119a28382018f6118ff565b905082810360408401526119b6818e6118ff565b9150508a60608301528960808301528860a08301526119d860c083018961195b565b60e0820196909652610100810194909452911515610120840152151561014083015260ff1661016090910152979650505050505050565b60608101818360005b6003811015611a405781516001600160a01b0316835260209283019290910190600101611a18565b50505092915050565b634e487b7160e01b600052601160045260246000fd5b600060018201611a7157611a71611a49565b5060010190565b634e487b7160e01b600052604160045260246000fd5b600181811c90821680611aa257607f821691505b602082108103611ac257634e487b7160e01b600052602260045260246000fd5b50919050565b601f82111561139757600081815260208120601f850160051c81016020861015611aef5750805b601f850160051c820191505b818110156114c357828155600101611afb565b67ffffffffffffffff831115611b2657611b26611a78565b611b3a83611b348354611a8e565b83611ac8565b6000601f841160018114611b6e5760008515611b565750838201355b600019600387901b1c1916600186901b178355611bc8565b600083815260209020601f19861690835b82811015611b9f5786850135825560209485019460019092019101611b7f565b5086821015611bbc5760001960f88860031b161c19848701351681555b505060018560011b0183555b5050505050565b8082018082111561124c5761124c611a49565b604081528260408201528284606083013760006060848301015260006060601f19601f8601168301019050826020830152949350505050565b60608101818360005b6003811015611a405781546001600160a01b0316835260209092019160019182019101611c24565b600060208284031215611c5e57600080fd5b8151611c69816118cc565b9392505050565b600060208284031215611c8257600080fd5b5051919050565b8181038181111561124c5761124c611a49565b600082611cb957634e487b7160e01b600052601260045260246000fd5b500490565b8051611cc981611785565b919050565b60006020808385031215611ce157600080fd5b825167ffffffffffffffff80821115611cf957600080fd5b818501915085601f830112611d0d57600080fd5b815181811115611d1f57611d1f611a78565b8060051b604051601f19603f83011681018181108582111715611d4457611d44611a78565b604052918252848201925083810185019188831115611d6257600080fd5b938501935b82851015611d8757611d7885611cbe565b84529385019392850192611d67565b98975050505050505050565b634e487b7160e01b600052603260045260246000fd5b600060ff821660ff8103611dbf57611dbf611a49565b60010192915050565b6020810161124c828461195b56fe9b779b17422d0df92223018b32b4d1fa46e071723d6817e2486d003becc55f00a26469706673582212206c0020a85989bb303e563df95ddf9840128421e7936fd98bcb8c4ea738d0a45164736f6c63430008140033",
  "linkReferences": {},
  "deployedLinkReferences": {}
}