{
  "_format": "hh-sol-artifact-1",
  "contractName": "AMMPool",
  "sourceName": "Contracts/AMMPool.sol",
  "abi": [
    {
      "inputs": [
        {
          "internalType": "address",
          "name": "gt",
          "type": "address"
        },
        {
          "internalType": "address",
          "name": "rt",
          "type": "address"
        },
        {
          "internalType": "address",
          "name": "committee",
          "type": "address"
        }
      ],
      "stateMutability": "nonpayable",
      "type": "constructor"
    },
    {
      "inputs": [],
      "name": "BufferRTTransferFailed",
      "type": "error"
    },
    {
      "inputs": [],
      "name": "BufferSizeIsMax",
      "type": "error"
    },
    {
      "inputs": [
        {
          "internalType": "uint256",
          "name": "requestedGT",
          "type": "uint256"
        },
        {
          "internalType": "uint256",
          "name": "allowedGT",
          "type": "uint256"
        }
      ],
      "name": "EffectiveGTExceeded",
      "type": "error"
    },
    {
      "inputs": [],
      "name": "EmptyReserve",
      "type": "error"
    },
    {
      "inputs": [],
      "name": "GTTransferFailed",
      "type": "error"
    },
    {
      "inputs": [],
      "name": "InvalidCommitteeAddress",
      "type": "error"
    },
    {
      "inputs": [],
      "name": "InvalidFeeRecipient",
      "type": "error"
    },
    {
      "inputs": [],
      "name": "InvalidGTAddress",
      "type": "error"
    },
    {
      "inputs": [],
      "name": "InvalidRTAddress",
      "type": "error"
    },
    {
      "inputs": [],
      "name": "NotCommitteeMember",
      "type": "error"
    },
    {
      "inputs": [],
      "name": "PoolAlreadyInitialized",
      "type": "error"
    },
    {
      "inputs": [],
      "name": "PoolNotInitialized",
      "type": "error"
    },
    {
      "inputs": [],
      "name": "RTTransferFailed",
      "type": "error"
    },
    {
      "inputs": [],
      "name": "ReentrancyGuardReentrantCall",
      "type": "error"
    },
    {
      "inputs": [],
      "name": "SameTokenAddress",
      "type": "error"
    },
    {
      "inputs": [],
      "name": "SlippageTooHigh",
      "type": "error"
    },
    {
      "inputs": [],
      "name": "SwapGTOutTransferFailed",
      "type": "error"
    },
    {
      "inputs": [],
      "name": "SwapGTTransferFailed",
      "type": "error"
    },
    {
      "inputs": [],
      "name": "SwapRTInTransferFailed",
      "type": "error"
    },
    {
      "inputs": [],
      "name": "SwapRTTransferFailed",
      "type": "error"
    },
    {
      "inputs": [],
      "name": "ZeroAmountIn",
      "type": "error"
    },
    {
      "inputs": [],
      "name": "ZeroAmountOut",
      "type": "error"
    },
    {
      "inputs": [],
      "name": "ZeroBufferAmount",
      "type": "error"
    },
    {
      "inputs": [],
      "name": "ZeroGTAmount",
      "type": "error"
    },
    {
      "inputs": [],
      "name": "ZeroRTAmount",
      "type": "error"
    },
    {
      "anonymous": false,
      "inputs": [
        {
          "indexed": false,
          "internalType": "uint256",
          "name": "currentBufferRT",
          "type": "uint256"
        }
      ],
      "name": "BufferAlert",
      "type": "event"
    },
    {
      "anonymous": false,
      "inputs": [
        {
          "indexed": true,
          "internalType": "address",
          "name": "operator",
          "type": "address"
        },
        {
          "indexed": false,
          "internalType": "uint256",
          "name": "amount",
          "type": "uint256"
        },
        {
          "indexed": false,
          "internalType": "uint256",
          "name": "newBufferRT",
          "type": "uint256"
        }
      ],
      "name": "BufferSituation",
      "type": "event"
    },
    {
      "anonymous": false,
      "inputs": [
        {
          "indexed": true,
          "internalType": "address",
          "name": "oldRecipient",
          "type": "address"
        },
        {
          "indexed": true,
          "internalType": "address",
          "name": "newRecipient",
          "type": "address"
        }
      ],
      "name": "FeeRecipientUpdated",
      "type": "event"
    },
    {
      "anonymous": false,
      "inputs": [
        {
          "indexed": false,
          "internalType": "uint256",
          "name": "gtAmount",
          "type": "uint256"
        },
        {
          "indexed": false,
          "internalType": "uint256",
          "name": "rtAmount",
          "type": "uint256"
        },
        {
          "indexed": false,
          "internalType": "uint256",
          "name": "newK",
          "type": "uint256"
        }
      ],
      "name": "PoolInitialized",
      "type": "event"
    },
    {
      "anonymous": false,
      "inputs": [
        {
          "indexed": true,
          "internalType": "address",
          "name": "operator",
          "type": "address"
        },
        {
          "indexed": false,
          "internalType": "uint256",
          "name": "amount",
          "type": "uint256"
        },
        {
          "indexed": false,
          "internalType": "uint256",
          "name": "newReserveRT",
          "type": "uint256"
        },
        {
          "indexed": false,
          "internalType": "uint256",
          "name": "newBufferRT",
          "type": "uint256"
        },
        {
          "indexed": false,
          "internalType": "uint256",
          "name": "newK",
          "type": "uint256"
        }
      ],
      "name": "RTInjected",
      "type": "event"
    },
    {
      "anonymous": false,
      "inputs": [
        {
          "indexed": true,
          "internalType": "address",
          "name": "user",
          "type": "address"
        },
        {
          "indexed": false,
          "internalType": "bool",
          "name": "isGTtoRT",
          "type": "bool"
        },
        {
          "indexed": false,
          "internalType": "uint256",
          "name": "amountIn",
          "type": "uint256"
        },
        {
          "indexed": false,
          "internalType": "uint256",
          "name": "amountOut",
          "type": "uint256"
        },
        {
          "indexed": false,
          "internalType": "uint256",
          "name": "feeRate",
          "type": "uint256"
        }
      ],
      "name": "Swap",
      "type": "event"
    },
    {
      "inputs": [],
      "name": "BASIS_POINTS",
      "outputs": [
        {
          "internalType": "uint256",
          "name": "",
          "type": "uint256"
        }
      ],
      "stateMutability": "view",
      "type": "function"
    },
    {
      "inputs": [],
      "name": "BUFFER_ALERT",
      "outputs": [
        {
          "internalType": "uint256",
          "name": "",
          "type": "uint256"
        }
      ],
      "stateMutability": "view",
      "type": "function"
    },
    {
      "inputs": [],
      "name": "BUFFER_SIZE",
      "outputs": [
        {
          "internalType": "uint256",
          "name": "",
          "type": "uint256"
        }
      ],
      "stateMutability": "view",
      "type": "function"
    },
    {
      "inputs": [
        {
          "internalType": "uint256",
          "name": "amount",
          "type": "uint256"
        }
      ],
      "name": "BufferRTAction",
      "outputs": [],
      "stateMutability": "nonpayable",
      "type": "function"
    },
    {
      "inputs": [],
      "name": "COOLDOWN_INJECT",
      "outputs": [
        {
          "internalType": "uint256",
          "name": "",
          "type": "uint256"
        }
      ],
      "stateMutability": "view",
      "type": "function"
    },
    {
      "inputs": [],
      "name": "INJECT_TRIGGER",
      "outputs": [
        {
          "internalType": "uint256",
          "name": "",
          "type": "uint256"
        }
      ],
      "stateMutability": "view",
      "type": "function"
    },
    {
      "inputs": [],
      "name": "MAX_SWAP_PER_USER",
      "outputs": [
        {
          "internalType": "uint256",
          "name": "",
          "type": "uint256"
        }
      ],
      "stateMutability": "view",
      "type": "function"
    },
    {
      "inputs": [],
      "name": "MAX_SWAP_PROPORTION",
      "outputs": [
        {
          "internalType": "uint256",
          "name": "",
          "type": "uint256"
        }
      ],
      "stateMutability": "view",
      "type": "function"
    },
    {
      "inputs": [],
      "name": "TARGET_RT",
      "outputs": [
        {
          "internalType": "uint256",
          "name": "",
          "type": "uint256"
        }
      ],
      "stateMutability": "view",
      "type": "function"
    },
    {
      "inputs": [],
      "name": "bufferRT",
      "outputs": [
        {
          "internalType": "uint256",
          "name": "",
          "type": "uint256"
        }
      ],
      "stateMutability": "view",
      "type": "function"
    },
    {
      "inputs": [],
      "name": "committeeManager",
      "outputs": [
        {
          "internalType": "contract ICommitteeManager",
          "name": "",
          "type": "address"
        }
      ],
      "stateMutability": "view",
      "type": "function"
    },
    {
      "inputs": [
        {
          "internalType": "address",
          "name": "",
          "type": "address"
        }
      ],
      "name": "dailyGTSwap",
      "outputs": [
        {
          "internalType": "uint256",
          "name": "day",
          "type": "uint256"
        },
        {
          "internalType": "uint256",
          "name": "usedGT",
          "type": "uint256"
        }
      ],
      "stateMutability": "view",
      "type": "function"
    },
    {
      "inputs": [],
      "name": "feeRecipient",
      "outputs": [
        {
          "internalType": "address",
          "name": "",
          "type": "address"
        }
      ],
      "stateMutability": "view",
      "type": "function"
    },
    {
      "inputs": [
        {
          "internalType": "uint256",
          "name": "amountIn",
          "type": "uint256"
        },
        {
          "internalType": "bool",
          "name": "isGTtoRT",
          "type": "bool"
        }
      ],
      "name": "getAmountOut",
      "outputs": [
        {
          "internalType": "uint256",
          "name": "amountOut",
          "type": "uint256"
        }
      ],
      "stateMutability": "view",
      "type": "function"
    },
    {
      "inputs": [],
      "name": "getCurrentFeeRate",
      "outputs": [
        {
          "internalType": "uint256",
          "name": "bp",
          "type": "uint256"
        }
      ],
      "stateMutability": "view",
      "type": "function"
    },
    {
      "inputs": [
        {
          "internalType": "address",
          "name": "user",
          "type": "address"
        }
      ],
      "name": "getCurrentImmediateLimit",
      "outputs": [
        {
          "internalType": "uint256",
          "name": "",
          "type": "uint256"
        }
      ],
      "stateMutability": "view",
      "type": "function"
    },
    {
      "inputs": [
        {
          "internalType": "address",
          "name": "user",
          "type": "address"
        }
      ],
      "name": "getHoldingLimitGT",
      "outputs": [
        {
          "internalType": "uint256",
          "name": "",
          "type": "uint256"
        }
      ],
      "stateMutability": "view",
      "type": "function"
    },
    {
      "inputs": [],
      "name": "getPoolStatus",
      "outputs": [
        {
          "internalType": "uint256",
          "name": "currentReserveGT",
          "type": "uint256"
        },
        {
          "internalType": "uint256",
          "name": "currentReserveRT",
          "type": "uint256"
        },
        {
          "internalType": "uint256",
          "name": "currentBufferRT",
          "type": "uint256"
        },
        {
          "internalType": "uint256",
          "name": "currentK",
          "type": "uint256"
        },
        {
          "internalType": "uint256",
          "name": "currentLastInjectTime",
          "type": "uint256"
        }
      ],
      "stateMutability": "view",
      "type": "function"
    },
    {
      "inputs": [
        {
          "internalType": "address",
          "name": "user",
          "type": "address"
        }
      ],
      "name": "getRemainingDailyGT",
      "outputs": [
        {
          "internalType": "uint256",
          "name": "",
          "type": "uint256"
        }
      ],
      "stateMutability": "view",
      "type": "function"
    },
    {
      "inputs": [],
      "name": "getReserves",
      "outputs": [
        {
          "internalType": "uint256",
          "name": "gt",
          "type": "uint256"
        },
        {
          "internalType": "uint256",
          "name": "rt",
          "type": "uint256"
        },
        {
          "internalType": "uint256",
          "name": "currentK",
          "type": "uint256"
        }
      ],
      "stateMutability": "view",
      "type": "function"
    },
    {
      "inputs": [
        {
          "internalType": "address",
          "name": "user",
          "type": "address"
        }
      ],
      "name": "getUsedGTToday",
      "outputs": [
        {
          "internalType": "uint256",
          "name": "",
          "type": "uint256"
        }
      ],
      "stateMutability": "view",
      "type": "function"
    },
    {
      "inputs": [],
      "name": "greenToken",
      "outputs": [
        {
          "internalType": "contract IERC20",
          "name": "",
          "type": "address"
        }
      ],
      "stateMutability": "view",
      "type": "function"
    },
    {
      "inputs": [
        {
          "internalType": "uint256",
          "name": "gtAmount",
          "type": "uint256"
        },
        {
          "internalType": "uint256",
          "name": "rtAmount",
          "type": "uint256"
        }
      ],
      "name": "initialize",
      "outputs": [],
      "stateMutability": "nonpayable",
      "type": "function"
    },
    {
      "inputs": [],
      "name": "initialized",
      "outputs": [
        {
          "internalType": "bool",
          "name": "",
          "type": "bool"
        }
      ],
      "stateMutability": "view",
      "type": "function"
    },
    {
      "inputs": [],
      "name": "k",
      "outputs": [
        {
          "internalType": "uint256",
          "name": "",
          "type": "uint256"
        }
      ],
      "stateMutability": "view",
      "type": "function"
    },
    {
      "inputs": [],
      "name": "lastInjectTime",
      "outputs": [
        {
          "internalType": "uint256",
          "name": "",
          "type": "uint256"
        }
      ],
      "stateMutability": "view",
      "type": "function"
    },
    {
      "inputs": [],
      "name": "reserveGT",
      "outputs": [
        {
          "internalType": "uint256",
          "name": "",
          "type": "uint256"
        }
      ],
      "stateMutability": "view",
      "type": "function"
    },
    {
      "inputs": [],
      "name": "reserveRT",
      "outputs": [
        {
          "internalType": "uint256",
          "name": "",
          "type": "uint256"
        }
      ],
      "stateMutability": "view",
      "type": "function"
    },
    {
      "inputs": [],
      "name": "rewardToken",
      "outputs": [
        {
          "internalType": "contract IERC20",
          "name": "",
          "type": "address"
        }
      ],
      "stateMutability": "view",
      "type": "function"
    },
    {
      "inputs": [
        {
          "internalType": "address",
          "name": "newRecipient",
          "type": "address"
        }
      ],
      "name": "setFeeRecipient",
      "outputs": [],
      "stateMutability": "nonpayable",
      "type": "function"
    },
    {
      "inputs": [
        {
          "internalType": "uint256",
          "name": "gtIn",
          "type": "uint256"
        },
        {
          "internalType": "uint256",
          "name": "minRTOut",
          "type": "uint256"
        }
      ],
      "name": "swapGTforRT",
      "outputs": [
        {
          "internalType": "uint256",
          "name": "rtOut",
          "type": "uint256"
        }
      ],
      "stateMutability": "nonpayable",
      "type": "function"
    },
    {
      "inputs": [
        {
          "internalType": "uint256",
          "name": "rtIn",
          "type": "uint256"
        },
        {
          "internalType": "uint256",
          "name": "minGTOut",
          "type": "uint256"
        }
      ],
      "name": "swapRTforGT",
      "outputs": [
        {
          "internalType": "uint256",
          "name": "gtOut",
          "type": "uint256"
        }
      ],
      "stateMutability": "nonpayable",
      "type": "function"
    }
  ],
  "bytecode": "0x60806040523480156200001157600080fd5b50604051620018883803806200188883398101604081905262000034916200016d565b60017f9b779b17422d0df92223018b32b4d1fa46e071723d6817e2486d003becc55f00556001600160a01b0383166200008057604051632e30e85760e01b815260040160405180910390fd5b6001600160a01b038216620000a8576040516331bbb52b60e21b815260040160405180910390fd5b6001600160a01b038116620000d0576040516343a7785f60e11b815260040160405180910390fd5b816001600160a01b0316836001600160a01b031603620001035760405163034730c160e41b815260040160405180910390fd5b600380546001600160a01b039485166001600160a01b03199182161790915560048054938516938216939093179092556009805483163017905560058054919093169116179055620001b7565b80516001600160a01b03811681146200016857600080fd5b919050565b6000806000606084860312156200018357600080fd5b6200018e8462000150565b92506200019e6020850162000150565b9150620001ae6040850162000150565b90509250925092565b6116c180620001c76000396000f3fe608060405234801561001057600080fd5b50600436106101ef5760003560e01c80638b647f651161010f578063e30c2c34116100a2578063efadc5b211610071578063efadc5b214610437578063f614787b14610441578063f7c618c114610454578063fcc8d2361461046757600080fd5b8063e30c2c34146103eb578063e4a30116146103fe578063e74b981b14610411578063ea88704d1461042457600080fd5b8063b80882c5116100de578063b80882c514610379578063d99634a2146103c4578063e1f1c4a7146103d9578063e2e4f062146103e257600080fd5b80638b647f65146103825780639e94ccc814610395578063a66caa6d146103a8578063b4f40c61146103bb57600080fd5b806346904840116101875780636a68c3ba116101565780636a68c3ba146102f35780637e8611e21461032f5780637f79496c1461034257806380e23c6d1461037957600080fd5b806346904840146102bf5780635314b1d1146102d25780635ba111c9146102db5780636091ad4f146102eb57600080fd5b806311106ee2116101c357806311106ee21461026f578063158ef93e146102825780633b7c70de146102a65780633cf7979d146102af57600080fd5b80624e394e146101f457806302b32af5146102175780630684bec0146102425780630902f1ac1461024b575b600080fd5b61020468c328093e61ee40000081565b6040519081526020015b60405180910390f35b60035461022a906001600160a01b031681565b6040516001600160a01b03909116815260200161020e565b61020460075481565b6006546007546008546040805193845260208401929092529082015260600161020e565b61020461027d366004611508565b610477565b60095461029690600160a01b900460ff1681565b604051901515815260200161020e565b61020460065481565b61020468a2a15d09519be0000081565b60095461022a906001600160a01b031681565b61020460015481565b6102046802b5e3af16b188000081565b61020461058b565b61031a610301366004611538565b6002602052600090815260409020805460019091015482565b6040805192835260208301919091520161020e565b60055461022a906001600160a01b031681565b600654600754600054600854600154604080519586526020860194909452928401919091526060830152608082015260a00161020e565b610204610fa081565b610204610390366004611561565b610646565b6102046103a3366004611538565b6108a5565b6102046103b6366004611538565b610939565b61020460085481565b6103d76103d2366004611583565b610963565b005b61020461271081565b61020460005481565b6102046103f9366004611538565b610b5f565b6103d761040c366004611561565b610b99565b6103d761041f366004611538565b610e28565b610204610432366004611538565b610f2a565b6102046201518081565b61020461044f366004611561565b610f80565b60045461022a906001600160a01b031681565b6102046830ca024f987b90000081565b600954600090600160a01b900460ff166104a45760405163486aa30760e01b815260040160405180910390fd5b826000036104c55760405163990965c160e01b815260040160405180910390fd5b60008083156104db5750506006546007546104e4565b50506007546006545b8115806104ef575080155b1561050d576040516308d9b03560e31b815260040160405180910390fd5b600061051761058b565b90506000610527826127106115b2565b61053190886115c5565b905080610540612710866115c5565b61054a91906115dc565b61055484836115c5565b61055e91906115ef565b94508460000361058157604051631125efa160e21b815260040160405180910390fd5b5050505092915050565b600954600090600160a01b900460ff166105b85760405163486aa30760e01b815260040160405180910390fd5b6105cc68a2a15d09519be0000060506115c5565b6007546105da9060646115c5565b11156105e65750600a90565b6105fa68a2a15d09519be00000603c6115c5565b6007546106089060646115c5565b106106135750601e90565b61062768a2a15d09519be0000060286115c5565b6007546106359060646115c5565b106106405750604690565b50609690565b6000610650611232565b600954600160a01b900460ff1661067a5760405163486aa30760e01b815260040160405180910390fd5b8260000361069b5760405163990965c160e01b815260040160405180910390fd5b6106a6836000610477565b9050818110156106c95760405163428637bb60e11b815260040160405180910390fd5b60006106d361058b565b600480546040516323b872dd60e01b81529293506001600160a01b0316916323b872dd9161070791339130918a9101611611565b6020604051808303816000875af1158015610726573d6000803e3d6000fd5b505050506040513d601f19601f8201168201806040525081019061074a9190611635565b61076757604051637d79de5160e11b815260040160405180910390fd5b60035460405163a9059cbb60e01b8152336004820152602481018490526001600160a01b039091169063a9059cbb906044016020604051808303816000875af11580156107b8573d6000803e3d6000fd5b505050506040513d601f19601f820116820180604052508101906107dc9190611635565b6107f957604051631a5bed9560e21b815260040160405180910390fd5b836007600082825461080b91906115dc565b92505081905550816006600082825461082491906115b2565b909155505060075460065461083991906115c5565b6008556040805160008152602081018690529081018390526060810182905233907f176648f1f11cda284c124490086be42a926ddf0ae887ebe7b1d6b337d89427569060800160405180910390a25061089f600160008051602061166c83398151915255565b92915050565b6003546040516370a0823160e01b81526001600160a01b03838116600483015260009283929116906370a0823190602401602060405180830381865afa1580156108f3573d6000803e3d6000fd5b505050506040513d601f19601f820116820180604052508101906109179190611652565b9050612710610928610fa0836115c5565b61093291906115ef565b9392505050565b60008061094583610b5f565b90506000610952846108a5565b905080821015610932575092915050565b60055460405163e636d84b60e01b81523360048201526001600160a01b039091169063e636d84b90602401602060405180830381865afa1580156109ab573d6000803e3d6000fd5b505050506040513d601f19601f820116820180604052508101906109cf9190611635565b6109ec576040516347ca878b60e11b815260040160405180910390fd5b600954600160a01b900460ff16610a165760405163486aa30760e01b815260040160405180910390fd5b80600003610a375760405163ca73e6b760e01b815260040160405180910390fd5b68c328093e61ee40000081600054610a4f91906115dc565b1115610a6e57604051630e3b020d60e41b815260040160405180910390fd5b600480546040516323b872dd60e01b81526001600160a01b03909116916323b872dd91610aa19133913091879101611611565b6020604051808303816000875af1158015610ac0573d6000803e3d6000fd5b505050506040513d601f19601f82011682018060405250810190610ae49190611635565b610b015760405163140941dd60e11b815260040160405180910390fd5b80600080828254610b1291906115dc565b909155505060005460405133917f379e108bc7f7af047fc45c149ae80d8b58796af60bf720a6156cfc92e2a71db391610b5391858252602082015260400190565b60405180910390a25b50565b600080610b6b83610f2a565b90506802b5e3af16b18800008110610b865750600092915050565b610932816802b5e3af16b18800006115b2565b60055460405163e636d84b60e01b81523360048201526001600160a01b039091169063e636d84b90602401602060405180830381865afa158015610be1573d6000803e3d6000fd5b505050506040513d601f19601f82011682018060405250810190610c059190611635565b610c22576040516347ca878b60e11b815260040160405180910390fd5b600954600160a01b900460ff1615610c4d57604051637983c05160e01b815260040160405180910390fd5b81600003610c6e5760405163cf50d4bd60e01b815260040160405180910390fd5b80600003610c8f57604051633cf7888d60e01b815260040160405180910390fd5b6003546040516323b872dd60e01b81526001600160a01b03909116906323b872dd90610cc390339030908790600401611611565b6020604051808303816000875af1158015610ce2573d6000803e3d6000fd5b505050506040513d601f19601f82011682018060405250810190610d069190611635565b610d23576040516314a7044f60e01b815260040160405180910390fd5b600480546040516323b872dd60e01b81526001600160a01b03909116916323b872dd91610d569133913091879101611611565b6020604051808303816000875af1158015610d75573d6000803e3d6000fd5b505050506040513d601f19601f82011682018060405250810190610d999190611635565b610db657604051631efc259b60e31b815260040160405180910390fd5b60068290556007819055610dca81836115c5565b60088190556009805460ff60a01b1916600160a01b1790556040805184815260208101849052908101919091527f2432ac7d1a69edf7a84a587b57cbfba673d3513d85558394c1c81d327923a6899060600160405180910390a15050565b60055460405163e636d84b60e01b81523360048201526001600160a01b039091169063e636d84b90602401602060405180830381865afa158015610e70573d6000803e3d6000fd5b505050506040513d601f19601f82011682018060405250810190610e949190611635565b610eb1576040516347ca878b60e11b815260040160405180910390fd5b6001600160a01b038116610ed857604051630ed1b8b360e31b815260040160405180910390fd5b600980546001600160a01b038381166001600160a01b0319831681179093556040519116919082907faaebcf1bfa00580e41d966056b48521fa9f202645c86d4ddf28113e617c1b1d390600090a35050565b600080610f3561124e565b6001600160a01b0384166000908152600260205260409020549091508114610f605750600092915050565b50506001600160a01b031660009081526002602052604090206001015490565b6000610f8a611232565b600954600160a01b900460ff16610fb45760405163486aa30760e01b815260040160405180910390fd5b82600003610fd55760405163990965c160e01b815260040160405180910390fd5b610fdd611262565b6000610fe93385611425565b90508084111561101a5760405163d1d29c5360e01b8152600481018590526024810182905260440160405180910390fd5b611025846001610477565b9150828210156110485760405163428637bb60e11b815260040160405180910390fd5b600061105261058b565b6003546040516323b872dd60e01b81529192506001600160a01b0316906323b872dd9061108790339030908a90600401611611565b6020604051808303816000875af11580156110a6573d6000803e3d6000fd5b505050506040513d601f19601f820116820180604052508101906110ca9190611635565b6110e7576040516314a0605d60e31b815260040160405180910390fd5b6004805460405163a9059cbb60e01b81523392810192909252602482018590526001600160a01b03169063a9059cbb906044016020604051808303816000875af1158015611139573d6000803e3d6000fd5b505050506040513d601f19601f8201168201806040525081019061115d9190611635565b6111795760405162a5861d60e31b815260040160405180910390fd5b846006600082825461118b91906115dc565b9250508190555082600760008282546111a491906115b2565b90915550506007546006546111b991906115c5565b6008556111c63386611447565b6111ce611262565b6040805160018152602081018790529081018490526060810182905233907f176648f1f11cda284c124490086be42a926ddf0ae887ebe7b1d6b337d89427569060800160405180910390a2505061089f600160008051602061166c83398151915255565b61123a6114c8565b600260008051602061166c83398151915255565b600061125d62015180426115ef565b905090565b600061271061127c610fa068a2a15d09519be000006115c5565b61128691906115ef565b905080600754106112945750565b600154156112bf576000620151806001546112af91906115dc565b9050804210156112bd575050565b505b600054600003611307577f13f1bc4129f202b02d9e046860b624559d2706c59d4dbea155405818a49862c36000546040516112fc91815260200190565b60405180910390a150565b600060075468a2a15d09519be0000061132091906115b2565b90506000816000541015611337575060005461133a565b50805b8060008082825461134b91906115b2565b92505081905550806007600082825461136491906115dc565b90915550504260015560075460065461137d91906115c5565b6008819055600754600054604080518581526020810193909352820152606081019190915233907fb17a3514dfd2b9387260e144dd42b10ac29cc9ad6e816e3e6dde6ea4e49a9bca9060800160405180910390a26830ca024f987b9000006000541015611420577f13f1bc4129f202b02d9e046860b624559d2706c59d4dbea155405818a49862c360005460405161141791815260200190565b60405180910390a15b505050565b60008061143184610939565b9050828082101561143f5750805b949350505050565b600061145161124e565b6001600160a01b0384166000908152600260205260409020549091508114611493576001600160a01b0383166000908152600260205260408120828155600101555b6001600160a01b038316600090815260026020526040812060010180548492906114be9084906115dc565b9091555050505050565b60008051602061166c833981519152546002036114f857604051633ee5aeb560e01b815260040160405180910390fd5b565b8015158114610b5c57600080fd5b6000806040838503121561151b57600080fd5b82359150602083013561152d816114fa565b809150509250929050565b60006020828403121561154a57600080fd5b81356001600160a01b038116811461093257600080fd5b6000806040838503121561157457600080fd5b50508035926020909101359150565b60006020828403121561159557600080fd5b5035919050565b634e487b7160e01b600052601160045260246000fd5b8181038181111561089f5761089f61159c565b808202811582820484141761089f5761089f61159c565b8082018082111561089f5761089f61159c565b60008261160c57634e487b7160e01b600052601260045260246000fd5b500490565b6001600160a01b039384168152919092166020820152604081019190915260600190565b60006020828403121561164757600080fd5b8151610932816114fa565b60006020828403121561166457600080fd5b505191905056fe9b779b17422d0df92223018b32b4d1fa46e071723d6817e2486d003becc55f00a2646970667358221220d8448660724c909767515da551fed0ef9666ee7b8088765102a3792721fb8a7a64736f6c63430008140033",
  "linkReferences": {},
  "deployedLinkReferences": {}
}